:020000040000FA
:100000000C941B040C944C040C944C040C944C0461
:100010000C944C040C944C040C944C040C944C0420
:100020000C944C040C944C040C944C040C944C0410
:100030000C944C040C944C040C944C040C944C0400
:100040000C944C040C944C040C944C040C944C04F0
:100050000C944C040C944C040C944C040C945B1ABB
:100060000C944C040C94251A0C94FB190C944C041D
:100070000C944C040C944C040C944C040C944C04C0
:100080000C944C040C944C040C944C040C944C04B0
:100090000C944C040C944C040C944C040C94A51A31
:1000A0000C944C040C944C040C944C040C944C0490
:1000B0000C944C040C944C040C944C040C944C0480
:1000C0000C944C040C944C040C944C040C944C0470
:1000D0000C944C040C944C040C944C040C944C0460
:1000E0000C944C040C94C8100C94F60F0C94C10C96
:1000F0000C944E040C94C5050C94AC040C941B0891
:100100000C94E4040C94E5050C94E5140C94C905D6
:100110000C949E040C947B040C94C51B0C94E20A72
:100120000C94A6050C9491150C94AE050C94CD0579
:100130000C94BB050C94D3050C948A040C94BF0951
:100140000C9431050C9452120C94BF050C94E005EC
:100150000C94AE090C94BD0B0C94B5050C94BA0725
:100160000C94D0180C94380C0C94300A0C94DB05C9
:100170000C946A130C94A6150C94A0050C94D70546
:100180000C94B2050C94AA050C94220B0C949215B5
:100190000C942E0C0C94A10A0C94E2130C948B0B6F
:1001A0000C94E10500000000003E5B4F5B3E3E6B9F
:1001B0004F6B3E1C3E7C3E1C183C7E3C181C577D01
:1001C000571C1C5E7F5E1C00183C1800FFE7C3E74D
:1001D000FF0018241800FFE7DBE7FF30483A060E5F
:1001E0002629792926407F050507407F05253F5AA6
:1001F0003CE73C5A7F3E1C1C08081C1C3E7F142216
:100200007F22145F5F005F5F06097F017F006689C0
:10021000956A606060606094A2FFA29408047E0406
:100220000810207E201008082A1C08081C2A08082C
:100230001E101010100C1E0C1E0C30383E383006EC
:100240000E3E0E06000000000000005F00000007E8
:10025000000700147F147F14242A7F2A1223130816
:10026000646236495620500008070300001C2241F2
:10027000000041221C002A1C7F1C2A08083E080896
:100280000080703000080808080800006060002046
:10029000100804023E5149453E00427F4000724929
:1002A0004949462141494D331814127F10274545CD
:1002B00045393C4A494931412111090736494949E3
:1002C00036464949291E0000140000004034000051
:1002D00000081422411414141414004122140802BA
:1002E000015909063E415D594E7C1211127C7F492D
:1002F0004949363E414141227F4141413E7F494982
:1003000049417F090909013E414151737F080808AD
:100310007F00417F41002040413F017F081422417E
:100320007F404040407F021C027F7F0408107F3ED8
:100330004141413E7F090909063E4151215E7F0945
:10034000192946264949493203017F01033F4040AC
:10035000403F1F2040201F3F4038403F6314081497
:100360006303047804036159494D43007F414141CF
:100370000204081020004141417F040201020440B0
:1003800040404040000307080020545478407F2834
:100390004444383844444428384444287F3854542A
:1003A000541800087E090218A4A49C787F0804044D
:1003B0007800447D40002040403D007F10284400EC
:1003C00000417F40007C047804787C08040478387D
:1003D00044444438FC1824241818242418FC7C08AD
:1003E000040408485454542404043F44243C40402A
:1003F000207C1C2040201C3C4030403C44281028DD
:10040000444C9090907C4464544C44000836410025
:100410000000770000004136080002010204023C9F
:100420002623263C1EA1A161123A4040207A38546E
:1004300054555921555579412254547842215554E7
:10044000784020545579400C1E527212395555553A
:1004500059395454545939555454580000457C4125
:100460000002457D420001457C407D1211127DF065
:10047000282528F07C545545002054547C547C0A8F
:10048000097F4932494949323A4444443A324A4858
:1004900048303A4141217A3A42402078009DA0A05C
:1004A0007D3D4242423D3D4040403D3C24FF2424AE
:1004B000487E4943662B2FFC2F2BFF0929F620C0CD
:1004C000887E090320545479410000447D4130481E
:1004D000484A32384040227A007A0A0A727D0D1961
:1004E000317D2629292F28262929292630484D40C3
:1004F00020380808080808080808382F10C8ACBABF
:100500002F102834FA00007B000008142A1422223D
:10051000142A14085500550055AA55AA55AAFF5586
:10052000FF55FF000000FF00101010FF001414140E
:10053000FF001010FF00FF1010F010F0141414FC56
:10054000001414F700FF0000FF00FF1414F404FC73
:10055000141417101F10101F101F1414141F001054
:100560001010F0000000001F101010101F101010CD
:1005700010F010000000FF101010101010101010DC
:10058000FF10000000FF140000FF00FF00001F101C
:10059000170000FC04F414141710171414F404F4D6
:1005A0000000FF00F714141414141414F700F714C7
:1005B0001414171410101F101F141414F414101016
:1005C000F010F000001F101F0000001F14000000BA
:1005D000FC140000F010F01010FF10FF141414FFB2
:1005E000141010101F00000000F010FFFFFFFFFFAD
:1005F000F0F0F0F0F0FFFFFF0000000000FFFF0F41
:100600000F0F0F0F3844443844FC4A4A4A347E02E4
:10061000020606027E027E02635549416338444465
:100620003C04407E201E2006027E020299A5E7A51A
:10063000991C2A492A1C4C7201724C304A4D4D308B
:100640003048784830BC625A463D3E494949007EB0
:100650000101017E2A2A2A2A2A44445F4444405147
:100660004A444040444A51400000FF0103E080FFFB
:10067000000008086B6B083612362436060F090F87
:1006800006000018180000001010003040FF0101A3
:10069000001F01011E00191D1712003C3C3C3C00CC
:1006A00000000000EF03038002CF0300C130ED041F
:1006B00064031281E803850078CB05392C003402ED
:1006C000F70120EA020000C00123C10110C5023E6B
:1006D00028C701863601483701003A0155B10200AA
:1006E00018B603088227F20100260101E00F0F313E
:1006F0002B0C0E084EF1370710030E0900E10F0016
:100700000E1403110731C148080F0C31360F118048
:1007100029800000002100240027002A002D00303D
:1007200000330001010000040107010A010000205C
:10073000002300260029002C002F003200000100B9
:100740000003010601090100000A0B02090C0D0E4D
:100750000807030401000000000000000000000082
:100760000000000000000000000000000000000089
:100770000000001211100000000000000000000046
:100780000000000000000000000000000001021056
:10079000202008081020401020408002010201089B
:1007A000040201010204081020408080402010084B
:1007B00004020180040201804020100804020108A4
:1007C0000402010102040810204080010204081004
:1007D00020408000002200250028002B002E003140
:1007E00000340002010000050108010B01050505A8
:1007F00005070508080808020202020A0A08080498
:1008000004040401010101010101010303030303C5
:10081000030303040707070C0C0C0C0C0C0C0C0254
:1008200002020206060606060606060B0B0B0B0B5B
:100830000B0B0B00C51B11241FBECFEFD1E2DEBF97
:10084000CDBF00E00CBF12E0A0E0B2E0E6E6FFE3BF
:1008500000E00BBF02C007900D92AA38B107D9F78C
:1008600024E0AAE8B2E001C01D92A637B207E1F782
:1008700014E0CBE1D4E000E006C021970109802F0D
:10088000FE010E94551FCA31D10780E00807A9F771
:100890000E94EF1C0C94B11F0C940000AF92BF9209
:1008A000CF92DF92EF92FF920F931F93CF93DF933C
:1008B0006C017B018B01040F151FEB015E01AE186B
:1008C000BF08C017D10759F06991D601ED91FC918D
:1008D0000190F081E02DC6011995892B79F7C501AA
:1008E000DF91CF911F910F91FF90EF90DF90CF900C
:1008F000BF90AF900895FC01538D448D252F30E0BB
:10090000842F90E0821B930B541710F0CF9608951C
:1009100001970895FC01918D828D981761F0A28D49
:10092000AE0FBF2FB11D5D968C91928D9F5F9F730F
:10093000928F90E008958FEF9FEF0895FC01918DC5
:10094000828D981731F0828DE80FF11D858D90E032
:1009500008958FEF9FEF0895FC01918D228D892FCF
:1009600090E0805C9F4F821B91098F7399270895B7
:1009700087E093E00E94AC0421E0892B09F420E099
:10098000822F0895FC01A48DA80FB92FB11DA35A81
:10099000BF4F2C91848D90E001968F739927848F9F
:1009A000A689B7892C93A089B1898C9183708064C2
:1009B0008C93938D848D981306C00288F389E02D63
:1009C00080818F7D80830895EF92FF920F931F9314
:1009D000CF93DF93EC0181E0888F9B8D8C8D9813F2
:1009E0001AC0E889F989808185FF15C09FB7F894FE
:1009F000EE89FF896083E889F9898081837080644A
:100A000080839FBF81E090E0DF91CF911F910F9194
:100A1000FF90EF900895F62E0B8D10E00F5F1F4FA3
:100A20000F731127E02E8C8D8E110CC00FB607FCB2
:100A3000FACFE889F989808185FFF5CFCE010E9440
:100A4000C204F1CFEB8DEC0FFD2FF11DE35AFF4FE8
:100A5000F0829FB7F8940B8FEA89FB8980818062CE
:100A6000CFCFCF93DF93EC01888D8823B9F0AA898B
:100A7000BB89E889F9898C9185FD03C0808186FD59
:100A80000DC00FB607FCF7CF8C9185FFF2CF8081A8
:100A900085FFEDCFCE010E94C204E9CFDF91CF9157
:100AA000089580E090E0892B29F00E94B80481111C
:100AB0000E94000080E090E0892B49F080E090E007
:100AC000892B29F00E94000081110E94000080E023
:100AD00090E0892B49F080E090E0892B29F00E947A
:100AE000000081110E94000080E090E0892B49F015
:100AF00080E090E0892B29F00E94000081110C9485
:100B0000000008958150823108F05AC0E82FF0E0CB
:100B10008827E257FA4F8F4F0C94551FAE05B20548
:100B2000A005A605AA05E005B505BB05BF05C505D9
:100B3000C905CD05D305D705E005DB05E105E505CC
:100B4000809180008F77809380000895809180004D
:100B50008F7DF9CF80918000877FF5CF84B58F7727
:100B600084BD089584B58F7DFBCF8091B0008F77D1
:100B70008093B00008958091B0008F7DF9CF80916F
:100B800090008F77809390000895809190008F7DE2
:100B9000F9CF80919000877FF5CF8091A0008F776B
:100BA0008093A00008958091A0008F7DF9CF80915F
:100BB000A000877FF5CF809120018F77809320015F
:100BC0000895809120018F7DF9CF80912001877F4A
:100BD000F5CFCF93DF93282F30E0F901E95BF84F91
:100BE0008491F901E357F84FD491F901E351F84F9B
:100BF000C491CC23A1F081110E948205EC2FF0E07A
:100C0000EE0FFF1FE35DF84FA591B491EC91ED233A
:100C100081E090E009F480E0DF91CF91089580E0D9
:100C200090E0FACF1F93CF93DF93282F30E0F901A4
:100C3000E95BF84F8491F901E357F84FD491F9013A
:100C4000E351F84FC491CC23A9F0162F81110E94D3
:100C50008205EC2FF0E0EE0FFF1FED52F84FA5914B
:100C6000B4918FB7F894EC91111108C0D095DE23A0
:100C7000DC938FBFDF91CF911F910895DE2BF8CFCA
:100C8000CF93DF9390E0FC01E357F84F2491835119
:100C9000984FFC0184918823D1F090E0880F991F30
:100CA000FC01ED5EF84FA591B491FC01ED52F84FB7
:100CB000C591D49161110EC09FB7F8948C91E22F29
:100CC000E0958E238C932881E223E8839FBFDF91F8
:100CD000CF9108958FB7F894EC91E22BEC938FBFEE
:100CE000F6CF3FB7F8948091010390910203A09151
:100CF0000303B091040326B5A89B05C02F3F19F04C
:100D00000196A11DB11D3FBFBA2FA92F982F88278B
:100D1000BC01CD01620F711D811D911D42E0660F66
:100D2000771F881F991F4A95D1F708958F929F9238
:100D3000AF92BF92CF92DF92EF92FF924B015C0194
:100D40000E9471066B017C010E9471066C197D097D
:100D50008E099F09683E734081059105A8F321E043
:100D6000821A9108A108B10888EEC80E83E0D81E47
:100D7000E11CF11C81149104A104B10429F7FF9036
:100D8000EF90DF90CF90BF90AF909F908F9008959D
:100D90002FB7F8946091FD027091FE028091FF02DE
:100DA000909100032FBF08952091B202260F3327A0
:100DB000331F21323105ECF42091D602FC0190E082
:100DC00080E0243069F082E00895A091B202219180
:100DD000AC014E565D4FA40FB52FB11D2C9301965B
:100DE000861798F38091B202680F6093B20280E098
:100DF000089581E0089508958FEF9FEF08958FEF94
:100E00009FEF089580918B0290E0919581959109D3
:100E10000895CF93DF93CB01EA01642F0E94D4069B
:100E2000CE01DF91CF910895CF93DF931F92CDB77D
:100E3000DEB7698361E0CE0101960E94D40681E0AD
:100E400090E00F90DF91CF910895FC01A5A1B6A18C
:100E50008C9192A589238C93A5A1B6A18C9191A583
:100E6000892B8C9308950F931F93CF93DF93EC01FD
:100E70008B018DA981110DC01EBD0DB407FEFDCFE4
:100E80000EBD0DB407FEFDCFDF91CF911F910F91E5
:100E900008958130E9F480E1E9A1FAA1908117FF7A
:100EA00014C02DA1922B9083EBA1FCA190812FA1C6
:100EB000922B9083EBA1FCA1908128A59223908393
:100EC000000F111F815041F7DFCF2EA19223EBCFEE
:100ED000EF8DF8A11083CE010E942507EF8DF8A1B8
:100EE0000083CE01DF91CF911F910F910C942507C4
:100EF000FC0185A9811105C06EBD0DB407FEFDCFB3
:100F000008958130E1F488E0A1A1B2A19C9167FF2E
:100F100013C025A1922B9C93A3A1B4A19C9127A1BE
:100F2000922B9C93660FA3A1B4A19C9120A5922320
:100F30009C93815049F7089526A19223ECCFA78D69
:100F4000B0A16C93CF010C942507CF93DF93EC01F4
:100F5000ED8DFE8D80819CA989238083CE010E9426
:100F60007807ED8DFE8D80819BA9892B8083DF9191
:100F7000CF910895AF92BF92CF92DF92EF92FF92FE
:100F80000F931F93CF93DF93EC015B016A01215014
:100F900031097901E60EF71E01501109040F151FE2
:100FA0006AE20E94A507B501CE010E943307B7018E
:100FB000CE010E9433076BE2CE010E94A507B60165
:100FC000CE010E943307B801CE010E9433076CE2C4
:100FD000CE01DF91CF911F910F91FF90EF90DF90A5
:100FE000CF90BF90AF900C94A507FC0185A981110B
:100FF00004C091A182A19CBD8DBD08951F93CF9384
:10100000DF93EC01162FE881F9810284F385E02D4E
:101010001995112371F06DADCE010E94A507E881ED
:10102000F9810688F789E02DCE01DF91CF911F91DC
:1010300019946EADF1CFAF92BF92CF92DF92EF9243
:10104000FF920F931F93CF93DF93EC0177FD38C08E
:1010500088859985681779079CF557FD31C08A8581
:101060009B854817590764F569017A015B01E8819E
:10107000F9810284F385E02DCE011995E881F9818B
:1010800002A4F3A5E02D01E010E021E030E0A7018B
:10109000B501CE011995B601CE010E943307E88152
:1010A000F9810688F789E02DCE01DF91CF911F915C
:1010B0000F91FF90EF90DF90CF90BF90AF90199479
:1010C000DF91CF911F910F91FF90EF90DF90CF9024
:1010D000BF90AF9008958F929F92AF92BF92CF92A0
:1010E000DF92EF92FF920F931F93CF93DF93EC0168
:1010F00049015701E881F98102A4F3A5E02D199572
:101100009401D8010E945D1F6B017C01C114D104C0
:10111000E104F10409F490C08DA9811115C081E0AA
:10112000C81AD108E108F1088FEFC816D806E806FA
:10113000F80609F481C0BEBC0DB407FEFDCFAEBCFD
:101140000DB407FEFDCFEBCF813009F045C081E043
:10115000C81AD108E108F1088FEFC816D806E806CA
:10116000F80609F469C09B2D88E0E9A1FAA1208165
:1011700097FF2CC03DA1232B2083EBA1FCA1208154
:101180003FA1232B2083EBA1FCA1208138A52323A1
:101190002083990F815049F79A2D88E0E9A1FAA19F
:1011A000208197FF16C03DA1232B2083EBA1FCA13A
:1011B00020813FA1232B2083EBA1FCA1208138A516
:1011C00023232083990F815049F7C1CF3EA12323C8
:1011D000D3CF3EA12323E9CFBA1016C0CC0CDD1C1F
:1011E000EE1CFF1CEF8DF8A1B08281E0C81AD10877
:1011F000E108F1088FEFC816D806E806F806E1F016
:10120000CE010E942507F1CF81E0C81AD108E1087C
:10121000F1088FEFC816D806E806F80669F0EF8DDA
:10122000F8A1B082CE010E942507EF8DF8A1A0821F
:10123000CE010E942507E8CFDF91CF911F910F913A
:10124000FF90EF90DF90CF90BF90AF909F908F90E6
:1012500008958F929F92AF92BF92CF92DF92EF92BA
:10126000FF920F931F93CF93DF934C01EB016A0121
:10127000590137FF07C0C9010196C80FD91FB194A2
:10128000A194B108F401A085B185CA17DB070CF061
:1012900058C017FF07C0C8010196C80ED91E119586
:1012A00001951109F40182859385C816D9060CF0C1
:1012B00048C0FE01EA0DFB1DAF014150510957FD29
:1012C00040C0B601600F711F9B012150310937FDED
:1012D00038C0D7FF03C05F01D0E0C0E0D7FE03C035
:1012E0008B01D12CC12C4A175B071CF05D01AC1A95
:1012F000BD0A281739071CF08C010C191D09D401EF
:10130000ED91FC910284F385E02DC40119959501BE
:10131000A601BE01C4010E946B08D401ED91FC91AD
:101320000688F789E02DC401DF91CF911F910F91BD
:10133000FF90EF90DF90CF90BF90AF909F908F90F5
:101340001994DF91CF911F910F91FF90EF90DF9053
:10135000CF90BF90AF909F908F900895EF92FF92A3
:101360000F931F932115310529F00115110511F077
:101370000E9429091F910F91FF90EF9008958F927D
:101380009F92AF92BF92CF92DF92EF92FF920F9314
:101390001F93CF93DF935C014B016A01E90177FD55
:1013A00052C0DC0118968D919C91681779070CF05A
:1013B0004AC0209709F447C037FF07C0C90101960A
:1013C000C80ED91ED195C195D109F50182859385A5
:1013D000C816D906C4F5A6014C0F5D1F9A0121500D
:1013E000310937FD30C0D7FE03C0EA01D12CC12C32
:1013F000281739071CF0EC01CC19DD09D501ED9156
:10140000FC910284F385E02DC501199578018E01C8
:1014100021E030E0A601B401C5010E946B08D501AE
:10142000ED91FC910688F789E02DC501DF91CF9100
:101430001F910F91FF90EF90DF90CF90BF90AF90F2
:101440009F908F901994DF91CF911F910F91FF90F2
:10145000EF90DF90CF90BF90AF909F908F900895C6
:101460008F929F92AF92BF92CF92DF92EF92FF92B4
:101470000F931F93CF93DF935C016B014A01E90146
:1014800057FD52C0DC011A968D919C91481759075F
:101490000CF04AC0209709F447C037FF07C0C901C4
:1014A0000196C80ED91ED195C195D109F501808547
:1014B0009185C816D906C4F5A6014C0F5D1F9A0187
:1014C0002150310937FD30C0D7FE03C0EA01D12CCD
:1014D000C12C281739071CF0EC01CC19DD09D50106
:1014E000ED91FC910284F385E02DC50119957801F9
:1014F00001E010E09E01A401B601C5010E946B0845
:10150000D501ED91FC910688F789E02DC501DF91A9
:10151000CF911F910F91FF90EF90DF90CF90BF90F0
:10152000AF909F908F901994DF91CF911F910F9161
:10153000FF90EF90DF90CF90BF90AF909F908F90F3
:101540000895EF92FF920F931F93CF93DF9377FD50
:1015500032C0DC011896ED91FC916E177F075CF5A7
:101560002115310541F137FF07C0F90131964E0FC2
:101570005F1F319521953109DC011A96ED91FC919F
:101580004E175F07C4F4EA01C20FD31FDE011197A3
:10159000B7FD11C057FF03C09E0150E040E0AE17F9
:1015A000BF071CF09F01241B350B7801890121E046
:1015B00030E00E946B08DF91CF911F910F91FF9057
:1015C000EF900895EF92FF920F931F93CF93DF93C5
:1015D00057FD31C0DC011A96ED91FC914E175F0763
:1015E00054F52115310539F137FF07C0F90131965E
:1015F0006E0F7F1F319521953109DC011896ED9111
:10160000FC916E177F07BCF4EB01C20FD31FDE0104
:101610001197B7FD10C077FF03C09E0170E060E036
:10162000AE17BF071CF09F01261B370B780101E0A6
:1016300010E00E946B08DF91CF911F910F91FF90F6
:10164000EF9008958F929F92AF92BF92CF92DF92C8
:10165000EF92FF920F931F93CF93DF9347012115D2
:10166000310509F44BC00115110509F447C037FFD6
:1016700007C0F90131966E0F7F1F31952195310911
:10168000DC011896AD90BC906A157B05BCF517FF80
:1016900007C0F80131964E0F5F1F11950195110992
:1016A000DC011A96ED91FC914E175F073CF56B013A
:1016B000C20ED31EE6012197D7FD20C07A01E00EAD
:1016C000F11ED7011197B7FD19C077FF03C096012E
:1016D00070E060E057FF03C0870150E040E0CA15AA
:1016E000DB051CF09501261B370BAE17BF071CF05E
:1016F0008F01041B150B74010E946B08DF91CF91C1
:101700001F910F91FF90EF90DF90CF90BF90AF901F
:101710009F908F900895EF92FF920F931F93CF9316
:10172000DF93EC0177FD22C08885998568177907DA
:10173000ECF457FD1BC08A859B8548175907B4F404
:101740007901E881F98102A4F3A5E02D01E010E020
:1017500021E030E0CE011995B701CE01DF91CF91A4
:101760001F910F91FF90EF900C943307DF91CF9171
:101770001F910F91FF90EF900895CF93DF93EC01AD
:101780000E94F5078FA987FD06C0EB8DFC8D808137
:101790009AA989238083DF91CF9108950895AF920C
:1017A000BF92CF92DF92EF92FF920F931F93CF934E
:1017B000DF93EC01E62E8A01A22E0E94F5078FA985
:1017C00087FD06C0EB8DFC8D80819AA989238083DB
:1017D000ED8DFE8D80819CA9892380836E2DCE01A5
:1017E0000E947807ED8DFE8D80819BA9892B8083D7
:1017F000D12CC12CB12CCA14DB04E4F48DA97801DE
:10180000823079F488A9882361F0F801619171919F
:101810007F01CE010E943307FFEFCF1ADF0A870155
:10182000EACFFFEFEF1AFF0AF8016491CE010E94A0
:101830007807F2CF8FA987FD06C0EB8DFC8D8081E4
:1018400099A9892B8083DF91CF911F910F91FF90F0
:10185000EF90DF90CF90BF90AF900895611106C0D8
:1018600060E220E050E040E00C94CF0B61E2F9CF61
:101870000F931F93CF93DF931F92CDB7DEB78C01E9
:101880006370DC0156966C935697623009F468C019
:10189000633009F46AC0613009F456C088E4898372
:1018A00080EF90E019969C938E93189780E491E0D6
:1018B0001B969C938E931A97C8010E94F507D80136
:1018C000D7968C91D79787FD09C05B96ED91FC91D7
:1018D0005C978081D2969C9189238083D8015D9604
:1018E000ED91FC915E978081D4969C9189238083B1
:1018F00066E3C8010E947807D8015D96ED91FC91DE
:101900005E978081D3969C91D397892B8083D596BF
:101910008C91823061F16981C8010E947807D801F9
:10192000D7968C91D79787FD09C05B96ED91FC9176
:101930005C978081D1969C91892B80830F90DF9159
:10194000CF911F910F91089588E2898380E491E0FF
:10195000F8019187808780EF90E093878287ACCFF2
:1019600088E8898380EF90E09DCF88EEEECFF80184
:1019700080A9882381F269817A81C8010E94330796
:10198000CECFFC0187A987FD06C0A38DB48D9C91A5
:1019900081A9892B8C9308952F923F924F925F9249
:1019A0006F927F928F929F92AF92BF92CF92DF926F
:1019B000EF92FF920F931F93CF93DF9300D000D04D
:1019C000CDB7DEB76C017B015E834D83890181E079
:1019D00090E03C01641A750ACA01919581959109BC
:1019E0009C01220F331F3C832B8383E394E00E94EE
:1019F000BD0B4D815E814E0D5F1D9801B60183E3E5
:101A000094E00E948B0BA7018D819E81481B590B8E
:101A10009801B60183E394E00E948B0B6D817E8177
:101A20006C0D7D1D9801A70183E394E00E948B0B50
:101A3000B6012D813E81621B730B9801A70183E3E0
:101A400094E00E948B0B81E090E09A838983B12C13
:101A5000A12C77FC0DC02D813E81215031093E83A0
:101A60002D838B819C8102969C838B83680E791ECB
:101A70009FEFA91AB90A29813A812E5F3F4F3A8315
:101A80002983620E731E25014C0C5D1C98018D800C
:101A90009E808E0C9F1CA401B20183E394E00E94FF
:101AA0008B0B16012A183B089801A401B10183E3AE
:101AB00094E00E948B0B980147018D819E81881ACA
:101AC000990AA401B20183E394E00E948B0B980170
:101AD000A401B10183E394E00E948B0B45018E0CBD
:101AE0009F1C9801A4014D805E804C0C5D1CB201CE
:101AF00083E394E00E948B0B9801A40116018D8171
:101B00009E81281A390AB10183E394E00E948B0B6D
:101B100047018A189B089801A401B20183E394E06D
:101B20000E948B0B9801A401B10183E394E00E9411
:101B30008B0B2D813E81A216B3060CF48ACF83E372
:101B400094E026960FB6F894DEBF0FBECDBFDF91AE
:101B5000CF911F910F91FF90EF90DF90CF90BF90AA
:101B6000AF909F908F907F906F905F904F903F903D
:101B70002F900C94C10C0895FC016370668B8481D6
:101B8000958126813781613039F0633029F0918762
:101B900080873387228708953187208793878287BC
:101BA00008952F923F924F925F926F927F928F9201
:101BB0009F92AF92BF92CF92DF92EF92FF920F93DC
:101BC0001F93CF93DF93CDB7DEB76A970FB6F89424
:101BD000DEBF0FBECDBF9A8F898F7A8369834A019A
:101BE000D22E18870F833701BC2CDC0159962D911A
:101BF0003C915A972115310509F015C118968D9120
:101C00009C911997681779070CF0D7C11A968D9196
:101C10009C91481759070CF0D0C14C2C512CB6E0C0
:101C2000CB9E600D711D11247C876B8716161706DD
:101C30000CF0C3C1EA2DF0E0FA87E98793E0EE0FDC
:101C4000FF1F9A95E1F7F88BEF87CF01840F951F5F
:101C5000181619060CF0B1C1A98DBA8D58968C9141
:101C6000811104C0BFEABD1508F4D394A98DBA8DC3
:101C7000ED91FC9111970284F385E02DCD0119952A
:101C8000B5E0DB9EC0011124E981FA81FC83EB837E
:101C9000312C212C9C012C553E4F388F2F8B4A2DF7
:101CA00050E05E8B4D8BEF89F88DE20DF31D449172
:101CB0009E828D82D12CC12C69817A81620D731D27
:101CC0007A8B698B842F90E09C8B8B8BE98DFA8DBE
:101CD000A081B18140FF82C0F1E0BF126FC0AF129E
:101CE0006DC01C96ED91FC912F813885A4014C0D9F
:101CF0005D1D69897A89898D9A8D1995EB89FC8991
:101D0000F595E7954E2F5FEFC51AD50A6D817E8157
:101D10008D899E89680F791F7E836D8398E0C9162F
:101D2000D10481F6AFEF2A1A3A0AEB81FC81E40D67
:101D3000F51DFC83EB83F5E02F16310409F0B3CFDA
:101D40002F81388526153705B9F0A98DBA8DED910B
:101D5000FC91B1E0BB1257C0AB1255C069817A81CA
:101D60006B5F7F4F0088F189E02D830128E030E030
:101D7000A401898D9A8D1995A98DBA8DED91FC914B
:101D800011970688F789E02DCD016A960FB6F89471
:101D9000DEBF0FBECDBFDF91CF911F910F91FF909E
:101DA000EF90DF90CF90BF90AF909F908F907F90FB
:101DB0006F905F904F903F902F9019941E96ED91E9
:101DC000FC91EF80F88409851A8592014D815E812E
:101DD0006B817C81898D9A8D199590CF2F81388563
:101DE0002615370509F48ACF31E0B31207C0A312D4
:101DF00005C01C96ED91FC91930178CF1E96ED9154
:101E0000FC917301E0CF6B857C85641975090684AC
:101E1000F785E02D73010F8518899201A401898D42
:101E20009A8D1995A9CFF9013496949132974591DD
:101E30005491D91AB7E0DB9E400D511D1124F901D0
:101E4000259134913C8B2B8BFA0125903490FA012B
:101E50003296749031963491398B329664903196E3
:101E6000449041E04C1518F04A1508F07FC0662DEB
:101E7000062C000C770B7C836B83842D042C000CC8
:101E8000990B9E838D83A98DBA8DED91FC9111974D
:101E90000284F385E02DCD011995512CD12CC12C54
:101EA000EA2DF0E0FA87E9872B2D30E03C872B877D
:101EB000A401440D511D47FC5A95588F4F8B6981E1
:101EC0007A81660D711D67FC7A957E876D877989A9
:101ED000C71608F051CF2C2D30E04D815E81420FA6
:101EE000531FA985BA854A9FC0014B9F900D5A9FE9
:101EF000900D1124FC01E80DF91DF88BEF87852D5D
:101F0000612C4F89588D420F531F5E8B4D8B671488
:101F100008F050C044244394480E877041F4C10136
:101F20000196EB89FC89E20DF31DD4901C01D7FECC
:101F300019C0A98DBA8DED91FC91662D70E0B1E0CC
:101F4000BB1219C0AB1217C02D853E85620F731FDF
:101F50000484F585E02D2F8138854D895E89898D32
:101F60009A8D1995DD0C6394842DD1CF1E821D822C
:101F70001C821B8288CF4B815C81640F751FAB85EF
:101F8000BC856A9FC0016B9F900D7A9F900D1124B4
:101F900069817A81680F791F0684F785E02DEF80CB
:101FA000F88409851A859D014F855889898D9A8DF8
:101FB0001995D8CF570CC3948ACF6A960FB6F89468
:101FC000DEBF0FBECDBFDF91CF911F910F91FF906C
:101FD000EF90DF90CF90BF90AF909F908F907F90C9
:101FE0006F905F904F903F902F9008958F929F92A7
:101FF000AF92CF92EF92FF920F931F93CF93DF9305
:10200000EC01262F898D9A8D009709F051C06A3016
:10201000D1F41D861C868D8948E0849F900111248F
:102020008E859F85820F931F9F878E8781E090E02A
:10203000DF91CF911F910F91FF90EF90CF90AF90D4
:102040009F908F9008956D3089F3CC88AD888F89EB
:102050008823C1F08C859D8536E0C39E800D911D3F
:102060001124488559854817590764F44E855F85C2
:102070001D861C8638E0A39EC0011124840F951F85
:102080009F878E87EA88FB88088919894E855F8536
:102090006C857D85CE010E94D10D2C898C859D8516
:1020A00046E0249F800D911D11249D878C87BECF13
:1020B0006A3069F41D861C86FC013896E4912D89EE
:1020C0008E859F85E29F800D911D1124ADCF6D30CF
:1020D00009F4ACCFFC0134963491631708F4A6CF11
:1020E0003296E491E61708F4A1CFFC013296859070
:1020F0009490462F431B342F47E0349F800C911C53
:102100001124F401329634913196E4913323A9F1EC
:10211000EE2399F1CC88F4013596E491AD884F898E
:10212000442301F10E2E000CFF0BE30FF11DCE9E98
:10213000A001CF9E500D11246C857D85460F571F41
:1021400068857985641775076CF44E855F851D86F3
:102150001C86FC013896E491AE9E400D511D112461
:102160005F874E87EA88FB88088919894E855F85D5
:102170006C857D85CE010E94D10DF4013496E491E9
:102180002C898C859D85E29F800D911D11248DCF1A
:102190006F927F928F929F92AF92BF92CF92DF9277
:1021A000EF92FF920F931F93CF93DF93EC016B019C
:1021B0005A0139014801E881F9810284F385E02D53
:1021C0001995E881F9810288F389E02D870193014F
:1021D000A501B601CE011995A501480D591D415023
:1021E0005109E881F9810288F389E02D9301B60154
:1021F000CE011995E881F9810088F189E02D9401DB
:10220000A501B601CE011995C60CD71CB6016150C7
:102210007109E881F9810088F189E02D9401A50117
:10222000CE011995E881F9810688F789E02DCE0164
:10223000DF91CF911F910F91FF90EF90DF90CF90A2
:10224000BF90AF909F908F907F906F9019942F9236
:102250003F924F925F926F927F928F929F92AF9236
:10226000BF92CF92DF92EF92FF920F931F93CF9383
:10227000DF93CDB7DEB72E970FB6F894DEBF0FBE53
:10228000CDBF5C012B015C834B833E872D87FE8293
:10229000ED82160181E090E04C01821A930AC90197
:1022A0009195819591099C01220F331F3A832983CF
:1022B000C701019698878F83F12CE12C66246394E3
:1022C000712C902F9170998702700A87DA0111960C
:1022D000BC87AB872D853E85E216F3060CF08DC0DA
:1022E000CD84DE8497FC0BC0690131E0C31AD108AC
:1022F00089819A8102969A838983880E991E9FEF1D
:10230000E91AF90AA2E06A0E711C860C971CCE1419
:10231000DF04A4F1B985BB23B9F09601220F331F66
:102320008F819885280F391FD501ED91FC91008888
:10233000F189E02D81014B815C814C195D09B70168
:10234000640D751DC5011995BA85BB23B9F09601B9
:10235000220F331F8F819885280F391FD501ED91EA
:10236000FC910088F189E02D81014B815C814C1941
:102370005D09B2016E197F09C50119952D853E854C
:102380002C153D05B9F139853323C1F09301225055
:1023900031098D819E81280F391FD501ED91FC9166
:1023A0000088F189E02D81014B855C854E195F091C
:1023B0006D857E85640D751DC5011995BA85BB2394
:1023C000C9F09301225031098D819E81280F391F58
:1023D000B201AD85BE856A1B7B0BD501ED91FC91E9
:1023E0000088F189E02D81014B855C854E195F09DC
:1023F000C5011995DE86CD866DCF2E960FB6F89461
:10240000DEBF0FBECDBFDF91CF911F910F91FF9027
:10241000EF90DF90CF90BF90AF909F908F907F9084
:102420006F905F904F903F902F9008958F929F9262
:10243000AF92BF92CF92DF92EF92FF920F931F93D2
:10244000CF93DF935C014B01EA01690183E394E0E0
:102450000E94BD0B9E01220F331F2F5F3F4FA4012F
:102460004C1B5D0B8601B50183E394E00E94A10A39
:10247000F12CE12C03E09E01A401B50183E394E07B
:102480000E94271183E394E0DF91CF911F910F9178
:10249000FF90EF90DF90CF90BF90AF909F908F9084
:1024A0000C94C10C409100025091010230E020E0F8
:1024B00062E271E082ED90E00E941612409100020B
:1024C000509101024B5F5F4F509301024093000215
:1024D00020E038EF62E271E082ED90E00C94161299
:1024E0002F923F924F925F926F927F928F929F9224
:1024F000AF92BF92CF92DF92EF92FF920F931F9312
:10250000CF93DF9300D000D0CDB7DEB79E838D830D
:102510004B013A016901802F21E030E029014C187C
:102520005D08222433242C183D08220C331CB12CC6
:10253000A12C01E010E0982F94709983A82FA2702D
:10254000AA83B82FB870BB8381708C83AC14BD0490
:102550000CF0A7C057FC08C081E0C81AD10892E06F
:10256000290E311C420C531CAFEFAA1ABA0A0E5F97
:102570001F4F400E511EB981BB2311F1AD81BE81A9
:10258000ED91FC9111970484F585E02D9701A6014A
:10259000460D571DB4016A0D7B1DCD011995AD8106
:1025A000BE81ED91FC9111970484F585E02D970192
:1025B000A3014A0D5B1DB601680D791DCD0119956A
:1025C000BA81BB2311F1AD81BE81ED91FC911197D0
:1025D0000484F585E02D9701A3014C195D09B40130
:1025E0006A0D7B1DCD011995AD81BE81ED91FC91E8
:1025F00011970484F585E02D9701A3014A195B0921
:10260000B601680D791DCD011995BB81BB2311F170
:10261000AD81BE81ED91FC9111970484F585E02D8B
:102620009701A3014A0D5B1DB4016C197D09CD0111
:102630001995AD81BE81ED91FC9111970484F585CA
:10264000E02D9701A601460D571DB4016A197B09BB
:10265000CD011995BC81BB2309F478CFAD81BE8132
:10266000ED91FC9111970484F585E02D9701A3016C
:102670004A195B09B4016C197D09CD011995AD8129
:10268000BE81ED91FC9111970484F585E02D9701B1
:10269000A3014C195D09B4016A197B09CD01199593
:1026A00055CF26960FB6F894DEBF0FBECDBFDF9193
:1026B000CF911F910F91FF90EF90DF90CF90BF903F
:1026C000AF909F908F907F906F905F904F903F90D2
:1026D0002F9008956F927F928F929F92AF92BF92A8
:1026E000CF92DF92EF92FF920F931F93CF93DF93DE
:1026F0005C01EB016A01490138018701DC01ED91C0
:10270000FC916217730719F5641675062CF0962D67
:10271000872D3A01C92ED82E9601261937092F5F29
:102720003F4F048CF58DE02DA301BE01C501199525
:10273000DF91CF911F910F91FF90EF90DF90CF909D
:10274000BF90AF909F908F907F906F9008954615A7
:10275000570591F42617370724F0892D4B01C22F16
:10276000D82F9E01281939092F5F3F4F068CF78D0E
:10277000E02DA601B401DACF0284F385E02D19958E
:10278000D501ED91FC910488F589E02D8301940138
:10279000A601BE01C5011995D501ED91FC910688F0
:1027A000F789E02DC501DF91CF911F910F91FF9027
:1027B000EF90DF90CF90BF90AF909F908F907F90E1
:1027C0006F901994EF92FF920F931F93DC011A966A
:1027D0000D911C911B9718962D913C911997ED9195
:1027E000FC9100A0F1A1E02D7B0150E040E070E001
:1027F00060E019951F910F91FF90EF9008954F920F
:102800005F926F927F928F929F92AF92BF92CF9280
:10281000DF92EF92FF920F931F93CF93DF936C01A0
:102820002B015A0139014801DC01ED91FC91028430
:10283000F385E02D1995E201640C751CD601ED912C
:10284000FC91C615D7055CF40088F189E02D87015D
:102850009401A501BE01C60119952196EFCF068806
:10286000F789E02DC601DF91CF911F910F91FF9065
:10287000EF90DF90CF90BF90AF909F908F907F9020
:102880006F905F904F9019948F929F92AF92BF92EA
:10289000CF92DF92EF92FF920F931F93CF93DF932C
:1028A000EC015B014A016901E881F9810284F38549
:1028B000E02D199595012C0D3D1D21503109E88120
:1028C000F9810488F589E02D78018401A401B5011E
:1028D000CE011995E881F9810688F789E02DCE01AE
:1028E000DF91CF911F910F91FF90EF90DF90CF90EC
:1028F000BF90AF909F908F9019948F929F92AF92BC
:10290000BF92CF92DF92EF92FF920F931F93CF93DC
:10291000DF93EC015B014A0169017801E881F981EB
:102920000284F385E02D1995C80CD91C860101504D
:102930001109E881F9810488F589E02D9501A40148
:10294000B501CE011995E881F9810688F789E02D56
:10295000CE01DF91CF911F910F91FF90EF90DF900B
:10296000CF90BF90AF909F908F901994EF92FF926D
:102970000F931F93DC01ED91FC9100A0F1A1E02DDC
:1029800019951F910F91FF90EF9008950F931F934A
:10299000DC01ED91FC91068CF78DE02D19951F91CE
:1029A0000F9108950F931F93DC01ED91FC91048C1E
:1029B000F58DE02D19951F910F910895DC01ED9192
:1029C000FC910084F185E02D19942F923F924F9253
:1029D0005F926F927F928F929F92AF92BF92CF92AF
:1029E000DF92EF92FF920F931F93CF93DF9300D06C
:1029F00000D0CDB7DEB73C016A013E832D83FC8257
:102A0000EB825801A41AB50AB7FE03C0B194A19491
:102A1000B1088D809E80861A970A97FE03C0919414
:102A2000819491088A149B045CF0902F812F0D8172
:102A30001E819D838E839C2D8D2D6B01692F782F98
:102A40000C151D055CF09D818E817E836D83692F41
:102A5000782F902F812F8601C92ED82E1601201A8B
:102A6000310A2B012D813E81421A530A57FE03C0C1
:102A7000519441945108710137FE03C03FEFE31AAE
:102A8000F30AF594E7948D819E81861797075CF58C
:102A9000A1E0B0E0BA83A983C016D1064CF1D301FE
:102AA000ED91FC910484F585E02D2B813C81A801FA
:102AB0006D817E818A149B041CF04D815E81B8017A
:102AC000C3011995E418F508F7FE0AC02D813E816F
:102AD00089819A81280F391F3E832D83E20CF31CD4
:102AE0000F5F1F4FD9CF2FEF3FEF3A832983D4CF0A
:102AF00026960FB6F894DEBF0FBECDBFDF91CF9103
:102B00001F910F91FF90EF90DF90CF90BF90AF900B
:102B10009F908F907F906F905F904F903F902F90FD
:102B20000895089590E080E008950E949D1FFB01A4
:102B300001900020E9F73197AF01461B570BDC01EC
:102B4000ED91FC910280F381E02D199468E572E02B
:102B500087E093E00E9497156BE772E087E093E0CF
:102B60000C9497152F923F924F925F926F927F92A3
:102B70008F929F92AF92BF92CF92DF92EF92FF928D
:102B80000F931F93CF93DF93CDB7DEB72E970FB67A
:102B9000F894DEBF0FBECDBF9E878D87DC015096B7
:102BA000BC91B987FC01F189FA87DC011C960D9074
:102BB000BC91A02DBA83A983FC01868497846623E7
:102BC00031F0982D892D89849A8499878A87AD85DB
:102BD000BE851696CD90DC9017971896AD90BC9058
:102BE000C601CA14DB0408F0C50196958795969531
:102BF0008795ED85FE8540805180282F30E03C830D
:102C00002B8364807580828193819E838D83CA1417
:102C1000DB042CF4C601D7FE05C0019603C0C50134
:102C2000B7FCFBCF959587952B803C80821593054B
:102C30000CF41C01D201ED91FC910284F385E02D8E
:102C4000C2011995F101EE0FFF1FF887EF832D8167
:102C50003E81220D331D3C872B8796012E1B3F0B97
:102C6000D201ED91FC910684F785E02D7401850178
:102C7000A3016B857C85C2011995EF81F885AE1A99
:102C8000BF0AF1E0AF1AB108620C731C6D817E813E
:102C90006C0D7D1D62197309615071096401750124
:102CA00001E09101A301C2010E94271102E09101FC
:102CB000A3016B857C85C2010E942711D201ED9191
:102CC000FC910688F789E02DC2011995ED85FE85F6
:102CD000C080D180A084B184E680F7806480758054
:102CE000228133813E832D83EA14FB042CF4C70137
:102CF000F7FE05C0019603C0C501B7FCFBCF959553
:102D000087958B809C80881599050CF44C01D60121
:102D1000ED91FC910284F385E02DC6011995140113
:102D2000220C331CF701E219F309FC83EB834D807D
:102D30005E80480C591CD601ED91FC910288F38904
:102D4000E02D09811A812B813C81A301B201C601CA
:102D50001995F501E60DF71DF887EF83AF01415096
:102D60005109D601ED91FC910288F389E02D09818A
:102D70001A812B813C81B201C6011995F501E21936
:102D8000F3091F01680C791CD601ED91FC910088B4
:102D9000F189E02D09811A819101A3016D817E8164
:102DA000C6011995AD80BE80AE0CBF1CB501615047
:102DB0007109D601ED91FC910088F189E02D09811E
:102DC0001A819101A301C6011995E980FA8001E0F9
:102DD0009401A301B201C6010E947012A818B9089B
:102DE000B1E0AB1AB108E980FA8002E09401A301D6
:102DF000B501C6010E9470126F8078846818790846
:102E0000E1E06E1A7108E980FA8004E09401A30100
:102E1000B501C6010E947012E980FA8008E09401B1
:102E2000A301B201C6010E947012D601ED91FC917E
:102E30000688F789E02DC6011995AD85BE85ED910F
:102E4000FC91119718968D919C911997969587955D
:102E500014962D913C911597820F931F1B962C91E0
:102E6000B4E02B9F8019910911246D857E856E5EDB
:102E70007F4FDB010D900020E9F7AD014150510972
:102E8000461B570BAD85BE8516962D913C91179725
:102E9000369527951296ED90FC9013972E0D3F1DB9
:102EA0001A96FC9013E0F19ED0011124A49F7001AA
:102EB000A59FF00CB49FF00C11242E193F09358703
:102EC000248797878687AD85BE85ED91FC91B9856E
:102ED000B28B1A85138BB08B118BAD85BE85ED91AE
:102EE000FC9111971B968C911B971A969C919111AE
:102EF00001C091E0948B811101C081E0858B611547
:102F00007105F1F0ED85FE85808191812E960FB6D9
:102F1000F894DEBF0FBECDBFDF91CF911F910F910F
:102F2000FF90EF90DF90CF90BF90AF909F908F90E9
:102F30007F906F905F904F903F902F900C949715DB
:102F40002E960FB6F894DEBF0FBECDBFDF91CF91A6
:102F50001F910F91FF90EF90DF90CF90BF90AF90B7
:102F60009F908F907F906F905F904F903F902F90A9
:102F700008950F931F93CF93DF93FC01208131813C
:102F80002130310509F466C0EC012130310538F0FB
:102F90002230310509F463C0198218825BC080A910
:102FA00091A9892B89F00E94C8060EA91FA928ADF6
:102FB00039AD601B710B820B930B683E734081052A
:102FC000910510F019AA18AA8CA10E94E905892B75
:102FD00009F040C061E0CE0102960E94B2150E9445
:102FE000C8066AAB7BAB8CAB9DAB1FA61EA6FE01D1
:102FF000EE5BFF4F80818E7F8660808388A999A9D0
:10300000892B31F40E94C8066EAB7FAB88AF99AFB5
:103010008CA59DA501969DA78CA788A999A9019625
:1030200099AB88ABEAADFBAD309711F0CE011995A5
:1030300088A999A9029750F0FE01E05CFF4F01902A
:10304000F081E02D309711F0CE01199582E090E0EB
:1030500099838883DF91CF911F910F91089584A167
:103060000E94E905892B31F40E94C8066AAB7BAB4C
:103070008CAB9DAB0E94C8060AA91BA92CA93DA92F
:10308000AB01BC01401B510B620B730B8AA59BA5C6
:10309000B0E0A0E0481759076A077B07D8F2EEAD09
:1030A000FFAD309711F0CE01199560E0CE01029688
:1030B0000E94B21571CF1F93CF93DF9385ED80935C
:1030C000BC0080918E0290918F02A0919002B091ED
:1030D00091020796A11DB11D23E0B695A79597957E
:1030E00087952A95D1F72091BC0024FD03C010924A
:1030F000D60252C040918E0250918F026091900290
:1031000070919102452B462B472B69F30097A1053F
:10311000B10541F025E32A95F1F700000197A109D7
:10312000B109E1CF80918D02C1E0C0938C02882368
:1031300099F1D091B8001091BA008091BC008A7BBF
:103140008093BC0060E084E10E94120660E085E1AB
:103150000E9412061092D602C093D8021092D70293
:1031600061E084E10E94120661E085E10E9412069E
:103170008091B9008E7F8093B9008091B9008D7FD6
:103180008093B90088E48093B80085E48093BC0004
:103190001093BA00D093B800DF91CF911F9108959A
:1031A000CF92DF92EF92FF920F931F93CF93DF9313
:1031B000EC016A017B01C114D104E104F10431F492
:1031C000C12C42E1D42E4AE7E42EF12C8FA987FDD1
:1031D00007C061E00E94400661E08FA90E941206CC
:1031E00061E088AD0E94400661E088AD0E94120651
:1031F0008DA98111A3C040E052E16AE770E0C416D6
:10320000D506E606F70640F47695679557954795F7
:103210008F5F8630A1F787E0982F906A969599A3E3
:10322000809581708AA31BA21CA21DA21EA21FB79B
:10323000F89480918A02811127C0E2E2F8E084913B
:10324000E2ECF7E09491E82FF0E0EE0FFF1FED5E67
:10325000F84FA591B491EC91E92321F461E085E365
:103260000E94120661E085E30E9440068CB58061F1
:103270008CBD8CB580648CBD61E084E30E94400607
:1032800061E083E30E94400680918A028F5F809311
:103290008A021FBF8EA987FD21C061E00E944006FF
:1032A00061E08EA90E94120664E670E080E090E082
:1032B0000E94960660E08EA90E94120664E670E005
:1032C00080E090E00E94960661E08EA90E941206BE
:1032D00068EC70E080E090E00E9496068EA987FF7F
:1032E0000DC020E050E040E061E0CE010E94CF0B35
:1032F00066E970E080E090E00E94960604EA16E03D
:10330000C8010196F8016491662309F463C00E5F59
:103310001F4FFC01F490EF2CE894E7F82E2DA80144
:10332000CE010E94CF0B0E0D111DF7FEE9CF66E90D
:1033300070E080E090E00E949606E2CF0DEE17E08C
:10334000F12C8130B9F461E08AA50E94400660E06A
:103350008AA50E94120661E08CA50E94400660E0EA
:103360008CA50E9412068BA587FD94CF60E00E9479
:10337000400690CFF8018491E82FF0E0EE0FFF1F98
:10338000ED52F84F859194912F8D38A12817390768
:1033900041F461E08F2D0E94400660E08F2D0E9475
:1033A0001206F3940F5F1F4FF6E4FF12E3CF61E0C4
:1033B0008EA50E94400661E08EA50E9412068FA590
:1033C00087FD68CF61E00E94400661E08FA50E9402
:1033D000120660CF80EF90E09987888780E491E0C3
:1033E0009B878A87DF91CF911F910F91FF90EF907C
:1033F000DF90CF9008951F920F920FB60F92112475
:103400000BB60F922F933F934F935F936F937F93DE
:103410008F939F93AF93BF93EF93FF9387E093E0D6
:103420000E94C204FF91EF91BF91AF919F918F9144
:103430007F916F915F914F913F912F910F900BBEB4
:103440000F900FBE0F901F9018951F920F920FB6FE
:103450000F9211240BB60F922F938F939F93EF939C
:10346000FF93E0911703F09118038081E0911D0311
:10347000F0911E0382FD1DC09081809120038F5F1B
:103480008F7320912103821741F0E0912003F0E037
:10349000E95FFC4F958F80932003FF91EF919F91FF
:1034A0008F912F910F900BBE0F900FBE0F901F901A
:1034B00018958081F2CF1F920F920FB60F921124B0
:1034C0002F933F938F939F93AF93BF938091FD0270
:1034D0009091FE02A091FF02B09100033091FC0296
:1034E00023E0230F2D3758F50196A11DB11D209320
:1034F000FC028093FD029093FE02A093FF02B09322
:1035000000038091010390910203A0910303B09105
:1035100004030196A11DB11D809301039093020342
:10352000A0930303B0930403BF91AF919F918F9138
:103530003F912F910F900FBE0F901F90189526E886
:10354000230F0296A11DB11DD2CF1F920F920FB66D
:103550000F9211240BB60F922F933F934F935F93CB
:103560006F937F938F939F93AF93BF93EF93FF934B
:103570008091B900887F803609F44DC008F040C0C2
:10358000883209F4A7C028F5803109F49BC0C8F43B
:10359000882309F4F7C0883009F494C0FF91EF91B3
:1035A000BF91AF919F918F917F916F915F914F915B
:1035B0003F912F910F900BBE0F900FBE0F901F9059
:1035C0001895883109F486C0803241F78093D5027E
:1035D00014C0803409F49BC040F48033B9F38833BD
:1035E000E9F68093D50285ECAEC0803509F483C03E
:1035F000883509F494C0883489F60E945B18CECFD0
:10360000883909F48AC038F5883729F050F48836AB
:1036100011F0803719F683E08093D6021092D4021D
:1036200055C0883809F479C0803919F0803809F01C
:10363000B5CF8091D402803208F06FC0E091D402FF
:1036400081E08E0F8093D4028091BB00F0E0EC54B7
:10365000FD4F80833BC0803B39F0D0F4803A09F4C1
:1036600077C0883A09F09ACF84E08093D60210920E
:10367000B3021092B202F0E0E0E019958091B2023C
:1036800081110FC081E08093B2021092920209C0B2
:10369000803C09F4A8CF883C09F4A5CF883B09F009
:1036A0007DCFE091B30281E08E0F8093B302F0E012
:1036B000EE56FD4F80818093BB009091B3028091C4
:1036C000B20229C08091FB028093BB0085EC8093FD
:1036D000BC0064CF9091FA028091F902981758F5D6
:1036E000E091FA0281E08E0F8093FA02F0E0E75257
:1036F000FD4F8081E9CFE091FA0281E08E0F809347
:10370000FA028091BB00F0E0E752FD4F8083909178
:10371000FA028091F9029817C8F285E8D8CFE091B3
:10372000FA0281E08E0F8093FA028091BB00F0E0F4
:10373000E752FD4F80838091D80281115ECF81E0F6
:103740008093D70284EA8093BC001092D60226CFE1
:1037500085EC8093BC001092D6028091D402803216
:1037600030F4E091D402F0E0EC54FD4F108260910F
:10377000D40270E084EB92E0F0E0E0E01995109262
:10378000D4020CCF1092D50238CFE7E0F3E01382D9
:10379000128288EE93E0A0E0B0E084839583A68354
:1037A000B7838AE192E09183808385EC90E09587EE
:1037B000848784EC90E09787868780EC90E0918BFB
:1037C000808B81EC90E0938B828B82EC90E0958BE8
:1037D000848B86EC90E0978B868B118E128E138EE5
:1037E000148EA3E3B4E013961C921E92129720EF5E
:1037F00030E015963C932E93149780E491E0179651
:103800009C938E93169719963C932E9318971B961C
:103810009C938E931A9756961C9256971D961C92BF
:103820001E921C971F961C921E921E9781E0559621
:103830008C93559754968C9354972FEF3FEF539654
:103840003C932E93529751963C932E9350975796B4
:103850008C93579758961C9258975A961C921E9282
:103860005997D5961C92D59789E0D6968C93D69782
:1038700098E0D7969C93D7979AE0D8969C93D89740
:10388000DA961C921E92D997DC961C921E92DB97B8
:10389000DD961C92DD97DE961C92DE9710927204E4
:1038A00010927304109274041092750424EA33E0A9
:1038B00090963C932E935F97E7EFF7E0E491F0E06A
:1038C000EE0FFF1FED52F84F259134915E963C9319
:1038D0002E935D97E7E9F7E09491D3969C93D39765
:1038E000E5EFF7E0E491F0E0EE0FFF1FED52F84F47
:1038F000259134915C963C932E935B97E5E9F7E034
:10390000E491D196EC93D197E095D296EC93D2972F
:10391000E92FE095D496EC93D4972CE232E02D93E6
:103920003C93E0EFF3E0118210821382128212AA1C
:1039300013AA14AA15AA16AA17AA10AE11AE48E81F
:1039400053E151A740A728EC30E033A722A715A6E2
:1039500014A617A616A611AA10AA13AE12AE15AE7B
:1039600014AE17AE16AE10923104109230041092BD
:103970003204EDEAF3E0118210821382128212AA5D
:1039800013AA14AA15AA16AA17AA10AE11AE51A707
:1039900040A733A722A715A614A617A616A611AAF4
:1039A00010AA13AE12AE15AE14AE17AE16AE10922C
:1039B000EE031092ED031092EF03E5EAF3E09AE1D3
:1039C00092839BE19483838389E185838CE291E0F8
:1039D000978386838AE090E091838083089578942A
:1039E00084B5826084BD84B5816084BD85B5826004
:1039F00085BD85B5816085BD80916E0081608093B5
:103A00006E0010928100809181008260809381001D
:103A1000809181008160809381008091800081602D
:103A2000809380008091B10084608093B100809188
:103A3000B00081608093B00080919100826080939B
:103A4000910080919100816080939100809190001D
:103A50008160809390008091A10082608093A1009A
:103A60008091A10081608093A1008091A00081607D
:103A70008093A00080912101826080932101809138
:103A800021018160809321018091200181608093D8
:103A9000200180917A00846080937A0080917A007E
:103AA000826080937A0080917A00816080937A00AE
:103AB00080917A00806880937A001092C100E09132
:103AC0001703F091180382E08083E0911303F091D3
:103AD00014031082E0911503F09116038FEC80839C
:103AE00010921F03E0911B03F0911C0386E080837A
:103AF000E0911903F0911A03808180618083E09145
:103B00001903F0911A03808188608083E091190382
:103B1000F0911A03808180688083E0911903F0910D
:103B20001A0380818F7D808340E050E0BA0183E3F7
:103B300094E00E94D01870E060E083E394E00E947B
:103B4000E213C8E1EC2ECCEFFC2E08E210E02CEDE5
:103B500030E044E150E06AEA70E083E394E00E94E0
:103B60006A13D8E1ED2ED6ECFD2E02E310E028EC2E
:103B700030E042E350E062E870E083E394E00E94CA
:103B80006A132FE038E744E150E064E670E088E72C
:103B900090E00E9416122FEF3FEF44E150E064E600
:103BA00070E088E790E00E94CC0CE12C18EFF12E39
:103BB0000AE510E022E330E04EE650E06EE170E00E
:103BC00083E394E00E94290980EEE82E87E0F82E36
:103BD00022E330E04EE650E06EE170E083E394E0F3
:103BE0000E94C81083E394E00E94BD0BC12CD12C2D
:103BF0007601C4E6D0E098E2892E912CA12CB12C5C
:103C0000C701B601A50194010E94361F8EE1C80EBE
:103C1000D11CE11CF11C2F5F3F4F00EE1FEFAE01E6
:103C20006EEB70E083E394E00E94E20A2196CD38C7
:103C3000D10531F783E394E00E94C10CE12C88EFB9
:103C4000F82E04EB10E02CE830E04CE850E064E69D
:103C500070E083E394E00E946A130CE810E02CE823
:103C600030E044EB50E064E670E083E394E00E94CF
:103C70006A132FE130E048E250E068E171E088E249
:103C800090E00E94161220EE3FEF48E250E068E11B
:103C900071E088E290E00E94CC0CCCEDD0E090E5A1
:103CA000C92ED12CEE24EA94FE2C08E010E020E18D
:103CB00030E0AE01B60183E394E00E94C81088E0D2
:103CC000C80ED11C2496C43081E0D80759F78091E2
:103CD000050390910603FC01EE0FFF1FEE5FFD4F01
:103CE0002081318130931504209314040196909320
:103CF000060380930503C3E3D4E0D0931304C09379
:103D0000120435EA832E33E0932E909211048092B0
:103D100010044BE9A42EB12CB092F503A092F40349
:103D20008EEB90E09093F7038093F60356E4C52E54
:103D3000D12CD092F903C092F80364E1E62EF12C65
:103D4000F092FB03E092FA030FEF1FEF1093FF03D3
:103D50000093FE037FE1672E712C70920104609244
:103D600000041093030400930204552453945092CA
:103D7000FC035092FD03D093F303C093F20349E098
:103D800050E06EE772E084E094E00E94A21F10927F
:103D90000D0460E082EF93E00E94B21586EA95E19F
:103DA00090932B0480932A0480910503909106033D
:103DB000FC01EE0FFF1FEE5FFD4F2081318130933C
:103DC000D2032093D10301969093060380930503B9
:103DD000D093D003C093CF039092CE038092CD03B3
:103DE000B092B203A092B1038CED90E09093B40333
:103DF0008093B303D092B603C092B503F092B80398
:103E0000E092B7031093BC030093BB037092BE0310
:103E10006092BD031093C0030093BF035092B90397
:103E20005092BA03D093B003C093AF0349E050E07F
:103E300065E872E081EC93E00E94A21F1092CA0331
:103E400060E08FEA93E00E94B21582E592E19093E0
:103E5000E8038093E70380EF93E00E94B9178DEAAF
:103E600093E00E94B9170E945105F5CF052E97FBEC
:103E70001EF400940E944D1F57FD07D00E947B1F27
:103E800007FC03D04EF40C944D1F5095409530958F
:103E900021953F4F4F4F5F4F0895909580957095B6
:103EA00061957F4F8F4F9F4F0895EE0FFF1F881F23
:103EB0008BBF0790F691E02D19940E94651F332364
:103EC00012F48A1B9B0B0C94761FA29FB001B39F28
:103ED000C001A39F700D811D1124911DB29F700D13
:103EE000811D1124911D08950E94651FB7FF08953B
:103EF000821B930B0895A1E21A2EAA1BBB1BFD0186
:103F00000DC0AA1FBB1FEE1FFF1FA217B307E407B8
:103F1000F50720F0A21BB30BE40BF50B661F771F10
:103F2000881F991F1A9469F76095709580959095F0
:103F30009B01AC01BD01CF01089581E090E0F894B0
:103F40000C94B11FFB01DC014150504048F001903E
:103F50000D920020C9F701C01D9241505040E0F77A
:103F60000895F894FFCF05003700380039003A0073
:103F70003B003C003D003E003F00400000000000D0
:103F8000E4044E047B043105AC048A049E04000062
:103F90000000F60F4E04921591151B08BD0B8B0BFC
:103FA000220BA10AE20AE514C10C380C2E0CBF0941
:103FB000300AAE09E2136A13C810D018BA07436C6E
:103FC00069636F75206E6F20626F74616F20646526
:103FD00073656E6861646F206E612074656C612E1C
:103FE000000D0A0053657269616C004369726300D9
:020000040003F7
:10E000000D9489F10D94B2F10D94B2F10D94B2F129
:10E010000D94B2F10D94B2F10D94B2F10D94B2F1F0
:10E020000D94B2F10D94B2F10D94B2F10D94B2F1E0
:10E030000D94B2F10D94B2F10D94B2F10D94B2F1D0
:10E040000D94B2F10D94B2F10D94B2F10D94B2F1C0
:10E050000D94B2F10D94B2F10D94B2F10D94B2F1B0
:10E060000D94B2F10D94B2F10D94B2F10D94B2F1A0
:10E070000D94B2F10D94B2F10D94B2F10D94B2F190
:10E080000D94B2F10D94B2F10D94B2F10D94B2F180
:10E090000D94B2F10D94B2F10D94B2F10D94B2F170
:10E0A0000D94B2F10D94B2F10D94B2F10D94B2F160
:10E0B0000D94B2F10D94B2F10D94B2F10D94B2F150
:10E0C0000D94B2F10D94B2F10D94B2F10D94B2F140
:10E0D0000D94B2F10D94B2F10D94B2F10D94B2F130
:10E0E0000D94B2F141546D656761323536300041AF
:10E0F000726475696E6F206578706C6F72657220DE
:10E1000073746B3530305632206279204D4C530099
:10E11000426F6F746C6F616465723E004875683F52
:10E1200000436F6D70696C6564206F6E203D200048
:10E130004350552054797065202020203D20005FF9
:10E140005F4156525F415243485F5F3D2000415658
:10E1500052204C696243205665723D20004743437C
:10E160002056657273696F6E203D20004350552024
:10E1700049442020202020203D20004C6F7720663D
:10E18000757365202020203D20004869676820665F
:10E190007573652020203D200045787420667573D6
:10E1A00065202020203D20004C6F636B2066757336
:10E1B000652020203D20004D617220203720323024
:10E1C000313300312E362E3800342E332E350056A2
:10E1D00023202020414444522020206F7020636F70
:10E1E00064652020202020696E73747275637469E1
:10E1F0006F6E2061646472202020496E74657272B3
:10E20000757074006E6F20766563746F7200726A49
:10E210006D702020006A6D70200057686174207056
:10E220006F72743A00506F7274206E6F7420737541
:10E2300070706F72746564004D7573742062652030
:10E2400061206C6574746572002000577269747483
:10E25000696E672045450052656164696E672045B7
:10E26000450045452065727220636E743D00504F35
:10E27000525400303D5A65726F2061646472003FF1
:10E280003D43505520737461747300403D454550C3
:10E29000524F4D207465737400423D426C696E6B41
:10E2A000204C454400453D44756D70204545505215
:10E2B0004F4D00463D44756D7020464C415348001B
:10E2C000483D48656C70004C3D4C69737420492F83
:10E2D0004F20506F72747300513D51756974005234
:10E2E0003D44756D702052414D00563D73686F7707
:10E2F00020696E7465727275707420566563746FF0
:10E30000727300593D506F727420626C696E6B00BD
:10E310002A0011241FBECFEFD1E2DEBFCDBF01E046
:10E320000CBF12E0A0E0B2E0EEE1FDEF03E00BBFB6
:10E3300002C007900D92A030B107D9F712E0A0E01B
:10E34000B2E001C01D92AE30B107E1F70F9460F367
:10E350000D948DFE01E20EBF0FEF0DBF11241FBE05
:10E360000D9460F30D9400F020E030E040ED57E0B4
:10E3700005C0FA013197F1F72F5F3F4F2817390792
:10E38000C0F308959C01260F311DC901A0E0B0E043
:10E390002F5F3F4FABBFFC018791882361F08093D3
:10E3A000C6008091C00086FFFCCF8091C0008064D1
:10E3B0008093C000EACF08958DE08093C6008091DD
:10E3C000C00086FFFCCF8091C00080648093C000B5
:10E3D0008AE08093C6008091C00086FFFCCF8091C8
:10E3E000C00080648093C00008950F94C2F10F9420
:10E3F000DCF10895FC019081992359F09093C600B7
:10E400008091C00086FFFCCF8091C0008064809323
:10E41000C0003196992379F70895282F982F929567
:10E420009F70892F805D8A3308F0895F8093C600D2
:10E430008091C00086FFFCCF8091C00080648093F3
:10E44000C000822F8F70982F905D9A3308F0995FEB
:10E450009093C6008091C00086FFFCCF8091C000E1
:10E4600080648093C00008959C01FB01853691056E
:10E470001CF46330710594F0C90164E670E00F94F8
:10E480002EFE605D7F4F6093C6008091C00086FFC6
:10E49000FCCF8091C00080648093C0002B30310598
:10E4A00014F43297B4F0C90164E670E00F942EFEC4
:10E4B0006AE070E00F942EFE605D7F4F6093C600AF
:10E4C0008091C00086FFFCCF8091C0008064809363
:10E4D000C000C9016AE070E00F942EFEC0968093E0
:10E4E000C6008091C00086FFFCCF8091C000806490
:10E4F0008093C00008951F93182F8EE692EE60E07F
:10E500000F94C2F11093C6008091C00086FFFCCF2B
:10E510008091C00080648093C0000F94DCF11F9153
:10E5200008952F923F924F925F926F927F928F92B7
:10E530009F92AF92BF92CF92DF92EF92FF920F9392
:10E540001F93DF93CF93CDB7DEB762970FB6F894E2
:10E55000DEBF0FBECDBF382E622ECA01DB015C01CB
:10E560006D01772420E2222E2E010894411C511CBB
:10E570008BC081E0A81680E0B80681E0C80680E084
:10E58000D80628F0C601AA27BB270F940DF2BB2797
:10E59000AD2D9C2D8B2D0F940DF28A2D0F940DF225
:10E5A0002092C6008091C00086FFFCCF8091C00001
:10E5B00080648093C0009DE29093C6008091C0006B
:10E5C00086FFFCCF8091C00080648093C0002092C1
:10E5D000C6008091C00086FFFCCF8091C00080649F
:10E5E0008093C00019828601750188249924A1E0D6
:10E5F0003A1651F03A1620F0B2E03B1661F409C029
:10E600000BBFF701779007C0C7010F9477FE782EF4
:10E6100002C0F7017080872D0F940DF22092C60082
:10E620008091C00086FFFCCF8091C0008064809301
:10E63000C000872D8052F401EF70F0708F3520F408
:10E64000E40DF51D708204C0E40DF51D8EE280839B
:10E650000894E11CF11C011D111D0894811C911CE2
:10E6600090E18916910409F0C2CF80E190E0A0E02A
:10E67000B0E0A80EB91ECA1EDB1E198AC2010F9493
:10E68000FAF10F94DCF16A94662009F072CF629679
:10E690000FB6F894DEBF0FBECDBFCF91DF911F91B3
:10E6A0000F91FF90EF90DF90CF90BF90AF909F9031
:10E6B0008F907F906F905F904F903F902F90089534
:10E6C0002F923F924F925F926F927F928F929F9282
:10E6D000AF92BF92CF92DF92EF92FF920F931F9370
:10E6E000DF93CF93CDB7DEB7CD53D1400FB6F894BB
:10E6F000DEBF0FBECDBF01E20EBF0FEF0DBF94B75F
:10E70000F894A89514BE80916000886180936000A1
:10E7100010926000789493FF05C0E0910002F091A0
:10E7200001021995279A2F9A8091C00082608093E8
:10E73000C00080E18093C40088E18093C1000000A4
:10E74000EE24FF24870144E0A42EB12CCC24DD2448
:10E7500024C0C5010197F1F70894E11CF11C011DCB
:10E76000111D21E2E2162EE4F20620E0020720E06D
:10E77000120718F031E0C32ED12CC801B70127ECE5
:10E780003BE140E050E00F9441FE611571058105C9
:10E79000910519F485B1805885B98091C00087FD35
:10E7A00003C0C114D104A9F2A6014F5F5F4FC25E3E
:10E7B000DE4F59834883CE51D140C25EDE4F8881FF
:10E7C0009981CE51D140019711F00D9410FEC05D9A
:10E7D000DE4F19821882C053D14060E0C15DDE4F28
:10E7E0001882CF52D14088249924C35DDE4F19820C
:10E7F0001882CD52D140C05EDE4F188219821A8233
:10E800001B82C052D140CE5CDE4F188219821A8220
:10E810001B82C253D140EE24FF2487010BBFF701B6
:10E8200007911691C45CDE4F19830883CC53D14005
:10E830000D940BFEC25EDE4F28813981CE51D1404E
:10E840002130310509F52091C600C25EDE4F1982E4
:10E850001882CE51D14022C02F5F3F4F4F4F5F4FA4
:10E86000213082E138078AE7480780E0580780F0C6
:10E87000C45CDE4FE881F981CC53D140EF5FFF4F9C
:10E8800019F0EE27FF27099420E030E040E050E047
:10E890008091C00087FFE0CF2091C600C35DDE4FAE
:10E8A00048815981CD52D1404F5F5F4FC35DDE4FEC
:10E8B00059834883CD52D140213209F063C64A3092
:10E8C000510508F05FC60894811C911C53E0851621
:10E8D000910409F059C600E010E018C081E280936D
:10E8E000C6008091C00086FFFCCF8091C00080648C
:10E8F0008093C0002F5F3F4F2931310579F70F9486
:10E90000DCF10F5F1F4F0530110519F020E030E0FA
:10E91000E5CF10920A0210920B0210920C02109294
:10E920000D02109206021092070210920802109235
:10E930000902109202021092030210920402109235
:10E9400005028FEE90EE60E00F94F5F180E191EE1C
:10E9500060E00F94C2F18091C00087FFFCCF9091DE
:10E96000C600903608F09F759032B8F09093C600BC
:10E970008091C00086FFFCCF8091C00080648093AE
:10E98000C000A0E2A093C6008091C00086FFFCCF2B
:10E990008091C00080648093C000983409F4D7C18E
:10E9A0009934B8F4923409F459C1933458F490333B
:10E9B00019F1903308F4E3C59F33A1F1903409F0C5
:10E9C000DEC5BDC0953409F470C1963409F0D7C5D1
:10E9D00098C1923509F42BC2933538F49C3409F46C
:10E9E000F5C1913509F0CBC518C2963509F445C279
:10E9F000993509F0C4C567C483E792EE62E00F94CD
:10EA0000F5F110920602109207021092080210927D
:10EA1000090210920A0210920B0210920C0210923C
:10EA20000D0213C18FE792EE62E00F94F5F18FEEC5
:10EA300090EE60E00F94F5F181E291EE60E00F94CA
:10EA4000C2F187EB91EE60E00F94F5F180E391EE77
:10EA500060E00F94C2F184EE90EE60E00F94F5F167
:10EA60008FE391EE60E00F94C2F186E090E061E008
:10EA700070E00F9434F20F94DCF18DE591EE60E0DC
:10EA80000F94C2F189EC91EE60E00F94F5F18EE401
:10EA900091EE60E00F94C2F183EC91EE60E00F9490
:10EAA000F5F18CE691EE60E00F94C2F18EE10F94E7
:10EAB0000DF288E90F940DF281E00F940DF20F949E
:10EAC000DCF18BE791EE60E00F94C2F119E0E0E039
:10EAD000F0E010935700E4918E2F0F940DF20F94F5
:10EAE000DCF18AE891EE60E00F94C2F1E3E0F0E03F
:10EAF00010935700E4918E2F0F940DF20F94DCF1D8
:10EB000089E991EE60E00F94C2F1E2E0F0E0109349
:10EB10005700E4918E2F0F940DF20F94DCF188EAE8
:10EB200091EE60E00F94C2F1E1E0F0E01093570045
:10EB30001491812F0F940DF20F94DCF107CF8BE825
:10EB400092EE62E00F94F5F18BE492EE60E00F94A8
:10EB5000F5F10F94DCF100E010E019C0C8016F2D51
:10EB60000F947FFEFF2031F489E492EE60E00F9471
:10EB7000C2F10BC0F092C6008091C00086FFFCCFAE
:10EB80008091C00080648093C0000F5F1F4FC80158
:10EB900081519F41A0E0B0E0ABBFFC01F790BAE229
:10EBA000FB1621F0E2E000301E07C1F60F94DCF105
:10EBB0000F94DCF187E592EE60E00F94F5F10F948D
:10EBC000DCF1CC24DD2400E010E01EC0C8010F946D
:10EBD00077FEF82E882331F489E492EE60E00F94FA
:10EBE000C2F10BC08093C6008091C00086FFFCCFAD
:10EBF0008091C00080648093C000FE1419F00894D6
:10EC0000C11CD11C0F5F1F4FC80181519F41A0E063
:10EC1000B0E0ABBFFC01E790FAE2EF1621F022E092
:10EC20000030120799F60F94DCF10F94DCF182E6C4
:10EC300092EE60E00F94C2F1C60161E070E00F94C3
:10EC400034F20F94DCF10F94DCF110920202109276
:10EC50000302109204021092050278CE89E992EE26
:10EC600062E00F94F5F1279A2F9A16C02F9880E052
:10EC700090E0E0EDF7E03197F1F7019684369105E9
:10EC8000C1F72F9A80E090E0E0EDF7E03197F1F7DF
:10EC9000019684369105C1F78091C00087FFE6CFC9
:10ECA0008091C00087FFFCCF64C485EA92EE62E0E9
:10ECB0000F94F5F140910202509103026091040219
:10ECC0007091050281E020E10F9491F2809102029F
:10ECD00090910302A0910402B091050280509F4FD1
:10ECE000AF4FBF4F8093020290930302A0930402A0
:10ECF000B093050280509041A040B04008F426CE69
:10ED0000A4CF83EB92EE62E00F94F5F140910602FE
:10ED100050910702609108027091090280E020E1A1
:10ED20000F9491F28091060290910702A09108023F
:10ED3000B091090280509F4FAF4FBF4F80930602A2
:10ED400090930702A0930802B0930902FFCD80ECD4
:10ED500092EE62E00F94F5F183E792EE60E00F949B
:10ED6000F5F18FE792EE60E00F94F5F18BE892EE0B
:10ED700060E00F94F5F189E992EE60E00F94F5F10F
:10ED800085EA92EE60E00F94F5F183EB92EE60E09D
:10ED90000F94F5F180EC92EE60E00F94F5F187ECC2
:10EDA00092EE60E00F94F5F188ED92EE60E00F9442
:10EDB000F5F18FED92EE60E00F94F5F18AEE92EEB0
:10EDC00060E00F94F5F183E093EEBDCD87EC92EE19
:10EDD00062E00F94F5F181E40F947BF282E40F94EA
:10EDE0007BF283E40F947BF284E40F947BF285E45E
:10EDF0000F947BF286E40F947BF287E40F947BF20E
:10EE000088E40F947BF28AE40F947BF28BE40F94F6
:10EE10007BF28CE40F947BF299CD88ED92EE62E068
:10EE20000F94F5F1772473948824992409C48FED05
:10EE300092EE62E00F94F5F140910A0250910B02BC
:10EE400060910C0270910D0282E020E10F9491F22A
:10EE500080910A0290910B02A0910C02B0910D02D8
:10EE600080509F4FAF4FBF4F80930A0290930B0289
:10EE7000A0930C02B0930D0269CD8AEE92EE62E08F
:10EE80000F94F5F184EE90EE60E00F94F5F18FECC5
:10EE900091EE60E00F94F5F1662477244301CC5D98
:10EEA000DE4F19821882C452D140D401C301B695F5
:10EEB000A79597958795CA5DDE4F88839983AA8326
:10EEC000BB83C652D140CC5DDE4FA881B981C4520C
:10EED000D1401196CC5DDE4FB983A883C452D14096
:10EEE000CD0162E070E00F9434F2B0E2B093C6005E
:10EEF0008091C00086FFFCCF8091C0008064809329
:10EF0000C000EDE2E093C6008091C00086FFFCCF18
:10EF10008091C00080648093C000F0E2F093C6004E
:10EF20008091C00086FFFCCF8091C00080648093F8
:10EF3000C000CA5DDE4FE880F9800A811B81C6529D
:10EF4000D140BB27A12F902F8F2D0F940DF2CA5DBA
:10EF5000DE4F8881C652D1400F940DF2B0E2FB2EF5
:10EF6000F092C6008091C00086FFFCCF8091C00067
:10EF700080648093C0000DE30093C6008091C000C0
:10EF800086FFFCCF8091C00080648093C00010E2B7
:10EF90001093C6008091C00086FFFCCF8091C00016
:10EFA00080648093C0008BBEF3012791C65DDE4F65
:10EFB0002883CA52D140A22EBB24CC24DD2408943D
:10EFC000611C711C811C911C8BBEF3018791282E42
:10EFD0003324442455240894611C711C811C911C09
:10EFE0008BBEF3013791C55DDE4F3883CB52D140E4
:10EFF0000894611C711C811C911C8BBEF30147910C
:10F00000C45DDE4F4883CC52D140ADEFEA2EAFEF66
:10F01000FA2EAFEF0A2FAFEF1A2F6E0C7F1C801E57
:10F02000911E142D032DF22CEE24EA0CFB1C0C1D5A
:10F030001D1D0F940DF220E22093C6008091C000A8
:10F0400086FFFCCF8091C00080648093C000C65DC5
:10F05000DE4F8881CA52D1400F940DF230E23093D6
:10F06000C6008091C00086FFFCCF8091C000806404
:10F070008093C000C45DDE4F8881CC52D1400F9494
:10F080000DF240E24093C6008091C00086FFFCCFA5
:10F090008091C00080648093C000C55DDE4F888190
:10F0A000CB52D1400F940DF250E25093C6008091A4
:10F0B000C00086FFFCCF8091C00080648093C000B8
:10F0C0008FEFE8168FEFF80680E0080780E018075A
:10F0D00031F484E092EE60E00F94C2F1DFC0D80119
:10F0E000C7018070907CA070B0708050904CA040A0
:10F0F000B040D1F52FEF3FE340E050E0E222F322B1
:10F1000004231523CA5DDE4FA880B980CA80DB8046
:10F11000C652D140AE0CBF1CC01ED11EAA0CBB1CD7
:10F12000CC1CDD1C8EE092EE60E00F94C2F1BB2798
:10F13000A12F902F8F2D0F940DF28E2D0F940DF285
:10F1400030E23093C6008091C00086FFFCCF8091F2
:10F15000C00080648093C0004EE34093C60080915D
:10F16000C00086FFFCCF87C08EE09EEFA0E0B0E03D
:10F17000E822F9220A231B239CE0E91694E9F90608
:10F1800090E0090790E0190709F088C0C45DDE4FE0
:10F19000A881CC52D140EA2EFF2400E010E0102FCD
:10F1A0000F2DFE2CEE24C55DDE4FB881CB52D14031
:10F1B000EB0EF11C011D111DD601C501817090706F
:10F1C000A070B070DC0199278827E80EF91E0A1F8D
:10F1D0001B1F20EF30E040E050E0A222B322C42207
:10F1E000D52241E1AA0CBB1CCC1CDD1C4A95D1F7F1
:10F1F000EA0CFB1C0C1D1D1D81E090E0A0E0B0E0BE
:10F20000282239224A225B2235E1220C331C441C7D
:10F21000551C3A95D1F7E20CF31C041D151D57013E
:10F220006801AA0CBB1CCC1CDD1C85E192EE60E0E1
:10F230000F94C2F1C801AA27BB270F940DF2BB2778
:10F24000A12F902F8F2D0F940DF28E2D0F940DF274
:10F2500090E29093C6008091C00086FFFCCF809121
:10F26000C00080648093C000AEE3A093C60080918C
:10F27000C00086FFFCCF8091C00080648093C000F6
:10F28000C601AA27BB270F940DF2BB27AD2D9C2DDD
:10F290008B2D0F940DF28A2D0F940DF20F94DCF14B
:10F2A000CC5DDE4FE881F981C452D140F99709F471
:10F2B0004DCBF4E0EF2EF12C012D112D6E0C7F1CA7
:10F2C000801E911EF2CD83E093EE62E00F94F5F183
:10F2D0008AE192EE60E00F94C2F18091C00087FF56
:10F2E000FCCF1091C6001F751093C6008091C0001E
:10F2F00086FFFCCF8091C00080648093C0000F9493
:10F30000DCF1812F81548A3108F036C1163409F4BA
:10F3100095C0173490F4133409F44EC0143430F40B
:10F320001134F1F0123409F01DC130C0143409F465
:10F3300059C0153409F016C16BC01A3409F4C4C0A1
:10F340001B3438F4173409F48FC0183409F00AC19B
:10F35000A1C01B3409F4D2C01C3409F003C1E8C0B9
:10F360008FEF81B90DC082B1809582B980E090E0C5
:10F37000E0EDF7E03197F1F70196883C9105C1F790
:10F380008091C00087FFEFCF12B8EFC08FEF84B934
:10F390000DC085B1809585B980E090E0E0EDF7E0A3
:10F3A0003197F1F70196883C9105C1F78091C00033
:10F3B00087FFEFCF15B8D9C08FEF87B90DC088B1DF
:10F3C000809588B980E090E0E0EDF7E03197F1F7C3
:10F3D0000196883C9105C1F78091C00087FFEFCF6F
:10F3E00018B8C3C08FEF8AB90DC08BB180958BB9A7
:10F3F00080E090E0E0EDF7E03197F1F70196883C8E
:10F400009105C1F78091C00087FFEFCF1BB8ADC059
:10F410008FEF8DB90DC08EB180958EB980E090E0F0
:10F42000E0EDF7E03197F1F70196883C9105C1F7DF
:10F430008091C00087FFEFCF1EB897C08FEF80BBD1
:10F440000DC081B3809581BB80E090E0E0EDF7E0F6
:10F450003197F1F70196883C9105C1F78091C00082
:10F4600087FFEFCF11BA81C08FEF83BB0DC084B38C
:10F47000809584BB80E090E0E0EDF7E03197F1F714
:10F480000196883C9105C1F78091C00087FFEFCFBE
:10F4900014BA6BC08FEF809301010FC080910201FD
:10F4A00080958093020180E090E0E0EDF7E03197F5
:10F4B000F1F70196883C9105C1F78091C00087FF64
:10F4C000EDCF1092020151C08FEF809304010FC065
:10F4D0008091050180958093050180E090E0E0ED4A
:10F4E000F7E03197F1F70196883C9105C1F78091DB
:10F4F000C00087FFEDCF1092050137C08FEF8093DA
:10F5000007010FC08091080180958093080180E079
:10F5100090E0E0EDF7E03197F1F70196883C910536
:10F52000C1F78091C00087FFEDCF109208011DC088
:10F530008FEF80930A010FC080910B01809580931B
:10F540000B0180E090E0E0EDF7E03197F1F70196F4
:10F55000883C9105C1F78091C00087FFEDCF1092E4
:10F560000B0103C085E292EEEEC98091C00087FFD7
:10F57000FCCF8091C600EAC988E392EEE4C98CE131
:10F5800091EEE1C988249924933011F1943028F444
:10F59000913089F09230B8F408C0953061F195301F
:10F5A000F0F0963009F048C043C02B3109F042C951
:10F5B00091E06BE13FC96227C15DDE4F2883CF52E6
:10F5C000D14092E037C9B22FA0E0622793E032C960
:10F5D000822F90E0A82BB92B622794E02BC92E3004
:10F5E00009F039C3622795E0C05DDE4F19821882A9
:10F5F000C053D1401FC9E1E0F0E0EC0FFD1FC05D3A
:10F60000DE4F08811981C053D140E00FF11F2083E4
:10F610000F5F1F4FC05DDE4F19830883C053D14079
:10F6200062270A171B0709F005C9D80196E002C92D
:10F63000261709F010C303C0973009F0FBC87724E0
:10F640009981933109F412C19431C8F4963009F4C8
:10F65000D8C0973050F4923009F406C1933009F4C1
:10F660006DC0913009F059C253C0913109F477C08F
:10F67000923108F0BBC0903109F04FC2F5C098310B
:10F6800009F487C0993150F4953109F4EFC09531F0
:10F6900008F4C6C1963109F040C2C2C19A3109F4DA
:10F6A0006CC09A3108F491C09B3109F45BC09D3164
:10F6B00009F033C29D81903359F48F81882311F46E
:10F6C0009EE11CC0813011F091E018C098E916C08D
:10F6D000892F807591F0903539F4E0E0F0E089E011
:10F6E0008093570094910AC0983539F4E3E0F0E034
:10F6F00089E080935700949101C090E01A821B82A8
:10F700008D818C831D829E831F8227E030E009C299
:10F710001A8288E08B8381E48C8386E58D8382E581
:10F720008E8389E48F8383E5888780E589878FE5E9
:10F730008A8782E38B872BE030E0F3C18A818139AD
:10F7400041F0823941F0803911F48FE005C080E04A
:10F7500003C082E001C08AE01A828B8344C0772410
:10F76000739482C08D81882311F48EE12CC0813086
:10F7700011F081E028C088E926C01A82E1E0F0E0BB
:10F7800089E08093570084918B831C8224E030E0D1
:10F79000C8C18B81803589F48C81883039F4E2E0EE
:10F7A000F0E089E08093570084910DC0E0E0F0E044
:10F7B00089E080935700849106C0E3E0F0E089E09F
:10F7C0008093570084911A82DFCF8D81836C99E0FA
:10F7D000E1E0F0E0082E90935700E89507B600FCB2
:10F7E000FDCF1A821B8223E030E09BC180EC8A832C
:10F7F000CE5CDE4F188219821A821B82C253D1401E
:10F800008EC18A8190E0A0E0B0E0582F44273327D2
:10F8100022278B8190E0A0E0B0E0DC0199278827C7
:10F82000282B392B4A2B5B2B8D8190E0A0E0B0E098
:10F83000282B392B4A2B5B2B8C8190E0A0E0B0E089
:10F84000BA2FA92F982F8827282B392B4A2B5B2BCF
:10F85000220F331F441F551FC05EDE4F288339839C
:10F860004A835B83C052D1401A8259C13A81C95C34
:10F87000DE4F3883C753D140CA5CDE4F1882C6536F
:10F88000D1408B81C82EDD24CA5CDE4F488159816E
:10F89000C653D140C42AD52A933109F082C0CE5C28
:10F8A000DE4F88819981AA81BB81C253D1408050AB
:10F8B000904CA340B04030F583E0CE5CDE4FE88052
:10F8C000F9800A811B81C253D140F70100935B008C
:10F8D00080935700E89507B600FCFDCFCE5CDE4F65
:10F8E000088119812A813B81C253D14000501F4FAA
:10F8F0002F4F3F4FCE5CDE4F088319832A833B8313
:10F90000C253D140C05EDE4F488159816A817B81FC
:10F91000C052D140DE011B9631E08C9111962C91A2
:10F9200011971296C75CDE4F2883C953D140C85C3B
:10F93000DE4F1882C853D14090E0C85CDE4FE881AA
:10F94000F981C853D1408E2B9F2B0C01FA01609393
:10F950005B0030935700E89511244E5F5F4F6F4F67
:10F960007F4F0EEFE02E0FEFF02ECE0CDF1CC114F8
:10F97000D10499F685E0C05EDE4F088119812A81A5
:10F980003B81C052D140F80120935B008093570027
:10F99000E89507B600FCFDCF81E180935700E8951C
:10F9A00035C0C05EDE4F88819981AA81BB81C0527B
:10F9B000D140B695A795979587957C018601ABE0D8
:10F9C000AA2EB12CAC0EBD1E0BC0D5016D915D01F0
:10F9D000C7010F947FFE0894E11CF11C01501040F8
:10F9E0000115110591F7A60160E070E0440F551F65
:10F9F000661F771FC05EDE4FE880F9800A811B8199
:10FA0000C052D1404E0D5F1D601F711F1A82C05E33
:10FA1000DE4F488359836A837B83C052D1407FC0C5
:10FA2000FA80C55CDE4FF882CB53D140C65CDE4F16
:10FA30001882CA53D1408B81C82EDD24C65CDE4FAC
:10FA400008811981CA53D140C02AD12A1A828981DA
:10FA5000BE016D5F7F4F843121F59601C05EDE4FA0
:10FA6000E880F9800A811B81C052D1400BBFF701A9
:10FA700087919691DB018C9311969C936E5F7F4FDB
:10FA8000D801C7010296A11DB11DC05EDE4F88835B
:10FA90009983AA83BB83C052D14022503040F1F6F3
:10FAA00036C0C05EDE4F288139814A815B81C052F9
:10FAB000D1400894C108D108760100E010E0089414
:10FAC000C11CD11C0894E11CF11C011D111DE20E8A
:10FAD000F31E041F151F21BDBB27A52F942F832FB5
