:020000040000FA
:100000000C9480010C94B1010C94B1010C94B101D9
:100010000C94B1010C94B1010C94B1010C94B10198
:100020000C94B1010C94B1010C94B1010C94B10188
:100030000C94B1010C94B1010C94B1010C94B10178
:100040000C94B1010C94B1010C94B1010C94B10168
:100050000C94B1010C94B1010C94B1010C941F09E2
:100060000C94B1010C94E9080C94BF080C94B101F4
:100070000C94B1010C94B1010C94B1010C94B10138
:100080000C94B1010C94B1010C94B1010C94B10128
:100090000C94B1010C94B1010C94B1010C94B10118
:1000A0000C94B1010C94B1010C94B1010C94B10108
:1000B0000C94B1010C94B1010C94B1010C94B101F8
:1000C0000C94B1010C94B1010C94B1010C94B101E8
:1000D0000C94B1010C94B1010C94B1010C94B101D8
:1000E0000C94B10107634236B79BD8A71A396856FA
:1000F00018AEBAAB558C1D3CB7CC5763BD6DEDFD4A
:10010000753EF6177231BF000000803F0800000006
:10011000BE922449123EABAAAA2ABECDCCCC4C3EFC
:1001200000000080BEABAAAAAA3E00000000BF00EB
:100130000000803F0000000000084178D3BB4387E7
:10014000D1133D190E3CC3BD4282AD2B3E68EC82FB
:1001500076BED98FE1A93E4C80EFFFBE01C4FF7F80
:100160003F00000000000C9405040C94F3030C9471
:1001700078020C94D8030C940B040C94E3050C94B3
:10018000D4030C94F7060C9486060C94DC030C94B0
:100190000F040C94EF030C94F7030C9469090C946E
:1001A000E5030C94C8020C94DF030C945B030C94DD
:1001B0000E030C94A5020C94E9030C94FD060C9418
:1001C0000A040C94CA030C94D0030C9401040C94FC
:1001D000FD030C94D6020C94B4020C947E0600002D
:1001E00020002300260029002C002F0032000001EF
:1001F000000003010601090100002100240027007E
:100200002A002D0030003300010100000401070125
:100210000A0100002200250028002B002E003100DA
:10022000340002010000050108010B010505050568
:10023000070508080808020202020A0A080804045E
:10024000040401010101010101010303030303038C
:100250000303040707070C0C0C0C0C0C0C0C02021B
:10026000020206060606060606060B0B0B0B0B0B18
:100270000B0B0102102020080810204010204080A5
:10028000020102010804020101020408102040805A
:1002900080402010080402018004020180402010E8
:1002A0000804020108040201010204081020408031
:1002B000010204081020408000000A0B02090C0D06
:1002C0000E08070304010000000000000000000009
:1002D000000000000000000000000000000000001E
:1002E00000000000121110000000000000000000DB
:1002F000000000000000000000000000000069098C
:1003000011241FBECFEFD1E2DEBFCDBF00E00CBF96
:1003100023E0A8E7B2E001C01D92AA3BB207E1F7D3
:1003200012E0A0E0B2E0E2EBF1E200E00BBF02C0BD
:1003300007900D92A837B107D9F711E0C0E8D1E0D6
:1003400000E006C021970109802FFE010E94B41031
:10035000CF37D10780E00807A9F70E94380B0C942B
:10036000D7100C94000020912603DC01AB5ABC4F3F
:10037000FA01CF01841B950B8617970734F49191EE
:10038000211101C090959D93F4CF08951F93CF93B1
:10039000DF93DA01EB0112E0FE01E61BF70BE81731
:1003A000F90744F5E991F0EDFE0FFA3048F40E2E0E
:1003B000000CFF0BE651FE4FE081EC931196ECCF61
:1003C000FFE9FE0FFA3130F40E2E000CFF0BE15660
:1003D000FE4FF2CFFFEBFE0FFA3130F40E2E000C81
:1003E000FF0BE154FE4FE8CFED3211F41C93E6CF42
:1003F0001C92E4CF2F3F320731F0FA01E20FF31FD6
:10040000808181608083DF91CF911F910895AF92A9
:10041000BF92CF92DF92EF92FF920F931F93CF93F1
:10042000DF93DC01C7017A01C1E0EC1AF1080C345A
:100430001105E9F45D01E1E0AE1AB108F0E0E0E099
:10044000EF01AC16BD0674F1D7FD0FC0EC16FD062A
:1004500064F08E010E1B1F0B060F171FD801DC90D6
:1004600089010C0F1D1FD801DC922196EACFFA01F9
:10047000EA1BFB0B57010235110551F0F7FD3196D0
:10048000F595E795AE0FBF1F5D01C1E0AC1AB1084D
:10049000E90110E26E01C21AD30ACE16DF0684F615
:1004A0001993F8CFF901EA0DFB1D60E23196EF01D7
:1004B000C21BD30BC417D50714F46083F7CF8F3F4B
:1004C000980759F09501281B390BC90137FD03C066
:1004D000E216F30614F48FEF9FEFDF91CF911F9197
:1004E0000F91FF90EF90DF90CF90BF90AF90089565
:1004F000AF92BF92CF92DF92EF92FF920F931F9332
:10050000CF93DF936C017B018B01040F151FEB016F
:100510005E01AE18BF08C017D10759F06991D60126
:10052000ED91FC910190F081E02DC6011995892B88
:1005300079F7C501DF91CF911F910F91FF90EF9057
:10054000DF90CF90BF90AF900895FC01538D448D04
:10055000252F30E0842F90E0821B930B541710F06E
:10056000CF96089501970895FC01918D828D98177B
:1005700061F0A28DAE0FBF2FB11D5D968C91928D53
:100580009F5F9F73928F90E008958FEF9FEF089584
:10059000FC01918D828D981731F0828DE80FF11D4D
:1005A000858D90E008958FEF9FEF0895FC01918D68
:1005B000228D892F90E0805C9F4F821B91098F7361
:1005C0009927089583E892E00E94D60221E0892BC2
:1005D00009F420E0822F0895FC01A48DA80FB92F03
:1005E000B11DA35ABF4F2C91848D90E001968F735B
:1005F0009927848FA689B7892C93A089B1898C917A
:10060000837080648C93938D848D981306C00288C8
:10061000F389E02D80818F7D80830895EF92FF9292
:100620000F931F93CF93DF93EC0181E0888F9B8D15
:100630008C8D98131AC0E889F989808185FF15C0CF
:100640009FB7F894EE89FF896083E889F9898081F2
:100650008370806480839FBF81E090E0DF91CF91C1
:100660001F910F91FF90EF900895F62E0B8D10E0E3
:100670000F5F1F4F0F731127E02E8C8D8E110CC052
:100680000FB607FCFACFE889F989808185FFF5CF9D
:10069000CE010E94EC02F1CFEB8DEC0FFD2FF11D8E
:1006A000E35AFF4FF0829FB7F8940B8FEA89FB89DA
:1006B00080818062CFCFCF93DF93EC01888D882338
:1006C000B9F0AA89BB89E889F9898C9185FD03C0B5
:1006D000808186FD0DC00FB607FCF7CF8C9185FF9A
:1006E000F2CF808185FFEDCFCE010E94EC02E9CFF1
:1006F000DF91CF91089580E090E0892B29F00E944E
:10070000E20281110E94000080E090E0892B49F014
:1007100080E090E0892B29F00E94000081110E9466
:10072000000080E090E0892B49F080E090E0892B88
:1007300029F00E94000081110E94000080E090E0FA
:10074000892B49F080E090E0892B29F00E9400007D
:1007500081110C94000008958150823108F05AC034
:10076000E82FF0E08827E854FC4F8F4F0C94B4102A
:10077000D803DC03CA03D003D4030A04DF03E50370
:10078000E903EF03F303F703FD0301040A0405047F
:100790000B040F04809180008F7780938000089570
:1007A000809180008F7DF9CF80918000877FF5CF89
:1007B00084B58F7784BD089584B58F7DFBCF8091FC
:1007C000B0008F778093B00008958091B0008F7D46
:1007D000F9CF809190008F77809390000895809159
:1007E00090008F7DF9CF80919000877FF5CF809129
:1007F000A0008F778093A00008958091A0008F7D46
:10080000F9CF8091A000877FF5CF809120018F776D
:10081000809320010895809120018F7DF9CF8091F0
:100820002001877FF5CF1F93CF93DF93282F30E0F0
:10083000F901E854FD4F8491F901EE58FD4FD49130
:10084000F901E45DFD4FC491CC23A9F0162F81116D
:100850000E94AC03EC2FF0E0EE0FFF1FEE5EFD4FA9
:10086000A591B4918FB7F894EC91111108C0D0956F
:10087000DE23DC938FBFDF91CF911F910895DE2B94
:10088000F8CFFF920F931F93CF93DF93082F162F6C
:10089000F42EC22FD8E06C2FF11015C06170802F9C
:1008A0000E941304C69561E0812F0E94130460E04A
:1008B000812F0E941304D15071F7DF91CF911F91C6
:1008C0000F91FF900895661F6627661F802F0E9474
:1008D0001304CC0FE8CFCF93DF9390E0FC01EE58E8
:1008E000FD4F2491845D9D4FFC0184918823C9F0C4
:1008F00090E0880F991FFC01E850FE4FA591B4913C
:10090000FC01EE5EFD4FC591D49161110DC09FB702
:10091000F8948C91209582238C93888128232883B6
:100920009FBFDF91CF910895623051F49FB7F89443
:100930003C91822F809583238C93E8812E2BEFCFDF
:100940008FB7F894EC912E2B2C938FBFEACF3FB743
:10095000F89480917F0290918002A0918102B091E1
:10096000820226B5A89B05C02F3F19F00196A11D54
:10097000B11D3FBFBA2FA92F982F8827BC01CD01E9
:10098000620F711D811D911D42E0660F771F881F48
:10099000991F4A95D1F708952FB7F89460917B027B
:1009A00070917C0280917D0290917E022FBF08950C
:1009B0000F931F93CF93DF93EC012B8130E0F9016C
:1009C000E854FD4F8491F901EE58FD4F0491F9016F
:1009D000E45DFD4F14911123F1F081110E94AC03ED
:1009E000E12FF0E0EE0FFF1FE252FE4FA591B49110
:1009F000EC910E2331E020E009F430E0832F922FB8
:100A00002A81223010F421E082278170DF91CF917A
:100A10001F910F91089590E080E0F2CF0F931F9304
:100A2000CF93DF93EC01888199818130910581F129
:100A300030F0029709F474C01982188224C08C85A2
:100A40009D85892B89F00E94CC040A891B892C89F9
:100A50003D89601B710B820B930B683E73408105CF
:100A6000910510F01D861C86CE010E94D8048823B3
:100A700051F00E94CC046E877F87888B998B81E030
:100A800090E099838883DF91CF911F910F91089512
:100A90000E94CC040E851F8528893989AB01BC01D1
:100AA000401B510B620B730B8E819F81B0E0A0E065
:100AB000481759076A077B0730F3CE010E94D80414
:100AC000882309F4B9CF1B861A868E8D8E7F8660A7
:100AD0008E8F8C859D85892B31F40E94CC046A8B86
:100AE0007B8B8C8B9D8B88859985019699878887D0
:100AF0008C859D8501969D878C87EE89FF8930972F
:100B000011F0CE0119958C859D85029730F0EC8D02
:100B1000FD8D309711F0CE01199582E090E0B1CFB4
:100B2000CE010E94D8048823C9F10E94CC040E850E
:100B30001F8528893989AB01BC01401B510B620B11
:100B4000730B8C819D81B0E0A0E0481759076A07BC
:100B50007B0708F498CF0E94CC040E851F85288956
:100B60003989DC01CB01801B910BA20BB30B2A85C9
:100B70003B85820F931F9B878A870E94CC046E87D8
:100B80007F87888B998BE88DF98D309711F0CE0196
:100B900019958E8D8B7F81608E8F75CFEA8DFB8D41
:100BA000309709F449CFCE01199546CFFC01019049
:100BB0000020E9F73197AF01481B590BBC0183E8CE
:100BC00092E00C9478028F929F92AF92BF92CF9254
:100BD000DF92EF92FF92CF93DF93CDB7DEB7A1976D
:100BE0000FB6F894DEBF0FBECDBFC0907802D09094
:100BF00079028FEFC81AD80AD0927902C09278028F
:100C00000D2C000CEE08FF08F7FE5DC06DE283E8D6
:100C100092E00E940E0322273327A9012C193D09D7
:100C20004E095F0919A2FE01B1967F019AE0892E53
:100C3000912CA12CB12CCA01B901A50194010E94EB
:100C40007310605DF70162937F0121153105410545
:100C5000510589F7E114F10419F0C7010E94D60586
:100C60008EE492E00E94D6052091780230917902BC
:100C7000C90163E070E00E945F10892B41F4C90153
:100C800066E070E00E945F1060E0892B41F4C901CA
:100C900066E070E00E945F10892B21F461E08DE036
:100CA0000E941304A1960FB6F894DEBF0FBECDBF0D
:100CB000DF91CF91FF90EF90DF90CF90BF90AF90FA
:100CC0009F908F900895A701960119A2CE01819659
:100CD0007C018AE0882E912CA12CB12CCA01B9018B
:100CE000A50194010E947310605DF70162937F017A
:100CF000211531054105510589F7ACCF81E592E019
:100D00000E94D6058EE492E00C94D60586E692E029
:100D10000E94D6058EE492E00C94D6056F927F92E5
:100D20008F929F92AF92BF92CF92DF92EF92FF92FB
:100D30000F931F93CF93DF93CDB7DEB76DB67EB61B
:100D4000FC0101900020E9F7319720E2A22E23E078
:100D5000B22ED5011D96CD90DC902DB73EB72C1943
:100D60003D090FB6F8943EBF0FBE2DBFADB7BEB75D
:100D700011964D01EE24EA94FE2C8B019D01A601F3
:100D8000BC01DF01A81BB90BCD010E940702EDB722
:100D9000FEB7EC19FD090FB6F894FEBF0FBEEDBF0C
:100DA0000DB71EB70F5F1F4F2FEF3FEFA801B40124
:100DB000C6010E94C601A801B601D5015D968D91BC
:100DC0009C910E94B3010FB6F8947EBE0FBE6DBE1B
:100DD000DF91CF911F910F91FF90EF90DF90CF9017
:100DE000BF90AF909F908F907F906F90089563E435
:100DF00070E085E792E00C948E066CE470E080E58C
:100E000092E00C948E062F923F924F925F926F92D7
:100E10007F928F929F92AF92BF92CF92DF92EF928A
:100E2000FF920F931F93CF93DF93CDB7DEB72B01C4
:100E30003C018A012DB63EB6AC019B01D12CC12CE0
:100E40009AE0892E912CA12CB12C8FEFC81AD80AC8
:100E500057FF08C050954095309521953F4F4F4F13
:100E60005F4FF3CF2A303105410551053CF0CA01EF
:100E7000B901A50194010E949510E7CFEDB7FEB727
:100E8000EC19FD090FB6F894FEBF0FBEEDBF8DB78C
:100E90009EB701964C01F12C77FE0AC070946094C5
:100EA00050944094411C511C611C711CFF24F3940C
:100EB0005401AC0CBD1CC301B2012AE030E040E09B
:100EC00050E00E949510605DF50162935F01290179
:100ED0003A018E169F0679F7FF2019F08DE2F40192
:100EE0008083A0902D03B0902E038DB79EB78A19F2
:100EF0009B090FB6F8949EBF0FBE8DBFEDB7FEB72E
:100F000031963F01EE24EA94FE2C9F01A501B40125
:100F1000C6010E9407028DB79EB78A199B090FB6BA
:100F2000F8949EBF0FBE8DBF0DB71EB70F5F1F4F4A
:100F30002FEF3FEFA801B301C5010E94C601A80130
:100F4000B50180913D0390913E030E94B3010FB61D
:100F5000F8943EBE0FBE2DBEDF91CF911F910F9131
:100F6000FF90EF90DF90CF90BF90AF909F908F90C9
:100F70007F906F905F904F903F902F9008952F92A9
:100F80003F924F925F926F927F928F929F92AF9219
:100F9000BF92CF92DF92EF92FF920F931F93CF9366
:100FA000DF93CDB7DEB74B015C017A012DB63EB6BB
:100FB000BA01550F880B990B0E94A30C9B01AC0141
:100FC00060E070E080E291E40E94680EA501940167
:100FD0000E94020D2B013C0120E030E0A9010E949B
:100FE000630E20E030E040E05FE387FD33C0C301E3
:100FF000B2010E94C10D0E942D0E2B013C0120E088
:1010000030E040E85FEBC501B4010E94630E1816A2
:101010004CF420E030E0A901C501B4010E949C0C11
:1010200087FD29C0C501B4010E942D0ED12CC12C11
:101030002AE0822E912CA12CB12C2FEFC21AD20AB9
:1010400097FF0DC090958095709561957F4F8F4F5C
:101050009F4FF3CFC301B2010E94C00DCCCF6A30C5
:1010600071058105910554F0A50194010E94951028
:10107000CA01B901E2CF82E0C82ED12CCE0CDF1C10
:101080008DB79EB78C199D090FB6F8949EBF0FBE01
:101090008DBFEDB7FEB731964F0110E077FE09C066
:1010A0007094609450944094411C511C611C711CBC
:1010B00011E05401AC0CBD1CC301B2012AE030E0C8
:1010C00040E050E00E949510605DF50162935F0181
:1010D00029013A018E169F0679F7112319F08DE246
:1010E000F4018083A0902D03B0902E032DB73EB75E
:1010F0002A193B090FB6F8943EBF0FBE2DBF8DB71E
:101100009EB701963C0102E510E09C01A501B401E7
:10111000C6010E940702EDB7FEB7EA19FB090FB638
:10112000F894FEBF0FBEEDBF2DB73EB72F5F3F4F08
:1011300079019C01A701B301C5010E94C601A70165
:10114000B50180913D0390913E030E94B3010FB61B
:10115000F8943EBE0FBE2DBEDF91CF911F910F912F
:10116000FF90EF90DF90CF90BF90AF909F908F90C7
:101170007F906F905F904F903F902F9008951F92B7
:101180000F920FB60F9211240BB60F922F933F932D
:101190004F935F936F937F938F939F93AF93BF937F
:1011A000EF93FF9383E892E00E94EC02FF91EF91AE
:1011B000BF91AF919F918F917F916F915F914F916F
:1011C0003F912F910F900BBE0F900FBE0F901F906D
:1011D00018951F920F920FB60F9211240BB60F9213
:1011E0002F938F939F93EF93FF93E0919302F0914E
:1011F00094028081E0919902F0919A0282FD1DC0D3
:10120000908180919C028F5F8F7320919D02821745
:1012100041F0E0919C02F0E0ED57FD4F958F8093F7
:101220009C02FF91EF919F918F912F910F900BBE98
:101230000F900FBE0F901F9018958081F2CF1F92D4
:101240000F920FB60F9211242F933F938F939F937A
:10125000AF93BF9380917B0290917C02A0917D021D
:10126000B0917E0230917A0223E0230F2D3758F59A
:101270000196A11DB11D20937A0280937B02909369
:101280007C02A0937D02B0937E0280917F029091B8
:101290008002A0918102B09182020196A11DB11D30
:1012A00080937F0290938002A0938102B093820288
:1012B000BF91AF919F918F913F912F910F900FBE52
:1012C0000F901F90189526E8230F0296A11DB11DBF
:1012D000D2CFCF92DF92EF92FF921F93CF93DF9303
:1012E00000D01F92CDB7DEB7109286021092850211
:1012F00088EE93E0A0E0B0E08093870290938802AC
:10130000A0938902B0938A0288E292E090938402CB
:101310008093830285EC90E09093900280938F02FB
:1013200084EC90E0909392028093910280EC90E0A4
:10133000909394028093930281EC90E090939602B4
:101340008093950282EC90E09093980280939702AC
:1013500086EC90E090939A028093990210929C02FE
:1013600010929D0210929E0210929F0210929C0376
:1013700010929B0362E087E30E946B0410929C032F
:1013800010929B031092A9031092AA031092AB0330
:101390001092AC031092AD031092AE031092AF0303
:1013A0001092B00387E380939E0311E010939D0396
:1013B00088E8C82E83E1D82ED092A003C0929F0364
:1013C00094E1E92EF12CF092A203E092A103109295
:1013D000A4031092A3031092A6031092A5031092E7
:1013E000A8031092A7031092B2031092B1031092B7
:1013F000B4031092B3031092B6031092B503109287
:10140000B8031092B7031092B90310927D031092A3
:101410007C0362E088E30E946B0410927D031092CB
:101420007C0310928A0310928B0310928C0310920B
:101430008D0310928E0310928F03109290031092DE
:10144000910388E380937F0310937E03D0928103FE
:10145000C0928003F0928303E0928203109285038E
:1014600010928403109287031092860310928903CE
:101470001092880310929303109292031092950396
:10148000109294031092970310929603109299036E
:101490001092980310929A0310925E0310925D03CB
:1014A00062E089E30E946B0410925E0310925D0378
:1014B00010926B0310926C0310926D0310926E03E6
:1014C00010926F03109270031092710310927203C6
:1014D00089E38093600310935F03D0926203C0920C
:1014E0006103F0926403E09263031092660310922A
:1014F0006503109268031092670310926A031092BA
:101500006903109274031092730310927603109281
:101510007503109278031092770310927A03109259
:10152000790310927B031C821B8284E090E09A83F3
:101530008983909321038093200387E090E0909328
:1015400023038093220388E090E090932503809307
:10155000240361E084E00E946B0461E08091220337
:101560000E946B0461E0809124030E946B0410923E
:1015700026031093270310932803EEE3F2E02DE4F3
:1015800033E0819191918830910508F060C08A5CC8
:101590009D4FDC018C91D9018D939D01B2E0EE3419
:1015A000FB0779F710922A031092290310922C035B
:1015B00010922B03DE011196EDE2F3E090E080E063
:1015C00030E020E0F82E192F4D915D91141615068C
:1015D0000CF045C0BA01620F731F019669307105A6
:1015E000C4F130932A0320932903F0922B03109324
:1015F0002C0348E050E06FEF70E085E593E00E9437
:10160000D01060E0809120030E94130420E041E0AC
:1016100060912203809124030E94410420E041E074
:1016200060912203809124030E94410461E0809133
:1016300020030E9413040F900F900F900F90DF91E2
:10164000CF911F91FF90EF90DF90CF90089580E0B1
:10165000A2CF318B208B419351939B01B3CF309319
:101660002A032093290390932C0380932B03C1CF4B
:10167000789484B5826084BD84B5816084BD85B56D
:10168000826085BD85B5816085BD80916E00816079
:1016900080936E001092810080918100826080931F
:1016A0008100809181008160809381008091800021
:1016B0008160809380008091B10084608093B1004C
:1016C0008091B00081608093B00080919100826031
:1016D000809391008091910081608093910080912E
:1016E00090008160809390008091A100826080933F
:1016F000A1008091A10081608093A1008091A00051
:1017000081608093A00080912101826080932101FB
:10171000809121018160809321018091200181606D
:101720008093200180917A00846080937A00809178
:101730007A00826080937A0080917A008160809341
:101740007A0080917A00806880937A001092C100BC
:10175000E0919302F091940282E08083E0918F0205
:10176000F09190021082E0919102F09192028FEC40
:10177000808310929B02E0919702F091980286E09C
:101780008083E0919502F091960280818061808350
:10179000E0919502F0919602808188608083E091CB
:1017A0009502F0919602808180688083E091950295
:1017B000F091960280818F7D80838EE796E09093F2
:1017C000B2038093B10386E896E09093B6038093CA
:1017D000B50387EF96E090939303809392038DEF88
:1017E00096E0909397038093960383EE95E0909311
:1017F00074038093730342E550E06AE270E080E096
:1018000090E00E94030743E450E06AE270E080E069
:1018100090E00E94030741E050E067E876E189E448
:1018200090E40E94BF0742E050E067E876E189E477
:1018300090E40E94BF0761E08DE00E946B0461E0CC
:101840008DE00E9413048BE993E00E940E058CE763
:1018500093E00E940E058DE593E00E940E058091B5
:101860002703882309F446C0C0E2D3E0209129036E
:1018700030912A03CE0180529340821793070CF0D7
:1018800058C060E0809120030E94130480912803D7
:10189000811126C02DA540E0609122038091240390
:1018A0000E9441042DA940E060912203809124030D
:1018B0000E94410461E0809120030E9413040E9471
:1018C000A7046B017C010E94A7046C197D098E0995
:1018D0009F09683E734081059105A8F32196C6CF04
:1018E0002DA940E060912203809124030E944104CD
:1018F0002DA5D9CF60E0809120030E941304C091F0
:101900002903D0912A03C05EDC4F2197CE0180527B
:10191000934097FD09C02DA940E06091220380917A
:1019200024030E944104F1CF61E0809120030E94D2
:1019300013040E947B0387CF0E94DE0C08F481E031
:101940000895E89409C097FB3EF4909580957095B2
:1019500061957F4F8F4F9F4F9923A9F0F92F96E9FB
:10196000BB279395F695879577956795B795F11170
:10197000F8CFFAF4BB0F11F460FF1BC06F5F7F4F0D
:101980008F4F9F4F16C0882311F096E911C077231F
:1019900021F09EE8872F762F05C0662371F096E828
:1019A000862F70E060E02AF09A95660F771F881FF7
:1019B000DAF7880F9695879597F90895990F00089B
:1019C000550FAA0BE0E8FEEF16161706E807F90711
:1019D000C0F012161306E407F50798F0621B730BAC
:1019E000840B950B39F40A2661F0232B242B252B2D
:1019F00021F408950A2609F4A140A6958FEF811DD0
:101A0000811D08950E94150D0C94860D0E94780D7D
:101A100038F00E947F0D20F0952311F00C946F0D8B
:101A20000C94750D11240C94BA0D0E94970D70F34F
:101A3000959FC1F3950F50E0551F629FF001729F73
:101A4000BB27F00DB11D639FAA27F00DB11DAA1F82
:101A5000649F6627B00DA11D661F829F2227B00DCF
:101A6000A11D621F739FB00DA11D621F839FA00D5A
:101A7000611D221F749F3327A00D611D231F849FAA
:101A8000600D211D822F762F6A2F11249F57504001
:101A90009AF0F1F088234AF0EE0FFF1FBB1F661F7C
:101AA000771F881F91505040A9F79E3F510580F045
:101AB0000C946F0D0C94BA0D5F3FE4F3983ED4F391
:101AC000869577956795B795F795E7959F5FC1F7E9
:101AD000FE2B880F911D9695879597F9089597F994
:101AE0009F6780E870E060E008959FEF80EC0895C4
:101AF00000240A94161617061806090608950024ED
:101B00000A9412161306140605060895092E039466
:101B1000000C11F4882352F0BB0F40F4BF2B11F4DA
:101B200060FF04C06F5F7F4F8F4F9F4F089557FD39
:101B30009058440F551F59F05F3F71F04795880F3B
:101B400097FB991F61F09F3F79F0879508951216D2
:101B500013061406551FF2CF4695F1DF08C016167E
:101B600017061806991FF1CF86957105610508942F
:101B70000895E894BB2766277727CB0197F9089546
:101B80005058BB27AA270E94D80D0C94860D0E949E
:101B9000780D38F00E947F0D20F039F49F3F19F442
:101BA00026F40C94750D0EF4E095E7FB0C946F0D84
:101BB000E92F0E94970D58F3BA176207730784073D
:101BC000950720F079F4A6F50C94B90D0EF4E09584
:101BD0000B2EBA2FA02D0B01B90190010C01CA01E7
:101BE000A0011124FF27591B99F0593F50F4503E92
:101BF00068F11A16F040A22F232F342F4427585F84
:101C0000F3CF469537952795A795F0405395C9F79B
:101C10007EF41F16BA0B620B730B840BBAF0915053
:101C2000A1F0FF0FBB1F661F771F881FC2F70EC0F2
:101C3000BA0F621F731F841F48F4879577956795C5
:101C4000B795F7959E3F08F0B0CF9395880F08F0B1
:101C50009927EE0F9795879508950E94340E689402
:101C6000B1110C94BA0D08950E949F0D88F09F57F2
:101C700098F0B92F9927B751B0F0E1F0660F771FB0
:101C8000881F991F1AF0BA95C9F714C0B13091F0A6
:101C90000E94B90DB1E008950C94B90D672F782F0B
:101CA0008827B85F39F0B93FCCF38695779567956B
:101CB000B395D9F73EF490958095709561957F4FD7
:101CC0008F4F9F4F08950E94DE0C08F48FEF089508
:101CD000FA01EE0FFF1F309621053105A1F16115C4
:101CE000710561F48038BFE39B0749F1689490382F
:101CF000810561F08038BFEF9B0741F099234AF5D9
:101D0000FF3FE1053105210519F1E8940894E795B5
:101D1000D901AA2329F4AB2FBE2FF85FD0F310C04E
:101D2000FF5F70F4A695E0F7F73950F019F0FF3A2D
:101D300038F49F779F930DD00F9007FC905808952B
:101D400046F00C94750D60E070E080E89FE3089524
:101D50004FE79F775F934F933F932F930E94630FBB
:101D60002F913F914F915F910E94020D0C94C00EF4
:101D700029F416F00C946F0D0C94B90D0C94750D9C
:101D80000E949F0DA8F39638A0F707F80F92E894E9
:101D90002BE33AEA48EB5FE70E94180D0F920F928F
:101DA0000F924DB75EB70F920E94AB0FE4EEF0E0DA
:101DB0000E94F20E4F915F91EF91FF91E595EE1F1A
:101DC000FF1F49F0FE57E0684427EE0F441FFA95C5
:101DD000E1F74195550B0E94250F0F9007FE0C94DB
:101DE000190F0895DF93CF931F930F93FF92EF92F4
:101DF000DF927B018C01689406C0DA2EEF010E940D
:101E0000150DFE01E894A5912591359145915591C7
:101E1000A6F3EF010E94D80DFE019701A801DA9404
:101E200069F7DF90EF90FF900F911F91CF91DF91B5
:101E300008959B01AC0160E070E080E89FE30C94A2
:101E4000DF0F0C946F0D0C9451100E949F0DD8F36E
:101E50009923C9F3940F511DA3F39150504094F06E
:101E600059F0882332F0660F771F881F9150504039
:101E7000C1F79E3F51052CF7880F911D96958795C8
:101E800097F908955F3FACF0983E9CF0BB2786958C
:101E900077956795B79508F4B1609395C1F7BB0F37
:101EA00058F711F460FFE8CF6F5F7F4F8F4F9F4F60
:101EB000E3CF0C94BA0D16F00C9451100C94750DE0
:101EC00068940C946F0D0E949F0DA8F39923C1F3A1
:101ED000AEF3DF93CF931F930F93FF92C92FDD27AC
:101EE00088232AF02197660F771F881FDAF720E0F2
:101EF00030E040E85FEB9FE3883920F0803E38F027
:101F000021968F770E94C10DECE0F1E004C00E94A1
:101F1000C10DE9E3F1E00E94F20E8B01BE01EC017C
:101F2000FB2E6F5771097595771F880B990B0E94CF
:101F3000A30C28E132E741E35FE30E94150DAF2DCA
:101F40009801AE01FF900F911F91CF91DF910E94F8
:101F5000D80D0C94860DFA01DC01AA0FBB1F9B0162
:101F6000AC01BF5728F4222733274427507820C0DC
:101F7000B75190F4AB2F0024469537952795011C57
:101F8000A395D2F3002071F0220F331F441FB395A5
:101F9000DAF30ED00C94C00D61307105A0E88A0709
:101FA000B94630F49B01AC016627772788279078E3
:101FB000309621F0208331834283538308950E9419
:101FC000F30F0C94860D0E947F0D58F00E94780D3F
:101FD00040F029F45F3F29F00C946F0D51110C94DF
:101FE000BA0D0C94750D0E94970D68F39923B1F307
:101FF000552391F3951B550BBB27AA27621773072F
:10200000840738F09F5F5F4F220F331F441FAA1FC2
:10201000A9F335D00E2E3AF0E0E832D0915050407E
:10202000E695001CCAF72BD0FE2F29D0660F771F2C
:10203000881FBB1F261737074807AB07B0E809F012
:10204000BB0B802DBF01FF2793585F4F3AF09E3F97
:10205000510578F00C946F0D0C94BA0D5F3FE4F3CA
:10206000983ED4F3869577956795B795F7959F5FDA
:10207000C9F7880F911D9695879597F90895E1E026
:10208000660F771F881FBB1F621773078407BA0785
:1020900020F0621B730B840BBA0BEE1F88F7E095E0
:1020A00008959F3F31F0915020F48795779567957B
:1020B000B795880F911D9695879597F9089597FB89
:1020C000072E16F4009407D077FD09D00E94BC10AB
:1020D00007FC05D03EF4909581959F4F089570952B
:1020E00061957F4F0895A1E21A2EAA1BBB1BFD012B
:1020F0000DC0AA1FBB1FEE1FFF1FA217B307E407E7
:10210000F50720F0A21BB30BE40BF50B661F771F3E
:10211000881F991F1A9469F760957095809590951E
:102120009B01AC01BD01CF010895052E97FB1EF464
:1021300000940E94AC1057FD07D00E94731007FC5A
:1021400003D04EF40C94AC105095409530952195E9
:102150003F4F4F4F5F4F08959095809570956195D3
:102160007F4F8F4F9F4F0895EE0FFF1F881F8BBF2C
:102170000790F691E02D1994AA1BBB1B51E107C0F3
:10218000AA1FBB1FA617B70710F0A61BB70B881F07
:10219000991F5A95A9F780959095BC01CD01089596
:1021A000DC0101C06D9341505040E0F70895F89470
:1021B000FFCFEE3E9C7A9E8EBC6E0C78AE1CEC2A55
:1021C0003ACEE68CB61E387C7E6C76DAFC60DAF2AB
:1021D00066B6BEE0FEE6000000000E037802A5022F
:1021E0005B03D602B402C80280402010080402013A
:1021F00000000100020003000400050006000700C3
:102200000D0A00426F74616F203120707265737324
:10221000696F6E61646F2100426F74616F203120BD
:0A222000736F6C746F2100444800D6
:020000040003F7
:10E000000D9489F10D94B2F10D94B2F10D94B2F129
:10E010000D94B2F10D94B2F10D94B2F10D94B2F1F0
:10E020000D94B2F10D94B2F10D94B2F10D94B2F1E0
:10E030000D94B2F10D94B2F10D94B2F10D94B2F1D0
:10E040000D94B2F10D94B2F10D94B2F10D94B2F1C0
:10E050000D94B2F10D94B2F10D94B2F10D94B2F1B0
:10E060000D94B2F10D94B2F10D94B2F10D94B2F1A0
:10E070000D94B2F10D94B2F10D94B2F10D94B2F190
:10E080000D94B2F10D94B2F10D94B2F10D94B2F180
:10E090000D94B2F10D94B2F10D94B2F10D94B2F170
:10E0A0000D94B2F10D94B2F10D94B2F10D94B2F160
:10E0B0000D94B2F10D94B2F10D94B2F10D94B2F150
:10E0C0000D94B2F10D94B2F10D94B2F10D94B2F140
:10E0D0000D94B2F10D94B2F10D94B2F10D94B2F130
:10E0E0000D94B2F141546D656761323536300041AF
:10E0F000726475696E6F206578706C6F72657220DE
:10E1000073746B3530305632206279204D4C530099
:10E11000426F6F746C6F616465723E004875683F52
:10E1200000436F6D70696C6564206F6E203D200048
:10E130004350552054797065202020203D20005FF9
:10E140005F4156525F415243485F5F3D2000415658
:10E1500052204C696243205665723D20004743437C
:10E160002056657273696F6E203D20004350552024
:10E1700049442020202020203D20004C6F7720663D
:10E18000757365202020203D20004869676820665F
:10E190007573652020203D200045787420667573D6
:10E1A00065202020203D20004C6F636B2066757336
:10E1B000652020203D20004D617220203720323024
:10E1C000313300312E362E3800342E332E350056A2
:10E1D00023202020414444522020206F7020636F70
:10E1E00064652020202020696E73747275637469E1
:10E1F0006F6E2061646472202020496E74657272B3
:10E20000757074006E6F20766563746F7200726A49
:10E210006D702020006A6D70200057686174207056
:10E220006F72743A00506F7274206E6F7420737541
:10E2300070706F72746564004D7573742062652030
:10E2400061206C6574746572002000577269747483
:10E25000696E672045450052656164696E672045B7
:10E26000450045452065727220636E743D00504F35
:10E27000525400303D5A65726F2061646472003FF1
:10E280003D43505520737461747300403D454550C3
:10E29000524F4D207465737400423D426C696E6B41
:10E2A000204C454400453D44756D70204545505215
:10E2B0004F4D00463D44756D7020464C415348001B
:10E2C000483D48656C70004C3D4C69737420492F83
:10E2D0004F20506F72747300513D51756974005234
:10E2E0003D44756D702052414D00563D73686F7707
:10E2F00020696E7465727275707420566563746FF0
:10E30000727300593D506F727420626C696E6B00BD
:10E310002A0011241FBECFEFD1E2DEBFCDBF01E046
:10E320000CBF12E0A0E0B2E0EEE1FDEF03E00BBFB6
:10E3300002C007900D92A030B107D9F712E0A0E01B
:10E34000B2E001C01D92AE30B107E1F70F9460F367
:10E350000D948DFE01E20EBF0FEF0DBF11241FBE05
:10E360000D9460F30D9400F020E030E040ED57E0B4
:10E3700005C0FA013197F1F72F5F3F4F2817390792
:10E38000C0F308959C01260F311DC901A0E0B0E043
:10E390002F5F3F4FABBFFC018791882361F08093D3
:10E3A000C6008091C00086FFFCCF8091C0008064D1
:10E3B0008093C000EACF08958DE08093C6008091DD
:10E3C000C00086FFFCCF8091C00080648093C000B5
:10E3D0008AE08093C6008091C00086FFFCCF8091C8
:10E3E000C00080648093C00008950F94C2F10F9420
:10E3F000DCF10895FC019081992359F09093C600B7
:10E400008091C00086FFFCCF8091C0008064809323
:10E41000C0003196992379F70895282F982F929567
:10E420009F70892F805D8A3308F0895F8093C600D2
:10E430008091C00086FFFCCF8091C00080648093F3
:10E44000C000822F8F70982F905D9A3308F0995FEB
:10E450009093C6008091C00086FFFCCF8091C000E1
:10E4600080648093C00008959C01FB01853691056E
:10E470001CF46330710594F0C90164E670E00F94F8
:10E480002EFE605D7F4F6093C6008091C00086FFC6
:10E49000FCCF8091C00080648093C0002B30310598
:10E4A00014F43297B4F0C90164E670E00F942EFEC4
:10E4B0006AE070E00F942EFE605D7F4F6093C600AF
:10E4C0008091C00086FFFCCF8091C0008064809363
:10E4D000C000C9016AE070E00F942EFEC0968093E0
:10E4E000C6008091C00086FFFCCF8091C000806490
:10E4F0008093C00008951F93182F8EE692EE60E07F
:10E500000F94C2F11093C6008091C00086FFFCCF2B
:10E510008091C00080648093C0000F94DCF11F9153
:10E5200008952F923F924F925F926F927F928F92B7
:10E530009F92AF92BF92CF92DF92EF92FF920F9392
:10E540001F93DF93CF93CDB7DEB762970FB6F894E2
:10E55000DEBF0FBECDBF382E622ECA01DB015C01CB
:10E560006D01772420E2222E2E010894411C511CBB
:10E570008BC081E0A81680E0B80681E0C80680E084
:10E58000D80628F0C601AA27BB270F940DF2BB2797
:10E59000AD2D9C2D8B2D0F940DF28A2D0F940DF225
:10E5A0002092C6008091C00086FFFCCF8091C00001
:10E5B00080648093C0009DE29093C6008091C0006B
:10E5C00086FFFCCF8091C00080648093C0002092C1
:10E5D000C6008091C00086FFFCCF8091C00080649F
:10E5E0008093C00019828601750188249924A1E0D6
:10E5F0003A1651F03A1620F0B2E03B1661F409C029
:10E600000BBFF701779007C0C7010F9477FE782EF4
:10E6100002C0F7017080872D0F940DF22092C60082
:10E620008091C00086FFFCCF8091C0008064809301
:10E63000C000872D8052F401EF70F0708F3520F408
:10E64000E40DF51D708204C0E40DF51D8EE280839B
:10E650000894E11CF11C011D111D0894811C911CE2
:10E6600090E18916910409F0C2CF80E190E0A0E02A
:10E67000B0E0A80EB91ECA1EDB1E198AC2010F9493
:10E68000FAF10F94DCF16A94662009F072CF629679
:10E690000FB6F894DEBF0FBECDBFCF91DF911F91B3
:10E6A0000F91FF90EF90DF90CF90BF90AF909F9031
:10E6B0008F907F906F905F904F903F902F90089534
:10E6C0002F923F924F925F926F927F928F929F9282
:10E6D000AF92BF92CF92DF92EF92FF920F931F9370
:10E6E000DF93CF93CDB7DEB7CD53D1400FB6F894BB
:10E6F000DEBF0FBECDBF01E20EBF0FEF0DBF94B75F
:10E70000F894A89514BE80916000886180936000A1
:10E7100010926000789493FF05C0E0910002F091A0
:10E7200001021995279A2F9A8091C00082608093E8
:10E73000C00080E18093C40088E18093C1000000A4
:10E74000EE24FF24870144E0A42EB12CCC24DD2448
:10E7500024C0C5010197F1F70894E11CF11C011DCB
:10E76000111D21E2E2162EE4F20620E0020720E06D
:10E77000120718F031E0C32ED12CC801B70127ECE5
:10E780003BE140E050E00F9441FE611571058105C9
:10E79000910519F485B1805885B98091C00087FD35
:10E7A00003C0C114D104A9F2A6014F5F5F4FC25E3E
:10E7B000DE4F59834883CE51D140C25EDE4F8881FF
:10E7C0009981CE51D140019711F00D9410FEC05D9A
:10E7D000DE4F19821882C053D14060E0C15DDE4F28
:10E7E0001882CF52D14088249924C35DDE4F19820C
:10E7F0001882CD52D140C05EDE4F188219821A8233
:10E800001B82C052D140CE5CDE4F188219821A8220
:10E810001B82C253D140EE24FF2487010BBFF701B6
:10E8200007911691C45CDE4F19830883CC53D14005
:10E830000D940BFEC25EDE4F28813981CE51D1404E
:10E840002130310509F52091C600C25EDE4F1982E4
:10E850001882CE51D14022C02F5F3F4F4F4F5F4FA4
:10E86000213082E138078AE7480780E0580780F0C6
:10E87000C45CDE4FE881F981CC53D140EF5FFF4F9C
:10E8800019F0EE27FF27099420E030E040E050E047
:10E890008091C00087FFE0CF2091C600C35DDE4FAE
:10E8A00048815981CD52D1404F5F5F4FC35DDE4FEC
:10E8B00059834883CD52D140213209F063C64A3092
:10E8C000510508F05FC60894811C911C53E0851621
:10E8D000910409F059C600E010E018C081E280936D
:10E8E000C6008091C00086FFFCCF8091C00080648C
:10E8F0008093C0002F5F3F4F2931310579F70F9486
:10E90000DCF10F5F1F4F0530110519F020E030E0FA
:10E91000E5CF10920A0210920B0210920C02109294
:10E920000D02109206021092070210920802109235
:10E930000902109202021092030210920402109235
:10E9400005028FEE90EE60E00F94F5F180E191EE1C
:10E9500060E00F94C2F18091C00087FFFCCF9091DE
:10E96000C600903608F09F759032B8F09093C600BC
:10E970008091C00086FFFCCF8091C00080648093AE
:10E98000C000A0E2A093C6008091C00086FFFCCF2B
:10E990008091C00080648093C000983409F4D7C18E
:10E9A0009934B8F4923409F459C1933458F490333B
:10E9B00019F1903308F4E3C59F33A1F1903409F0C5
:10E9C000DEC5BDC0953409F470C1963409F0D7C5D1
:10E9D00098C1923509F42BC2933538F49C3409F46C
:10E9E000F5C1913509F0CBC518C2963509F445C279
:10E9F000993509F0C4C567C483E792EE62E00F94CD
:10EA0000F5F110920602109207021092080210927D
:10EA1000090210920A0210920B0210920C0210923C
:10EA20000D0213C18FE792EE62E00F94F5F18FEEC5
:10EA300090EE60E00F94F5F181E291EE60E00F94CA
:10EA4000C2F187EB91EE60E00F94F5F180E391EE77
:10EA500060E00F94C2F184EE90EE60E00F94F5F167
:10EA60008FE391EE60E00F94C2F186E090E061E008
:10EA700070E00F9434F20F94DCF18DE591EE60E0DC
:10EA80000F94C2F189EC91EE60E00F94F5F18EE401
:10EA900091EE60E00F94C2F183EC91EE60E00F9490
:10EAA000F5F18CE691EE60E00F94C2F18EE10F94E7
:10EAB0000DF288E90F940DF281E00F940DF20F949E
:10EAC000DCF18BE791EE60E00F94C2F119E0E0E039
:10EAD000F0E010935700E4918E2F0F940DF20F94F5
:10EAE000DCF18AE891EE60E00F94C2F1E3E0F0E03F
:10EAF00010935700E4918E2F0F940DF20F94DCF1D8
:10EB000089E991EE60E00F94C2F1E2E0F0E0109349
:10EB10005700E4918E2F0F940DF20F94DCF188EAE8
:10EB200091EE60E00F94C2F1E1E0F0E01093570045
:10EB30001491812F0F940DF20F94DCF107CF8BE825
:10EB400092EE62E00F94F5F18BE492EE60E00F94A8
:10EB5000F5F10F94DCF100E010E019C0C8016F2D51
:10EB60000F947FFEFF2031F489E492EE60E00F9471
:10EB7000C2F10BC0F092C6008091C00086FFFCCFAE
:10EB80008091C00080648093C0000F5F1F4FC80158
:10EB900081519F41A0E0B0E0ABBFFC01F790BAE229
:10EBA000FB1621F0E2E000301E07C1F60F94DCF105
:10EBB0000F94DCF187E592EE60E00F94F5F10F948D
:10EBC000DCF1CC24DD2400E010E01EC0C8010F946D
:10EBD00077FEF82E882331F489E492EE60E00F94FA
:10EBE000C2F10BC08093C6008091C00086FFFCCFAD
:10EBF0008091C00080648093C000FE1419F00894D6
:10EC0000C11CD11C0F5F1F4FC80181519F41A0E063
:10EC1000B0E0ABBFFC01E790FAE2EF1621F022E092
:10EC20000030120799F60F94DCF10F94DCF182E6C4
:10EC300092EE60E00F94C2F1C60161E070E00F94C3
:10EC400034F20F94DCF10F94DCF110920202109276
:10EC50000302109204021092050278CE89E992EE26
:10EC600062E00F94F5F1279A2F9A16C02F9880E052
:10EC700090E0E0EDF7E03197F1F7019684369105E9
:10EC8000C1F72F9A80E090E0E0EDF7E03197F1F7DF
:10EC9000019684369105C1F78091C00087FFE6CFC9
:10ECA0008091C00087FFFCCF64C485EA92EE62E0E9
:10ECB0000F94F5F140910202509103026091040219
:10ECC0007091050281E020E10F9491F2809102029F
:10ECD00090910302A0910402B091050280509F4FD1
:10ECE000AF4FBF4F8093020290930302A0930402A0
:10ECF000B093050280509041A040B04008F426CE69
:10ED0000A4CF83EB92EE62E00F94F5F140910602FE
:10ED100050910702609108027091090280E020E1A1
:10ED20000F9491F28091060290910702A09108023F
:10ED3000B091090280509F4FAF4FBF4F80930602A2
:10ED400090930702A0930802B0930902FFCD80ECD4
:10ED500092EE62E00F94F5F183E792EE60E00F949B
:10ED6000F5F18FE792EE60E00F94F5F18BE892EE0B
:10ED700060E00F94F5F189E992EE60E00F94F5F10F
:10ED800085EA92EE60E00F94F5F183EB92EE60E09D
:10ED90000F94F5F180EC92EE60E00F94F5F187ECC2
:10EDA00092EE60E00F94F5F188ED92EE60E00F9442
:10EDB000F5F18FED92EE60E00F94F5F18AEE92EEB0
:10EDC00060E00F94F5F183E093EEBDCD87EC92EE19
:10EDD00062E00F94F5F181E40F947BF282E40F94EA
:10EDE0007BF283E40F947BF284E40F947BF285E45E
:10EDF0000F947BF286E40F947BF287E40F947BF20E
:10EE000088E40F947BF28AE40F947BF28BE40F94F6
:10EE10007BF28CE40F947BF299CD88ED92EE62E068
:10EE20000F94F5F1772473948824992409C48FED05
:10EE300092EE62E00F94F5F140910A0250910B02BC
:10EE400060910C0270910D0282E020E10F9491F22A
:10EE500080910A0290910B02A0910C02B0910D02D8
:10EE600080509F4FAF4FBF4F80930A0290930B0289
:10EE7000A0930C02B0930D0269CD8AEE92EE62E08F
:10EE80000F94F5F184EE90EE60E00F94F5F18FECC5
:10EE900091EE60E00F94F5F1662477244301CC5D98
:10EEA000DE4F19821882C452D140D401C301B695F5
:10EEB000A79597958795CA5DDE4F88839983AA8326
:10EEC000BB83C652D140CC5DDE4FA881B981C4520C
:10EED000D1401196CC5DDE4FB983A883C452D14096
:10EEE000CD0162E070E00F9434F2B0E2B093C6005E
:10EEF0008091C00086FFFCCF8091C0008064809329
:10EF0000C000EDE2E093C6008091C00086FFFCCF18
:10EF10008091C00080648093C000F0E2F093C6004E
:10EF20008091C00086FFFCCF8091C00080648093F8
:10EF3000C000CA5DDE4FE880F9800A811B81C6529D
:10EF4000D140BB27A12F902F8F2D0F940DF2CA5DBA
:10EF5000DE4F8881C652D1400F940DF2B0E2FB2EF5
:10EF6000F092C6008091C00086FFFCCF8091C00067
:10EF700080648093C0000DE30093C6008091C000C0
:10EF800086FFFCCF8091C00080648093C00010E2B7
:10EF90001093C6008091C00086FFFCCF8091C00016
:10EFA00080648093C0008BBEF3012791C65DDE4F65
:10EFB0002883CA52D140A22EBB24CC24DD2408943D
:10EFC000611C711C811C911C8BBEF3018791282E42
:10EFD0003324442455240894611C711C811C911C09
:10EFE0008BBEF3013791C55DDE4F3883CB52D140E4
:10EFF0000894611C711C811C911C8BBEF30147910C
:10F00000C45DDE4F4883CC52D140ADEFEA2EAFEF66
:10F01000FA2EAFEF0A2FAFEF1A2F6E0C7F1C801E57
:10F02000911E142D032DF22CEE24EA0CFB1C0C1D5A
:10F030001D1D0F940DF220E22093C6008091C000A8
:10F0400086FFFCCF8091C00080648093C000C65DC5
:10F05000DE4F8881CA52D1400F940DF230E23093D6
:10F06000C6008091C00086FFFCCF8091C000806404
:10F070008093C000C45DDE4F8881CC52D1400F9494
:10F080000DF240E24093C6008091C00086FFFCCFA5
:10F090008091C00080648093C000C55DDE4F888190
:10F0A000CB52D1400F940DF250E25093C6008091A4
:10F0B000C00086FFFCCF8091C00080648093C000B8
:10F0C0008FEFE8168FEFF80680E0080780E018075A
:10F0D00031F484E092EE60E00F94C2F1DFC0D80119
:10F0E000C7018070907CA070B0708050904CA040A0
:10F0F000B040D1F52FEF3FE340E050E0E222F322B1
:10F1000004231523CA5DDE4FA880B980CA80DB8046
:10F11000C652D140AE0CBF1CC01ED11EAA0CBB1CD7
:10F12000CC1CDD1C8EE092EE60E00F94C2F1BB2798
:10F13000A12F902F8F2D0F940DF28E2D0F940DF285
:10F1400030E23093C6008091C00086FFFCCF8091F2
:10F15000C00080648093C0004EE34093C60080915D
:10F16000C00086FFFCCF87C08EE09EEFA0E0B0E03D
:10F17000E822F9220A231B239CE0E91694E9F90608
:10F1800090E0090790E0190709F088C0C45DDE4FE0
:10F19000A881CC52D140EA2EFF2400E010E0102FCD
:10F1A0000F2DFE2CEE24C55DDE4FB881CB52D14031
:10F1B000EB0EF11C011D111DD601C501817090706F
:10F1C000A070B070DC0199278827E80EF91E0A1F8D
:10F1D0001B1F20EF30E040E050E0A222B322C42207
:10F1E000D52241E1AA0CBB1CCC1CDD1C4A95D1F7F1
:10F1F000EA0CFB1C0C1D1D1D81E090E0A0E0B0E0BE
:10F20000282239224A225B2235E1220C331C441C7D
:10F21000551C3A95D1F7E20CF31C041D151D57013E
:10F220006801AA0CBB1CCC1CDD1C85E192EE60E0E1
:10F230000F94C2F1C801AA27BB270F940DF2BB2778
:10F24000A12F902F8F2D0F940DF28E2D0F940DF274
:10F2500090E29093C6008091C00086FFFCCF809121
:10F26000C00080648093C000AEE3A093C60080918C
:10F27000C00086FFFCCF8091C00080648093C000F6
:10F28000C601AA27BB270F940DF2BB27AD2D9C2DDD
:10F290008B2D0F940DF28A2D0F940DF20F94DCF14B
:10F2A000CC5DDE4FE881F981C452D140F99709F471
:10F2B0004DCBF4E0EF2EF12C012D112D6E0C7F1CA7
:10F2C000801E911EF2CD83E093EE62E00F94F5F183
:10F2D0008AE192EE60E00F94C2F18091C00087FF56
:10F2E000FCCF1091C6001F751093C6008091C0001E
:10F2F00086FFFCCF8091C00080648093C0000F9493
:10F30000DCF1812F81548A3108F036C1163409F4BA
:10F3100095C0173490F4133409F44EC0143430F40B
:10F320001134F1F0123409F01DC130C0143409F465
:10F3300059C0153409F016C16BC01A3409F4C4C0A1
:10F340001B3438F4173409F48FC0183409F00AC19B
:10F35000A1C01B3409F4D2C01C3409F003C1E8C0B9
:10F360008FEF81B90DC082B1809582B980E090E0C5
:10F37000E0EDF7E03197F1F70196883C9105C1F790
:10F380008091C00087FFEFCF12B8EFC08FEF84B934
:10F390000DC085B1809585B980E090E0E0EDF7E0A3
:10F3A0003197F1F70196883C9105C1F78091C00033
:10F3B00087FFEFCF15B8D9C08FEF87B90DC088B1DF
:10F3C000809588B980E090E0E0EDF7E03197F1F7C3
:10F3D0000196883C9105C1F78091C00087FFEFCF6F
:10F3E00018B8C3C08FEF8AB90DC08BB180958BB9A7
:10F3F00080E090E0E0EDF7E03197F1F70196883C8E
:10F400009105C1F78091C00087FFEFCF1BB8ADC059
:10F410008FEF8DB90DC08EB180958EB980E090E0F0
:10F42000E0EDF7E03197F1F70196883C9105C1F7DF
:10F430008091C00087FFEFCF1EB897C08FEF80BBD1
:10F440000DC081B3809581BB80E090E0E0EDF7E0F6
:10F450003197F1F70196883C9105C1F78091C00082
:10F4600087FFEFCF11BA81C08FEF83BB0DC084B38C
:10F47000809584BB80E090E0E0EDF7E03197F1F714
:10F480000196883C9105C1F78091C00087FFEFCFBE
:10F4900014BA6BC08FEF809301010FC080910201FD
:10F4A00080958093020180E090E0E0EDF7E03197F5
:10F4B000F1F70196883C9105C1F78091C00087FF64
:10F4C000EDCF1092020151C08FEF809304010FC065
:10F4D0008091050180958093050180E090E0E0ED4A
:10F4E000F7E03197F1F70196883C9105C1F78091DB
:10F4F000C00087FFEDCF1092050137C08FEF8093DA
:10F5000007010FC08091080180958093080180E079
:10F5100090E0E0EDF7E03197F1F70196883C910536
:10F52000C1F78091C00087FFEDCF109208011DC088
:10F530008FEF80930A010FC080910B01809580931B
:10F540000B0180E090E0E0EDF7E03197F1F70196F4
:10F55000883C9105C1F78091C00087FFEDCF1092E4
:10F560000B0103C085E292EEEEC98091C00087FFD7
:10F57000FCCF8091C600EAC988E392EEE4C98CE131
:10F5800091EEE1C988249924933011F1943028F444
:10F59000913089F09230B8F408C0953061F195301F
:10F5A000F0F0963009F048C043C02B3109F042C951
:10F5B00091E06BE13FC96227C15DDE4F2883CF52E6
:10F5C000D14092E037C9B22FA0E0622793E032C960
:10F5D000822F90E0A82BB92B622794E02BC92E3004
:10F5E00009F039C3622795E0C05DDE4F19821882A9
:10F5F000C053D1401FC9E1E0F0E0EC0FFD1FC05D3A
:10F60000DE4F08811981C053D140E00FF11F2083E4
:10F610000F5F1F4FC05DDE4F19830883C053D14079
:10F6200062270A171B0709F005C9D80196E002C92D
:10F63000261709F010C303C0973009F0FBC87724E0
:10F640009981933109F412C19431C8F4963009F4C8
:10F65000D8C0973050F4923009F406C1933009F4C1
:10F660006DC0913009F059C253C0913109F477C08F
:10F67000923108F0BBC0903109F04FC2F5C098310B
:10F6800009F487C0993150F4953109F4EFC09531F0
:10F6900008F4C6C1963109F040C2C2C19A3109F4DA
:10F6A0006CC09A3108F491C09B3109F45BC09D3164
:10F6B00009F033C29D81903359F48F81882311F46E
:10F6C0009EE11CC0813011F091E018C098E916C08D
:10F6D000892F807591F0903539F4E0E0F0E089E011
:10F6E0008093570094910AC0983539F4E3E0F0E034
:10F6F00089E080935700949101C090E01A821B82A8
:10F700008D818C831D829E831F8227E030E009C299
:10F710001A8288E08B8381E48C8386E58D8382E581
:10F720008E8389E48F8383E5888780E589878FE5E9
:10F730008A8782E38B872BE030E0F3C18A818139AD
:10F7400041F0823941F0803911F48FE005C080E04A
:10F7500003C082E001C08AE01A828B8344C0772410
:10F76000739482C08D81882311F48EE12CC0813086
:10F7700011F081E028C088E926C01A82E1E0F0E0BB
:10F7800089E08093570084918B831C8224E030E0D1
:10F79000C8C18B81803589F48C81883039F4E2E0EE
:10F7A000F0E089E08093570084910DC0E0E0F0E044
:10F7B00089E080935700849106C0E3E0F0E089E09F
:10F7C0008093570084911A82DFCF8D81836C99E0FA
:10F7D000E1E0F0E0082E90935700E89507B600FCB2
:10F7E000FDCF1A821B8223E030E09BC180EC8A832C
:10F7F000CE5CDE4F188219821A821B82C253D1401E
:10F800008EC18A8190E0A0E0B0E0582F44273327D2
:10F8100022278B8190E0A0E0B0E0DC0199278827C7
:10F82000282B392B4A2B5B2B8D8190E0A0E0B0E098
:10F83000282B392B4A2B5B2B8C8190E0A0E0B0E089
:10F84000BA2FA92F982F8827282B392B4A2B5B2BCF
:10F85000220F331F441F551FC05EDE4F288339839C
:10F860004A835B83C052D1401A8259C13A81C95C34
:10F87000DE4F3883C753D140CA5CDE4F1882C6536F
:10F88000D1408B81C82EDD24CA5CDE4F488159816E
:10F89000C653D140C42AD52A933109F082C0CE5C28
:10F8A000DE4F88819981AA81BB81C253D1408050AB
:10F8B000904CA340B04030F583E0CE5CDE4FE88052
:10F8C000F9800A811B81C253D140F70100935B008C
:10F8D00080935700E89507B600FCFDCFCE5CDE4F65
:10F8E000088119812A813B81C253D14000501F4FAA
:10F8F0002F4F3F4FCE5CDE4F088319832A833B8313
:10F90000C253D140C05EDE4F488159816A817B81FC
:10F91000C052D140DE011B9631E08C9111962C91A2
:10F9200011971296C75CDE4F2883C953D140C85C3B
:10F93000DE4F1882C853D14090E0C85CDE4FE881AA
:10F94000F981C853D1408E2B9F2B0C01FA01609393
:10F950005B0030935700E89511244E5F5F4F6F4F67
:10F960007F4F0EEFE02E0FEFF02ECE0CDF1CC114F8
:10F97000D10499F685E0C05EDE4F088119812A81A5
:10F980003B81C052D140F80120935B008093570027
:10F99000E89507B600FCFDCF81E180935700E8951C
:10F9A00035C0C05EDE4F88819981AA81BB81C0527B
:10F9B000D140B695A795979587957C018601ABE0D8
:10F9C000AA2EB12CAC0EBD1E0BC0D5016D915D01F0
:10F9D000C7010F947FFE0894E11CF11C01501040F8
:10F9E0000115110591F7A60160E070E0440F551F65
:10F9F000661F771FC05EDE4FE880F9800A811B8199
:10FA0000C052D1404E0D5F1D601F711F1A82C05E33
:10FA1000DE4F488359836A837B83C052D1407FC0C5
:10FA2000FA80C55CDE4FF882CB53D140C65CDE4F16
:10FA30001882CA53D1408B81C82EDD24C65CDE4FAC
:10FA400008811981CA53D140C02AD12A1A828981DA
:10FA5000BE016D5F7F4F843121F59601C05EDE4FA0
:10FA6000E880F9800A811B81C052D1400BBFF701A9
:10FA700087919691DB018C9311969C936E5F7F4FDB
:10FA8000D801C7010296A11DB11DC05EDE4F88835B
:10FA90009983AA83BB83C052D14022503040F1F6F3
:10FAA00036C0C05EDE4F288139814A815B81C052F9
:10FAB000D1400894C108D108760100E010E0089414
:10FAC000C11CD11C0894E11CF11C011D111DE20E8A
:10FAD000F31E041F151F21BDBB27A52F942F832FB5
:10FAE00082BD2F5F3F4F4F4F5F4FF89A80B5DB01CC
:10FAF0008D93BD012E153F054007510761F7C05E8C
:10FB0000DE4F288339834A835B83C052D1409601FC
:10FB10002D5F3F4FFB01108204C080EC8A8322E0FE
:10FB200030E08BE18093C6008091C00086FFFCCF5F
:10FB30008091C00080648093C000C15DDE4FF88179
:10FB4000CF52D140F093C6008091C00086FFFCCF19
:10FB50008091C00080648093C000432F3093C60022
:10FB60008091C00086FFFCCF8091C00080648093AC
:10FB7000C000922F2093C6008091C00086FFFCCF6A
:10FB80008091C00080648093C0008EE08093C600A6
:10FB90008091C00086FFFCCF8091C000806480937C
:10FBA000C00065E1C15DDE4FE880CF52D1406E25D7
:10FBB00069276427FE01319610C090819093C6009A
:10FBC0008091C00086FFFCCF31968091C000806498
:10FBD0008093C0006927215030402115310569F715
:10FBE0006093C6008091C00086FFFCCF8091C0006A
:10FBF00080648093C00085B1805885B9772081F4F6
:10FC0000C15DDE4F0881CF52D1400F5FC15DDE4F35
:10FC10000883CF52D14090E0A0E0B0E00D941AF4F8
:10FC200027982F9880E090E020ED37E0F901319798
:10FC3000F1F7019684369105C9F700008091C00064
:10FC40008D7F8093C00081E180935700E895EE2777
:10FC5000FF270994FFCF90E00D941AF497FB092E2B
:10FC600007260AD077FD04D02ED006D000201AF443
:10FC7000709561957F4F0895F6F7909581959F4F08
:10FC80000895A1E21A2EAA1BBB1BFD010DC0AA1FDD
:10FC9000BB1FEE1FFF1FA217B307E407F50720F0F5
:10FCA000A21BB30BE40BF50B661F771F881F991F70
:10FCB0001A9469F760957095809590959B01AC01B9
:10FCC000BD01CF010895AA1BBB1B51E107C0AA1FAC
:10FCD000BB1FA617B70710F0A61BB70B881F991FED
:10FCE0005A95A9F780959095BC01CD010895F99991
:10FCF000FECF92BD81BDF89A992780B50895262F31
:10FD0000F999FECF1FBA92BD81BD20BD0FB6F89400
:0EFD1000FA9AF99A0FBE01960895F894FFCF63
:00000001FF
