:100000000C943B010C946C010C946C010C946C01ED
:100010000C946C010C946C010C946C010C946C01AC
:100020000C946C010C946C010C946C010C946C019C
:100030000C946C010C946C010C946C010C946C018C
:100040000C946C010C946C010C946C010C946C017C
:100050000C946C010C946C010C946C010C9475065E
:100060000C946C010C943F060C9415060C946C01D6
:100070000C946C010C946C010C946C010C946C014C
:100080000C946C010C946C010C946C010C946C013C
:100090000C946C010C946C010C946C010C946C012C
:1000A0000C946C010C946C010C946C010C946C011C
:1000B0000C946C010C946C010C946C010C946C010C
:1000C0000C946C010C946C010C946C010C946C01FC
:1000D0000C946C010C946C010C946C010C946C01EC
:1000E0000C946C010C947C010C9420030C94ED0294
:1000F0000C9475010C9408030C94BF060C94E50253
:100100000C94E9020C941C030C94B6010C941F028D
:100110000C94FA020C946C020C94E7010C94D90133
:100120000C9400030C9416030C94E1020C94DB0273
:100130000C94C5010C94F0020C946E010C940E0307
:100140000C94F6020C9404030C9412030C94890191
:100150000C941B03000020002300260029002C0023
:100160002F00320000010000030106010901000018
:100170002100240027002A002D0030003300010157
:100180000000040107010A010000220025002800E8
:100190002B002E003100340002010000050108018F
:1001A0000B010505050507050808080802020202FB
:1001B0000A0A080804040404010101010101010103
:1001C0000303030303030303040707070C0C0C0CCE
:1001D0000C0C0C0C020202020606060606060606B7
:1001E0000B0B0B0B0B0B0B0B010210202008081044
:1001F0002040102040800201020108040201010297
:10020000040810204080804020100804020180046F
:1002100002018040201008040201080402010102CA
:1002200004081020408001020408102040800000D3
:100230000A0B02090C0D0E08070304010000000060
:1002400000000000000000000000000000000000AE
:10025000000000000000000000001211100000006B
:10026000000000000000000000000000000000008E
:1002700000000000BF0611241FBECFEFD1E2DEBF99
:10028000CDBF00E00CBF12E0A0E0B2E0E8EDF5E188
:1002900000E00BBF02C007900D92A835B107D9F757
:1002A00023E0A8E5B2E001C01D92A939B207E1F749
:1002B00011E0CBE3D1E000E006C021970109802FD7
:1002C000FE010E94D40ACA33D10780E00807A9F7CB
:1002D0000E948F080C94EA0A0C94000081E090E0E0
:1002E0009093010280930002089582E090E0909341
:1002F000010280930002089583E090E09093010250
:10030000809300028091610291E0892780936102CD
:100310000895AF92BF92CF92DF92EF92FF920F9328
:100320001F93CF93DF936C017B018B01040F151F8B
:10033000EB015E01AE18BF08C017D10759F06991F3
:10034000D601ED91FC910190F081E02DC601199547
:10035000892B79F7C501DF91CF911F910F91FF9004
:10036000EF90DF90CF90BF90AF900895FC01538D38
:10037000448D252F30E0842F90E0821B930B54177F
:1003800010F0CF96089501970895FC01918D828D0C
:10039000981761F0A28DAE0FBF2FB11D5D968C91A5
:1003A000928D9F5F9F73928F90E008958FEF9FEFE4
:1003B0000895FC01918D828D981731F0828DE80FA0
:1003C000F11D858D90E008958FEF9FEF0895FC015A
:1003D000918D228D892F90E0805C9F4F821B910927
:1003E0008F739927089582E692E00E94E70121E049
:1003F000892B09F420E0822F0895FC01A48DA80F19
:10040000B92FB11DA35ABF4F2C91848D90E0019656
:100410008F739927848FA689B7892C93A089B18976
:100420008C91837080648C93938D848D981306C017
:100430000288F389E02D80818F7D80830895EF927B
:10044000FF920F931F93CF93DF93EC0181E0888F8E
:100450009B8D8C8D98131AC0E889F989808185FF5E
:1004600015C09FB7F894EE89FF896083E889F98900
:1004700080818370806480839FBF81E090E0DF9102
:10048000CF911F910F91FF90EF900895F62E0B8D55
:1004900010E00F5F1F4F0F731127E02E8C8D8E1110
:1004A0000CC00FB607FCFACFE889F989808185FF77
:1004B000F5CFCE010E94FD01F1CFEB8DEC0FFD2FAA
:1004C000F11DE35AFF4FF0829FB7F8940B8FEA8932
:1004D000FB8980818062CFCFCF93DF93EC01888D41
:1004E0008823B9F0AA89BB89E889F9898C9185FDAF
:1004F00003C0808186FD0DC00FB607FCF7CF8C913D
:1005000085FFF2CF808185FFEDCFCE010E94FD01F6
:10051000E9CFDF91CF91089580E090E0892B29F019
:100520000E94F30181110E94000080E090E0892B7D
:1005300049F080E090E0892B29F00E9400008111B1
:100540000E94000080E090E0892B49F080E090E07C
:10055000892B29F00E94000081110E94000080E098
:1005600090E0892B49F080E090E0892B29F00E94EF
:10057000000081110C94000008958150823108F030
:100580005AC0E82FF0E08827E753FD4F8F4F0C94B7
:10059000D40AE902ED02DB02E102E5021B03F002EC
:1005A000F602FA020003040308030E0312031B03FE
:1005B00016031C032003809180008F7780938000B6
:1005C0000895809180008F7DF9CF80918000877F92
:1005D000F5CF84B58F7784BD089584B58F7DFBCF2B
:1005E0008091B0008F778093B00008958091B00023
:1005F0008F7DF9CF809190008F7780939000089540
:10060000809190008F7DF9CF80919000877FF5CF0A
:100610008091A0008F778093A00008958091A00022
:100620008F7DF9CF8091A000877FF5CF8091200149
:100630008F77809320010895809120018F7DF9CFDD
:1006400080912001877FF5CF1F93CF93DF93282FD1
:1006500030E0F901E25DFD4F8491F901E851FE4F70
:10066000D491F901EE55FE4FC491CC23A9F0162F79
:1006700081110E94BD02EC2FF0E0EE0FFF1FE85742
:10068000FE4FA591B4918FB7F894EC91111108C069
:10069000D095DE23DC938FBFDF91CF911F9108951A
:1006A000DE2BF8CFFF920F931F93CF93DF93082F8A
:1006B000162FF42EC22FD8E06C2FF11015C06170E8
:1006C000802F0E942403C69561E0812F0E9424039D
:1006D00060E0812F0E942403D15071F7DF91CF9108
:1006E0001F910F91FF900895661F6627661F802F48
:1006F0000E942403CC0FE8CFCF93DF9390E0FC015E
:10070000E851FE4F24918E559E4FFC018491882321
:10071000C9F090E0880F991FFC01E259FE4FA591A6
:10072000B491FC01E857FE4FC591D49161110DC001
:100730009FB7F8948C91209582238C9388812823ED
:1007400028839FBFDF91CF910895623051F49FB706
:10075000F8943C91822F809583238C93E8812E2BF3
:10076000EFCF8FB7F894EC912E2B2C938FBFEACF5D
:10077000863308F0865320917B00982F9870277F4E
:10078000922B90937B008770806480937C00809193
:100790007A00806480937A0080917A0086FDFCCF95
:1007A000809178009091790008953FB7F8948091F6
:1007B0005D0290915E02A0915F02B091600226B549
:1007C000A89B05C02F3F19F00196A11DB11D3FBF89
:1007D000BA2FA92F982F8827BC01CD01620F711D58
:1007E000811D911D42E0660F771F881F991F4A9552
:1007F000D1F708952FB7F8946091590270915A0279
:1008000080915B0290915C022FBF08950F931F931C
:10081000CF93DF93EC012B8130E0F901E25DFD4FD6
:100820008491F901E851FE4F0491F901EE55FE4F14
:1008300014911123F1F081110E94BD02E12FF0E02B
:10084000EE0FFF1FEC5AFE4FA591B491EC910E23D1
:1008500031E020E009F430E0832F922F2A8122300A
:1008600010F421E082278170DF91CF911F910F91C9
:10087000089590E080E0F2CF0F931F93CF93DF9322
:10088000EC01888199818130910581F130F00297E6
:1008900009F474C01982188224C08C859D85892B27
:1008A00089F00E94FA030A891B892C893D89601B03
:1008B000710B820B930B683E73408105910510F01C
:1008C0001D861C86CE010E940604882351F00E94DA
:1008D000FA036E877F87888B998B81E090E09983FC
:1008E0008883DF91CF911F910F9108950E94FA03A1
:1008F0000E851F8528893989AB01BC01401B510B2E
:10090000620B730B8E819F81B0E0A0E048175907FE
:100910006A077B0730F3CE010E940604882309F49E
:10092000B9CF1B861A868E8D8E7F86608E8F8C85C2
:100930009D85892B31F40E94FA036A8B7B8B8C8B0B
:100940009D8B888599850196998788878C859D855B
:1009500001969D878C87EE89FF89309711F0CE0133
:1009600019958C859D85029730F0EC8DFD8D309723
:1009700011F0CE01199582E090E0B1CFCE010E9436
:1009800006048823C9F10E94FA030E851F85288971
:100990003989AB01BC01401B510B620B730B8C817D
:1009A0009D81B0E0A0E0481759076A077B0708F46B
:1009B00098CF0E94FA030E851F8528893989DC01AA
:1009C000CB01801B910BA20BB30B2A853B85820FB9
:1009D000931F9B878A870E94FA036E877F87888B85
:1009E000998BE88DF98D309711F0CE0119958E8D88
:1009F0008B7F81608E8F75CFEA8DFB8D309709F4E8
:100A000049CFCE01199546CF3F924F925F926F9298
:100A10007F928F929F92AF92BF92CF92DF92EF928E
:100A2000FF920F931F93CF93DF931F921F92CDB727
:100A3000DEB72B013C012DB73EB73A832983AC01C9
:100A40009B0110E000E09AE0C92ED12CE12CF12CA2
:100A50000F5F1F4F57FF08C0509540953095219567
:100A60003F4F4F4F5F4FF4CF2A30310541055105BD
:100A70003CF0CA01B901A70196010E94840AE8CF9F
:100A80004DB75EB7401B510B0FB6F8945EBF0FBE5B
:100A90004DBF8DB79EB701967C01312C77FE0AC001
:100AA0007094609450944094411C511C611C711CC2
:100AB000332433946701C00ED11E8AE0882E912C16
:100AC000A12CB12CC301B201A50194010E94840A9A
:100AD000605DF60162936F0129013A01EE15FF0591
:100AE00089F7332019F08DE2F70180838091690343
:100AF00090916A03DC0111972DB73EB7281B390B83
:100B00000FB6F8943EBF0FBE2DBF2F5F3F4FBC0105
:100B1000601B710BF90140E28F01021B130B0617DA
:100B2000170714F44193F8CFAB01A417B5077CF075
:100B300057FD0AC0FA01E61BF70BEE0DFF1D1081F1
:100B4000F901E40FF51F10834F5F5F4FEECF4DB7F4
:100B50005EB7481B590B0FB6F8945EBF0FBE4DBF72
:100B60004F5F5F4FB901DA0112E0FB01E21BF30BAB
:100B7000E817F90754F5FB010191BF01F0EDF00F03
:100B8000FA3048F4E02F000FFF0BEC50FE4FE081ED
:100B9000EC931196EACFFFE9F00FFA3130F4E02F31
:100BA000000FFF0BE755FE4FF2CFFFEBF00FFA31CE
:100BB00030F4E02F000FFF0BE753FE4FE8CF0D326C
:100BC00011F41C93E6CF1C92E4CF30916203E091C4
:100BD0007903F0917A03EF56FC4FDA01BD01641BF3
:100BE000750B6817790734F42D91311101C02095E8
:100BF0002193F4CF29813A810FB6F8943EBF0FBEFE
:100C00002DBF0F900F90DF91CF911F910F91FF900B
:100C1000EF90DF90CF90BF90AF909F908F907F909C
:100C20006F905F904F903F9008951F920F920FB674
:100C30000F9211240BB60F922F933F934F935F9314
:100C40006F937F938F939F93AF93BF93EF93FF9394
:100C500082E692E00E94FD01FF91EF91BF91AF917A
:100C60009F918F917F916F915F914F913F912F91C4
:100C70000F900BBE0F900FBE0F901F9018951F92F4
:100C80000F920FB60F9211240BB60F922F938F93E2
:100C90009F93EF93FF93E0917202F0917302808132
:100CA000E0917802F091790282FD1DC090818091DF
:100CB0007B028F5F8F7320917C02821741F0E0915D
:100CC0007B02F0E0EE59FD4F958F80937B02FF9100
:100CD000EF919F918F912F910F900BBE0F900FBEB0
:100CE0000F901F9018958081F2CF1F920F920FB630
:100CF0000F9211242F933F938F939F93AF93BF93A2
:100D00008091590290915A02A0915B02B0915C02CD
:100D10003091580223E0230F2D3758F50196A11D7D
:100D2000B11D209358028093590290935A02A093C8
:100D30005B02B0935C0280915D0290915E02A09193
:100D40005F02B09160020196A11DB11D80935D020A
:100D500090935E02A0935F02B0936002BF91AF9147
:100D60009F918F913F912F910F900FBE0F901F90E9
:100D7000189526E8230F0296A11DB11DD2CFDF9250
:100D8000EF92FF920F931F93CF93DF9300D01F92A8
:100D9000CDB7DEB7109265021092640288EE93E040
:100DA000A0E0B0E08093660290936702A09368028F
:100DB000B093690282E392E09093630280936202AF
:100DC00085EC90E090936F0280936E0284EC90E04B
:100DD000909371028093700280EC90E09093730284
:100DE0008093720281EC90E090937502809374027C
:100DF00082EC90E0909377028093760286EC90E00C
:100E0000909379028093780210927B0210927C0278
:100E100010927D0210927E021C821B8284E090E080
:100E20009A83898390935D0380935C0387E090E0CD
:100E300090935F0380935E0388E090E0909361035A
:100E40008093600361E084E00E947C0361E0809114
:100E50005E030E947C0361E0809160030E947C033A
:100E60001092620381E08093630380936403E8E45B
:100E7000F2E029E833E0819191918830910508F002
:100E80003DC1805C9D4FDC018C91D9018D939D010A
:100E9000B2E0E835FB0779F710926603109265031C
:100EA0001092680310926703DE011196E9E6F3E001
:100EB00090E080E030E020E08C014D915D911416CF
:100EC00015060CF023C1BA01620F731F0196693039
:100ED00071050CF415C130936603209365030093EC
:100EE00067031093680348E050E06FEF70E081E91A
:100EF00093E00E94E30A60E080915C030E94240377
:100F000020E041E060915E03809160030E94520303
:100F100020E041E060915E03809160030E945203F3
:100F200061E080915C030E94240310923E031092C2
:100F30003D0362E087E30E947C0310923E0310921F
:100F40003D0310924B0310924C0310924D031092EC
:100F50004E0310924F0310925003109251031092BF
:100F6000520387E380934003DD24D394D0923F0360
:100F700088E8E82E83E1F82EF0924203E0924103E4
:100F800004E110E0109344030093430310924603DE
:100F900010924503109248031092470310924A039F
:100FA0001092490310925403109253031092560367
:100FB00010925503109258031092570310925A033F
:100FC0001092590310925B0310921F0310921E039C
:100FD00062E088E30E947C0310921F0310921E03BC
:100FE00010922C0310922D0310922E0310922F03B7
:100FF0001092300310923103109232031092330397
:1010000088E380932103D0922003F0922303E0929F
:1010100022031093250300932403109227031092B8
:101020002603109229031092280310922B0310928A
:101030002A03109235031092340310923703109252
:101040003603109239031092380310923B0310922A
:101050003A0310923C03109200031092FF0262E0E8
:1010600089E30E947C03109200031092FF02109209
:101070000D0310920E0310920F03109210031092A2
:10108000110310921203109213031092140389E3B8
:1010900080930203D0920103F0920403E0920303D1
:1010A00010930603009305031092080310920703A0
:1010B00010920A031092090310920C0310920B0372
:1010C0001092160310921503109218031092170332
:1010D00010921A031092190310921C0310921B0312
:1010E00010921D030F900F900F900F90DF91CF91F2
:1010F0001F910F91FF90EF90DF90089580E0C5CE93
:10110000318B208B419351939B01D6CE3093660354
:10111000209365039093680380936703E4CE7894EB
:1011200084B5826084BD84B5816084BD85B58260EC
:1011300085BD85B5816085BD80916E00816080939D
:101140006E00109281008091810082608093810006
:101150008091810081608093810080918000816016
:10116000809380008091B10084608093B100809171
:10117000B00081608093B000809191008260809384
:101180009100809191008160809391008091900006
:101190008160809390008091A10082608093A10083
:1011A0008091A10081608093A1008091A000816066
:1011B0008093A00080912101826080932101809121
:1011C00021018160809321018091200181608093C1
:1011D000200180917A00846080937A0080917A0067
:1011E000826080937A0080917A00816080937A0097
:1011F00080917A00806880937A001092C100E0911B
:101200007202F091730282E08083E0916E02F091AD
:101210006F021082E0917002F09171028FEC808376
:1012200010927A02E0917602F091770286E0808354
:10123000E0917402F0917502808180618083E09179
:101240007402F0917502808188608083E09174025D
:10125000F0917502808180688083E0917402F09142
:10126000750280818F7D8083C2E0D2E09AE0E92E12
:1012700092E0F92E1881229661E0812F0E947C0372
:1012800061E0812F0E942403EC16FD0699F78EE69B
:1012900091E0909354038093530385E791E09093FA
:1012A0003503809334038CE791E090931603809389
:1012B0001503CC24CA9483E0D82EE12CF12C8DE3C5
:1012C00093E00E943C048EE193E00E943C048FEF87
:1012D00092E00E943C0480910002909101028130D2
:1012E000910509F04AC08EE30E94B803BC01990F32
:1012F000880B990B0E94040580916303882309F4ED
:10130000E1C0CCE5D3E02091650330916603CE01C6
:101310008C559340821793070CF0F3C060E08091E6
:101320005C030E942403809164038111C1C02DA538
:1013300040E060915E03809160030E9452032DA9FA
:1013400040E060915E03809160030E94520361E07F
:1013500080915C030E9424030E94D5034B015C0131
:101360000E94D503681979098A099B09683E734070
:1013700081059105A8F32196C6CF8230910599F495
:101380008FE30E94B80324E630E0DC010E94DC0A0F
:10139000A70196010E94840ACA01B9016C597F4FC6
:1013A0008F4F9F4FA7CF039709F0A6CF80E40E94ED
:1013B000B80328EC30E0DC010E94DC0AA7019601AA
:1013C0000E94840A49015A0184E6881A9108A108FA
:1013D000B108840181E40E94B80328EC30E0DC010C
:1013E0000E94DC0AA70196010E94840ACA01B90181
:1013F0006456710981099109EB0120916102222350
:1014000011F0C501B4010E94040521E00E3C3FEF3C
:1014100013070CF020E081E0C333D1050CF480E029
:10142000222319F060E081113EC091E003331105E1
:101430000CF490E0882361F0992351F061E08DE095
:101440000E94240360E08CE00E94240361E012C04B
:1014500081E0CE3CDF4F0CF080E061E0222379F0A8
:10146000882369F08DE00E94240361E08CE00E94F3
:10147000240360E08BE00E94240361E010C0992304
:1014800091F0882381F08DE00E94240361E08CE0DC
:101490000E94240361E08BE00E94240360E08AE064
:1014A0000E94240329CF8DE00E94240361E0CBCF6A
:1014B0002DA940E060915E03809160030E94520379
:1014C0002DA53ECF60E080915C030E942403C09173
:1014D0006503D0916603C45ADC4F2197CE018C5529
:1014E000934097FD09C02DA940E060915E03809173
:1014F00060030E945203F1CF61E080915C030E947F
:1015000024030E948C02DBCE052E97FB1EF4009470
:101510000E949B0A57FD07D00E94A30A07FC03D034
:101520004EF40C949B0A50954095309521953F4F71
:101530004F4F5F4F089590958095709561957F4FBF
:101540008F4F9F4F0895A1E21A2EAA1BBB1BFD01CE
:101550000DC0AA1FBB1FEE1FFF1FA217B307E40792
:10156000F50720F0A21BB30BE40BF50B661F771FEA
:10157000881F991F1A9469F76095709580959095CA
:101580009B01AC01BD01CF010895A29FB001B39FA3
:10159000C001A39F700D811D1124911DB29F700D7C
:1015A000811D1124911D0895EE0FFF1F881F8BBF11
:1015B0000790F691E02D19940E94C50AB7FF08958F
:1015C000821B930B0895DC0101C06D934150504084
:0815D000E0F70895F894FFCF45
:1015D80001000D000C000B000A00EE3E9C7A9E8E66
:1015E800BC6E0C78AE1CEC2A3ACEE68CB61E387C63
:1015F8007E6C76DAFC60DAF266B6BEE0FEE60000E3
:1016080000001F028901B6016C02E701C501D9017A
:1016180080402010080402010000010002000300BD
:081628000400050006000700A4
:00000001FF
