:020000040000FA
:100000000C948E060C94BF060C94BF060C94BF068D
:100010000C94BF060C94BF060C94BF060C94BF064C
:100020000C94BF060C94BF060C94BF060C94BF063C
:100030000C94BF060C94BF060C94BF060C94BF062C
:100040000C94BF060C9452220C94BF060C94BF066D
:100050000C94BF060C94BF060C94BF060C945A2057
:100060000C94BF060C9424200C94FA1F0C94BF0629
:100070000C94BF060C94BF060C94BF060C94BF06EC
:100080000C9424220C94BF060C94BF060C94BF065B
:100090000C94BF060C94BF060C94BF060C94A420CD
:1000A0000C94BF060C94BF060C94F6210C94BF066A
:1000B0000C94BF060C94BF060C94BF060C94C82188
:1000C0000C94BF060C94BF060C94BF060C94BF069C
:1000D0000C94BF060C94BF060C94BF060C94BF068C
:1000E0000C94BF06084AD73B3BCE016E84BCBFFDD3
:1000F000C12F3D6C74319ABD56833DDA3D00C77FF8
:1001000011BED9E4BB4C3E916BAAAABE0000008090
:100110003F072C7AA5BA6CC590DA3B9365FC8BBC83
:1001200053F810FD3C5692834DBD879D3AB63DCBAA
:10013000C9BF5BBE73DA0FC93F05A84CCDB2D44E20
:10014000B93836A9020C50B9918688083CA6AAAAEB
:100150002ABE000000803F000C949A0E0C940A12F4
:100160000C944D080C9449080C94C3060C94000799
:100170000C94D30A0C94E01E0C94C2060C94A707AE
:100180000C9414070C94D9170C945A070C94611012
:100190000C9422070C9435080C943B080C94F1063F
:1001A0000C94C80D0C943E120C94C4060C9481114E
:1001B0000C9424080C949B220C94F90E0C942008A7
:1001C0000C9457080C94C1060C942B080C94710FD6
:1001D0000C948F1E0C948E0B0C945B080C94551091
:1001E0000C948E0F0C9431080C943F080C94160854
:1001F0000C9451080C94E8110C949C150C94F21575
:100200000C946D100C94430A0C9416280C948C0AD0
:100210000C9443080C941C080C9445100C94D510B5
:100220000C94F7110C9428080C9456080C94111295
:10023000000020002300260029002C002F0032009F
:100240000001000003010601090100000000003E5A
:100250005B4F5B3E3E6B4F6B3E1C3E7C3E1C183C36
:100260007E3C181C577D571C1C5E7F5E1C00183C92
:100270001800FFE7C3E7FF0018241800FFE7DBE7DB
:10028000FF30483A060E2629792926407F050507C2
:10029000407F05253F5A3CE73C5A7F3E1C1C08081E
:1002A0001C1C3E7F14227F22145F5F005F5F0609E3
:1002B0007F017F006689956A606060606094A2FF3C
:1002C000A29408047E040810207E201008082A1C2E
:1002D00008081C2A08081E101010100C1E0C1E0CFA
:1002E00030383E3830060E3E0E060000000000009A
:1002F000005F00000007000700147F147F14242A09
:100300007F2A1223130864623649562050000807DA
:100310000300001C2241000041221C002A1C7F1CFB
:100320002A08083E080800807030000808080808FD
:10033000000060600020100804023E5149453E0064
:10034000427F400072494949462141494D331814C2
:10035000127F1027454545393C4A49493141211111
:1003600009073649494936464949291E0000140003
:100370000000403400000008142241141414141426
:10038000004122140802015909063E415D594E7C84
:100390001211127C7F494949363E414141227F4139
:1003A00041413E7F494949417F090909013E414197
:1003B00051737F0808087F00417F41002040413F82
:1003C000017F081422417F404040407F021C027F91
:1003D0007F0408107F3E4141413E7F090909063EE6
:1003E0004151215E7F0919294626494949320301B5
:1003F0007F01033F4040403F1F2040201F3F4038C7
:10040000403F631408146303047804036159494DA1
:1004100043007F4141410204081020004141417FD7
:10042000040201020440404040400003070800204D
:10043000545478407F28444438384444442838444D
:1004400044287F385454541800087E090218A4A484
:100450009C787F0804047800447D40002040403DA3
:10046000007F1028440000417F40007C047804781D
:100470007C080404783844444438FC1824241818B0
:10048000242418FC7C08040408485454542404040C
:100490003F44243C4040207C1C2040201C3C4030F9
:1004A000403C44281028444C9090907C4464544C28
:1004B0004400083641000000770000004136080083
:1004C00002010204023C2623263C1EA1A161123A2D
:1004D0004040207A38545455592155557941225479
:1004E000547842215554784020545579400C1E527E
:1004F0007212395555555939545454593955545423
:10050000580000457C410002457D420001457C4089
:100510007D1211127DF0282528F07C5455450020CD
:1005200054547C547C0A097F4932494949323A443F
:1005300044443A324A4848303A4141217A3A4240AA
:100540002078009DA0A07D3D4242423D3D4040407C
:100550003D3C24FF2424487E4943662B2FFC2F2B4F
:10056000FF0929F620C0887E0903205454794100F0
:1005700000447D413048484A32384040227A007A6F
:100580000A0A727D0D19317D2629292F282629294D
:10059000292630484D40203808080808080808086F
:1005A000382F10C8ACBA2F102834FA00007B000096
:1005B00008142A142222142A14085500550055AA9A
:1005C00055AA55AAFF55FF55FF000000FF00101067
:1005D00010FF00141414FF001010FF00FF1010F0A3
:1005E00010F0141414FC001414F700FF0000FF00B6
:1005F000FF1414F404FC141417101F10101F101F04
:100600001414141F00101010F0000000001F101030
:1006100010101F10101010F010000000FF1010102C
:10062000101010101010FF10000000FF140000FF49
:1006300000FF00001F10170000FC04F41414171032
:10064000171414F404F40000FF00F7141414141425
:100650001414F700F7141414171410101F101F149B
:100660001414F4141010F010F000001F101F0000FC
:10067000001F14000000FC140000F010F01010FF28
:1006800010FF141414FF141010101F00000000F0CD
:1006900010FFFFFFFFFFF0F0F0F0F0FFFFFF0000A2
:1006A000000000FFFF0F0F0F0F0F3844443844FCC9
:1006B0004A4A4A347E02020606027E027E026355E0
:1006C0004941633844443C04407E201E2006027E9B
:1006D000020299A5E7A5991C2A492A1C4C720172AD
:1006E0004C304A4D4D303048784830BC625A463D17
:1006F0003E494949007E0101017E2A2A2A2A2A44CC
:10070000445F444440514A444040444A5140000000
:10071000FF0103E080FF000008086B6B083612360B
:100720002436060F090F06000018180000001010EC
:10073000003040FF0101001F01011E00191D1712AA
:10074000003C3C3C3C0000000000000103070F1F80
:100750003F7F0080C0E0F0F8FCFE00000A0B0209B9
:100760000C0D0E080703040100000000000000004B
:100770000000000000000000000000000000000079
:100780000000000000001211100000000000000036
:100790000000000000000000000000000000000059
:1007A00000002100240027002A002D003000330023
:1007B00001010000040107010A01DB40A4A62EAFDD
:1007C0002000A1C8D300408DAED580A80102102022
:1007D0002008081020401020408002010201080477
:1007E000020101020408102040808040201008040B
:1007F0000201800402018040201008040201080464
:1008000002010102040810204080010204081020A7
:10081000408000002200250028002B002E0031001F
:10082000340002010000050108010B010505050562
:10083000070508080808020202020A0A0808040458
:100840000404010101010101010103030303030386
:100850000303040707070C0C0C0C0C0C0C0C020215
:10086000020206060606060606060B0B0B0B0B0B12
:100870000B0B000060000000000000000000000002
:10088000000000E000000000000000000000000088
:100890000001E00000000000000000000000000077
:1008A00001F0000000000000000000000000000354
:1008B000F00000000000000000000000000007F051
:1008C0000000000000000000000000000007F80029
:1008D0000000000000000000000000000FF8000011
:1008E0000003C0007E000001E0007F0FF800000060
:1008F00003C000FE000001E000FFEFF8000000036D
:10090000C000FE000001E000FFFFF800000003C08F
:1009100000F00000000F007FFE7FC0000003C00059
:10092000F00000000F003FFE7FF83FF1FBCFFCFE20
:10093000F3BC3DEFE01FFE7FFF7FFBFFDFFEFEFF0E
:10094000BC3DEFE01FC6FFFF7FFBFFDFFEFEFFBCED
:100950003DEFE00FE3C7FE787BC3DE1EF0FFBC3D3A
:10096000EF0007FF87FC787BC3DE1EF0F83C3DEF0D
:100970000001FFFFF0007BC3C01EF0F03C3DEF0024
:1009800001F37FE03FFBC3CFFEF0F03C3DEF0003FF
:10099000E33F807FFBC3DFFEF0F03C3DEF0007E765
:1009A0003C00787BC3DE1EF0F03C3DEF0007FFBE4D
:1009B00000787BC3DE1EF0F03C3DEF0007FFFE0039
:1009C000787BC3DE1EF0F03C3DEF000FFFFE007FA2
:1009D000FBFFDFFEF0F03FFDEFE00FFFFF007FFBCE
:1009E000FFDFFEF0F03FFDEFE00FF9FF003E79F989
:1009F000CF9EF0F01F3DE7E01FF1FF000000000078
:100A0000000000000000001F80FF007FFFFFFFFFCD
:100A1000FFFFFFFFFFE01C007F007FFFFFFFFEB432
:100A20006D888D18E000001F007FFFFFFFFE95AD71
:100A30007DB577E000000F007FFFFFFFFEA5AD9DB5
:100A40008D19E0000006007FFFFFFFFEB5ADEDB59C
:100A50007EE00000000000018000000000000000B7
:100A60000000038000000000000000000007C0003C
:100A7000000000000000000007C0000000000000AF
:100A80000000000FC00000000000000000001FE098
:100A90000000000000000000001FE0000000000057
:100AA000000000003FE00000000000000000003FE8
:100AB000F00000000000000000007FF000000000D7
:100AC0000000001FF87FF0000000000000003FFE63
:100AD0007FF0000000000000003FFF7FF0000000FA
:100AE000000000001FFFFBE0000000000000000FFE
:100AF000FFF9FFC00000000000000FFFF9FFF80041
:100B0000000000000007FFF1FFFF000000000000F0
:100B100003FC73FFFF80000000000001FE3FFFFFA9
:100B200080000000000000FF1E0FFF00000000001A
:100B300000007FFE1FFC000000000000003FFFFFE0
:100B4000F8000000000000000FDFFFE000000000E0
:100B50000000001F19FFC0000000000000003F3C23
:100B6000FF00000000000000007E7CF80000000094
:100B7000000000007FFE7C0000000000000000FF7D
:100B8000FFFC0000000000000000FFFFFE0000006E
:100B90000000000000FFFFFE000000000000000158
:100BA000FFEFFE0000000000000001FFCFFE00008C
:100BB000000000000003FF07FE000000000000002E
:100BC00003FC07FE0000000000000003F003FE002D
:100BD000000000000000018000FE00000000000096
:100BE000000000007E000000000000000000003E49
:100BF000000000000000000000000C0000000000E9
:100C000000078000FC000003C0000000078001FC1A
:100C1000000003C0000000078001FC000003C000CA
:100C20000000078001E00000001E000000078001B6
:100C3000E00000001E007FE3F79FF9FDE7787BDF0F
:100C4000C0FFF7FFBFFDFDFF787BDFC0FFF7FFBFF1
:100C5000FDFDFF787BDFC0F0F787BC3DE1FF787BCF
:100C6000DE00F0F787BC3DE1F0787BDE0000F7871F
:100C7000803DE1E0787BDE007FF7879FFDE1E07853
:100C80007BDE00FFF787BFFDE1E0787BDE00F0F759
:100C900087BC3DE1E0787BDE00F0F787BC3DE1E01A
:100CA000787BDE00F0F787BC3DE1E0787BDE00FF7B
:100CB000F7FFBFFDE1E07FFBDFC0FFF7FFBFFDE116
:100CC000E07FFBDFC07CF3F39F3DE1E03E7BCFC0E4
:100CD0000000000000000000000000FFFFFFFFFF19
:100CE000FFFFFFFFFFC0FFFFFFFFFD68DB111A31B1
:100CF000C0FFFFFFFFFD2B5AFB6AEFC0FFFFFFFFA6
:100D0000FD4B5B3B1A33C0FFFFFFFFFD6B5BDB6AF4
:100D1000FDC02200FF2100009B22162811241FBEC7
:100D2000CFEFD1E2DEBFCDBF00E00CBF12E0A0E00C
:100D3000B2E0ECEAFBE500E00BBF02C007900D92C9
:100D4000A835B107D9F725E0A8E5B2E001C01D92AA
:100D5000AE36B207E1F716E0CDE8D6E000E006C017
:100D600021970109802FFE010E94772CCC38D107F2
:100D700080E00807A9F70E943B240C94C42D0C9432
:100D80000000089508950895AF92BF92CF92DF9228
:100D9000EF92FF920F931F93CF93DF936C017B0130
:100DA0008B01040F151FEB015E01AE18BF08C017C1
:100DB000D10759F06991D601ED91FC910190F08134
:100DC000E02DC6011995892B79F7C501DF91CF91E7
:100DD0001F910F91FF90EF90DF90CF90BF90AF9059
:100DE0000895FC01538D448D252F30E0842F90E031
:100DF000821B930B541710F0CF9608950197089516
:100E0000FC01918D828D981761F0A28DAE0FBF2FDE
:100E1000B11D5D968C91928D9F5F9F73928F90E034
:100E200008958FEF9FEF0895FC01918D828D9817A3
:100E300031F0828DE80FF11D858D90E008958FEFE0
:100E40009FEF0895FC01918D228D892F90E0805CA9
:100E50009F4F821B91098F739927089589EB93E027
:100E60000E94220721E0892B09F420E0822F0895B7
:100E7000FC01A48DA80FB92FB11DA35ABF4F2C910F
:100E8000848D90E001968F739927848FA689B78906
:100E90002C93A089B1898C91837080648C93938DFD
:100EA000848D981306C00288F389E02D80818F7DA0
:100EB00080830895EF92FF920F931F93CF93DF9358
:100EC000EC0181E0888F9B8D8C8D98131AC0E88986
:100ED000F989808185FF15C09FB7F894EE89FF8955
:100EE0006083E889F98980818370806480839FBFF3
:100EF00081E090E0DF91CF911F910F91FF90EF90F3
:100F00000895F62E0B8D10E00F5F1F4F0F73112702
:100F1000E02E8C8D8E110CC00FB607FCFACFE8893D
:100F2000F989808185FFF5CFCE010E943807F1CF86
:100F3000EB8DEC0FFD2FF11DE35AFF4FF0829FB7B1
:100F4000F8940B8FEA89FB8980818062CFCFCF93A1
:100F5000DF93EC01888D8823B9F0AA89BB89E889E1
:100F6000F9898C9185FD03C0808186FD0DC00FB687
:100F700007FCF7CF8C9185FFF2CF808185FFEDCF05
:100F8000CE010E943807E9CFDF91CF91089580E02C
:100F900090E0892B29F00E942E0781110E94000009
:100FA00080E090E0892B49F080E090E0892B29F0E7
:100FB0000E94000081110E94000080E090E0892BD7
:100FC00049F080E090E0892B29F00E940000811117
:100FD0000E94000080E090E0892B49F080E090E0E2
:100FE000892B29F00E94000081110C9400000895C3
:100FF0008150823108F05AC0E82FF0E08827EC5F7A
:10100000F74F8F4F0C94772C2408280816081C08DB
:10101000200856082B08310835083B083F084308CC
:1010200049084D085608510857085B088091800010
:101030008F77809380000895809180008F7DF9CF15
:1010400080918000877FF5CF84B58F7784BD089528
:1010500084B58F7DFBCF8091B0008F778093B000F7
:1010600008958091B0008F7DF9CF809190008F77A7
:10107000809390000895809190008F7DF9CF8091AA
:101080009000877FF5CF8091A0008F778093A0009C
:1010900008958091A0008F7DF9CF8091A000877F77
:1010A000F5CF809120018F77809320010895809162
:1010B00020018F7DF9CF80912001877FF5CF1F938D
:1010C000CF93DF93282F30E0F901E65AF84F84914F
:1010D000F901E453F84FD491F901E45DF74FC4915D
:1010E000CC23A9F0162F81110E94F807EC2FF0E015
:1010F000EE0FFF1FEE5EF74FA591B4918FB7F894F6
:10110000EC91111108C0D095DE23DC938FBFDF91E5
:10111000CF911F910895DE2BF8CFCF93DF9390E00E
:10112000FC01E453F84F2491845D974FFC018491B6
:101130008823C9F090E0880F991FFC01E056F84F12
:10114000A591B491FC01EE5EF74FC591D491611168
:101150000DC09FB7F8948C91209582238C93888141
:10116000282328839FBFDF91CF910895623051F4E7
:101170009FB7F8943C91822F809583238C93E881CC
:101180002E2BEFCF8FB7F894EC912E2B2C938FBF93
:10119000EACF3FB7F8948091A2039091A303A09166
:1011A000A403B091A50326B5A89B05C02F3F19F055
:1011B0000196A11DB11D3FBFBA2FA92F982F8827D7
:1011C000BC01CD01620F711D811D911D42E0660FB2
:1011D000771F881F991F4A95D1F708958F929F9284
:1011E000AF92BF92CF92DF92EF92FF924B015C01E0
:1011F0000E94C9086B017C010E94C9086C197D0915
:101200008E099F09683E734081059105A8F321E08E
:10121000821A9108A108B10888EEC80E83E0D81E92
:10122000E11CF11C81149104A104B10429F7FF9081
:10123000EF90DF90CF90BF90AF909F908F900895E8
:101240002FB7F89460919E0370919F038091A00343
:101250009091A1032FBF0895EF92FF920F931F93D8
:10126000CF93DF93EC01EC80FD806E157F050CF0D1
:1012700070C057FF04C0240F351F50E040E08E813E
:101280009F81FA01E20FF31F8E179F071CF49C0148
:10129000241B350B121613060CF05BC0922F842F03
:1012A0008695869586958E9DD0018F9DB00D1124D3
:1012B0006A0F7B1FAF8DB8A1A60FB71F477049F10A
:1012C00088E0841B482F682F70E0FB01EE5AF84F2E
:1012D000E491281708F063C0621B71092FEF30E01A
:1012E00002C0359527956A95E2F7E2230130110592
:1012F00039F0B0F10230110561F58C91E82702C098
:101300008C91E82BEC93941720F12C813D81A20F56
:10131000B31FE92FE41BE83078F00230110521F506
:101320008E2F9C9190959C932C813D81A20FB31F91
:1013300088508830B0F7E770EE2359F0F0E0E65BB4
:10134000F84FE49101301105F9F010F10230110568
:1013500019F1DF91CF911F910F91FF90EF900895B8
:10136000E0958C91E823CECF81E00115110509F4B9
:1013700080E081959E2F8C932C813D81A20FB31F1D
:1013800098509830C0F7D7CF8C91E82BEC93E1CFF1
:10139000E0958C91E823FACF8C91E827F7CF0130C4
:1013A000110509F4ADCFE0F20230110509F4A5CF23
:1013B000AE0DBF1DAECF0F931F93CF93DF9377FF7B
:1013C00004C0260F371F70E060E0DC011496CD9159
:1013D000DC91FB01E20FF31FCE17DF071CF49E0127
:1013E000261B370B121613064CF5FA0157FD3796DC
:1013F000A3E0F595E795AA95E1F7EC9FD001ED9F65
:10140000B00DFC9FB00D11246A0F7B1FDC015F96AD
:10141000ED91FC91E60FF71F4770552781E090E0B2
:1014200001C0880F4A95EAF7482F0130110559F09D
:10143000A8F02E0F3F1F02301105E1F0DF91CF9190
:101440001F910F9108952E0F3F1FE217F307B1F37D
:101450008191DF011197842B8C93F7CF80952E0F0C
:101460003F1FE217F30751F39191DF011197982382
:101470009C93F7CFE217F30709F38191DF011197EE
:1014800084278C93F7CF0F931F93FA01DC015696B4
:101490004C9156974230E9F04330A1F1413061F56B
:1014A00014964D915C91DA01AE1BBF0BFD01E21B5E
:1014B000F30B77FD0BC0DC0116964D915C91641720
:1014C000750724F4AB01BF010E94DB091F910F9146
:1014D000089514964D915C91DA01A61BB70BBD01DE
:1014E00061507109DC0116964D915C91DA01AE1BD9
:1014F000BF0BFD01E21BF30B77FDE8CFAF010E94AC
:101500002C09E4CF16964D915C91DA01A61BB70B1E
:10151000BD0161507109CDCF0F931F93FA01DC011A
:1015200056964C9156974230A9F0433091F1413094
:1015300019F514964D915C91DA01AE1BBF0BFD01BC
:101540003197F7FD04C0AB01BF010E942C091F9128
:101550000F91089514964D915C91DA01A61BB70B7B
:10156000BD01DC0116964D915C91DA01AE1BBF0BFB
:10157000FD013197621B730BF7FDE9CFDC01169675
:101580004D915C91E417F50714F7AF010E94DB0958
:10159000DECF16964D915C91DA01A61BB70BBD010B
:1015A000621B730BCECFFC0177FD64C080859185F3
:1015B000681779070CF05EC057FD5CC08285938583
:1015C000481759070CF056C086898230B1F0833035
:1015D00029F1813041F484819581841B950BAB0105
:1015E000BC01615071092130310509F108F443C093
:1015F0002230310509F463C0089584819581DC01AE
:10160000A61BB70BBD016150710986819781DC0172
:10161000A41BB50BAD0141505109E5CF86819781DF
:10162000861B970BBA01AC0141505109DCCFCA01AE
:1016300057FD0796A3E095958795AA95E1F7A481B4
:10164000B5818A9F90018B9F300D9A9F300D112498
:10165000620F731F078CF0A1E02DE60FF71F477094
:10166000552721E030E001C0220F4A95EAF780813A
:10167000822B80830895CA0157FD079633E0959524
:1016800087953A95E1F7A481B5818A9F90018B9F58
:10169000300D9A9F300D1124620F731F078CF0A13B
:1016A000E02DE60FF71F4770552781E090E001C05D
:1016B000880F4A95EAF7809590818923DACFCA018D
:1016C00057FD079623E0959587952A95E1F7A48124
:1016D000B5818A9F90018B9F300D9A9F300D112408
:1016E000620F731F078CF0A1E02DE60FF71F477004
:1016F000552721E030E001C0220F4A95EAF78081AA
:101700008227B7CF08958EBD00000DB407FEFDCF30
:101710008EB508958CBD9DBD08950895FC0163703C
:10172000668B8481958126813781613039F0633001
:1017300029F0918780873387228708953187208712
:101740009387828708952F923F924F925F926F9274
:101750007F928F929F92AF92BF92CF92DF92EF9241
:10176000FF920F931F93CF93DF93CDB7DEB76A97A6
:101770000FB6F894DEBF0FBECDBF9A8F898F7A83E4
:1017800069834A01D22E18870F833701BC2CDC01F4
:1017900059962D913C915A972115310509F015C1A3
:1017A00018968D919C911997681779070CF0D7C1FD
:1017B0001A968D919C91481759070CF0D0C14C2C6A
:1017C000512CB6E0CB9E600D711D11247C876B8778
:1017D000161617060CF0C3C1EA2DF0E0FA87E98768
:1017E00093E0EE0FFF1F9A95E1F7F88BEF87CF019B
:1017F000840F951F181619060CF0B1C1A98DBA8D6A
:1018000058968C91811104C0BFEABD1508F4D39499
:10181000A98DBA8DED91FC9111970284F385E02D8D
:10182000CD011995B5E0DB9EC0011124E981FA8153
:10183000FC83EB83312C212C9C01265B3D4F388FA0
:101840002F8B4A2D50E05E8B4D8BEF89F88DE20D8A
:10185000F31D44919E828D82D12CC12C69817A81A5
:10186000620D731D7A8B698B842F90E09C8B8B8B20
:10187000E98DFA8DA081B18140FF82C0F1E0BF12F5
:101880006FC0AF126DC01C96ED91FC912F81388511
:10189000A4014C0D5D1D69897A89898D9A8D1995F0
:1018A000EB89FC89F595E7954E2F5FEFC51AD50AB0
:1018B0006D817E818D899E89680F791F7E836D83FE
:1018C00098E0C916D10481F6AFEF2A1A3A0AEB81E3
:1018D000FC81E40DF51DFC83EB83F5E02F1631044C
:1018E00009F0B3CF2F81388526153705B9F0A98DBA
:1018F000BA8DED91FC91B1E0BB1257C0AB1255C04F
:1019000069817A816B5F7F4F0088F189E02D8301C7
:1019100028E030E0A401898D9A8D1995A98DBA8DA2
:10192000ED91FC9111970688F789E02DCD016A961B
:101930000FB6F894DEBF0FBECDBFDF91CF911F91E0
:101940000F91FF90EF90DF90CF90BF90AF909F905E
:101950008F907F906F905F904F903F902F90199451
:101960001E96ED91FC91EF80F88409851A8592010D
:101970004D815E816B817C81898D9A8D199590CF87
:101980002F8138852615370509F48ACF31E0B31247
:1019900007C0A31205C01C96ED91FC91930178CF6E
:1019A0001E96ED91FC917301E0CF6B857C856419E7
:1019B00075090684F785E02D73010F85188992015A
:1019C000A401898D9A8D1995A9CFF9013496949126
:1019D000329745915491D91AB7E0DB9E400D511DC5
:1019E0001124F901259134913C8B2B8BFA01259020
:1019F0003490FA013296749031963491398B329644
:101A000064903196449041E04C1518F04A1508F066
:101A10007FC0662D062C000C770B7C836B83842D96
:101A2000042C000C990B9E838D83A98DBA8DED91AA
:101A3000FC9111970284F385E02DCD011995512C6D
:101A4000D12CC12CEA2DF0E0FA87E9872B2D30E06C
:101A50003C872B87A401440D511D47FC5A95588F94
:101A60004F8B69817A81660D711D67FC7A957E873F
:101A70006D877989C71608F051CF2C2D30E04D8144
:101A80005E81420F531FA985BA854A9FC0014B9FB3
:101A9000900D5A9F900D1124FC01E80DF91DF88B53
:101AA000EF87852D612C4F89588D420F531F5E8B18
:101AB0004D8B671408F050C044244394480E87703F
:101AC00041F4C1010196EB89FC89E20DF31DD4902C
:101AD0001C01D7FE19C0A98DBA8DED91FC91662D20
:101AE00070E0B1E0BB1219C0AB1217C02D853E8566
:101AF000620F731F0484F585E02D2F8138854D8991
:101B00005E89898D9A8D1995DD0C6394842DD1CFD2
:101B10001E821D821C821B8288CF4B815C81640FD8
:101B2000751FAB85BC856A9FC0016B9F900D7A9F26
:101B3000900D112469817A81680F791F0684F785D9
:101B4000E02DEF80F88409851A859D014F8558891D
:101B5000898D9A8D1995D8CF570CC3948ACF6A96E0
:101B60000FB6F894DEBF0FBECDBFDF91CF911F91AE
:101B70000F91FF90EF90DF90CF90BF90AF909F902C
:101B80008F907F906F905F904F903F902F9008952F
:101B90008F929F92AF92CF92EF92FF920F931F93EB
:101BA000CF93DF93EC01262F898D9A8D009709F052
:101BB00051C06A30D1F41D861C868D8948E0849F0F
:101BC000900111248E859F85820F931F9F878E879A
:101BD00081E090E0DF91CF911F910F91FF90EF9006
:101BE000CF90AF909F908F9008956D3089F3CC88FF
:101BF000AD888F898823C1F08C859D8536E0C39E92
:101C0000800D911D1124488559854817590764F4A2
:101C10004E855F851D861C8638E0A39EC001112479
:101C2000840F951F9F878E87EA88FB88088919890A
:101C30004E855F856C857D85CE010E94A30B2C8926
:101C40008C859D8546E0249F800D911D11249D87E4
:101C50008C87BECF6A3069F41D861C86FC013896DD
:101C6000E4912D898E859F85E29F800D911D112421
:101C7000ADCF6D3009F4ACCFFC01349634916317CD
:101C800008F4A6CF3296E491E61708F4A1CFFC0140
:101C9000329685909490462F431B342F47E0349F13
:101CA000800C911C1124F401329634913196E49108
:101CB0003323A9F1EE2399F1CC88F4013596E49110
:101CC000AD884F89442301F10E2E000CFF0BE30F6A
:101CD000F11DCE9EA001CF9E500D11246C857D85F7
:101CE000460F571F68857985641775076CF44E8514
:101CF0005F851D861C86FC013896E491AE9E400DE2
:101D0000511D11245F874E87EA88FB88088919894D
:101D10004E855F856C857D85CE010E94A30BF40105
:101D20003496E4912C898C859D85E29F800D911DD0
:101D300011248DCF6F927F928F929F92AF92BF921C
:101D4000CF92DF92EF92FF920F931F93CF93DF9387
:101D5000EC016B015A0139014801E881F9810284E3
:101D6000F385E02D1995E881F9810288F389E02D4A
:101D700087019301A501B601CE011995A501480D72
:101D8000591D41505109E881F9810288F389E02DFC
:101D90009301B601CE011995E881F9810088F18996
:101DA000E02D9401A501B601CE011995C60CD71CF2
:101DB000B60161507109E881F9810088F189E02D4F
:101DC0009401A501CE011995E881F9810688F7896A
:101DD000E02DCE01DF91CF911F910F91FF90EF90F9
:101DE000DF90CF90BF90AF909F908F907F906F903B
:101DF00019946F927F928F929F92AF92BF92CF92DF
:101E0000DF92EF92FF920F931F93CF93DF935C01CA
:101E1000EB016A01490138018701DC01ED91FC9178
:101E20006217730719F5641675062CF0962D872D29
:101E30003A01C92ED82E9601261937092F5F3F4F38
:101E4000048CF58DE02DA301BE01C5011995DF912C
:101E5000CF911F910F91FF90EF90DF90CF90BF90A7
:101E6000AF909F908F907F906F9008954615570583
:101E700091F42617370724F0892D4B01C22FD82F54
:101E80009E01281939092F5F3F4F068CF78DE02DF1
:101E9000A601B401DACF0284F385E02D1995D501AE
:101EA000ED91FC910488F589E02D83019401A60150
:101EB000BE01C5011995D501ED91FC910688F78900
:101EC000E02DC501DF91CF911F910F91FF90EF9011
:101ED000DF90CF90BF90AF909F908F907F906F904A
:101EE0001994EF92FF920F931F93DC011A960D91B4
:101EF0001C911B9718962D913C911997ED91FC918F
:101F000000A0F1A1E02D7B0150E040E070E060E036
:101F100019951F910F91FF90EF9008954F925F9246
:101F20006F927F928F929F92AF92BF92CF92DF92E9
:101F3000EF92FF920F931F93CF93DF936C012B01CE
:101F40005A0139014801DC01ED91FC910284F385CD
:101F5000E02D1995E201640C751CD601ED91FC9100
:101F6000C615D7055CF40088F189E02D870194013E
:101F7000A501BE01C60119952196EFCF0688F78904
:101F8000E02DC601DF91CF911F910F91FF90EF904F
:101F9000DF90CF90BF90AF909F908F907F906F9089
:101FA0005F904F9019948F929F92AF92BF92CF9271
:101FB000DF92EF92FF920F931F93CF93DF93EC0189
:101FC0005B014A016901E881F9810284F385E02D12
:101FD000199595012C0D3D1D21503109E881F9819C
:101FE0000488F589E02D78018401A401B501CE01B2
:101FF0001995E881F9810688F789E02DCE01DF91F6
:10200000CF911F910F91FF90EF90DF90CF90BF90F5
:10201000AF909F908F9019948F929F92AF92BF92A2
:10202000CF92DF92EF92FF920F931F93CF93DF93A4
:10203000EC015B014A0169017801E881F9810284C0
:10204000F385E02D1995C80CD91C860101501109A2
:10205000E881F9810488F589E02D9501A401B50195
:10206000CE011995E881F9810688F789E02DCE0126
:10207000DF91CF911F910F91FF90EF90DF90CF9064
:10208000BF90AF909F908F901994EF92FF920F9313
:102090001F93DC01ED91FC9100A0F1A1E02D1995B9
:1020A0001F910F91FF90EF9008950F931F93DC0104
:1020B000ED91FC91068CF78DE02D19951F910F91F4
:1020C00008950F931F93DC01ED91FC91048CF58D25
:1020D000E02D19951F910F910895DC01ED91FC9170
:1020E0000084F185E02D19943F924F925F926F9298
:1020F0007F928F929F92AF92BF92CF92DF92EF9298
:10210000FF920F931F93CF93DF935C017B014A01F2
:102110006901390187E0680E711C93E0759467943A
:102120009A95E1F72B01400E511E10E000E0312C92
:10213000D0E0C0E0CE0187709927330C892B59F489
:10214000FE0183E0F595E7958A95E1F7E00FF11F31
:10215000E80DF91D349037FE0AC021E030E0A701F8
:10216000B5016C0F7D1F82E694E00E946D102196F0
:10217000CC16DD06F9F68FEFE81AF80A060D171DE2
:10218000E414F504A9F6DF91CF911F910F91FF9010
:10219000EF90DF90CF90BF90AF909F908F907F9007
:1021A0006F905F904F903F9008952F923F924F9283
:1021B0005F926F927F928F929F92AF92BF92CF92D7
:1021C000DF92EF92FF920F931F93CF93DF9300D094
:1021D00000D0CDB7DEB73C016A013E832D83FC827F
:1021E000EB825801A41AB50AB7FE03C0B194A194BA
:1021F000B1088D809E80861A970A97FE03C091943D
:10220000819491088A149B045CF0902F812F0D819A
:102210001E819D838E839C2D8D2D6B01692F782FC0
:102220000C151D055CF09D818E817E836D83692F69
:10223000782F902F812F8601C92ED82E1601201AB3
:10224000310A2B012D813E81421A530A57FE03C0E9
:10225000519441945108710137FE03C03FEFE31AD6
:10226000F30AF594E7948D819E81861797075CF5B4
:10227000A1E0B0E0BA83A983C016D1064CF1D30126
:10228000ED91FC910484F585E02D2B813C81A80122
:102290006D817E818A149B041CF04D815E81B801A2
:1022A000C3011995E418F508F7FE0AC02D813E8197
:1022B00089819A81280F391F3E832D83E20CF31CFC
:1022C0000F5F1F4FD9CF2FEF3FEF3A832983D4CF32
:1022D00026960FB6F894DEBF0FBECDBFDF91CF912B
:1022E0001F910F91FF90EF90DF90CF90BF90AF9034
:1022F0009F908F907F906F905F904F903F902F9026
:102300000895089520915303260F3327331F213258
:102310003105ECF420917703FC0190E080E024305B
:1023200069F082E00895A09153032191AC014D5CC6
:102330005C4FA40FB52FB11D2C930196861798F30F
:1023400080915303680F6093530380E0089581E008
:1023500008951092770381E08093790310927803B7
:1023600061E084E10E945F0861E085E10E945F080E
:10237000E9EBF0E080818E7F808380818D7F808398
:1023800088E48093B80085E48093BC000895CF93DF
:10239000DF9391E0909332038823B9F0C091B800A5
:1023A000D091BA008091BC008A7B8093BC0060E031
:1023B00084E10E945F0860E085E10E945F080E945E
:1023C000A911D093BA00C093B800DF91CF910895BE
:1023D000E091AC038091AB03E81730F4F0E0E35FE9
:1023E000FC4F808190E008958FEF9FEF08959091CA
:1023F000AC038091AB032FEF3FEF981748F4E92F20
:10240000F0E0E35FFC4F208130E09F5F9093AC03EE
:10241000C90108958091AB039091AC03891B990B7E
:102420000895CF92DF92EF92FF920F931F93CF9375
:10243000DF937C01CB018A012091B803222389F02C
:10244000EB016B01C40ED51ECC15DD0569F0699159
:10245000D701ED91FC910190F081E02DC701199514
:10246000F3CF642F0E948211C801DF91CF911F9199
:102470000F91FF90EF90DF90CF900895CF93DF936F
:102480001F92CDB7DEB769832091B8032223F9F0FC
:102490002091B503203258F021E030E0FC01338375
:1024A000228390E080E00F90DF91CF91089580919A
:1024B000B603E82FF0E0E351FD4F998190838F5FE1
:1024C0008093B6038093B50381E090E0ECCF61E0A8
:1024D000CE0101960E948211F7CFCF92DF92EF9248
:1024E000FF920F931F93CF93DF93D091B50381E0B9
:1024F000D13208F09CC0C091B7030E94C9086B019B
:102500007C018091770381116CC082E08093770316
:1025100081E0809379038FEF8093760310929B0381
:10252000D0939A03ADEEB2E0EAE7F3E080E0D8138F
:102530008DC010929C0380919C03CC0FC82BC0933C
:102540009C0380917803813009F084C01092780355
:102550000E94C9086B017C0180919C038093BB00A1
:1025600080912E0390912F03A0913003B0913103FD
:10257000892B8A2B8B2BA1F00E94C90800912E0376
:1025800010912F0320913003309131036C197D0994
:102590008E099F09061717072807390708F442C054
:1025A0008091BC0083FDD8CF85EC8093BC000E9455
:1025B000C9086B017C0180917703823009F44CC01B
:1025C000809176038F3F09F469C080917603803251
:1025D00009F466C080917603803309F463C084E017
:1025E00026C080912E0390912F03A0913003B091CB
:1025F0003103892B8A2B8B2B09F483CF0E94C908C6
:1026000000912E0310912F0320913003309131035C
:102610006C197D098E099F090617170728073907C6
:1026200008F06FCF80912D030E94C71185E01092B2
:10263000B6031092B5031092B803DF91CF911F91AA
:102640000F91FF90EF90DF90CF9008959D9191931F
:102650008F5F6DCF85EEA9CF80912E0390912F03D0
:10266000A0913003B0913103892B8A2B8B2B09F475
:10267000A2CF0E94C90800912E0310912F03209130
:102680003003309131036C197D098E099F090617BB
:1026900017072807390708F08ECFC4CF80E0C7CFCF
:1026A00082E0C5CF83E0C3CFEF92FF920F931F93D9
:1026B000CF93DF937C01C62F80917F04909180049B
:1026C000009709F459C02091830431E03093B80396
:1026D0002093B7031092B6031092B503DC01ED917D
:1026E000FC910190F081E02D60E019958701EE24C6
:1026F000E394F12CD1E0C15080917F04909180044B
:10270000CF3F91F1B0E2EB16F104D8F00E946D12C8
:1027100080917F049091800420918304D093B8032A
:102720002093B7031092B6031092B503DC01ED912C
:10273000FC910190F081E02D60E01995EE24E39486
:10274000F12C80917F0490918004F8016491DC0168
:10275000ED91FC910190F081E02D1995BFEFEB1AFE
:10276000FB0A0F5F1F4FC7CFDF91CF911F910F91D2
:10277000FF90EF900C946D12E0918F04F091900413
:102780009081809195048095892380838701C15031
:1027900008F438C0F801849120917D0430917E04C2
:1027A000232B29F00E94830B0F5F1F4FF0CF28E0EF
:1027B00030E040E8E0918B04F0918C049091930418
:1027C000582F5423D9F05081952B9083E0918D049C
:1027D000F0918E04908150919404952B9083E09118
:1027E0008D04F0918E0450819091940490959523DE
:1027F0009083469521503109E9F6D6CF50819095C6
:102800009523E3CFDF91CF911F910F91FF90EF9030
:1028100008951F93CF93DF93EC018D8D9E8D0097CC
:1028200021F1162F29A131E03093B8032093B7038B
:102830001092B6031092B503DC01ED91FC9101906A
:10284000F081E02D60E019958D8D9E8DDC01ED917C
:10285000FC910190F081E02D612F19958D8D9E8D59
:10286000DF91CF911F910C946D12ADA5BEA59C91E7
:102870008BA9809589238C938B8D9C8D892B31F02E
:10288000862FDF91CF911F910C94830B28E030E0CD
:1028900080E8A9A5BAA599A9462F4823C1F04C9173
:1028A000942B9C93ABA5BCA59C914AA9942B9C937B
:1028B000ABA5BCA54C919AA9909594239C93869521
:1028C0002150310931F7DF91CF911F9108954C913B
:1028D00090959423E6CFDF92EF92FF920F931F9390
:1028E000CF93DF9380917F0490918004892B09F42A
:1028F00098C0209197043091980440919904509188
:102900009A0460E074E284EF90E00E94572820511E
:1029100031094109510956954795379527952093D7
:10292000B80065E082E19DE00E9454136091660466
:10293000615082E694E00E9409142091680430916D
:102940006904C901079697FD079633E09595879529
:102950003A95E1F72091660430916704829F8001E7
:10296000839F100D929F100D1124C0918104D0916E
:10297000820480917F04909180040C0F1D1F0097AA
:1029800009F48FC02091830431E03093B803209381
:10299000B7031092B6031092B503DC01ED91FC91E0
:1029A0000190F081E02D60E41995EE24E394F12C80
:1029B000DD24D39480917F04909180040C171D072F
:1029C00009F446C0B0E2EB16F104D8F00E946D1293
:1029D00080917F049091800420918304D092B80369
:1029E0002093B7031092B6031092B503DC01ED916A
:1029F000FC910190F081E02D60E41995EE24E394C0
:102A0000F12C80917F04909180046991DC01ED911B
:102A1000FC910190F081E02D1995BFEFEB1AFB0AB4
:102A2000C9CF80917D0490917E04892B31F08091F3
:102A3000A0049091A1040E948A0BE0919104F0916E
:102A4000920490818091960480958923808369CF38
:102A50000E946D1280917F0490918004892B09F46B
:102A600061C020919B0430919C0440919D04509141
:102A70009E0460E074E284EF90E00E9457282051A9
:102A80003109410951095695479537952795209366
:102A9000B800DF91CF911F910F91FF90EF90DF90E1
:102AA0000895E0918F04F0919004808190919504B5
:102AB000892B80830C171D0769F2899120917D0471
:102AC00030917E04232B19F00E94830BF3CF28E072
:102AD00030E040E8E0918B04F0918C0490919304F5
:102AE000582F5423D9F05081952B9083E0918D0479
:102AF000F0918E04908150919404952B9083E091F5
:102B00008D04F0918E0450819091940490959523BA
:102B10009083469521503109E9F6CCCF50819095AC
:102B20009523E3CFE0919104F091920480819091FC
:102B30009604892B8083ADCF1F93CF93DF93EC0155
:102B4000162F8D8D9E8D892BB1F12DA93EA94FA9F0
:102B500058AD60E074E284EF90E00E945728205165
:102B60003109410951095695479537952795209385
:102B7000B80066EA111167EACE010E9409148D8D32
:102B80009E8D892B41F129AD3AAD4BAD5CAD60E036
:102B900074E284EF90E00E945728205131094109E6
:102BA000510956954795379527952093B800DF91A1
:102BB000CF911F9108958B8D9C8D892B21F08EAD27
:102BC0009FAD0E948A0BEFA5F8A990818CA98095F2
:102BD00089238083CECFEFA5F8A980819CA9892B7A
:102BE0008083E5CF90E080E008950F931F93CF930B
:102BF000DF93EC012B8130E0F901E65AF84F849124
:102C0000F901E453F84F0491F901E45DF74F149191
:102C10001123F1F081110E94F807E12FF0E0EE0F8F
:102C2000FF1FE05DFD4FA591B491EC910E2331E0C3
:102C300020E009F430E0832F922F2A81223010F413
:102C400021E082278170DF91CF911F910F9108952C
:102C500090E080E0F2CF0F931F93CF93DF93EC01CE
:102C6000888199818130910581F130F0029709F4D2
:102C700074C01982188224C08C859D85892B89F0A7
:102C80000E9420090A891B892C893D89601B710BD0
:102C9000820B930B683E73408105910510F01D86F1
:102CA0001C86CE010E94F515882351F00E94200950
:102CB0006E877F87888B998B81E090E099838883EA
:102CC000DF91CF911F910F9108950E9420090E85E9
:102CD0001F8528893989AB01BC01401B510B620B50
:102CE000730B8E819F81B0E0A0E0481759076A07F7
:102CF0007B0730F3CE010E94F515882309F4B9CF84
:102D00001B861A868E8D8E7F86608E8F8C859D8524
:102D1000892B31F40E9420096A8B7B8B8C8B9D8BD5
:102D2000888599850196998788878C859D850196E8
:102D30009D878C87EE89FF89309711F0CE01199518
:102D40008C859D85029730F0EC8DFD8D309711F0CC
:102D5000CE01199582E090E0B1CFCE010E94F51529
:102D60008823C9F10E9420090E851F852889398989
:102D7000AB01BC01401B510B620B730B8C819D811D
:102D8000B0E0A0E0481759076A077B0708F498CF1E
:102D90000E9420090E851F8528893989DC01CB0115
:102DA000801B910BA20BB30B2A853B85820F931FCF
:102DB0009B878A870E9420096E877F87888B998BE3
:102DC000E88DF98D309711F0CE0119958E8D8B7F9E
:102DD00081608E8F75CFEA8DFB8D309709F449CFD6
:102DE000CE01199546CF8F929F92AF92BF92CF920C
:102DF000DF92EF92FF92FC01828158E5C52E52E0EE
:102E0000D52EC81AD10887FDD394CC0CDD1CCC0C70
:102E1000DD1C0D2C000CEE08FF08818178E8872E60
:102E2000912C881A910887FD9394880C991C880C22
:102E3000991C092C000CAA08BB0880818F3FD1F196
:102E400090E0FC01EE0FFF1FE80FF91FE35AFD4F62
:102E50008181928133E0880F991F3A95E1F7B0E0C4
:102E6000A0E044E0B595A795979587954A95D1F749
:102E700002969C012F5F3F4F032E000C440B550B15
:102E8000281939094A095B09A4EBB0E00E944428DB
:102E9000A7019601281939094A095B090E942528CA
:102EA000C901FF90EF90DF90CF90BF90AF909F90BF
:102EB0008F90089590E080E0DCCFCF92DF92EF9288
:102EC000FF92CF93DF93EC01603282E07807CCF57C
:102ED000653B710514F064EB70E0898128E830E00F
:102EE000281B310987FD3395220F331F220F331F13
:102EF0006901330FEE08FF088A8128E532E0281BBC
:102F0000310987FD3395220F331F220F331F032E04
:102F1000000C440B550B2C193D094E095F09DB01D0
:102F200077FF02C0B0E0A0E00E944F2824EB30E021
:102F300040E050E00E942528C20ED31EE41EF51E7C
:102F4000B601E881E03370F5298188E890E0821BC2
:102F5000910927FD9395880F991F880F991F68176E
:102F600079077CF02A8188E592E0821B910927FD90
:102F70009395880F991F880F991F681779070CF48C
:102F8000CB010297880F991F4FB7F8942E2F30E08E
:102F9000F901EE0FFF1FE20FF31FE35AFD4F92837B
:102FA00081834FBFDF91CF91FF90EF90DF90CF9063
:102FB00008958AE095E00E94F31667E870E08D9727
:102FC00011F06DE270E08AE095E00E945D1787E005
:102FD00095E00E94F316BC01665F7F4F643B71056C
:102FE00014F070E060E087E095E00C945D17DF92EC
:102FF000EF92FF920F931F93CF93DF93EC01D62EA6
:103000007A0189018881803308F063C061E08D2DE9
:103010000E948D088881282F30E0F901EE0FFF1FF4
:10302000E20FF31FE35AFD4F9D2D9F736081607C7B
:10303000692B608320E232E02E193F0937FF02C07E
:103040002D5F3F4F3595279535952795298320E6A8
:1030500039E0201B310B35952795359527952A8327
:103060002CE0622F0E94572C829FB001112430E087
:1030700020E0AB01420F531FFA01EE0FFF1FE40FD8
:10308000F51FE35AFD4F908196FD16C02F5F3F4F0D
:103090002C30310571F7813029F51092800082E0E3
:1030A000809381001092850010928400B19A8091E3
:1030B0006F00826080936F00E8818E2F90E0FC01AA
:1030C000EE0FFF1FE80FF91FE35AFD4F8081806468
:1030D00080838881DF91CF911F910F91FF90EF90B6
:1030E000DF900895823061F41092900080939100F7
:1030F000109295001092940088BB80937100DCCFF1
:10310000833069F41092A00082E08093A1001092B5
:10311000A5001092A40089BB80937200CDCF8111CD
:10312000CBCF1092200182E08093210110922501E3
:10313000109224018ABB80937300BECFAF92BF92DE
:10314000CF92DF92EF92FF920F931F93CF93DF9373
:103150006B017A01EC01C85ADD4F28813CE0389FB1
:103160008001399F100D1124A0905C02B12C27FF23
:103170001FC0FB011182108288818F5F8883888144
:103180009801280F311D87FD3A95F6012A153B0558
:103190001CF488818C30C4F1808191810496803444
:1031A0009C4908F473C0F60180819181049670C037
:1031B00088819801280F311D87FD3A952A153B0516
:1031C000DCF68881A801480F511D87FD5A95FA0148
:1031D000EE0FFF1FE40FF51FE35AFD4F808186FFBE
:1031E000CBCF8881F801E80FF11D87FDFA95CF015B
:1031F000EE0FFF1FE80FF91FE35AFD4F808160E0DB
:103200008F730E945F08B8CF808191812881A801C7
:10321000420F511D27FD5A959A01FA01EE0FFF1F2B
:10322000E20FF31FE35AFD4F21813281820F931F7A
:10323000F7019183808388819801280F311D87FDD4
:103240003A95F901EE0FFF1FE20FF31FE35AFD4F0E
:10325000808186FF22C08881080F111D87FD1A9585
:10326000F801EE0FFF1FE00FF11FE35AFD4F8081C1
:1032700061E08F73DF91CF911F910F91FF90EF90DD
:10328000DF90CF90BF90AF900C945F0880E49CE9F2
:10329000F701918380838FEF8883DF91CF911F9116
:1032A0000F91FF90EF90DF90CF90BF90AF90089577
:1032B0002091680430916904C901079697FD07962B
:1032C00023E0959587952A95E1F720916604309142
:1032D0006704829FA001839F500D929F500D11247F
:1032E00070E060E080918104909182040C94BD2D87
:1032F0004F925F926F927F928F929F92AF92BF9206
:10330000CF92DF92EF92FF920F931F93CF93DF93B1
:10331000CDB7DEB760970FB6F894DEBF0FBECDBF56
:103320000E945819EE24E394F12C08E210E028E200
:1033300030E048E050E060E570E082E694E00E9412
:103340009A0E2FE832EC45EF5DEB6091A20470918C
:10335000A3048091A4049091A5040E946F2B20E007
:1033600030E040EE51E40E949A280E94F4294B017B
:1033700026E636E646EE5EEB6091A6047091A70461
:103380008091A8049091A9040E946F2B20E030E066
:1033900048EC52E40E949A280E94F42984019B017F
:1033A0004CE150E064E670E082E694E00E94F90EA1
:1033B00026E636E646EE5EEB6091A6047091A70421
:1033C0008091A8049091A9040E946F2B20E030E026
:1033D00048EC52E40E949A280E94F42969837A8377
:1033E0008B839C832FE832EC45EF5DEB6091A20468
:1033F0007091A3048091A4049091A5040E946F2B66
:1034000020E030E040EE51E40E949A280E94F42926
:103410006D837E838F83988769817A816456710971
:10342000072E000C880B990B0E942C2A6B017C0143
:103430006D817E816C517109072E000C880B990BF0
:103440000E942C2AA70196010E9419294B015C01B8
:103450008091C204882309F402C12BED3FE049E4C6
:103460005FE3C501B4010E949A286B017C012BED3A
:103470003FE049E45FE3C501B4010E9499284B0194
:103480005C012D813E81B901330F880B990B0E949D
:103490002C2A69877A878B879C87C701B6010E948F
:1034A000DC2B2B013C0129813A81B901330F880BB8
:1034B000990B0E942C2A6D877E878F87988BC70176
:1034C000B6010E947D296B017C0120E030E040E2E2
:1034D00051E4C301B2010E946F2B29853A854B85C7
:1034E0005C850E949A280E94F4292B0120E030E09C
:1034F00040E251E4C701B6010E946F2B2D853E8545
:103500004F8558890E949A280E94F429EE24E3945A
:10351000F12C82019B014D815E8169817A8182E675
:1035200094E00E94F90EC501B4010E94DC2B6B01EE
:103530007C01C501B4010E947D294B015C0120E0A2
:1035400030E040E251E4C701B6010E946F2B2985AB
:103550003A854B855C850E949A280E94F4292B01AC
:1035600020E030E040E251E4C501B4010E946F2B3D
:103570002D853E854F8558890E949A280E94F429FE
:10358000EE24E394F12C82019B014D815E816981DF
:103590007A8182E694E00E94F90EC090AA04D0904D
:1035A000AB04E090AC04F090AD0420E030E040EFDC
:1035B00051ECC701B6010E94782962EE7FEF87FDCA
:1035C00010C020E030E048EC52E4C701B6010E9490
:1035D000622B64E670E0181624F0C701B6010E9461
:1035E000F429625E7F4F2CE7269FC001279F900D34
:1035F000112462E870E00E94632C9B016EE770E08A
:10360000621B730BEE24E394F12C04E010E04AE318
:1036100050E082E694E00E948E0F2CE730E04AE30F
:1036200050E062E070E082E694E00E949A0E6096BC
:103630000FB6F894DEBF0FBECDBFDF91CF911F91C3
:103640000F91FF90EF90DF90CF90BF90AF909F9041
:103650008F907F906F905F904F900C946B142BED38
:103660003FE049E45EE3C501B4010E949A286B0182
:103670007C012BED3FE049E45EE3FDCECF92DF928B
:10368000EF92FF9220E030E040E05FE36091FB04C6
:103690007091FC048091FD049091FE040E949A2890
:1036A0006B017C012BED3FE049EC5FE36091F70497
:1036B0007091F8048091F9049091FA040E946F2BA4
:1036C0009B01AC01C701B6010E949A280E94F4290F
:1036D0008CEC94E00E945D178091C204811105C0BA
:1036E00081E08093C2040E9478196CE271E080E06E
:1036F00090E0FF90EF90DF90CF900C94EE080E9446
:10370000B82D85ED8093BC0080912E0390912F03FE
:10371000A0913003B09131030796A11DB11D23E0A4
:10372000B695A795979587952A95D1F72091BC00D6
:1037300024FD03C010927703089540912E03509109
:103740002F036091300370913103452B462B472B9B
:1037500069F30097A105B10541F025E32A95F1F73A
:1037600000000197A109B109E1CF80912D030C94CC
:10377000C7114F925F926F927F928F929F92AF92FA
:10378000BF92CF92DF92EF92FF920F931F93CF934E
:10379000DF932B013C0149015A01E701AC019B0178
:1037A0000E946F2B6B017C01A5019401C501B4013E
:1037B0000E946F2B9B01AC01C701B6010E949A28A1
:1037C0000E94EA2B6B017C01F801C082D182E28267
:1037D000F38220E030E0A9010E947829882309F4CF
:1037E00059C0A7019601C301B2010E9482292B0191
:1037F0003C01A7019601C501B4010E9482296B0119
:103800007C0120E030E040E85FE30E94622B20E092
:1038100030E040E85FE318160CF47AC0C301B2014F
:103820000E94622B18160CF45CC020E030E040E8E7
:103830005FEBC701B6010E94782920E030E040E844
:103840005FEB87FD41C0C301B2010E94782987FF69
:1038500006C0412C512C50E8652E5FEB752EC3013C
:10386000B2010E9488284B015C0188829982AA8259
:10387000BB8220E030E0A901C701B6010E9478298F
:1038800087FF08C0B7FAB094B7F8B09488829982DD
:10389000AA82BB82DF91CF911F910F91FF90EF9091
:1038A000DF90CF90BF90AF909F908F907F906F9060
:1038B0005F904F900895C12CD12C40E8E42E4FEB3F
:1038C000F42E26013701CBCFC301B2010E94782923
:1038D00087FDF1CFC301B2010E9488284B015C0132
:1038E000D1CF20E030E040E85FEBC701B6010E9495
:1038F0007829412C512C30E8632E3FE3732E87FD4D
:10390000E9CF412C512C20E8622E2FE3722EA7CF55
:10391000C301B2010E94622BC12CD12C90E8E92E88
:103920009FE3F92E18166CF380CF4F925F926F923F
:103930007F928F929F92AF92BF92CF92DF92EF923F
:10394000FF920F931F93CF93DF93CDB7DEB7A0976E
:103950000FB6F894DEBF0FBECDBF698B7A8B8B8B11
:103960009C8B2D8B3E8B4F8B588F270138019E01EE
:10397000275F3F4F79018E01035F1F4F9B01AC0111
:103980006D897E898F89988D0E94B91B20E030E077
:1039900048E852E46D857E858F8598890E94992834
:1039A0006D877E878F87988BDE0115967D010C5081
:1039B0001109A30192010E94B91B89809A80AB80F2
:1039C000BC8020E030E040E253E4C501B4010E9435
:1039D0006F2B6B017C0120E030E0A9010E94782967
:1039E000882309F485C1A5019401C501B4010E9491
:1039F0006F2B4B015C0120E030E048EC55E40E9465
:103A00009A2820E030E048EC55E40E949928A7016C
:103A100096010E9482296B017C0120E030E040E8A1
:103A20005FE30E94622B18160CF462C120E030E0C4
:103A300040E85FEBC701B6010E94782987FD58C1B5
:103A4000C701B6010E9488286B017C01A501940181
:103A500060E070E088E496E40E94992820E030E07D
:103A600048E456E40E9482294B015C0120E030E0EA
:103A700040E85FE30E94622B18160CF439C120E085
:103A800030E040E85FEBC501B4010E94782987FD72
:103A90002FC1C501B4010E9488286D8F7E8F8F8F42
:103AA00098A389859A85AB85BC85898F9A8FAB8FC2
:103AB000BC8F2D813E814F815885C701B6010E9480
:103AC0009A286B017C0120E030E040E05FE36091E8
:103AD000D7047091D8048091D9049091DA040E949F
:103AE0009A284B015C012091D3043091D404409179
:103AF000D5045091D604698D7A8D8B8D9C8D0E9452
:103B00006F2B9B01AC01C501B4010E949A280E9451
:103B1000F42983EC94E00E945D1720E030E040E05F
:103B20005FE36091E3047091E4048091E504909177
:103B3000E6040E949A284B015C012091DF04309139
:103B4000E0044091E1045091E204C701B6010E94F3
:103B50006F2B9B01AC01C501B4010E949A280E9401
:103B6000F42986EC94E00E945D172D8D3E8D4F8DDB
:103B700058A1C701B6010E949A282BED3FE049E405
:103B800050E40E9499282091EB043091EC0440917C
:103B9000ED045091EE040E946F2B6B017C0120E03C
:103BA00030E040E05FE36091EF047091F0048091B9
:103BB000F1049091F2040E949A289B01AC01C70184
:103BC000B6010E949A280E94F42989EC94E00E9490
:103BD0005D1789899A89AB89BC898093A2049093E7
:103BE000A304A093A404B093A5048D899E89AF89F2
:103BF000B88D8093A6049093A704A093A804B093D3
:103C0000A9044092AA045092AB046092AC04709252
:103C1000AD040E942009AB01BC018091B1039091D9
:103C2000B203A091B303B091B4038C599F4FAF4F2F
:103C3000BF4F84179507A607B707D0F52091AE04AC
:103C40003091AF044091B0045091B10469897A89F0
:103C50008B899C890E94782981111EC02091B20411
:103C60003091B3044091B4045091B5046D897E89BC
:103C70008F89988D0E94782981110EC02091B604F9
:103C80003091B7044091B8045091B904C301B20116
:103C90000E947829882361F00E9478190E942009E7
:103CA0006093B1037093B2038093B3039093B40312
:103CB00089899A89AB89BC898093AE049093AF04BB
:103CC000A093B004B093B1048D899E89AF89B88D5B
:103CD0008093B2049093B304A093B404B093B5045A
:103CE0004092B6045092B7046092B8047092B9043E
:103CF000A0960FB6F894DEBF0FBECDBFDF91CF9177
:103D00001F910F91FF90EF90DF90CF90BF90AF90F9
:103D10009F908F907F906F905F904F900895CF927B
:103D2000DF92EF92FF920F931F93E12CF12C08E4A6
:103D300012E420E030E044E353E460E070E088EC1B
:103D400092EC0E94951C20E030E040E05FE360913F
:103D5000FB047091FC048091FD049091FE040E948C
:103D60009A286B017C0120E030E0A9016091F70402
:103D70007091F8048091F9049091FA040E946F2BDD
:103D80009B01AC01C701B6010E949A280E94F42948
:103D90008CEC94E00E945D178091C204882321F08E
:103DA0001092C2040E9478196CE271E080E090E009
:103DB0001F910F91FF90EF90DF90CF900C94EE0841
:103DC0004F925F926F927F928F929F92AF92BF922B
:103DD000CF92DF92EF92FF920F931F93CF93DF93D7
:103DE000CDB7DEB762970FB6F894DEBF0FBECDBF7A
:103DF0008091A2049091A304A091A404B091A50481
:103E000089839A83AB83BC838091A6049091A70495
:103E1000A091A804B091A9048D839E83AF83B88735
:103E20004090AA045090AB046090AC047090AD0434
:103E300020E030E04CE852E469817A818B819C81FA
:103E40000E9499284B015C0120E030E048EC52E4EC
:103E50006D817E818F8198850E9499286B017C01FC
:103E6000A5019401C501B4010E946F2B4B015C01B7
:103E7000A7019601C701B6010E946F2B9B01AC01FF
:103E8000C501B4010E949A286B017C01A301920133
:103E9000C301B2010E946F2B9B01AC01C701B601A7
:103EA0000E949A280E94EA2B4B015C011A8A198A07
:103EB000A989BA89BD01BB0F880B990B0E942C2AD6
:103EC0006B017C01AC019B01C501B4010E94622B16
:103ED00018160CF062C0A301920160E070E0CB0103
:103EE0000E949928A70196010E946F2BA5019401B9
:103EF0000E948229A30192010E949A2869877A87E9
:103F00008B879C872D813E814F81588560E070E0D2
:103F100088EC92E40E949928A70196010E946F2BD9
:103F2000A50194010E9482292D813E814F815885EF
:103F30000E949A286D877E878F87988B29813A8186
:103F40004B815C8160E070E08CE892E40E949928EB
:103F5000A70196010E946F2BA50194010E9482295E
:103F600029813A814B815C810E949A28E984FA84F4
:103F70000B851C852D853E854F8558890E94951C93
:103F800062E370E080E090E00E94EE0829893A89BF
:103F9000265F3F4F3A8B298B8BCFE12CF12C870189
:103FA00020E030E048EC52E460E070E08CE892E41D
:103FB0000E94951C0E94781962E370E080E090E016
:103FC0000E94EE0862960FB6F894DEBF0FBECDBF1A
:103FD000DF91CF911F910F91FF90EF90DF90CF90E5
:103FE000BF90AF909F908F907F906F905F904F9019
:103FF0000C943E1B1F920F920FB60F9211240BB61A
:104000000F922F933F934F935F936F937F938F9371
:104010009F93AF93BF93EF93FF9389EB93E00E943D
:104020003807FF91EF91BF91AF919F918F917F9151
:104030006F915F914F913F912F910F900BBE0F9019
:104040000FBE0F901F9018951F920F920FB60F92F0
:1040500011240BB60F922F938F939F93EF93FF939F
:10406000E091C903F091CA038081E091CF03F09100
:10407000D00382FD1DC090818091D2038F5F8F732A
:104080002091D303821741F0E091D203F0E0E7548E
:10409000FC4F958F8093D203FF91EF919F918F9169
:1040A0002F910F900BBE0F900FBE0F901F90189581
:1040B0008081F2CF1F920F920FB60F9211242F938F
:1040C0003F938F939F93AF93BF9380919E03909163
:1040D0009F03A091A003B091A10330919D0323E021
:1040E000230F2D3758F50196A11DB11D20939D0377
:1040F00080939E0390939F03A093A003B093A1038A
:104100008091A2039091A303A091A403B091A50371
:104110000196A11DB11D8093A2039093A303A093C8
:10412000A403B093A503BF91AF919F918F913F914D
:104130002F910F900FBE0F901F90189526E8230F18
:104140000296A11DB11DD2CF1F920F920FB60F92F2
:1041500011240BB60F922F933F934F935F936F935E
:104160007F938F939F93AF93BF93EF93FF93809130
:10417000B900887F803609F44DC008F040C088320D
:1041800009F4A9C028F5803109F49DC0C8F488233A
:1041900009F4FBC0883009F496C0FF91EF91BF91FC
:1041A000AF919F918F917F916F915F914F913F91CF
:1041B0002F910F900BBE0F900FBE0F901F90189570
:1041C000883109F488C0803241F78093760314C0A7
:1041D000803409F49DC040F48033B9F38833E9F6A4
:1041E0008093760385ECB0C0803509F485C08835AE
:1041F00009F496C0883489F60E94811BCECF883995
:1042000009F48CC038F5883729F050F4883611F05D
:10421000803719F683E0809377031092750357C0B7
:10422000883809F47BC0803919F0803809F0B5CF9F
:1042300080917503803208F071C0E091750381E0D0
:104240008E0F809375038091BB00F0E0EB5AFC4F1A
:1042500080833DC0803B39F0E0F4803A09F479C0B6
:10426000883A09F09ACF84E0809377031092540340
:1042700010925303E091A903F091AA03199580913C
:10428000530381110FC081E08093530310923303D5
:1042900009C0803C09F4A6CF883C09F4A3CF883B31
:1042A00009F07BCFE091540381E08E0F809354039B
:1042B000F0E0ED5CFC4F80818093BB009091540353
:1042C0008091530329C080919C038093BB0085ECAF
:1042D0008093BC0062CF90919B0380919A039817C2
:1042E00058F5E0919B0381E08E0F80939B03F0E0F3
:1042F000E658FC4F8081E9CFE0919B0381E08E0F6F
:1043000080939B038091BB00F0E0E658FC4F8083D4
:1043100090919B0380919A039817C8F285E8D8CFB3
:10432000E0919B0381E08E0F80939B038091BB0003
:10433000F0E0E658FC4F80838091790381115CCFD7
:1043400081E08093780384EA8093BC001092770325
:1043500024CF85EC8093BC00109277038091750385
:10436000803230F4E0917503F0E0EB5AFC4F10829C
:104370006091750370E0E091A703F091A80385E5D3
:1043800093E019951092750308CF1092760334CFFD
:104390001F920F920FB60F9211240BB60F922F930C
:1043A0003F934F935F936F937F938F939F93AF93BD
:1043B000BF93EF93FF9348E251E064E271E090E035
:1043C00080E00E949E18FF91EF91BF91AF919F9165
:1043D0008F917F916F915F914F913F912F910F90AE
:1043E0000BBE0F900FBE0F901F9018951F920F924B
:1043F0000FB60F9211240BB60F922F933F934F934A
:104400005F936F937F938F939F93AF93BF93EF933C
:10441000FF9348EA50E064EA70E083E090E00E9495
:104420009E18FF91EF91BF91AF919F918F917F91D6
:104430006F915F914F913F912F910F900BBE0F9015
:104440000FBE0F901F9018951F920F920FB60F92EC
:1044500011240BB60F922F933F934F935F936F935B
:104460007F938F939F93AF93BF93EF93FF9348E90D
:1044700050E064E970E082E090E00E949E18FF91B5
:10448000EF91BF91AF919F918F917F916F915F91CC
:104490004F913F912F910F900BBE0F900FBE0F9039
:1044A0001F9018951F920F920FB60F9211240BB602
:1044B0000F922F933F934F935F936F937F938F93BD
:1044C0009F93AF93BF93EF93FF9348E850E064E866
:1044D00070E081E090E00E949E18FF91EF91BF9103
:1044E000AF919F918F917F916F915F914F913F918C
:1044F0002F910F900BBE0F900FBE0F901F9018952D
:10450000FC0190915C02903398F481E0890F8093D4
:104510005C029083892F90E0FC01EE0FFF1FE80FF3
:10452000F91FE35AFD4F88EB9BE092838183089546
:104530008FEF80830895CF92DF92EF92FF921F93C7
:10454000CF93DF93E9EBF3E01382128248EE53E05E
:1045500060E070E044835583668377838CE092E06B
:104560009183808385EC90E09587848784EC90E04C
:104570009787868780EC90E0918B808B81EC90E030
:10458000938B828B82EC90E0958B848B86EC90E011
:10459000978B868B118E128E138E148EA6E5B4E047
:1045A00013961C921E92129714964D935D936D93E1
:1045B0007C9317978EE192E011969C938E93E2E69E
:1045C000F4E01382128220E830E03583248380E413
:1045D00090E0978386833187208793878287168A26
:1045E000158614861786168611E0158B148B8FEFAF
:1045F0009FEF938B828B918B808B178B108E128EFB
:10460000118E80E392E091838083148E138EB68F97
:10461000A58F10A2178E8FEF84A385A386A387A3EF
:1046200080A780E89AE1A6E0B0E085AB96ABA7ABA7
:10463000B0AF80EA96E8A1E0B0E081AF92AFA3AF5F
:10464000B4AF80E586AF17AECBE4D5E0198218820F
:1046500062E087E30E948D08198218821E861F86F9
:10466000188A198A1A8A1B8A1C8A1D8A87E38B83F7
:104670001A8388E8C82E83E1D82EDD82CC8294E1AB
:10468000E92EF12CFF82EE82198618861B861A8687
:104690001D861C861F8A1E8A198E188E1B8E1A8EE6
:1046A0001D8E1C8E1E8ECCE2D5E01982188262E02F
:1046B00088E30E948D08198218821E861F86188A38
:1046C000198A1A8A1B8A1C8A1D8A88E38B831A839B
:1046D000DD82CC82FF82EE82198618861B861A86BE
:1046E0001D861C861F8A1E8A198E188E1B8E1A8E96
:1046F0001D8E1C8E1E8ECDE0D5E01982188262E0E0
:1047000089E30E948D08198218821E861F86188AE6
:10471000198A1A8A1B8A1C8A1D8A89E38B831A8349
:10472000DD82CC82FF82EE82198618861B861A866D
:104730001D861C861F8A1E8A198E188E1B8E1A8E45
:104740001D8E1C8E1E8E8AE095E00E94802287E0DE
:1047500095E00E94802283EC94E00E94802286EC07
:1047600094E00E94802289EC94E00E9480228CECEC
:1047700094E00E948022E2EAF4E080EE9EE2A5E668
:10478000B2EC81AB92ABA3ABB4AB80E090E0A4EB16
:10479000B2E485AB96ABA7ABB0AF84EB90E096A745
:1047A00085A710AA17A642EE5EE265E672EC40937A
:1047B000DF045093E0046093E1047093E20440E06E
:1047C00050E064E373E44093E3045093E4046093A3
:1047D000E5047093E60427E830E032AF21AF2DE224
:1047E00030E034AF23AF20EEC22E2EE2D22E25E6EB
:1047F000E22E22E4F22EC092EB04D092EC04E0927E
:10480000ED04F092EE044093EF045093F0046093B3
:10481000F1047093F2049093E8048093E7048AE52E
:1048200090E09093EA048093E9048BEE99ECA8E978
:10483000B1E48093F7049093F804A093F904B09343
:10484000FA041092FB041092FC041092FD041092E2
:10485000FE048EE190E09093F4048093F3041092B0
:10486000F6041092F504DF91CF911F91FF90EF9025
:10487000DF90CF900895789484B5826084BD84B52C
:10488000816084BD85B5826085BD85B5816085BD4B
:1048900080916E00816080936E0010928100809103
:1048A000810082608093810080918100816080938B
:1048B0008100809180008160809380008091B100B0
:1048C00084608093B1008091B00081608093B000DB
:1048D000809191008260809391008091910081602D
:1048E00080939100809190008160809390008091EE
:1048F000A10082608093A1008091A10081608093DB
:10490000A1008091A00081608093A000809121018E
:104910008260809321018091210181608093210137
:104920008091200181608093200180917A008460D1
:1049300080937A0080917A00826080937A008091DF
:104940007A00816080937A0080917A0080688093F9
:104950007A001092C100E091C903F091CA0382E08D
:104960008083E091C503F091C6031082E091C703F4
:10497000F091C8038FEC80831092D103E091CD03B6
:10498000F091CE0386E08083E091CB03F091CC03DD
:10499000808180618083E091CB03F091CC038081A2
:1049A00088608083E091CB03F091CC0380818068A4
:1049B0008083E091CB03F091CC0380818F7D808355
:1049C00020ED37E048EE53E064E070E08AE095E0E7
:1049D0000E94F71720ED37E048EE53E065E070E005
:1049E00087E095E00E94F71789ED97E190936205C3
:1049F000809361058CE090E0909300058093FF0424
:104A00008BE090E090930205809301058AE090E0AE
:104A1000909304058093030589E090E09093060548
:104A20008093050520E639E040E252E06CE070E05A
:104A300083EC94E00E94F7176091010570910205E4
:104A400020E639E040E252E086EC94E00E94F7175D
:104A5000609103057091040520E639E040E252E0E0
:104A600089EC94E00E94F7176091050570910605A6
:104A700020ED37E048EE53E08CEC94E00E94F7170D
:104A80008091810490918204892B11F10E94581920
:104A900020916804309169048091660490916704C4
:104AA000213231050CF0BDC0B9016052710977FFA8
:104AB00002C06F5F7F4F759567958357910997FD8A
:104AC000019600E210E023E730E042E758E0BCC086
:104AD0002091680430916904C901079697FD0796F3
:104AE000B3E095958795BA95E1F7209166043091EA
:104AF0006704AC01429FC001439F900D529F900DEF
:104B000011240E94932C9093820480938104892B1A
:104B100009F0BCCF0E946B1460ED77E080E090E07C
:104B20000E94EE080E9458190E946B1480E090E0E9
:104B3000A8ECB2E48093BA049093BB04A093BC04A5
:104B4000B093BD041092BE041092BF041092C00432
:104B50001092C104E12CF12C08E412E49C01AD0197
:104B600060E070E0CB010E94951C0E943E1B8FE824
:104B70009EE1909343058093420580EE9EE19093E1
:104B8000240580932305C1E0D0E08BE495E00E94EA
:104B90002B168CE295E00E942B168DE095E00E948A
:104BA0002B160E9420094B015C018091AD0390916E
:104BB000AE03A091AF03B091B00388519C4FAF4FAB
:104BC000BF4F88159905AA05BB0540F580910002E5
:104BD00090910102E12CF12C87018130910539F08F
:104BE000029709F014C2E12CF12C08EC12E4A801A0
:104BF0009701C801B7010E94951C80910002909115
:104C00000102019690930102809300028092AD030D
:104C10009092AE03A092AF03B092B0030E94C70778
:104C2000B4CFB9016054710977FF02C06F5F7F4F45
:104C3000759567958255910997FD019600E410E0FE
:104C400022E530E042E55AE0959587950E94741080
:104C500082E08093840480917F0490918004892B6A
:104C600009F4DFC08CE3809383041092AC031092AC
:104C7000AB031092B6031092B5030E94A91182EC07
:104C800096E09093AA038093A90383EC96E0909317
:104C9000A8038093A70380918A0487FD1EC061E06A
:104CA0000E948D0861E080918A040E945F0861E0A3
:104CB00070E080E090E00E94EE0860E080918A045D
:104CC0000E945F086AE070E080E090E00E94EE08D9
:104CD00061E080918A040E945F0880917F04909136
:104CE0008004892B09F45CC12091970430919804C9
:104CF0004091990450919A0460E074E284EF90E04E
:104D00000E9457282051310941095109569547956C
:104D1000379527952093B80064E088EC97E00E94CF
:104D2000541360916804615082E694E00E94091473
:104D300064E084EC97E00E9454138091840464E161
:104D4000813009F460E182E694E00E94091464E095
:104D500080EC97E00E9454138FE880939F04809129
:104D60006604909167048038910509F032C1809102
:104D70006804909169048034910509F03AC18091EA
:104D80008404813009F423C18FEC80939F04C2E135
:104D90006AED82E694E00E9409146C2F82E694E0AA
:104DA0000E94091461E882E694E00E94091460916F
:104DB0009F0482E694E00E94091469ED82E694E083
:104DC0000E9409148091840461EF813009F462E249
:104DD00082E694E00E94091466E08AEB97E00E9464
:104DE000541380917F0490918004892B09F405C1AC
:104DF00020919B0430919C0440919D0450919E040D
:104E000060E074E284EF90E00E945728205131095D
:104E10004109510956954795379527952093B80034
:104E200079CE61E0809188040E948D0861E08091D4
:104E300089040E948D0880918804082E000C990B2B
:104E4000FC01E45DF74FE491F0E0EE0FFF1FEE5E32
:104E5000F74F259134913093900420938F04FC01F7
:104E6000E453F84FE491E093950480918904082E6F
:104E7000000C990BFC01E45DF74FE491F0E0EE0FBC
:104E8000FF1FEE5EF74FA591B491B0939204A093EB
:104E90009104FC01E453F84FE491E09396048C9163
:104EA000E82BEC9380917D0490917E04892B09F48A
:104EB00034C0CFB7F8948091A603811127C0E1E6F2
:104EC000F8E08491E1E0F8E09491E82FF0E0EE0F53
:104ED000FF1FE056F84FA591B491EC91E92321F41E
:104EE00061E085E30E945F0861E085E30E948D0830
:104EF0008CB580618CBD8CB580648CBD61E084E331
:104F00000E948D0861E083E30E948D088091A603D2
:104F10008F5F8093A603CFBFBECE61E080918604F1
:104F20000E948D0861E0809187040E948D08809125
:104F30008604082E000C990BFC01E45DF74FE49108
:104F4000F0E0EE0FFF1FEE5EF74F259134913093A6
:104F50008C0420938B04FC01E453F84FE491E0931C
:104F6000930480918704082E000C990BFC01E45DEA
:104F7000F74FE491F0E0EE0FFF1FEE5EF74FA591C3
:104F8000B491B0938E04A0938D04FC01E453F84FC8
:104F9000E491E09394048C91E095E823EC937BCE2C
:104FA00080917D0490917E04892B31F08091A00442
:104FB0009091A1040E948A0BE0919104F0919204D7
:104FC000908180919604809589238083A5CE8FE976
:104FD000DCCE8036910569F4809168049091690473
:104FE000409739F480918404813029F08FEA8093CE
:104FF0009F04C2E0CDCE80E1FACFE0919104F09120
:105000009204808190919604892B808383CDE12C3A
:10501000F12C08EC12ECA8019701C801B7010E941D
:10502000951CD0930102C0930002F0CD80E392E082
:105030009093630480936204809181049091820430
:10504000009711F00C942F2D0895052E97FB1EF458
:1050500000940E943C2857FD07D00E94572807FC67
:1050600003D04EF40C943C285095409530952195F2
:105070003F4F4F4F5F4F0895909580957095619584
:105080007F4F8F4F9F4F08950E947928A59F900DC5
:10509000B49F900DA49F800D911D11240895B7FF1A
:1050A0000C9444280E944428821B930B0895A1E28B
:1050B0001A2EAA1BBB1BFD010DC0AA1FBB1FEE1F92
:1050C000FF1FA217B307E407F50720F0A21BB30BDD
:1050D000E40BF50B661F771F881F991F1A9469F759
:1050E00060957095809590959B01AC01BD01CF01B5
:1050F0000895A29FB001B39FC001A39F700D811DB1
:105100001124911DB29F700D811D1124911D0895D0
:105110009F939F770E94672A0F90002042F4905837
:10512000A2EA2AED3FE049E450E40E94B1280C9441
:10513000142B5058BB27AA270E94B1280C94142B7B
:105140000E94DB2A38F00E94E22A20F039F49F3FC7
:1051500019F426F40C94B12A0EF4E095E7FB0C94B4
:10516000AB2AE92F0E94392B58F3BA17620773074D
:105170008407950720F079F4A6F50C945B2B0EF4C8
:10518000E0950B2EBA2FA02D0B01B90190010C0157
:10519000CA01A0011124FF27591B99F0593F50F46F
:1051A000503E68F11A16F040A22F232F342F4427C7
:1051B000585FF3CF469537952795A795F0405395BF
:1051C000C9F77EF41F16BA0B620B730B840BBAF08F
:1051D0009150A1F0FF0FBB1F661F771F881FC2F7FA
:1051E0000EC0BA0F621F731F841F48F4879577950E
:1051F0006795B795F7959E3F08F0B0CF9395880FC8
:1052000008F09927EE0F9795879508950E94DB2A5D
:1052100060F080E891E009F49EEF0E94E22A28F015
:1052200040E851E071F45EEF0CC00C94B12A0C948C
:105230005B2BE92FE0780E94392B40F3092E052AD9
:10524000B1F3261737074807590738F00E2E07F82D
:10525000E02569F0E025E0640AC0EF6307F80094F8
:1052600007FADB01B9019D01DC01CA01AD01EF9331
:105270000E9499290E94142B0E9449295F9155236D
:1052800039F02BED3FE049E450FD49EC0C949A28AD
:105290000895DF93DD27B92FBF7740E85FE3161647
:1052A000170648075B0718F4D92F0E94672B9F93B6
:1052B0008F937F936F930E942A2CE4EEF0E00E947C
:1052C000B42A0E94142B2F913F914F915F910E941D
:1052D000822BDD2351F09058A2EA2AED3FE049EC01
:1052E0005FE3D0785D270E94B128DF910C94142BE6
:1052F0000E94872A08F481E008950E94EB2AE39532
:105300000C94252B0E9496290C94142B0E94E22ABF
:1053100058F00E94DB2A40F029F45F3F29F00C94FA
:10532000AB2A51110C945C2B0C94B12A0E94392B9E
:1053300068F39923B1F3552391F3951B550BBB27C4
:10534000AA2762177307840738F09F5F5F4F220F09
:10535000331F441FAA1FA9F335D00E2E3AF0E0E800
:1053600032D091505040E695001CCAF72BD0FE2F4A
:1053700029D0660F771F881FBB1F261737074807DE
:10538000AB07B0E809F0BB0B802DBF01FF27935896
:105390005F4F3AF09E3F510578F00C94AB2A0C9485
:1053A0005C2B5F3FE4F3983ED4F386957795679541
:1053B000B795F7959F5FC9F7880F911D96958795CB
:1053C00097F90895E1E0660F771F881FBB1F6217EA
:1053D00073078407BA0720F0621B730B840BBA0BA8
:1053E000EE1F88F7E09508950E94FB296894B1119B
:1053F0000C945C2B08950E94412B88F09F5798F0E5
:10540000B92F9927B751B0F0E1F0660F771F881FC9
:10541000991F1AF0BA95C9F714C0B13091F00E94E3
:105420005B2BB1E008950C945B2B672F782F8827B6
:10543000B85F39F0B93FCCF3869577956795B3950A
:10544000D9F73EF490958095709561957F4F8F4F79
:105450009F4F0895E89409C097FB3EF4909580957E
:10546000709561957F4F8F4F9F4F9923A9F0F92F2A
:1054700096E9BB279395F695879577956795B795A8
:10548000F111F8CFFAF4BB0F11F460FF1BC06F5F8E
:105490007F4F8F4F9F4F16C0882311F096E911C0A0
:1054A000772321F09EE8872F762F05C0662371F0C1
:1054B00096E8862F70E060E02AF09A95660F771FD5
:1054C000881FDAF7880F9695879597F90895DF93E7
:1054D000CF931F930F938B01EC01E1E1F1E00E9468
:1054E000B42A0E94142B9801AE018B01EC0160E0FC
:1054F00070E080E89FE30E9499280E94EA2B9801BF
:10550000AE010F911F91CF91DF910C94822B990FD7
:105510000008550FAA0BE0E8FEEF16161706E8077D
:10552000F907C0F012161306E407F50798F0621B9E
:10553000730B840B950B39F40A2661F0232B242B73
:10554000252B21F408950A2609F4A140A6958FEF92
:10555000811D811D089597F99F6780E870E060E0E4
:1055600008959FEF80EC0895DF93CF931F930F93DF
:10557000FF92EF92DF927B018C01689406C0DA2ED5
:10558000EF010E94822BFE01E894A59125913591AF
:1055900045915591A6F3EF010E94B128FE019701B4
:1055A000A801DA9469F7DF90EF90FF900F911F91B7
:1055B000CF91DF91089500240A9416161706180655
:1055C0000906089500240A94121613061406050607
:1055D00008950C94B12A0E94412BD8F3E894E0E09E
:1055E000BB279F57F0F02AED3FE049EC06C0EE0FD5
:1055F000BB0F661F771F881F28F0B23A6207730738
:10560000840728F0B25A620B730B840BE3959A95CA
:1056100072F7803830F49A95BB0F661F771F881F8A
:10562000D2F790480C94302C092E0394000C11F4FE
:10563000882352F0BB0F40F4BF2B11F460FF04C06D
:105640006F5F7F4F8F4F9F4F0895EF93E0FF07C02D
:10565000A2EA2AED3FE049EC5FEB0E94B1280E94EC
:10566000142B0F90039401FC9058E9E3F1E00C94A3
:10567000432C57FD9058440F551F59F05F3F71F070
:105680004795880F97FB991F61F09F3F79F08795A9
:105690000895121613061406551FF2CF4695F1DF32
:1056A00008C0161617061806991FF1CF86957105C2
:1056B000610508940895E894BB2766277727CB01F6
:1056C00097F908950E94872A08F48FEF08959B01A7
:1056D000AC0160E070E080E89FE30C9482290E94B6
:1056E000822B0C94142B0E94DB2A38F00E94E22AB1
:1056F00020F0952311F00C94AB2A0C94B12A1124BC
:105700000C945C2B0E94392B70F3959FC1F3950F7D
:1057100050E0551F629FF001729FBB27F00DB11D35
:10572000639FAA27F00DB11DAA1F649F6627B00DC5
:10573000A11D661F829F2227B00DA11D621F739FAE
:10574000B00DA11D621F839FA00D611D221F749FBC
:105750003327A00D611D231F849F600D211D822F03
:10576000762F6A2F11249F5750409AF0F1F088232A
:105770004AF0EE0FFF1FBB1F661F771F881F915057
:105780005040A9F79E3F510580F00C94AB2A0C9431
:105790005C2B5F3FE4F3983ED4F38695779567954D
:1057A000B795F795E7959F5FC1F7FE2B880F911D81
:1057B0009695879597F908959F930E94EB2A0F90ED
:1057C00007FCEE5F0C94252B19F416F40C94B12A07
:1057D0000C942E2C0E94412BB8F39923C9F3B6F3F5
:1057E0009F57550B87FF0E943C2C0024A0E640EAFF
:1057F000900180585695979528F4805C660F771F26
:10580000881F20F026173707480730F4621B730BF8
:10581000840B202931294A2BA6951794079420251B
:1058200031254A2758F7660F771F881F20F0261763
:105830003707480730F4620B730B840B200D311DC2
:10584000411DA09581F7B901842F9158880F969535
:10585000879508959B01AC010C946F2B9F3F31F00D
:10586000915020F4879577956795B795880F911D8E
:105870009695879597F9089591505040660F771F38
:10588000881FD2F708959F938F937F936F93FF9311
:10589000EF939B01AC010E946F2BEF91FF910E944F
:1058A000B42A2F913F914F915F910C946F2B991BCC
:1058B00079E004C0991F961708F0961B881F7A9507
:1058C000C9F78095089597FB072E16F4009407D02A
:1058D00077FD09D00E947F2C07FC05D03EF49095FF
:1058E00081959F4F0895709561957F4F0895EE0FB4
:1058F000FF1F881F8BBF0790F691E02D1994AA1BFC
:10590000BB1B51E107C0AA1FBB1FA617B70710F0AA
:10591000A61BB70B881F991F5A95A9F780959095DC
:10592000BC01CD0108950F931F93CF93DF93823075
:10593000910510F482E090E0E0916C05F0916D0526
:1059400030E020E0B0E0A0E0309799F42115310577
:1059500009F44AC0281B390B24303105D8F58A8157
:105960009B816115710589F1FB0193838283FE019F
:1059700011C0408151810281138148175907E0F01D
:105980004817590799F4109761F012960C931297E3
:1059900013961C933296CF01DF91CF911F910F91F7
:1059A000089500936C0510936D05F4CF2115310512
:1059B00051F04217530738F0A901DB019A01BD01EC
:1059C000DF01F801C1CFEF01F9CF90936D0580930E
:1059D0006C05CDCFFE01E20FF31F8193919322500E
:1059E000310939832883D7CF20916A0530916B051F
:1059F000232B41F4209104023091050230936B0572
:105A000020936A052091020230910302211531058D
:105A100041F42DB73EB74091060250910702241B76
:105A2000350BE0916A05F0916B05E217F307A0F4DE
:105A30002E1B3F0B2817390778F0AC014E5F5F4FE4
:105A40002417350748F04E0F5F1F50936B054093A6
:105A50006A05819391939FCFF0E0E0E09CCFCF93D4
:105A6000DF930097E9F0FC01329713821282A09134
:105A70006C05B0916D05ED0130E020E01097A1F4C8
:105A800020813181820F931F20916A0530916B052F
:105A90002817390709F061C0F0936B05E0936A0598
:105AA000DF91CF910895EA01CE17DF07E8F54A812B
:105AB0005B819E0141155105B1F7E901FB83EA8342
:105AC00049915991C40FD51FEC17FD0761F48081EE
:105AD00091810296840F951FE901998388838281C1
