:100000000C94A5010C94D6010C94D6010C94D60145
:100010000C94D6010C94D6010C94D6010C94D60104
:100020000C94D6010C94D6010C94D6010C94D601F4
:100030000C94D6010C94D6010C94D6010C94D601E4
:100040000C94D6010C94D6010C94D6010C94D601D4
:100050000C94D6010C94D6010C94D6010C94300665
:100060000C94D6010C94FA050C94D0050C94D6018E
:100070000C94D6010C94D6010C94D6010C94D601A4
:100080000C94D6010C94D6010C94D6010C94D60194
:100090000C94D6010C94D6010C94D6010C94D60184
:1000A0000C94D6010C94D6010C94D6010C94D60174
:1000B0000C94D6010C94D6010C94D6010C94D60164
:1000C0000C94D6010C94D6010C94D6010C94D60154
:1000D0000C94D6010C94D6010C94D6010C94D60144
:1000E0000C94D6010C9476020C947C030C94C003FF
:1000F0000C94AC030C94FB020C94B2030C947A069F
:100100000C9414020C94CE030C94B6030C94680265
:100110000C949F030C9405020C94C8030C94A80340
:100120000C94D8010C94D2030C949B030C9493036D
:100130000C94AE020C94A2030C94BA030C94C40366
:100140000C9481030C94970300407A10F35A00A09A
:10015000724E18090010A5D4E80000E87648170090
:1001600000E40B54020000CA9A3B000000E1F505D0
:10017000000080969800000040420F000000A0861A
:1001800001000000102700000000E803000000004C
:100190006400000000000A000000000001000000F0
:1001A00000002C76D888DC674F0823DFC1DFAE590A
:1001B000E1B1B796E5E3E453C63AE651997696E89D
:1001C000E6C28426EB898C9B62ED407C6FFCEFBC21
:1001D0009C9F40F2BAA56FA5F490055A2AF75C934C
:1001E0006B6CF9676DC11BFCE0E40D47FEF520E682
:1001F000B500D0ED902E0300943577050080841E65
:10020000080000204E0A000000C80C333333330FBF
:10021000986E12831141EF8D2114893BE65516CF5C
:10022000FEE6DB18D1844B381BF77C1D901DA4BB68
:10023000E424203284725E228100C9F124ECA1E51D
:100240003D2700000A0B02090C0D0E0807030401EC
:10025000000000000000000000000000000000009E
:10026000000000000000000000000000000012116B
:10027000100000000000000000000000000000006E
:1002800000000000000000000000220025002800FF
:100290002B002E003100340002010000050108018E
:1002A0000B0100002100240027002A002D0030004F
:1002B000330001010000040107010A0105050505DD
:1002C000070508080808020202020A0A08080404CE
:1002D00004040101010101010101030303030303FC
:1002E0000303040707070C0C0C0C0C0C0C0C02028B
:1002F000020206060606060606060B0B0B0B0B0B88
:100300000B0B010210202008081020401020408014
:1003100002010201080402010102040810204080C9
:100320008040201008040201800402018040201057
:1003300008040201080402010102040810204080A0
:1003400001020408102040807A0611241FBECFEF5E
:10035000D1E2DEBFCDBF00E00CBF24E0AAE4B3E0F1
:1003600001C01D92A230B207E1F713E0A0E0B2E0B5
:10037000EEE3F5E200E00BBF02C007900D92AA3455
:10038000B107D9F711E0C5EAD1E000E006C0219736
:100390000109802FFE010E947E0DC43AD10780E042
:1003A0000807A9F70E94B9060C949D120C9400004E
:1003B000AF92BF92CF92DF92EF92FF920F931F9373
:1003C000CF93DF936C017B018B01040F151FEB01B1
:1003D0005E01AE18BF08C017D10759F06991D60168
:1003E000ED91FC910190F081E02DC6011995892BCA
:1003F00079F7C501DF91CF911F910F91FF90EF9099
:10040000DF90CF90BF90AF900895FC01538D448D45
:10041000252F30E0842F90E0821B930B541710F0AF
:10042000CF96089501970895FC01918D828D9817BC
:1004300061F0A28DAE0FBF2FB11D5D968C91928D94
:100440009F5F9F73928F90E008958FEF9FEF0895C5
:100450002FB7F8948091550390915603A0915703BC
:10046000B09158032FBF8093610390936203A093D0
:100470006303B093640389E593E00E94140297FF3D
:1004800026C02FB7F8948091550390915603A09100
:100490005703B09158032FBF4091610350916203FD
:1004A0006091630370916403841B950BA60BB70BDB
:1004B00040915D0350915E0360915F037091600312
:1004C00084179507A607B707B0F28FEF9FEF08953F
:1004D000FC01918D828D981731F0828DE80FF11D0E
:1004E000858D90E008958FEF9FEF0895FC01918D29
:1004F000228D892F90E0805C9F4F821B91098F7322
:100500009927089589E593E00E94760221E0892BDE
:1005100009F420E0822F0895FC01A48DA80FB92FC3
:10052000B11DA35ABF4F2C91848D90E001968F731B
:100530009927848FA689B7892C93A089B1898C913A
:10054000837080648C93938D848D981306C0028889
:10055000F389E02D80818F7D80830895EF92FF9253
:100560000F931F93CF93DF93EC0181E0888F9B8DD6
:100570008C8D98131AC0E889F989808185FF15C090
:100580009FB7F894EE89FF896083E889F9898081B3
:100590008370806480839FBF81E090E0DF91CF9182
:1005A0001F910F91FF90EF900895F62E0B8D10E0A4
:1005B0000F5F1F4F0F731127E02E8C8D8E110CC013
:1005C0000FB607FCFACFE889F989808185FFF5CF5E
:1005D000CE010E948C02F1CFEB8DEC0FFD2FF11DAF
:1005E000E35AFF4FF0829FB7F8940B8FEA89FB899B
:1005F00080818062CFCFCF93DF93EC01888D8823F9
:10060000B9F0AA89BB89E889F9898C9185FD03C075
:10061000808186FD0DC00FB607FCF7CF8C9185FF5A
:10062000F2CF808185FFEDCFCE010E948C02E9CF11
:10063000DF91CF91089580E090E0892B29F00E940E
:10064000820281110E94000080E090E0892B49F035
:1006500080E090E0892B29F00E94000081110E9427
:10066000000080E090E0892B49F080E090E0892B49
:1006700029F00E94000081110E94000080E090E0BB
:10068000892B49F080E090E0892B29F00E9400003E
:1006900081110C9400000895282F30E0F901EE5BE1
:1006A000FD4F9491F901EE5FFC4F449124543D4F6E
:1006B000F9012491222309F435C0992311F19150B5
:1006C0009231F8F4E92FF0E08827E659FC4F8F4F7C
:1006D0000C947E0D9B039F037C039303970381037C
:1006E000A203A803AC03B203B603BA03C003C40356
:1006F0008103C803CE03D203809180008F7780935B
:100700008000E22FF0E0EE0FFF1FE857FD4FA591AC
:10071000B4918FB7F894EC91611148C040954E2385
:100720004C938FBF0895809180008F7DE8CF80919A
:100730008000877FE4CF84B58F7784BDE2CF84B516
:100740008F7DFBCF8091B0008F778093B000D9CFA1
:100750008091B0008F7DF9CF809190008F7780934A
:100760009000CFCF809190008F7DF9CF8091900045
:10077000877FF5CF8091A0008F778093A000C1CFB5
:100780008091A0008F7DF9CF8091A000877FF5CF69
:10079000809120018F7780932001B3CF8091200139
:1007A0008F7DF9CF80912001877FF5CF4E2BB8CF79
:1007B000FC0101900020E9F73197AF01481B590B6C
:1007C000BC0189E593E00C94D801CF93DF93FC0141
:1007D000448155816081718189E593E00E94D8014F
:1007E000EC0188E192E00E94D8038C0F9D1FDF91FD
:1007F000CF910895FC0124813581FB01448155810D
:1008000024173507A0F0FC0180819181009779F0D1
:10081000FB01608171816115710549F0241B350B65
:10082000820F931F0E94A90F21E0892B09F020E07D
:10083000822F0895FB0144815581FC01248135817B
:100840002417350778F080819181009759F0FB01DA
:10085000608171816115710529F00E94B90F21E055
:10086000892B09F020E0822F08950F931F93CF93D7
:10087000DF93EC0188819981009759F02A813B81AF
:100880002617370730F081E0DF91CF911F910F914C
:1008900008958B016F5F7F4F0E94BF0E009759F044
:1008A000998388831B830A832C813D81232B59F7ED
:1008B000FC011082E8CF80E0E7CFEF92FF920F9328
:1008C0001F93CF93DF936115710541F480E0DF91B1
:1008D000CF911F910F91FF90EF9008954115510511
:1008E000B1F07B01EC010C811D81040F151FB801D3
:1008F0000E943504882351F3288139818C819D81A0
:10090000B701820F931F0E94B20F1D830C8381E0F9
:10091000DECFCF93DF93EC0188819981009711F0AE
:100920000E94360E198218821D821C821B821A8236
:10093000DF91CF910895CF93DF93EC01FB010190FC
:100940000020E9F73197AF01461B570B0E945D0469
:10095000811103C0CE010E948904CE01DF91CF91A5
:100960000895CF93DF93EC01FB01448155816081B1
:1009700071810E945D04811103C0CE010E9489042F
:10098000CE01DF91CF910895EF92FF920F931F93C5
:10099000CF93DF93EC017B018A01BA010E943504F9
:1009A00081110BC0CE010E948904CE01DF91CF914D
:1009B0001F910F91FF90EF9008951D830C83B70155
:1009C000888199810E94B20FF0CFFB010190002035
:1009D000E9F73197AF01461B570B0C94C4040F93F2
:1009E0001F93CF93DF93CDB7DEB762970FB6F8941E
:1009F000DEBF0FBECDBF8C01CB01F801118210828A
:100A000013821282158214824AE0BE016F5F7F4F0B
:100A10000E94C30ABE016F5F7F4FC8010E94E504B8
:100A200062960FB6F894DEBF0FBECDBFDF91CF91B7
:100A30001F910F910895FB01DC0111961C921E92EB
:100A400013961C921E92129715961C921E92149742
:100A50008617970749F0608171816115710521F052
:100A6000448155810C94C4040895FC0111821082C4
:100A70001382128215821482FB0101900020E9F793
:100A80003197AF01461B570B0C94C404AF92BF9231
:100A9000CF92DF92EF92FF920F931F93CF93DF934A
:100AA0006C015B017A0189012417350720F48F2D31
:100AB0007901042F182F6AE172E0C6010E94350502
:100AC000D5011496CD91DC91EC16FD06E0F40C17DF
:100AD0001D0708F4E801D501ED91FC911197EC0F89
:100AE000FD1F108110826D917C916E0D7F1DC601DE
:100AF00061157105A1F00E94E504F50180819181E5
:100B0000C80FD91F1883C601DF91CF911F910F9194
:100B1000FF90EF90DF90CF90BF90AF9008950E942C
:100B20008904EBCFFC0180819181009711F00C9436
:100B3000360E0895EF92FF920F931F93CF93DF939A
:100B4000CDB7DEB7A1970FB6F894DEBF0FBECDBF0D
:100B50007C01CB01BA01F70111821082138212824B
:100B60001582148242E0420F8E010F5F1F4F0E94D8
:100B70007E0A009789F0BC01C7010E94E504A19696
:100B80000FB6F894DEBF0FBECDBFDF91CF911F919E
:100B90000F91FF90EF900895C7010E948904EFCF55
:100BA0001F920F920FB60F9211240BB60F922F9334
:100BB0003F934F935F936F937F938F939F93AF93E5
:100BC000BF93EF93FF9389E593E00E948C02FF911E
:100BD000EF91BF91AF919F918F917F916F915F91B5
:100BE0004F913F912F910F900BBE0F900FBE0F9022
:100BF0001F9018951F920F920FB60F9211240BB6EB
:100C00000F922F938F939F93EF93FF93E09169033C
:100C1000F0916A038081E0916F03F091700382FD8F
:100C20001DC09081809172038F5F8F732091730339
:100C3000821741F0E0917203F0E0E75AFC4F958F84
:100C400080937203FF91EF919F918F912F910F905D
:100C50000BBE0F900FBE0F901F9018958081F2CFA2
:100C60001F920F920FB60F9211242F933F938F93E1
:100C70009F93AF93BF938091550390915603A0919A
:100C80005703B091580330914E0323E0230F2D37C3
:100C900058F50196A11DB11D20934E038093550375
:100CA00090935603A0935703B093580380914A033F
:100CB00090914B03A0914C03B0914D030196A11D5F
:100CC000B11D80934A0390934B03A0934C03B093C0
:100CD0004D03BF91AF919F918F913F912F910F90B5
:100CE0000FBE0F901F90189526E8230F0296A11DA6
:100CF000B11DD2CFE9E5F3E01382128288EE93E0D2
:100D0000A0E0B0E084839583A683B7838AE092E075
:100D10009183808385EC90E09587848784EC90E0D4
:100D20009787868780EC90E0918B808B81EC90E0B8
:100D3000938B828B82EC90E0958B848B86EC90E099
:100D4000978B868B118E128E138E148EE6EFF3E046
:100D50008DE090E0918380838CE090E093838283A8
:100D60008BE090E0958384838AE090E0978386838C
:100D70000895CF93DF93CDB7DEB7CE58D1090FB624
:100D8000F894DEBF0FBECDBF789484B5826084BD79
:100D900084B5816084BD85B5826085BD85B581607F
:100DA00085BD80916E00816080936E0010928100FD
:100DB00080918100826080938100809181008160B8
:100DC0008093810080918000816080938000809179
:100DD000B10084608093B1008091B0008160809305
:100DE000B000809191008260809391008091910089
:100DF0008160809391008091900081608093900049
:100E00008091A10082608093A1008091A100816007
:100E10008093A1008091A00081608093A0008091C8
:100E20002101826080932101809121018160809362
:100E300021018091200181608093200180917A00BE
:100E4000846080937A0080917A00826080937A0037
:100E500080917A00816080937A0080917A00806826
:100E600080937A001092C10006EF13E04EEFE42E5B
:100E700043E0F42EF801808191819927FC01EE5F17
:100E8000FC4F249184549D4FFC018491882399F058
:100E900090E0880F991FFC01EE55FD4FA591B4918C
:100EA000FC01E857FD4F859194918FB7F894EC9130
:100EB000E22BEC938FBF61E0F80180810E944C032C
:100EC0000E5F1F4FE016F106A9F6E0916903F0915D
:100ED0006A0382E08083E0916503F09166031082EB
:100EE000E0916703F09168038FEC808310927103A7
:100EF000E0916D03F0916E0386E08083E0916B03D7
:100F0000F0916C03808180618083E0916B03F091AC
:100F10006C03808188608083E0916B03F0916C03A7
:100F2000808180688083E0916B03F0916C03808105
:100F30008F7D80838BE192E00E94D80388E192E06C
:100F40000E94D80380E292E00E94D80319A282E3B3
:100F500088A384E38F8FCE014F960E94D80388E147
:100F600092E00E94D8031F928AE28F938AE392E074
:100F70009F938F938E010F5F1F4F1F930F930E94BC
:100F8000C70FC8010E94D80388E192E00E94D803ED
:100F900067E572E0CE0187579F4F0E9435056AE2F0
:100FA00070E0CE018D579F4F0E94EF04BE0167573E
:100FB0007F4FCE018B599F4F0E941B05BE016D577D
:100FC0007F4FCE018B599F4F0E94B104BC01CE01CF
:100FD00083589F4F0E941B05CE018B599F4F0E9443
:100FE0009205CE0183589F4F0E94E50323E044E120
:100FF0005EEA69E272E4CE018B599F4F0E949A0526
:1010000061E772E0CE0185599F4F0E943505BE0110
:101010006B597F4FCE0185599F4F0E94B104BC018F
:10102000CE0189589F4F0E941B05CE0185599F4FC5
:101030000E949205CE018B599F4F0E949205CE01CE
:1010400089589F4F0E94E50325E047E850E56DEB86
:1010500070E4CE018B599F4F0E949A0568E972E0B7
:10106000CE0185599F4F0E943505BE016B597F4FB8
:10107000CE0185599F4F0E94B1046FEA72E00E9431
:101080009B04BC01CE018F589F4F0E941B05CE01CF
:1010900085599F4F0E949205CE018B599F4F0E9408
:1010A0009205CE018F589F4F0E94E5038AE090E0A1
:1010B000A0E0B0E080935D0390935E03A0935F0394
:1010C000B0936003CE018F589F4F0E949205CE01CE
:1010D00089589F4F0E949205CE0183589F4F0E94CE
:1010E0009205CE018D579F4F0E949205CE018757E2
:1010F0009F4F0E9492050F900F900F900F900F90AE
:101100000F909AE0692E712C89E593E00E94760297
:10111000181619060CF072C16AE172E0CE018F5800
:101120009F4F0E9435050E94280297FD0EC08A300D
:10113000910559F089831A8241E050E0B801CE014F
:101140008F589F4F0E945D04EECFE396AEACBFACCC
:10115000E397A114B10449F0E796EEACFFACE79732
:101160006501E114F10409F07EC1E7968EAD9FADF3
:10117000E797892BB9F0E396EEACFFACE39763EC0D
:1011800072E0C7010E94A90F60E0892B41F06BEC6F
:1011900072E0C7010E94A90F892B21F461E08DE064
:1011A0000E944C0362ED72E0C8010E943505B8014F
:1011B000CE018F589F4F0E941A04F82EC8010E943A
:1011C0009205FF2039F1E7962EAD3FADE7974CE051
:1011D00050E0BE016F587F4FCE018B599F4F0E9448
:1011E00046056FED72E0C8010E943505BE016B59DE
:1011F0007F4FC8010E94B10464EE72E00E949B041C
:101200000E94E503C8010E949205CE018B599F4FB1
:101210000E94920568EF72E0C8010E943505B8018E
:10122000CE018F589F4F0E941A04F12C8823C9F0D9
:1012300062E073E0CE018B599F4F0E943505BE01DD
:101240006B597F4FCE018F589F4F0E94FA03FF24A6
:10125000F394811101C0F12CCE018B599F4F0E9454
:101260009205C8010E949205FF2009F440C0E7964C
:101270002EAD3FADE7972550310949E050E0BE0162
:101280006F587F4FCE0185599F4F0E944605AD96FE
:101290008EAD9FADAD97009709F424C10E949C0AC2
:1012A000CB01B3010E946A0DC8010E94EF0468E0FF
:1012B00073E0CE018B599F4F0E943505B801CE01D6
:1012C0008B599F4F0E94B10468E173E00E949B0418
:1012D0000E94E503CE018B599F4F0E949205C801E1
:1012E0000E949205CE0185599F4F0E94920562E2AD
:1012F00073E0C8010E943505B801CE018F589F4F99
:101300000E941A04F82EC8010E949205FF2009F1DC
:10131000E7962EAD3FADE7974CE050E0BE016F5829
:101320007F4FC8010E94460589819A81009709F480
:10133000DDC00E949C0A61507109660F771FFB0196
:10134000EA50FC4F60E080810E944C03C8010E947B
:1013500092056FE273E0C8010E943505B801CE0125
:101360008F589F4F0E941A04F12C8823C9F065E41E
:1013700073E0CE018B599F4F0E943505BE016B591A
:101380007F4FCE018F589F4F0E94FA03FF24F394A2
:10139000811101C0F12CCE018B599F4F0E94920503
:1013A000C8010E949205FF2021F1E7962EAD3FADC6
:1013B000E7972350310945E150E0BE016F587F4F58
:1013C000C8010E944605C8010E94E50389819A81EF
:1013D000009709F48FC00E949C0A70935403609395
:1013E000530360E08091FA030E944C03C8010E94FD
:1013F0009205CE018F589F4F0E9492058FB7F894A7
:10140000C0905503D0905603E0905703F0905803D6
:101410008FBF8091530390915403092E000CAA0BA7
:10142000BB0B40914F035091500360915103709159
:101430005203840F951FA61FB71F8C159D05AE057F
:10144000BF0568F461E08091FA030E944C03C092EA
:101450004F03D0925003E0925103F09252030E9446
:101460001B0352CE64014601FFEF8F1A9F0AF6015B
:101470008081082E000C990B0E944E0D892B91F74C
:10148000F1E0EF1AF108EA0CFB1CF7018081082E4D
:10149000000C990B0E944E0D892B39F0EC14FD04C1
:1014A00020F0F1E0EF1AF108F0CF8FEFE81AF80A18
:1014B000A7014C195D09E7965FAF4EAFE797AC14F3
:1014C000BD0420F4B601C5010E94A00FE396EEAD65
:1014D000FFADE397E7968EAD9FADE797E80FF91F55
:1014E000108243CE60E070E0CB01DACE60E070E0C5
:1014F000CB0121CF60E070E0CB016FCFEF920F9373
:101500001F93CF93DF93E80134E047FD34E1042ECD
:10151000000C550B57FF03C0519541955109E32E1F
:10152000022F242FAE010E94FD0ACE01DF91CF9140
:101530001F910F91EF9008951F93FC019927882721
:10154000BC01E89411911032E9F3193010F01E300B
:10155000C8F31B3251F01D3249F4689406C00E9452
:10156000CE0A610F711D811D911D119110531A300A
:10157000B0F33EF490958095709561957F4F8F4FB5
:101580009F4F1F910895BB274A3031F4992322F4CD
:10159000BDE2909581959F4F0C94E40A592F482FF6
:1015A000372F262F660F771F881F991F660F771F0B
:1015B000881F991F620F731F841F951F660F771F67
:1015C000881F991F0895BB27FB015527AA27880F5D
:1015D000991FAA1FA41710F0A41B83955051B9F7A7
:1015E000A05DAA3308F0A95DA193009779F7B11126
:1015F000B1931192CB010C94570D8F929F92AF92A1
:10160000BF92CF92DF92EF92FF920F931F93CF93EF
:10161000DF9300D000D000D0CDB7DEB76A01F22E44
:10162000B02E102FFBE3AF2EA01608F41BE31F5FB4
:10163000012F27E0AE014F5F5F4F0E94760CBC0187
:101640008981982F9970913009F44EC09BE2E1FC9A
:1016500004C09E2D9170E0FC49C05E2D5071E82FB2
:10166000E87083FF55C084E0911101C083E0EF2D45
:10167000E81B8F1508F0E0E0D6018E2F20E25523FD
:10168000C9F1992329F0D6019C93C60101966C01FA
:1016900096012D5F3F4FE2FE33C08EE4D6018C935E
:1016A00091E411969C93119712968C93D9018E2FE9
:1016B00090E281112AC0E20FF32FF11D10828EEF0C
:1016C0009FEF29960FB6F894DEBF0FBECDBFDF9116
:1016D000CF911F910F91FF90EF90DF90CF90BF902F
:1016E000AF909F908F9008959DE2B7CF90E2B5CFD5
:1016F0002D9381508111FCCFCE0ED11CE0E0C1CFE3
:101700008EE6D6018C9391E6CCCF9D938150D1CFBC
:10171000482F447082FF3DC084E0911101C083E0F6
:101720008F1510F4EF2DE81BD6018E2F20E25523E4
:1017300009F1992329F0D6019C93C60101966C0109
:1017400096012D5F3F4FE2FE1BC089E4D6018C93CA
:101750008EE411968C93119786E412968C93D9019E
:101760008E2F90E2882309F4A6CF9D938150FACF63
:101770002D9381508111FCCFCE0ED11CE0E0D9CF4A
:1017800089E6D6018C938EE611968C93119786E6A6
:10179000E4CF9B0177FF02C030E020E0A1E0B0E0A1
:1017A000911102C0B0E0A0E0F9013196AE0FBF1F69
:1017B0008B2C912CBB2009F461C05401EFEFAE1AC1
:1017C000BE0AAA0DBB1DFA161B0619F014F04F2D08
:1017D0004A1B511188C0E3FC59C07601A42FB0E226
:1017E000A1114FC0C40ED11C992309F45BC040E085
:1017F000D6011196F60190836D01552309F448C076
:10180000012F060F9A81582F507184FF03C0913326
:1018100009F4015010160CF047C0093008F008E038
:10182000EEE2FE2E5B01A01AB1088501919481942D
:1018300091082F3F320729F4D601FC92F601319628
:101840006F016217730794F1021713077CF5DB0130
:10185000A21BB30BAA24A394B12CAC0EBD1EAA0DDF
:10186000BB1D11968C9121503109D6011196281576
:101870003905F4F0F60180836D01DBCFB12CA12C8A
:10188000A0CFF701B1937F01A150AACF9111B0CFA2
:10189000D601942F50E302C05D9391509111FCCF7B
:1018A000C40ED11C40E0ACCF01E0BACF80E3DBCF67
:1018B0006217730731F4963388F4953311F4552386
:1018C00069F0F6018083FD01842F90E2811108C048
:1018D000A40FB11D1C9290E080E0F3CE81E3F1CF24
:1018E00091938150F3CF911183CF8ACF283008F0A4
:1018F00027E03327DA01990F311D87FD91600096AB
:101900006105710539F432602E5F3D9330E32A950D
:10191000E1F708959F3F30F080387105610509F0C7
:101920003C5F3C5F3D93913008F08068911DDF93F0
:10193000CF931F930F93FF92EF92192F987F969555
:10194000E92F96959695E90FFF27EE55FE4F9927BB
:101950003327EE24FF24A701E7010590089407949C
:1019600028F4360FE71EF81E491F511D660F771F1A
:10197000881F991F0694A1F70590079428F4E70E95
:10198000F81E491F561FC11D770F881F991F661F1C
:101990000694A1F70590079428F4F80E491F561FE6
:1019A000C71FD11D880F991F661F771F0694A1F7C7
:1019B0000590079420F4490F561FC71FD81F990F91
:1019C000661F771F881F0694A9F7849110951770DA
:1019D00041F0D695C79557954795F794E7941A9592
:1019E000C1F7E8E4F1E0689415901591359165919F
:1019F000959105907FE27395E118F10A430B560B20
:101A0000C90BD009C0F7E10CF11E431F561FC91FB7
:101A1000D01D7EF4703311F48A95E6CFE89401501E
:101A200030F0080F0AF40027021708F4202F23953E
:101A3000022F7A3328F079E37D932A95E9F710C0D5
:101A40007D932A9589F6069497956795379517950E
:101A50001794E118F10A430B560BC90BD00998F003
:101A600023957E9173957A3308F070E37C9320136D
:101A7000B8F77E9170617D9330F0839571E37D932B
:101A800070E32A95E1F71124EF90FF900F911F91D9
:101A9000CF91DF91992787FD9095089591110C942E
:101AA000670D803219F089508550C8F70895DC0120
:101AB000FC01672F71917723E1F7329704C07C9185
:101AC0006D9370836291AE17BF07C8F3089599278D
:101AD0008827089597FB072E16F4009407D077FD0A
:101AE00009D00E94860D07FC05D03EF490958195A3
:101AF0009F4F0895709561957F4F0895EE0FFF1FDA
:101B0000881F8BBF0790F691E02D1994AA1BBB1B71
:101B100051E107C0AA1FBB1FA617B70710F0A61BED
:101B2000B70B881F991F5A95A9F780959095BC010E
:101B3000CD0108950F931F93CF93DF9382309105CA
:101B400010F482E090E0E0910004F091010430E0B4
:101B500020E0B0E0A0E0309799F42115310509F4B8
:101B60004AC0281B390B24303105D8F58A819B8166
:101B70006115710589F1FB0193838283FE0111C018
:101B8000408151810281138148175907E0F04817BD
:101B9000590799F4109761F012960C9312971396C7
:101BA0001C933296CF01DF91CF911F910F91089531
:101BB0000093000410930104F4CF2115310551F076
:101BC0004217530738F0A901DB019A01BD01DF017B
:101BD000F801C1CFEF01F9CF909301048093000485
:101BE000CDCFFE01E20FF31F819391932250310973
:101BF00039832883D7CF2091FE033091FF03232B15
:101C000041F420910202309103023093FF032093AC
:101C1000FE0320910002309101022115310541F4AB
:101C20002DB73EB74091040250910502241B350B9D
:101C3000E091FE03F091FF03E217F307A0F42E1BDF
:101C40003F0B2817390778F0AC014E5F5F4F241720
:101C5000350748F04E0F5F1F5093FF034093FE037C
:101C6000819391939FCFF0E0E0E09CCFCF93DF93FF
:101C70000097E9F0FC01329713821282A0910004D0
:101C8000B0910104ED0130E020E01097A1F4208133
:101C90003181820F931F2091FE033091FF0328179B
:101CA000390709F061C0F093FF03E093FE03DF9171
:101CB000CF910895EA01CE17DF07E8F54A815B81ED
:101CC0009E0141155105B1F7E901FB83EA83499172
:101CD0005991C40FD51FEC17FD0761F480819181E4
:101CE0000296840F951FE9019983888382819381ED
:101CF0009B838A83F0E0E0E012968D919C9113978C
:101D00000097B9F52D913C911197CD010296820F64
:101D1000931F2091FE033091FF032817390739F6EE
:101D2000309751F51092010410920004B093FF0314
:101D3000A093FE03BCCFD383C28340815181840F23
:101D4000951FC817D90761F44E5F5F4F888199814D
:101D5000480F591F518340838A819B8193838283DB
:101D60002115310509F0B0CFF0930104E093000490
:101D70009ECFFD01DC01C0CF13821282D7CF4F92DC
:101D80005F926F927F928F929F92AF92BF92CF920B
:101D9000DF92EF92FF920F931F93CF93DF938C010B
:101DA000009799F4CB01DF91CF911F910F91FF9094
:101DB000EF90DF90CF90BF90AF909F908F907F90EB
:101DC0006F905F904F900C949A0DFC01E60FF71FF7
:101DD0009C0122503109E217F30708F4AEC0D90183
:101DE000CD91DC911197C617D70720F1C530D105E9
:101DF00078F0CE0104978617970750F0C61BD70BD3
:101E00002297C193D1936D937C93CF010E94360E9C
:101E1000C801DF91CF911F910F91FF90EF90DF905C
:101E2000CF90BF90AF909F908F907F906F905F907A
:101E30004F9008955B01AC1ABD0A4C018C0E9D1E9B
:101E4000A0910004B0910104512C412CF12CE12C03
:101E5000109731F58091FE039091FF038815990545
:101E600009F05CC04616570608F058C08091000281
:101E700090910102009741F48DB79EB74091040202
:101E800050910502841B950BE817F90708F055C01F
:101E9000F093FF03E093FE03F90171836083B8CFF1
:101EA0008D919C91119712966C90129713967C903D
:101EB0001397A815B90559F56C0142E0C40ED11C61
:101EC000CA14DB0420F1AC014A195B09DA0112964D
:101ED000159780F06282738251834083D9016D939C
:101EE0007C93E114F10471F0D7011396FC93EE9307
:101EF00012978ECF22968C0F9D1FF90191838083BC
:101F0000F301EFCFF0930104E093000481CF481672
:101F1000590608F42C017D01D3019ACFCB010E9410
:101F20009A0D7C01009749F0AE01B8010E94A00F04
:101F3000C8010E94360E87016BCF10E000E068CF29
:101F4000FB01DC0102C001900D9241505040D8F7D6
:101F50000895FB01DC018D91019080190110D9F3E6
:101F6000990B0895FB01DC0101900D920020E1F72F
:101F70000895FB01DC014150504030F08D910190FB
:101F8000801919F40020B9F7881B990B08950F9355
:101F90001F93CF93DF93CDB7DEB72E970FB6F8948C
:101FA000DEBF0FBECDBF0E891F8986E08C831A83EA
:101FB00009838FEF9FE79E838D83AE01465E5F4F5F
:101FC000688D798DCE0101960E94F70F2F8138859B
:101FD000020F131FF80110822E960FB6F894DEBF81
:101FE0000FBECDBFDF91CF911F910F9108952F921A
:101FF0003F924F925F926F927F928F929F92AF9299
:10200000BF92CF92DF92EF92FF920F931F93CF93E5
:10201000DF9300D000D000D01F921F92CDB7DEB763
:102020007C013B018A01FC0117821682838181FFBA
:10203000DDC1CE0101965C01F7019381F30193FDAF
:10204000859193FF81913F01882309F453C1853223
:1020500039F493FD859193FF81913F01853229F4F5
:10206000B70190E00E940F12E7CF912C212C312C68
:10207000FFE1F31538F08B3211F190F4803209F161
:10208000833229F137FC3CC020ED280F2A3050F56F
:1020900036FE20C08AE0989E200D1124922E06C0A4
:1020A0008D3291F0803371F7689430F8F30193FD2D
:1020B000859193FF81913F018111DACF21C068940E
:1020C00031F8689432F8F2CF689433F8EFCF68941F
:1020D00034F8ECCFEAE02E9E200D1124222E6894D5
:1020E00035F8E4CF8E3229F436FC04C1689436F812
:1020F000DDCF8C3619F4689437F8D8CF8836B1F232
:10210000982F9F7D95549330E0F08336A1F183376B
:10211000C1F1833509F063C02801F2E04F0E511C74
:10212000F801C080D180692D70E036FC02C06FEFED
:102130007FEFC6010E94F9114C01689437F88201C3
:102140000AC00C5F1F4FFFE3F98388248394912C0E
:102150006501E89437F833FE2DC0522C81149104A8
:1021600071F5552009F468CFB70180E290E00E9434
:102170000F125A94F6CFF801808189830E5F1F4FAA
:10218000E4CF2801F2E04F0E511CF801C080D1804D
:10219000692D70E036FC02C06FEF7FEFC6010E9430
:1021A00004124C018201D5CFB70180E290E00E9479
:1021B0000F122A942814190409F0B0F7CECFF601B3
:1021C00037FC859137FE81916F01B70190E00E9445
:1021D0000F1251105A94F1E08F1A9108BFCF843634
:1021E00019F0893609F077C0F80137FE6BC06081BD
:1021F0007181828193810C5F1F4FF32DFF763F2EFB
:1022000097FF09C090958095709561957F4F8F4F8E
:102210009F4F689437F82AE030E0A5010E943F12F2
:10222000C82ECA188C2C432C36FE0CC0E89440F8FB
:10223000C91440F434FE05C032FC03C0F32DFE7E09
:102240004F2E892C44FEAAC0FE01EC0DF11D8081A9
:10225000803309F09CC0242D297E422E842D887065
:10226000582E43FCAAC040FEA4C09C2C821418F433
:102270002C0C922C981844FEA6C0B70180E390E085
:102280000E940F1242FE09C088E790E041FE02C0A2
:1022900088E590E0B7010E940F12C91408F49FC0AE
:1022A000CA94D12C9FEFC91AD90ACA0CDB1CF601BB
:1022B00082916F01B70190E00E940F12AC14BD042F
:1022C000B1F74FCF60817181072E000C880B990BFD
:1022D0000E5F1F4F92CFD32CE894D4F82AE030E061
:1022E0008537E1F1232D297FD22E8F36A9F1F0F425
:1022F000883551F1F701868197812B960FB6F894B6
:10230000DEBF0FBECDBFDF91CF911F910F91FF9028
:10231000EF90DF90CF90BF90AF909F908F907F9085
:102320006F905F904F903F902F900895803749F0C5
:10233000883701F7D4FE02C06894D2F820E130E07B
:102340000DC06894D4F8F6CF34FE03C0822F8660A7
:10235000D82E20E132E002C028E030E0F801D7FEBC
:102360000FC060817181828193810C5F1F4FA50135
:102370000E943F12C82ECA183D2CE89437F852CF5D
:102380006081718190E080E00E5F1F4FF0CF42FCD2
:1023900002C0839463CF8394839460CF842D867826
:1023A00009F45CCFF6CFB70180E290E00E940F12F3
:1023B00083948214C0F3512C5ECF522C581882148F
:1023C00008F459CFF8CF842D867809F466CF8BE2D4
:1023D00041FE80E247FC8DE2B70190E05CCFB7019F
:1023E00080E390E00E940F129A9457CF8FEF9FEFF7
:1023F00084CFFC010590615070400110D8F78095A2
:1024000090958E0F9F1F0895FC01615070400190C0
:102410000110D8F7809590958E0F9F1F08950F9308
:102420001F93CF93DF93182F092FEB018B8181FD31
:1024300009C01FEF0FEF812F902FDF91CF911F91D8
:102440000F91089582FF14C02E813F818C819D8160
:10245000281739073CF4E881F981CF010196998367
:10246000888310838E819F8101969F838E83E3CF23
:10247000E885F985812F1995892BA1F3DACFFA0127
:10248000AA27283051F1203181F1E8946F936E7FB3
:102490006E5F7F4F8F4F9F4FAF4FB1E03ED0B4E0A4
:1024A0003CD0670F781F891F9A1FA11D680F791FE5
:1024B0008A1F911DA11D6A0F711D811D911DA11DF6
:1024C00020D009F468943F912AE0269F1124301906
:1024D000305D3193DEF6CF010895462F4770405DA1
:1024E0004193B3E00FD0C9F7F6CF462F4F70405D50
:1024F0004A3318F0495D31FD4052419302D0A9F7AB
:10250000EACFB4E0A6959795879577956795BA95A4
:10251000C9F700976105710508959B01AC010A2E6A
:1025200006945795479537952795BA95C9F7620F41
:0E253000731F841F951FA01D0895F894FFCF00
:10253E0000000204800000000000AE02D801050277
:10254E00FB027602140268020D0A002D2D2D2D00BD
:10255E004120726573706F737461202876696120F3
:10256E0073657269616C293A20004120726573703F
:10257E006F737461202876696120737072696E744E
:10258E0066293A202564004120726573706F73745A
:10259E0061202876696120537472696E67293A202A
:1025AE00004120726573706F7374612028636F6DC4
:1025BE00206D616973206361736173206465636963
:1025CE006D616973293A20005261697A20717561D3
:1025DE006472616461206465203335203D200020E3
:1025EE00286170726F78696D6164616D656E746576
:1025FE00293B006163656E6465720061706167619D
:10260E0072006575206D65206368616D6F20004FE7
:10261E00692C200021205475646F2062656D206343
:10262E006F6E7469676F3F0065752074656E686FB5
:10263E00200020616E6F7300566F636520636F6DAF
:10264E00706C65746F7520002064656361646173DE
:10265E002E006163656E646572206C6564200041B6
:10266E007061676172204C4544203320646171753E
:0A267E006920612000206D73000048
:00000001FF
