:100000000C942A010C945B010C945B010C945B0131
:100010000C945B010C945B010C945B010C945B01F0
:100020000C945B010C945B010C945B010C945B01E0
:100030000C945B010C945B010C945B010C945B01D0
:100040000C945B010C94EC040C945B010C945B012C
:100050000C945B010C945B010C945B010C94A20466
:100060000C945B010C946C040C9442040C945B01A2
:100070000C945B010C945B010C945B010C945B0190
:100080000C945B010C945B010C945B010C945B0180
:100090000C945B010C945B010C945B010C945B0170
:1000A0000C945B010C945B010C945B010C945B0160
:1000B0000C945B010C945B010C945B010C945B0150
:1000C0000C945B010C945B010C945B010C945B0140
:1000D0000C945B010C945B010C945B010C945B0130
:1000E0000C945B010C9465020C9417060C94BD03F0
:1000F0000C94B9030C94C7030C94A4030C94A803A8
:100100000C94D9030C94D1030C94E3030C94560281
:100110000C948D030C940C030C9429020C94B303DF
:100120000C94C3030C942B040C94DF030C94CB03AA
:100130000C9492030C94B0030C94D5030C94AC0370
:100140000C9479020C9487020C94BF0200000A0BF5
:1001500002090C0D0E080703040100000000000056
:10016000000000000000000000000000000000008F
:10017000000000000000000012111000000000004C
:10018000000000000000000000000000000000006F
:10019000000000002200250028002B002E00310066
:1001A000340002010000050108010B0100002100DC
:1001B000240027002A002D00300033000101000038
:1001C000040107010A0105050505070508080808D7
:1001D000020202020A0A08080404040401010101DF
:1001E00001010101030303030303030304070707DA
:1001F0000C0C0C0C0C0C0C0C02020202060606067F
:10020000060606060B0B0B0B0B0B0B0B010210204B
:10021000200808102040102040800201020108043C
:1002200002010102040810204080804020100804D0
:100230000201800402018040201008040201080429
:10024000020101020408102040800102040810206D
:100250004080170611241FBECFEFD1E2DEBFCDBF15
:1002600000E00CBF12E0A0E0B2E0E2E6F4E100E062
:100270000BBF02C007900D92A83AB107D9F723E04F
:10028000A8EAB2E001C01D92A636B207E1F711E07C
:10029000CAE2D1E000E006C021970109802FFE01EB
:1002A0000E94270AC932D10780E00807A9F70E94F7
:1002B00064060C942F0A0C940000809156039091D0
:1002C0005703A0915803B091590320914F03233055
:1002D00009F47DC0ACF42130C9F1223009F457C0D3
:1002E0008091560390915703A0915803B091590300
:1002F000892B8A2B8B2B19F481E080934E03089570
:10030000243009F485C0253059F7AC01BD010097B0
:1003100021E0A207B10520F04FEF5FEF60E070E051
:100320005093290140932801841B950BA60BB70B12
:100330008093560390935703A0935803B0935903A7
:1003400080917300826080937300CACFAC01BD01BD
:10035000009721E0A207B10520F04FEF5FEF60E0CA
:1003600070E05093890040938800841B950BA60B86
:10037000B70B8093560390935703A0935803B09301
:10038000590380916F00826080936F00A9CFAC0108
:10039000BD018F3F9105A105B10529F020F04FEF78
:1003A00050E060E070E04093B300841B950BA60B17
:1003B000B70B8093560390935703A0935803B093C1
:1003C00059038091700082608093700089CFAC01E6
:1003D000BD01009721E0A207B10520F04FEF5FEFCC
:1003E00060E070E05093990040939800841B950B57
:1003F000A60BB70B8093560390935703A093580313
:10040000B09359038091710082608093710068CF2E
:10041000AC01BD01009721E0A207B10520F04FEF2C
:100420005FEF60E070E05093A9004093A800841B48
:10043000950BA60BB70B8093560390935703A0938D
:100440005803B093590380917200826080937200C8
:1004500047CFAF92BF92CF92DF92EF92FF920F936E
:100460001F93CF93DF936C017B018B01040F151F4A
:10047000EB015E01AE18BF08C017D10759F06991B2
:10048000D601ED91FC910190F081E02DC601199506
:10049000892B79F7C501DF91CF911F910F91FF90C3
:1004A000EF90DF90CF90BF90AF900895FC01538DF7
:1004B000448D252F30E0842F90E0821B930B54173E
:1004C00010F0CF96089501970895FC01918D828DCB
:1004D000981761F0A28DAE0FBF2FB11D5D968C9164
:1004E000928D9F5F9F73928F90E008958FEF9FEFA3
:1004F0000895FC01918D828D981731F0828DE80F5F
:10050000F11D858D90E008958FEF9FEF0895FC0118
:10051000918D228D892F90E0805C9F4F821B9109E5
:100520008F739927089581EB92E00E94870221E062
:10053000892B09F420E0822F0895FC01A48DA80FD7
:10054000B92FB11DA35ABF4F2C91848D90E0019615
:100550008F739927848FA689B7892C93A089B18935
:100560008C91837080648C93938D848D981306C0D6
:100570000288F389E02D80818F7D80830895EF923A
:10058000FF920F931F93CF93DF93EC0181E0888F4D
:100590009B8D8C8D98131AC0E889F989808185FF1D
:1005A00015C09FB7F894EE89FF896083E889F989BF
:1005B00080818370806480839FBF81E090E0DF91C1
:1005C000CF911F910F91FF90EF900895F62E0B8D14
:1005D00010E00F5F1F4F0F731127E02E8C8D8E11CF
:1005E0000CC00FB607FCFACFE889F989808185FF36
:1005F000F5CFCE010E949D02F1CFEB8DEC0FFD2FC8
:10060000F11DE35AFF4FF0829FB7F8940B8FEA89F0
:10061000FB8980818062CFCFCF93DF93EC01888DFF
:100620008823B9F0AA89BB89E889F9898C9185FD6D
:1006300003C0808186FD0DC00FB607FCF7CF8C91FB
:1006400085FFF2CF808185FFEDCFCE010E949D0214
:10065000E9CFDF91CF91089580E090E0892B29F0D8
:100660000E94930281110E94000080E090E0892B9B
:1006700049F080E090E0892B29F00E940000811170
:100680000E94000080E090E0892B49F080E090E03B
:10069000892B29F00E94000081110E94000080E057
:1006A00090E0892B49F080E090E0892B29F00E94AE
:1006B000000081110C9400000895282F30E0F9010A
:1006C000E45BFE4F9491F901E45FFD4F44912A539E
:1006D0003E4FF9012491222309F435C0992311F1E9
:1006E00091509231F8F4E92FF0E08827E558FC4F5B
:1006F0008F4F0C94270AAC03B0038D03A403A80307
:100700009203B303B903BD03C303C703CB03D103F0
:10071000D5039203D903DF03E303809180008F7731
:1007200080938000E22FF0E0EE0FFF1FEE56FE4FA9
:10073000A591B4918FB7F894EC91611148C04095A0
:100740004E234C938FBF0895809180008F7DE8CF1A
:1007500080918000877FE4CF84B58F7784BDE2CF1E
:1007600084B58F7DFBCF8091B0008F778093B000F0
:10077000D9CF8091B0008F7DF9CF809190008F7795
:1007800080939000CFCF809190008F7DF9CF8091A2
:100790009000877FF5CF8091A0008F778093A00095
:1007A000C1CF8091A0008F7DF9CF8091A000877F7D
:1007B000F5CF809120018F7780932001B3CF809176
:1007C00020018F7DF9CF80912001877FF5CF4E2BBF
:1007D000B8CF3FB7F8948091AD029091AE02A0914E
:1007E000AF02B091B00226B5A89B05C02F3F19F00B
:1007F0000196A11DB11D3FBFBA2FA92F982F8827A1
:10080000BC01CD01620F711D811D911D42E0660F7B
:10081000771F881F991F4A95D1F70895CF93DF93CB
:10082000FC0101900020E9F73197AF01481B590BFB
:10083000BC0181EB92E00E942902EC0142E050E011
:1008400063E272E081EB92E00E9429028C0F9D1F0F
:10085000DF91CF91089586E292E00E940E0480918C
:100860000002882339F061E08DE00E945D03109260
:100870000002089560E08DE00E945D0381E08093B6
:10088000000208951F920F920FB60F9211240BB61B
:100890000F922F933F934F935F936F937F938F9319
:1008A0009F93AF93BF93EF93FF9381EB92E00E94EE
:1008B0009D02FF91EF91BF91AF919F918F917F9199
:1008C0006F915F914F913F912F910F900BBE0F90C1
:1008D0000FBE0F901F9018951F920F920FB60F9298
:1008E00011240BB60F922F938F939F93EF93FF9347
:1008F000E091C102F091C2028081E091C702F091C3
:10090000C80282FD1DC090818091CA028F5F8F73E3
:100910002091CB02821741F0E091CA02F0E0EF543F
:10092000FD4F958F8093CA02FF91EF919F918F9118
:100930002F910F900BBE0F900FBE0F901F90189528
:100940008081F2CF1F920F920FB60F9211242F9336
:100950003F938F939F93AF93BF938091A902909100
:10096000AA02A091AB02B091AC023091A80223E0A0
:10097000230F2D3758F50196A11DB11D2093A80214
:100980008093A9029093AA02A093AB02B093AC0209
:100990008091AD029091AE02A091AF02B091B002F1
:1009A0000196A11DB11D8093AD029093AE02A0935C
:1009B000AF02B093B002BF91AF919F918F913F91E1
:1009C0002F910F900FBE0F901F90189526E8230FC0
:1009D0000296A11DB11DD2CF1F920F920FB60F929A
:1009E00011240BB60F92CF92DF92EF92FF922F93CA
:1009F0003F934F935F936F937F938F939F93AF93A7
:100A0000BF93EF93FF93C0905A03D0905B03E090A5
:100A10005C03F0905D0380914F03813009F04DC07D
:100A2000C114D104E104F10409F4D5C080914E034E
:100A3000882309F45BC0E0916203F091630330976F
:100A400041F08091640390916503009709F44CC0D4
:100A500019958091520390915303A0915403B09142
:100A600055030097A140B105B4F0F894809152036A
:100A700090915303A0915403B09155038093560372
:100A800090935703A0935803B09359030E945D01BC
:100A900010924E0378941C141D041E041F046CF461
:100AA00081E0C81AD108E108F108C0925A03D09237
:100AB0005B03E0925C03F0925D03FF91EF91BF91C5
:100AC000AF919F918F917F916F915F914F913F91E6
:100AD0002F91FF90EF90DF90CF900F900BBE0F9073
:100AE0000FBE0F901F9018951995B3CFF8942091D1
:100AF0004F038091560390915703A0915803B091F2
:100B00005903223009F447C08F3F9F4FA105B1051B
:100B100010F40E945D018091560390915703A091BB
:100B20005803B0915903AC01BD01009721E0A20721
:100B3000B10520F04FEF5FEF60E070E0841B950B94
:100B4000A60BB70B8093560390935703A0935803BB
:100B5000B09359038091560390915703A091580385
:100B6000B0915903892B8A2B8B2B91F580915203DD
:100B700090915303A0915403B09155038093560371
:100B800090935703A0935803B093590381E0809347
:100B90004E03789492CF8F3F9105A105B10510F4D3
:100BA0000E945D018091560390915703A0915803D4
:100BB000B0915903AC01BD018F3F9105A105B1056D
:100BC00009F008F4BBCF4FEF50E060E070E0B6CF23
:100BD00010924E03DECFF89480914F038330D9F00A
:100BE00054F4813091F08230A1F6809170008D7FB5
:100BF00080937000CECF8430A1F0853051F6809183
:100C000073008D7F80937300C4CF80916F008D7FC0
:100C100080936F00BECF809171008D7F80937100B3
:100C2000B8CF809172008D7F80937200B2CFE1EBDC
:100C3000F2E01382128288EE93E0A0E0B0E08483B9
:100C40009583A683B78385E192E09183808385ECC9
:100C500090E09587848784EC90E09787868780EC86
:100C600090E0918B808B81EC90E0938B828B82EC77
:100C700090E0958B848B86EC90E0978B868B118E21
:100C8000128E138E148EEEE4F3E081E08183108ADD
:100C9000118A128A138A158A148A178A168A108270
:100CA00081E090E0938382831482158216821782FA
:100CB00010861186128613868FEF9FEFDC018487E2
:100CC0009587A687B7870895789484B5826084BD98
:100CD00084B5816084BD85B5826085BD85B5816040
:100CE00085BD80916E00816080936E0010928100BE
:100CF0008091810082608093810080918100816079
:100D00008093810080918000816080938000809139
:100D1000B10084608093B1008091B00081608093C5
:100D2000B000809191008260809391008091910049
:100D30008160809391008091900081608093900009
:100D40008091A10082608093A1008091A1008160C8
:100D50008093A1008091A00081608093A000809189
:100D60002101826080932101809121018160809323
:100D700021018091200181608093200180917A007F
:100D8000846080937A0080917A00826080937A00F8
:100D900080917A00816080937A0080917A008068E7
:100DA00080937A001092C100E9E1F2E02491E3ED32
:100DB000F1E08491882399F090E0880F991FFC015D
:100DC000E455FE4FA591B491FC01EE56FE4F85917E
:100DD00094918FB7F894EC91E22BEC938FBF8091B4
:100DE0004F03F894833009F469C0BCF5813009F4ED
:100DF00047C0823009F453C080934F0378948091A8
:100E00004F0318160CF0DDC04FEF5FEFBA014093AF
:100E10005A0350935B0360935C0370935D038230CD
:100E200009F46AC08FEF91E1AAE7B0E08093520322
:100E300090935303A0935403B093550380935603A8
:100E400090935703A0935803B093590381E090E027
:100E500090935103809350038BC08430F1F185301F
:100E600059F6109220011092210190912101986071
:100E70009093210190912101916090932101BCCF29
:100E80001092800010928100909181009860909360
:100E9000810090918100916090938100ADCF10927C
:100EA000B0001092B1009091B00092609093B000A9
:100EB0009091B10091609093B1009ECF10929000FC
:100EC0001092910090919100986090939100909170
:100ED00091009160909391008FCF1092A00010929A
:100EE000A1009091A10098609093A1009091A10021
:100EF00091609093A10080CF03E012E0C1E0D0E0C8
:100F0000F801619171918F0190E080E00E94990950
:100F10009B01AC010E948C089B01AC0160E074E273
:100F200084E79BE40E94F80820E030E040E85FE3BB
:100F30000E948B080E946A096115F0EC7F07FFE3AD
:100F40008F07910508F0A2C060935203709353037A
:100F50008093540390935503609356037093570303
:100F60008093580390935903D0935103C093500337
:100F7000F89480E090E0A0E0B0E480935E0390936A
:100F80005F03A0936003B09361038BE294E09093BE
:100F900063038093620310926503109264031092BE
:100FA0004E0380914F03823009F088C08091B100D8
:100FB000887F90915003892B8093B1000E945D013E
:100FC0007894E091C102F091C20282E08083E091C6
:100FD000BD02F091BE021082E091BF02F091C0020A
:100FE0008FEC80831092C902E091C502F091C60295
:100FF00086E08083E091C302F091C4028081806129
:101000008083E091C302F091C40280818860808374
:10101000E091C302F091C402808180688083E091F6
:10102000C302F091C40280818F7D808385E692E0C7
:101030000E940E040E94E9034B015C0180E7C82E68
:1010400087E1D82EE12CF12C0E94E9036819790977
:101050008A099B09683E734081059105A8F321E048
:10106000C21AD108E108F10888EE880E83E0981EC4
:10107000A11CB11CC114D104E104F10429F78EE8CC
:1010800092E00E940E040E942C03D0CF2196C8301B
:10109000D10509F035CF60935203709353038093C9
:1010A00054039093550360935603709357038093B2
:1010B00058039093590387E090E0CACE813049F4F9
:1010C00080918100887F90915003892B80938100CB
:1010D00075CF833049F480919100887F90915003BF
:1010E000892B809391006ACF843049F48091A100CC
:1010F000887F90915003892B8093A1005FCF85302A
:1011000009F05CCF80912101887F90915003892B59
:101110008093210153CF5058BB27AA270E94A308D0
:101120000C94ED090E94DF0938F00E94E60920F0D6
:1011300039F49F3F19F426F40C94DC090EF4E09581
:10114000E7FB0C94D609E92F0E94FE0958F3BA1761
:10115000620773078407950720F079F4A6F50C94CD
:10116000200A0EF4E0950B2EBA2FA02D0B01B90129
:1011700090010C01CA01A0011124FF27591B99F00D
:10118000593F50F4503E68F11A16F040A22F232F19
:10119000342F4427585FF3CF469537952795A79569
:1011A000F0405395C9F77EF41F16BA0B620B730B10
:1011B000840BBAF09150A1F0FF0FBB1F661F771F81
:1011C000881FC2F70EC0BA0F621F731F841F48F436
:1011D000879577956795B795F7959E3F08F0B0CFBF
:1011E0009395880F08F09927EE0F979587950895A6
:1011F0000E940C090C94ED090E94E60958F00E9427
:10120000DF0940F029F45F3F29F00C94D609511111
:101210000C94210A0C94DC090E94FE0968F39923BE
:10122000B1F3552391F3951B550BBB27AA276217E2
:101230007307840738F09F5F5F4F220F331F441FEF
:10124000AA1FA9F335D00E2E3AF0E0E832D0915023
:101250005040E695001CCAF72BD0FE2F29D0660F10
:10126000771F881FBB1F261737074807AB07B0E853
:1012700009F0BB0B802DBF01FF2793585F4F3AF059
:101280009E3F510578F00C94D6090C94210A5F3FDB
:10129000E4F3983ED4F3869577956795B795F795DF
:1012A0009F5FC9F7880F911D9695879597F90895C7
:1012B000E1E0660F771F881FBB1F62177307840763
:1012C000BA0720F0621B730B840BBA0BEE1F88F772
:1012D000E09508950E94060A88F09F5798F0B92F6C
:1012E0009927B751B0F0E1F0660F771F881F991F5B
:1012F0001AF0BA95C9F714C0B13091F00E94200AD3
:10130000B1E008950C94200A672F782F8827B85FE2
:1013100039F0B93FCCF3869577956795B395D9F7B2
:101320003EF490958095709561957F4F8F4F9F4FBC
:101330000895E89409C097FB3EF4909580957095C8
:1013400061957F4F8F4F9F4F9923A9F0F92F96E911
:10135000BB279395F695879577956795B795F11186
:10136000F8CFFAF4BB0F11F460FF1BC06F5F7F4F23
:101370008F4F9F4F16C0882311F096E911C0772335
:1013800021F09EE8872F762F05C0662371F096E83E
:10139000862F70E060E02AF09A95660F771F881F0D
:1013A000DAF7880F9695879597F9089597F99F67CB
:1013B00080E870E060E008959FEF80EC08950024DD
:1013C0000A941616170618060906089500240A94AA
:1013D00012161306140605060895092E0394000C30
:1013E00011F4882352F0BB0F40F4BF2B11F460FFBF
:1013F00004C06F5F7F4F8F4F9F4F089557FD9058E8
:10140000440F551F59F05F3F71F04795880F97FBC8
:10141000991F61F09F3F79F0879508951216130682
:101420001406551FF2CF4695F1DF08C016161706B1
:101430001806991FF1CF86957105610508940895E6
:10144000E894BB2766277727CB0197F90895EE0F1D
:10145000FF1F881F8BBF0790F691E02D1994F89419
:02146000FFCFBC
:10146200010100010008002000400080000001008E
:101472000400000000BF02290256020C0387026525
:101482000279020D0A00506173736F75202B3120AF
:10149200736567756E646F206E6F2074696D657217
:1014A2002C2069676E6F72616E646F206F206174A9
:1014B2007261736F206772616E6465206E61206C69
:1014C2006F6F702E00566F7520626C6F717565615B
:1014D200722061206C6F6F7020706F72206D616975
:1014E20073203620736567756E646F732E004669CC
:1014F2006D20646F20626C6F717565696F206E611B
:08150200206C6F6F702E0000D9
:00000001FF
