:100000000C944B010C9471060C9446060C941B0640
:100010000C94F0050C94C5050C949A050C946F058E
:100020000C9444050C947C010C947C010C947C0190
:100030000C947C010C947C010C947C010C947C014C
:100040000C947C010C947C010C947C010C947C013C
:100050000C947C010C947C010C947C010C94FA04AB
:100060000C947C010C94C4040C949A040C947C01B0
:100070000C947C010C947C010C947C010C947C010C
:100080000C947C010C947C010C947C010C947C01FC
:100090000C947C010C947C010C947C010C947C01EC
:1000A0000C947C010C947C010C947C010C947C01DC
:1000B0000C947C010C947C010C947C010C947C01CC
:1000C0000C947C010C947C010C947C010C947C01BC
:1000D0000C947C010C947C010C947C010C947C01AC
:1000E0000C947C010C9417040C9407030C94F502F7
:1000F0000C94FD020C947E010C94E5020C94A10773
:100100000C94F9020C94D0020C9410030C94030389
:100110000C9430040C94E2020C94DC010C940F0457
:100120000C940B030C943D040C94EF020C941103FB
:100130000C9402040C9461020C94E1030C94DE0212
:100140000C94EB020C94CE010C94D6020C94650432
:100150000C9415030C94BA010C94F5030C943E0412
:100160000C9423040C94AB010C9414020C94DA024A
:100170000C94E90300002100240027002A002D0030
:100180003000330001010000040107010A010000F2
:100190002200250028002B002E003100340002012F
:1001A0000000050108010B010000200023002600CB
:1001B00029002C002F00320000010000030106017D
:1001C00009010505050507050808080802020202DD
:1001D0000A0A0808040404040101010101010101E3
:1001E0000303030303030303040707070C0C0C0CAE
:1001F0000C0C0C0C02020202060606060606060697
:100200000B0B0B0B0B0B0B0B010210202008081023
:100210002040102040800201020108040201010276
:10022000040810204080804020100804020180044F
:1002300002018040201008040201080402010102AA
:1002400004081020408001020408102040800000B3
:100250000A0B02090C0D0E08070304010000000040
:10026000000000000000000000000000000000008E
:10027000000000000000000000001211100000004B
:10028000000000000000000000000000000000006E
:1002900000000000A10711241FBECFEFD1E2DEBF96
:1002A000CDBF00E00CBF12E0A0E0B2E0E0EBFFE069
:1002B00000E00BBF02C007900D92AE3AB107D9F72C
:1002C00023E0AEEAB2E001C01D92A835B207E1F723
:1002D00011E0CBE4D1E000E006C021970109802FB6
:1002E000FE010E94CE07CA34D10780E00807A9F7B3
:1002F0000E949C060C94D6070C940000AF92BF920B
:10030000CF92DF92EF92FF920F931F93CF93DF93E1
:100310006C017B018B01040F151FEB015E01AE1810
:10032000BF08C017D10759F06991D601ED91FC9132
:100330000190F081E02DC6011995892B79F7C5014F
:10034000DF91CF911F910F91FF90EF90DF90CF90B1
:10035000BF90AF900895FC01538D448D252F30E060
:10036000842F90E0821B930B541710F0CF960895C2
:1003700001970895FC01918D828D981761F0A28DEF
:10038000AE0FBF2FB11D5D968C91928D9F5F9F73B5
:10039000928F90E008958FEF9FEF0895FC01918D6B
:1003A000828D981731F0828DE80FF11D858D90E0D8
:1003B00008958FEF9FEF0895FC01918D228D892F75
:1003C00090E0805C9F4F821B91098F73992708955D
:1003D0008BEB92E00E94DC0121E0892B09F420E004
:1003E000822F0895FC01A48DA80FB92FB11DA35A27
:1003F000BF4F2C91848D90E001968F739927848F45
:10040000A689B7892C93A089B1898C918370806467
:100410008C93938D848D981306C00288F389E02D08
:1004200080818F7D80830895EF92FF920F931F93B9
:10043000CF93DF93EC0181E0888F9B8D8C8D981397
:100440001AC0E889F989808185FF15C09FB7F894A3
:10045000EE89FF896083E889F989808183708064EF
:1004600080839FBF81E090E0DF91CF911F910F913A
:10047000FF90EF900895F62E0B8D10E00F5F1F4F49
:100480000F731127E02E8C8D8E110CC00FB607FC58
:10049000FACFE889F989808185FFF5CFCE010E94E6
:1004A000F201F1CFEB8DEC0FFD2FF11DE35AFF4F61
:1004B000F0829FB7F8940B8FEA89FB898081806274
:1004C000CFCFCF93DF93EC01888D8823B9F0AA8931
:1004D000BB89E889F9898C9185FD03C0808186FDFF
:1004E0000DC00FB607FCF7CF8C9185FFF2CF80814E
:1004F00085FFEDCFCE010E94F201E9CFDF91CF91D0
:10050000089580E090E0892B29F00E94E801811194
:100510000E94000080E090E0892B49F080E090E0AC
:10052000892B29F00E94000081110E94000080E0C8
:1005300090E0892B49F080E090E0892B29F00E941F
:10054000000081110E94000080E090E0892B49F0BA
:1005500080E090E0892B29F00E94000081110C942A
:10056000000008958150823108F05AC0E82FF0E071
:100570008827E254FD4F8F4F0C94CE07DE02E20233
:10058000D002D602DA021003E502EB02EF02F50216
:10059000F902FD020303070310030B031103150304
:1005A000809180008F7780938000089580918000F3
:1005B0008F7DF9CF80918000877FF5CF84B58F77CD
:1005C00084BD089584B58F7DFBCF8091B0008F7777
:1005D0008093B00008958091B0008F7DF9CF809115
:1005E00090008F77809390000895809190008F7D88
:1005F000F9CF80919000877FF5CF8091A0008F7711
:100600008093A00008958091A0008F7DF9CF809104
:10061000A000877FF5CF809120018F778093200104
:100620000895809120018F7DF9CF80912001877FEF
:10063000F5CFCF93DF93282F30E0F901E25BFD4F38
:100640008491F901E85FFD4FD491F901EE53FE4F1B
:10065000C491CC23A1F081110E94B202EC2FF0E0F2
:10066000EE0FFF1FE855FE4FA591B491EC91ED23DD
:1006700081E090E009F480E0DF91CF91089580E07F
:1006800090E0FACF1F93CF93DF93282F30E0F9014A
:10069000E25BFD4F8491F901E85FFD4FD491F901D0
:1006A000EE53FE4FC491CC23A9F0162F81110E9466
:1006B000B202EC2FF0E0EE0FFF1FE257FE4FA591C4
:1006C000B4918FB7F894EC91111108C0D095DE2346
:1006D000DC938FBFDF91CF911F910895DE2BF8CF70
:1006E000CF93DF9390E0FC01E85FFD4F24918E53A0
:1006F0009E4FFC0184918823D1F090E0880F991FD0
:10070000FC01EC58FE4FA591B491FC01E257FE4F5D
:10071000C591D49161110EC09FB7F8948C91E22FCE
:10072000E0958E238C932881E223E8839FBFDF919D
:10073000CF9108958FB7F894EC91E22BEC938FBF93
:10074000F6CF3FB7F8948091B7029091B802A0918C
:10075000B902B091BA0226B5A89B05C02F3F19F087
:100760000196A11DB11D3FBFBA2FA92F982F882731
:10077000BC01CD01620F711D811D911D42E0660F0C
:10078000771F881F991F4A95D1F70895E82FF0E049
:10079000DF01AA0FBB1FA050BE4F11967C936E9332
:1007A000883008F069C08827E752FC4F8F4F0C94BF
:1007B000CE070F041704E103E903F5030204230441
:1007C0003004809169008C7F482B40936900E89A3F
:1007D000089580916900837F440F551F440F551F72
:1007E000482B40936900E99A0895809169008F7CB5
:1007F00074E0440F551F7A95E1F7482B4093690048
:10080000EA9A0895809169008F7366E0440F551F3E
:100810006A95E1F7482B40936900EB9A089580911F
:100820006A008C7F482B40936A00EC9A089580916F
:100830006A00837F440F551F440F551F482B409378
:100840006A00ED9A089580916A008F7C24E0440F3D
:10085000551F2A95E1F7482B40936A00EE9A0895B8
:1008600080916A008F7396E0440F551F9A95E1F7C7
:10087000482B40936A00EF9A0895089584E10E94FE
:10088000190360E0892B09F061E08CE00C944203CD
:10089000CF93DF93FC0101900020E9F73197AF017E
:1008A000481B590BBC018BEB92E00E947E01EC01CE
:1008B00042E050E062E272E08BEB92E00E947E0147
:1008C0008C0F9D1FDF91CF910895CF92DF92EF9211
:1008D000FF9285E292E00E9448048FB7F894C0909E
:1008E000B302D090B402E090B502F090B6028FBF90
:1008F0008091AE029091AF02A091B002B091B1028E
:1009000088539F4FAF4FBF4F8C159D05AE05BF0558
:1009100060F48DE492E00E944804C092AE02D0924E
:10092000AF02E092B002F092B102FF90EF90DF9040
:10093000CF9008951F920F920FB60F9211240BB60D
:100940000F922F933F934F935F936F937F938F9368
:100950009F93AF93BF93EF93FF938BEB92E00E9433
:10096000F201FF91EF91BF91AF919F918F917F9194
:100970006F915F914F913F912F910F900BBE0F9010
:100980000FBE0F901F9018951F920F920FB60F92E7
:1009900011240BB60F922F938F939F93EF93FF9396
:1009A000E091CB02F091CC028081E091D102F091F4
:1009B000D20282FD1DC090818091D4028F5F8F731F
:1009C0002091D502821741F0E091D402F0E0E55485
:1009D000FD4F958F8093D402FF91EF919F918F915E
:1009E0002F910F900BBE0F900FBE0F901F90189578
:1009F0008081F2CF1F920F920FB60F9211242F9386
:100A00003F938F939F93AF93BF938091B302909145
:100A1000B402A091B502B091B6023091B20223E0C7
:100A2000230F2D3758F50196A11DB11D2093B20259
:100A30008093B3029093B402A093B502B093B60230
:100A40008091B7029091B802A091B902B091BA0218
:100A50000196A11DB11D8093B7029093B802A09397
:100A6000B902B093BA02BF91AF919F918F913F911C
:100A70002F910F900FBE0F901F90189526E8230F0F
:100A80000296A11DB11DD2CF1F920F920FB60F92E9
:100A900011240BB60F922F933F934F935F936F9355
:100AA0007F938F939F93AF93BF93EF93FF93E091C7
:100AB0000E02F0910F021995FF91EF91BF91AF9146
:100AC0009F918F917F916F915F914F913F912F9166
:100AD0000F900BBE0F900FBE0F901F9018951F9296
:100AE0000F920FB60F9211240BB60F922F933F93D4
:100AF0004F935F936F937F938F939F93AF93BF9326
:100B0000EF93FF93E0910C02F0910D021995FF9184
:100B1000EF91BF91AF919F918F917F916F915F9175
:100B20004F913F912F910F900BBE0F900FBE0F90E2
:100B30001F9018951F920F920FB60F9211240BB6AB
:100B40000F922F933F934F935F936F937F938F9366
:100B50009F93AF93BF93EF93FF93E0910202F091C5
:100B600003021995FF91EF91BF91AF919F918F91E2
:100B70007F916F915F914F913F912F910F900BBE9D
:100B80000F900FBE0F901F9018951F920F920FB6E7
:100B90000F9211240BB60F922F933F934F935F93B5
:100BA0006F937F938F939F93AF93BF93EF93FF9335
:100BB000E0910002F09101021995FF91EF91BF9130
:100BC000AF919F918F917F916F915F914F913F91E5
:100BD0002F910F900BBE0F900FBE0F901F90189586
:100BE0001F920F920FB60F9211240BB60F922F93F4
:100BF0003F934F935F936F937F938F939F93AF93A5
:100C0000BF93EF93FF93E0910A02F0910B021995C5
:100C1000FF91EF91BF91AF919F918F917F916F91D4
:100C20005F914F913F912F910F900BBE0F900FBE90
:100C30000F901F9018951F920F920FB60F921124CC
:100C40000BB60F922F933F934F935F936F937F93C6
:100C50008F939F93AF93BF93EF93FF93E09108021D
:100C6000F09109021995FF91EF91BF91AF919F917A
:100C70008F917F916F915F914F913F912F910F9045
:100C80000BBE0F900FBE0F901F9018951F920F92E2
:100C90000FB60F9211240BB60F922F933F934F93E1
:100CA0005F936F937F938F939F93AF93BF93EF93D4
:100CB000FF93E0910602F09107021995FF91EF91E1
:100CC000BF91AF919F918F917F916F915F914F9164
:100CD0003F912F910F900BBE0F900FBE0F901F9062
:100CE00018951F920F920FB60F9211240BB60F9208
:100CF0002F933F934F935F936F937F938F939F9324
:100D0000AF93BF93EF93FF93E0910402F09105023C
:100D10001995FF91EF91BF91AF919F918F917F9125
:100D20006F915F914F913F912F910F900BBE0F905C
:100D30000FBE0F901F901895789484B5826084BD83
:100D400084B5816084BD85B5826085BD85B58160CF
:100D500085BD80916E00816080936E00109281004D
:100D60008091810082608093810080918100816008
:100D700080938100809180008160809380008091C9
:100D8000B10084608093B1008091B0008160809355
:100D9000B0008091910082608093910080919100D9
:100DA0008160809391008091900081608093900099
:100DB0008091A10082608093A1008091A100816058
:100DC0008093A1008091A00081608093A000809119
:100DD00021018260809321018091210181608093B3
:100DE00021018091200181608093200180917A000F
:100DF000846080937A0080917A00826080937A0088
:100E000080917A00816080937A0080917A00806876
:100E100080937A001092C10061E08DE00E9470031F
:100E200061E08CE00E94700360E087E30E94700341
:100E300060E084E10E94700361E08DE00E94420363
:100E400061E08CE00E94420341E050E06EE374E018
:100E500083E00E94C60343E050E065E674E084E06E
:100E60000E94C603E091CB02F091CC0282E0808325
:100E7000E091C702F091C8021082E091C902F0919E
:100E8000CA028FEC80831092D302E091CF02F091DE
:100E9000D00286E08083E091CD02F091CE02808185
:100EA00080618083E091CD02F091CE0280818860E4
:100EB0008083E091CD02F091CE02808180688083B2
:100EC000E091CD02F091CE0280818F7D80838BE610
:100ED00092E00E9448040E94A1036B017C0188EB10
:100EE000882E8BE0982EA12CB12C0E94A1036C19A6
:100EF0007D098E099F09683E734081059105A8F31D
:100F000021E0821A9108A108B10888EEC80E83E09A
:100F1000D81EE11CF11C81149104A104B10429F72D
:100F200084E992E00E94480487E30E94190360E08C
:100F3000892B09F061E08DE00E9442030E9481024A
:100F4000C6CFEBEBF2E01382128288EE93E0A0E0D2
:100F5000B0E084839583A683B78384E192E0918394
:100F6000808385EC90E09587848784EC90E0978778
:100F7000868780EC90E0918B808B81EC90E0938B66
:100F8000828B82EC90E0958B848B86EC90E0978B43
:100F9000868B118E128E138E148E0895EE0FFF1F06
:100FA000881F8BBF0790F691E02D1994F894FFCF1E
:100FB0003D043D043D043D043D043D043D043D0429
:100FC0000000000014027E01AB016102DC01BA01E5
:100FD000CE010D0A004D7564616E63612064657415
:100FE000656374616461206E6120656E7472616412
:100FF0006120646F2073656E736F722100202A2A4E
:101000002A20446574656363616F2073656D206297
:101010006F756E63652E202A2A2A00566F7520622E
:101020006C6F71756561722061206C6F6F702070DC
:101030006F72206D616973203320736567756E640C
:101040006F732E0046696D20646F20626C6F71753E
:0E10500065696F206E61206C6F6F702E00005E
:00000001FF
