:100000000C943C010C945C0A0C94310A0C94060A82
:100010000C94DB090C94B0090C9485090C945A09D2
:100020000C942F090C946D010C946D010C946D01CE
:100030000C946D010C94E6070C946D010C946D0109
:100040000C946D010C946D010C946D010C946D0178
:100050000C946D010C946D010C946D010C94E508E9
:100060000C946D010C94AF080C9485080C946D01F0
:100070000C946D010C946D010C946D010C946D0148
:100080000C946D010C946D010C946D010C946D0138
:100090000C946D010C946D010C946D010C946D0128
:1000A0000C946D010C946D010C946D010C946D0118
:1000B0000C946D010C946D010C946D010C946D0108
:1000C0000C946D010C946D010C946D010C946D01F8
:1000D0000C946D010C946D010C946D010C946D01E8
:1000E0000C946D010C94EE020C9406030C94CF0258
:1000F0000C94CD010C9434070C94E6020C94DC02B1
:100100000C94E0020C94BF010C94EA020C94CB0214
:100110000C94C7020C949C010C94FC020C94AB014F
:100120000C9452020C94F8020C94FA060C946F0191
:100130000C94D6020C9435070C9405020C94D3024F
:100140000C9401030C94C1020C94870A0C940203D2
:100150000C94F40200002100240027002A002D0046
:100160003000330001010000040107010A01000012
:1001700020002300260029002C002F00320000015F
:10018000000003010601090100000A0B02090C0D21
:100190000E0807030401000000000000000000003A
:1001A000000000000000000000000000000000004F
:1001B000000000001211100000000000000000000C
:1001C000000000000000000000000000000001022C
:1001D0001020200808102040102040800201020159
:1001E0000804020101020408102040808040201011
:1001F000080402018004020180402010080402016A
:1002000008040201010204081020408001020408D1
:100210001020408000002200250028002B002E0026
:100220003100340002010000050108010B01050541
:100230000505070508080808020202020A0A08085C
:10024000040404040101010101010101030303038A
:1002500003030303040707070C0C0C0C0C0C0C0C19
:100260000202020206060606060606060B0B0B0B2A
:100270000B0B0B0B0200870A11241FBECFEFD1E23C
:10028000DEBFCDBF00E00CBF23E0ACEAB2E001C0AE
:100290001D92AF3EB207E1F712E0A0E0B2E0E0EB62
:1002A000F0E200E00BBF02C007900D92AC3AB1073C
:1002B000D9F711E0CCE3D1E000E006C021970109B5
:1002C000802FFE010E943310CB33D10780E0080756
:1002D000A9F70E94000C0C9456100C940000AF92E9
:1002E000BF92CF92DF92EF92FF920F931F93CF9323
:1002F000DF936C017B018B01040F151FEB015E0185
:10030000AE18BF08C017D10759F06991D601ED9119
:10031000FC910190F081E02DC6011995892B79F7A8
:10032000C501DF91CF911F910F91FF90EF90DF906A
:10033000CF90BF90AF900895FC01538D448D252F31
:1003400030E0842F90E0821B930B541710F0CF966F
:10035000089501970895FC01918D828D981761F0A1
:10036000A28DAE0FBF2FB11D5D968C91928D9F5FB8
:100370009F73928F90E008958FEF9FEF0895FC0197
:10038000918D828D981731F0828DE80FF11D858D4A
:1003900090E008958FEF9FEF0895FC01918D228DDD
:1003A000892F90E0805C9F4F821B91098F73992762
:1003B00008958BED92E00E94CD0121E0892B09F494
:1003C00020E0822F0895FC01A48DA80FB92FB11D44
:1003D000A35ABF4F2C91848D90E001968F7399277B
:1003E000848FA689B7892C93A089B1898C91837059
:1003F00080648C93938D848D981306C00288F38952
:10040000E02D80818F7D80830895EF92FF920F937E
:100410001F93CF93DF93EC0181E0888F9B8D8C8DB0
:1004200098131AC0E889F989808185FF15C09FB7A4
:10043000F894EE89FF896083E889F9898081837067
:10044000806480839FBF81E090E0DF91CF911F9116
:100450000F91FF90EF900895F62E0B8D10E00F5F37
:100460001F4F0F731127E02E8C8D8E110CC00FB60D
:1004700007FCFACFE889F989808185FFF5CFCE01A5
:100480000E94E301F1CFEB8DEC0FFD2FF11DE35A3C
:10049000FF4FF0829FB7F8940B8FEA89FB89808128
:1004A0008062CFCFCF93DF93EC01888D8823B9F0A2
:1004B000AA89BB89E889F9898C9185FD03C080816F
:1004C00086FD0DC00FB607FCF7CF8C9185FFF2CFEC
:1004D000808185FFEDCFCE010E94E301E9CFDF915E
:1004E000CF91089580E090E0892B29F00E94D901F6
:1004F00081110E94000080E090E0892B49F080E0AB
:1005000090E0892B29F00E94000081110E940000D8
:1005100080E090E0892B49F080E090E0892B29F081
:100520000E94000081110E94000080E090E0892B71
:1005300049F080E090E0892B29F00E9400008111B1
:100540000C94000008958150823108F05AC0E82FC1
:10055000F0E08827E155FD4F8F4F0C943310CF0208
:10056000D302C102C702CB020103D602DC02E002C1
:10057000E602EA02EE02F402F8020103FC020203C0
:100580000603809180008F7780938000089580918A
:1005900080008F7DF9CF80918000877FF5CF84B573
:1005A0008F7784BD089584B58F7DFBCF8091B00097
:1005B0008F778093B00008958091B0008F7DF9CF40
:1005C000809190008F7780939000089580919000A3
:1005D0008F7DF9CF80919000877FF5CF8091A0002B
:1005E0008F778093A00008958091A0008F7DF9CF30
:1005F0008091A000877FF5CF809120018F77809335
:1006000020010895809120018F7DF9CF80912001F4
:10061000877FF5CFCF93DF93282F30E0F901E8579C
:10062000FE4F8491F901E253FE4FD491F901E25D4E
:10063000FD4FC491CC23A1F081110E94A302EC2FA5
:10064000F0E0EE0FFF1FE259FE4FA591B491EC913F
:10065000ED2381E090E009F480E0DF91CF910895EF
:1006600080E090E0FACF8091B8030E940A039C01D9
:100670008091B703823028F481E0232B31F080E0B1
:1006800004C081E021303105D1F708951F93CF9345
:10069000DF93282F30E0F901E857FE4F8491F901EC
:1006A000E253FE4FD491F901E25DFD4FC491CC239A
:1006B000A9F0162F81110E94A302EC2FF0E0EE0F9B
:1006C000FF1FEC5EFD4FA591B4918FB7F894EC91AC
:1006D000111108C0D095DE23DC938FBFDF91CF913D
:1006E0001F910895DE2BF8CFFF920F931F93CF93A6
:1006F000DF93082F162FF42EC22FD8E06C2FF110A5
:1007000015C06170802F0E944603C69561E0812F5D
:100710000E94460360E0812F0E944603D15071F78A
:10072000DF91CF911F910F91FF900895661F66276B
:10073000661F802F0E944603CC0FE8CFCF93DF9334
:1007400090E0FC01E253FE4F2491825D9D4FFC013D
:1007500084918823C9F090E0880F991FFC01EC5A1E
:10076000FE4FA591B491FC01EC5EFD4FC591D49173
:1007700061110DC09FB7F8948C91209582238C93C2
:100780008881282328839FBFDF91CF91089562300D
:1007900051F49FB7F8943C91822F809583238C93DA
:1007A000E8812E2BEFCF8FB7F894EC912E2B2C9362
:1007B0008FBFEACF4F925F926F927F928F929F92FC
:1007C000AF92BF92CF92DF92EF92FF920F931F935F
:1007D000CF93DF9300D01F921F92CDB7DEB78B016E
:1007E00029833A834B835C83909100028917C9F077
:1007F0009F3F09F48FC00F900F900F900F900F90B4
:10080000DF91CF911F910F91FF90EF90DF90CF90EC
:10081000BF90AF909F908F907F906F905F904F9020
:100820000895E4E7F2E024912D8327FDE4CF61E011
:100830000E949E032D81222321F08D81823009F0B8
:1008400007C24801B12CA12C60E072E18AE790E078
:10085000A50198010E94141029013A017A01690149
:1008600091E0C91AD108E108F1082FEFC216D104AE
:10087000E104F10409F00CF4B4C160E472E48FE027
:1008800090E0A50198010E94141069017A0181E0AD
:10089000C81AD108E108F1089D81923009F026C1FB
:1008A00082E02FEFC216D104E104F10409F00CF448
:1008B0006AC160E970ED83E090E0A50198010E94B3
:1008C000141069017A0181E0C81AD108E108F10821
:1008D00083E09FEFC916D104E104F10409F00CF4A0
:1008E00052C168E478EE81E090E0A50198010E9491
:1008F000141069017A0181E0C81AD108E108F108F1
:100900009FEFC916D104E104F10411F00CF042C1CB
:1009100084E039C180930002E4E7F2E094919D8382
:100920009F3F09F468CF923009F474C058F49923BA
:1009300099F1913009F44CC097FD5DCF61E00E94C0
:100940009E037BCF2D81243009F4AEC008F488C00B
:10095000253091F7109220011092210190912101F0
:1009600098609093210190912101916090932101D1
:10097000282F30E0F901E25DFD4FE491F0E0EE0F49
:10098000FF1FEC5EFD4F45915491F901E253FE4F7C
:10099000E491E093B5024BCF14BC15BC94B59260C2
:1009A00094BD95B5916095BD282F30E0F901E25DC9
:1009B000FD4FE491F0E0EE0FFF1FEC5EFD4F45911F
:1009C0005491F901E253FE4FE491E093B9022FCF25
:1009D0001092800010928100909181009860909315
:1009E000810090918100916090938100282F30E0E8
:1009F000F901E25DFD4FE491F0E0EE0FFF1FEC5EC8
:100A0000FD4F45915491F901E253FE4FE491E0937B
:100A1000B8020DCF1092B0001092B1009091B000CA
:100A200092609093B0009091B10091609093B1006A
:100A3000282F30E0F901E25DFD4FE491F0E0EE0F88
:100A4000FF1FEC5EFD4F459154915093CF024093B0
:100A5000CE02F901E253FE4FE491E093D002E7CEDB
:100A60001092900010929100909191009860909354
:100A7000910090919100916090939100282F30E027
:100A8000F901E25DFD4FE491F0E0EE0FFF1FEC5E37
:100A9000FD4F45915491F901E253FE4FE491E093EB
:100AA000B70293E09D83C3CE1092A0001092A100E4
:100AB0009091A10098609093A1009091A100916005
:100AC0009093A100282F30E0F901E25DFD4FE49101
:100AD000F0E0EE0FFF1FEC5EFD4F45915491F901E0
:100AE000E253FE4FE491E093B602A1CE2FEFC2167F
:100AF000D104E104F10409F00CF4A8C068E478EE34
:100B000081E090E0A50198010E94141069017A012A
:100B100081E0C81AD108E108F1089D81992309F400
:100B20005FC12FEFC216D104E104F10409F00CF407
:100B3000EFCE62E17AE780E090E0A50194010E94A7
:100B4000141069017A0181E0C81AD108E108F1089E
:100B50009D81992309F411C186E09FEFC916D10444
:100B6000E104F10481F078F0730162019AE0F594F8
:100B7000E794D794C7949A95D1F781E0C81AD10821
:100B8000E108F10887E09091B100987F892B80936C
:100B9000B1002FC064E274EF80E090E0A501940101
:100BA0000E94141069017A0181E0C81AD108E10895
:100BB000F10885E09FEFC916D104E104F10419F3AF
:100BC00010F362E17AE780E090E0A50194010E94D1
:100BD000141069017A0181E0C81AD108E108F1080E
:100BE000BBCF81E02D812111CECF95B5987F892B88
:100BF00085BDD801AA0FBB1F29813A814B815C8139
:100C00000E94C40F28EE33E040E050E00E94F20F53
:100C10008D81823009F47DC00CF0C8C0882309F4AE
:100C200069C0813009F0E7CDD0928900C092880078
:100C30002093C6023093C7024093C8025093C90262
:100C400080916F00826080936F00D5CD82E0CACF23
:100C5000B12CA12C60E072E18AE790E0A501980137
:100C60000E94141069017A0181E0C81AD108E108D4
:100C7000F108C114D10491E0E906F1045CF491E0BB
:100C80002D812130C1F480918100887F892B809350
:100C90008100AFCF68E478EE81E090E0A501980193
:100CA0000E94141069017A0181E0C81AD108E10894
:100CB000F10893E0E5CF8D81833039F48091910084
:100CC000887F892B8093910094CF2D81243039F433
:100CD0008091A100887F892B8093A1008ACF8D818C
:100CE000853009F086CF80912101887F892B809300
:100CF00021017FCFC7BC2093CA023093CB0240931F
:100D0000CC025093CD0280916E00826080936E0081
:100D100072CDC092B3002093D1023093D20240939F
:100D2000D3025093D402809170008260809370004F
:100D300062CDD0929900C09298002093C202309365
:100D4000C3024093C4025093C50280917100826037
:100D50008093710050CDD092A900C092A80020933A
:100D6000BE023093BF024093C0025093C1028091F3
:100D700072008260809372003ECD84E02FEFC21635
:100D8000D104E104F10409F008F42FCF73016201EA
:100D90002AE0F594E794D794C7942A95D1F791E087
:100DA000C91AD108E108F10885E01FCF9D81943070
:100DB00091F20CF4BECF953009F01DCDD0922901EF
:100DC000C09228012093BA023093BB024093BC0228
:100DD0005093BD02809173008260809373000BCDAD
:100DE00083E09FEFC916D104E104F10409F00CF48B
:100DF000FCCE9FCE2CE231E040E050E06CED70E0A4
:100E000085E00C94DA033FB7F8948091B102909199
:100E1000B202A091B302B091B40226B5A89B05C05E
:100E20002F3F19F00196A11DB11D3FBFBA2FA92F69
:100E3000982F8827BC01CD01620F711D811D911D66
:100E400042E0660F771F881F991F4A95D1F70895D2
:100E50002FB7F8946091AD027091AE028091AF020D
:100E60009091B0022FBF089508950F931F93809122
:100E7000D4030E940A03182F8091D6030E940A030C
:100E8000880F991F812B9091DA03891709F46DC09F
:100E9000E091DA030091DB031091DC032091DD0384
:100EA0003091DE0394E0E902F0011124482F082E6E
:100EB000000C550BE42BF52BED5EFD4F9081492F77
:100EC000990F550B660B770B400F511F621F731F55
:100ED0004093DB035093DC036093DD037093DE03E8
:100EE0008093DA032091D8033091D9032230310561
:100EF000D1F123303105E1F121303105B1F58330F5
:100F0000A1F58091DB039091DC03A091DD03B0910A
:100F1000DE0332E0B595A795979587953A95D1F779
:100F20008093DF039093E003A093E103B093E20387
:100F30008091E7039091E803A091E903B091EA035F
:100F40008093EB039093EC03A093ED03B093EE0337
:100F50000E9428076093E7037093E8038093E903F6
:100F60009093EA0302C0882361F21F910F910895C4
:100F7000882311F08330C9F78091DB039091DC0363
:100F8000A091DD03B091DE03B595A7959795879560
:100F9000C7CFCF93DF93FC0101900020E9F7319791
:100FA000AF01481B590BBC018BED92E00E946F0111
:100FB000EC0142E050E061E772E08BED92E00E94CC
:100FC0006F018C0F9D1FDF91CF9108951F920F929B
:100FD0000FB60F9211240BB60F922F933F934F939E
:100FE0005F936F937F938F939F93AF93BF93EF9391
:100FF000FF938091D1029091D202A091D302B0913F
:10100000D402892B8A2B8B2BE1F19091D002E091B5
:10101000CE02F091CF028081892780838091D10216
:101020009091D202A091D302B091D4021816190661
:101030001A061B069CF48091D1029091D202A091D5
:10104000D302B091D4020197A109B1098093D102D2
:101050009093D202A093D302B093D402FF91EF9168
:10106000BF91AF919F918F917F916F915F914F91C0
:101070003F912F910F900BBE0F900FBE0F901F90BE
:10108000189580910002E4E7F2E0E4919FEF9093DD
:101090000002E230E9F040F4EE2389F0E13091F013
:1010A00060E00E944603DACFE43049F110F1E53008
:1010B000B9F7909173009D7F90937300F1CF1092D8
:1010C0006E00EECF90916F009D7F90936F00E8CF00
:1010D000909170009D7F9093700091E09093B0008C
:1010E0009091B100987F94609093B1001092B300FA
:1010F000D7CF909171009D7F90937100D1CF909147
:1011000072009D7F90937200CBCF1F920F920FB60B
:101110000F9211240BB60F922F933F934F935F932F
:101120006F937F938F939F93AF93BF93EF93FF93AF
:101130008BED92E00E94E301FF91EF91BF91AF919F
:101140009F918F917F916F915F914F913F912F91DF
:101150000F900BBE0F900FBE0F901F9018951F920F
:101160000F920FB60F9211240BB60F922F938F93FD
:101170009F93EF93FF93E091EB02F091EC0280815B
:10118000E091F102F091F20282FD1DC09081809108
:10119000F4028F5F8F732091F502821741F0E09186
:1011A000F402F0E0E552FD4F958F8093F402FF9139
:1011B000EF919F918F912F910F900BBE0F900FBECB
:1011C0000F901F9018958081F2CF1F920F920FB64B
:1011D0000F9211242F933F938F939F93AF93BF93BD
:1011E0008091AD029091AE02A091AF02B091B00299
:1011F0003091AC0223E0230F2D3758F50196A11D45
:10120000B11D2093AC028093AD029093AE02A093E7
:10121000AF02B093B0028091B1029091B202A0915E
:10122000B302B091B4020196A11DB11D8093B10229
:101230009093B202A093B302B093B402BF91AF9166
:101240009F918F913F912F910F900FBE0F901F9004
:10125000189526E8230F0296A11DB11DD2CF1F922B
:101260000F920FB60F9211240BB60F922F933F934C
:101270004F935F936F937F938F939F93AF93BF939E
:10128000EF93FF93E0910F02F09110021995FF91F7
:10129000EF91BF91AF919F918F917F916F915F91EE
:1012A0004F913F912F910F900BBE0F900FBE0F905B
:1012B0001F9018951F920F920FB60F9211240BB624
:1012C0000F922F933F934F935F936F937F938F93DF
:1012D0009F93AF93BF93EF93FF93E0910D02F09133
:1012E0000E021995FF91EF91BF91AF919F918F9150
:1012F0007F916F915F914F913F912F910F900BBE16
:101300000F900FBE0F901F9018951F920F920FB65F
:101310000F9211240BB60F922F933F934F935F932D
:101320006F937F938F939F93AF93BF93EF93FF93AD
:10133000E0910302F09104021995FF91EF91BF91A2
:10134000AF919F918F917F916F915F914F913F915D
:101350002F910F900BBE0F900FBE0F901F901895FE
:101360001F920F920FB60F9211240BB60F922F936C
:101370003F934F935F936F937F938F939F93AF931D
:10138000BF93EF93FF93E0910102F0910202199550
:10139000FF91EF91BF91AF919F918F917F916F914D
:1013A0005F914F913F912F910F900BBE0F900FBE09
:1013B0000F901F9018951F920F920FB60F92112445
:1013C0000BB60F922F933F934F935F936F937F933F
:1013D0008F939F93AF93BF93EF93FF93E0910B0293
:1013E000F0910C021995FF91EF91BF91AF919F91F0
:1013F0008F917F916F915F914F913F912F910F90BE
:101400000BBE0F900FBE0F901F9018951F920F925A
:101410000FB60F9211240BB60F922F933F934F9359
:101420005F936F937F938F939F93AF93BF93EF934C
:10143000FF93E0910902F0910A021995FF91EF9153
:10144000BF91AF919F918F917F916F915F914F91DC
:101450003F912F910F900BBE0F900FBE0F901F90DA
:1014600018951F920F920FB60F9211240BB60F9280
:101470002F933F934F935F936F937F938F939F939C
:10148000AF93BF93EF93FF93E0910702F0910802AF
:101490001995FF91EF91BF91AF919F918F917F919E
:1014A0006F915F914F913F912F910F900BBE0F90D5
:1014B0000FBE0F901F9018951F920F920FB60F92AC
:1014C00011240BB60F922F933F934F935F936F931B
:1014D0007F938F939F93AF93BF93EF93FF93E0918D
:1014E0000502F09106021995FF91EF91BF91AF911E
:1014F0009F918F917F916F915F914F913F912F912C
:101500000F900BBE0F900FBE0F901F901895EF928B
:10151000FF921F93CF93DF9300D01F92CDB7DEB71A
:101520001092DE021092DD0288EE93E0A0E0B0E0BF
:101530008093DF029093E002A093E102B093E20275
:101540008BE492E09093DC028093DB0285EC90E0E8
:101550009093E8028093E70284EC90E09093EA0293
:101560008093E90280EC90E09093EC028093EB0290
:1015700081EC90E09093EE028093ED0282EC90E09B
:101580009093F0028093EF0286EC90E09093F20249
:101590008093F1021092F4021092F5021092F6027A
:1015A0001092F70284E1E82EF12CF092D503E0923C
:1015B000D40385E190E09093D7038093D60382E033
:1015C00090E09093D9038093D80362E084E10E9475
:1015D0009E0362E085E10E949E038091D4030E94F5
:1015E0000A03182F8091D6030E940A03880F991FBF
:1015F000812B8093DA031092DB031092DC031092AC
:10160000DD031092DE031092DF031092E0031092CC
:10161000E1031092E2031092E3031092E4031092AC
:10162000E5031092E6031092B6031092B50362E050
:1016300087E30E949E031092B6031092B5031092A6
:10164000C3031092C4031092C5031092C6031092F4
:10165000C7031092C8031092C9031092CA0387E30C
:101660008093B80311E01093B70388E893E1909357
:10167000BA038093B903F092BC03E092BB031092CB
:10168000BE031092BD031092C0031092BF031092CC
:10169000C2031092C1031092CC031092CB0310929C
:1016A000CE031092CD031092D0031092CF0310926C
:1016B000D2031092D1031092D3031C821B8284E0C8
:1016C00090E09A838983909379038093780387E0ED
:1016D00090E090937B0380937A0388E090E090936E
:1016E0007D0380937C0361E084E00E949E0361E0BF
:1016F00080917A030E949E0361E080917C030E94A6
:101700009E0310927E0310937F0310938003E1E603
:10171000F2E025EA33E0819191918830910508F05B
:101720005EC0875A9D4FDC018C91D9018D939D013C
:10173000B2E0E137FB0779F7109282031092810340
:101740001092840310928303DE011196E5E8F3E022
:1017500090E080E030E020E0F82E192F4D915D916F
:10176000141615060CF043C0BA01620F731F0196E0
:1017700069307105B4F13093820320938103F092B4
:1017800083031093840348E050E06FEF70E08DEA2C
:1017900093E00E944F1060E0809178030E9446031E
:1017A00020E041E060917A0380917C030E94740301
:1017B00020E041E060917A0380917C030E947403F1
:1017C00061E0809178030E9446030F900F900F9084
:1017D0000F90DF91CF911F91FF90EF90089580E0DF
:1017E000A4CF318B208B419351939B01B5CF309384
:1017F0008203209381039093840380938303C3CF58
:10180000CF93DF931F921F92CDB7DEB7789484B544
:10181000826084BD84B5816084BD85B5826085BDEC
:1018200085B5816085BD80916E00816080936E007A
:10183000109281008091810082608093810080916C
:10184000810081608093810080918000816080931D
:1018500080008091B10084608093B1008091B000DD
:1018600081608093B00080919100826080939100AC
:1018700080919100816080939100809190008160BF
:10188000809390008091A10082608093A10080915C
:10189000A10081608093A1008091A000816080936D
:1018A000A00080912101826080932101809121011B
:1018B00081608093210180912001816080932001CB
:1018C00080917A00846080937A0080917A008260AF
:1018D00080937A0080917A00816080937A00809171
:1018E0007A00806880937A001092C10061E08BE3F7
:1018F0000E949E0360E08BE30E94460361E085E066
:101900000E949E0325E337E03093080220930702EC
:1019100080916900837F846080936900E99A3093A5
:10192000060220930502809169008C7F816080937C
:101930006900E89A8AEF96E09093CC038093CB03FA
:10194000E091EB02F091EC0282E08083E091E7020B
:10195000F091E8021082E091E902F091EA028FEC46
:1019600080831092F302E091EF02F091F00286E0A2
:101970008083E091ED02F091EE02808180618083AE
:10198000E091ED02F091EE02808188608083E09129
:10199000ED02F091EE02808180688083E091ED029B
:1019A000F091EE0280818F7D80838AE0882E912CD9
:1019B000A12CB12C9DE2392E8091B5039091B603F4
:1019C0008130910509F456C040F0029709F4BDC07A
:1019D0001092B6031092B50331C08091C10390916B
:1019E000C203892BB9F00E9428070091C703109108
:1019F000C8032091C9033091CA03601B710B820B8D
:101A0000930B683E73408105910520F01092C2034C
:101A10001092C1030E943303882381F00E9428079B
:101A20006093C3037093C4038093C5039093C6036C
:101A300081E090E09093B6038093B5034090DF037C
:101A40005090E0036090E1037090E2032DB73EB741
:101A50003A832983A301920110E000E00F5F1F4F3A
:101A600057FFD3C050954095309521953F4F4F4F2C
:101A70005F4FF4CF0E9428070091C3031091C40365
:101A80002091C5033091C603AB01BC01401B510B33
:101A9000620B730B8091BB039091BC03B0E0A0E09C
:101AA000481759076A077B0748F20E9433038823C7
:101AB00009F48ECF1092C0031092BF038091D3031C
:101AC0008E7F86608093D3038091C1039091C2037F
:101AD000892B51F40E9428076093C7037093C803B1
:101AE0008093C9039093CA038091BD039091BE0374
:101AF00001969093BE038093BD038091C1039091A2
:101B0000C20301969093C2038093C103E091CB037B
:101B1000F091CC03309719F085EB93E01995809103
:101B2000C1039091C203029748F0E091D103F09174
:101B3000D203309719F085EB93E01995E2E0F0E0DD
:101B4000F093B603E093B50379CF0E943303882363
:101B500009F450C00E9428070091C3031091C403E8
:101B60002091C5033091C603AB01BC01401B510B52
:101B7000620B730B8091B9039091BA03B0E0A0E0BF
:101B8000481759076A077B0708F458CF0E942807AF
:101B90000091C3031091C4032091C5033091C60383
:101BA000DC01CB01801B910BA20BB30B2091BF0377
:101BB0003091C003820F931F9093C0038093BF03A3
:101BC0000E9428076093C3037093C4038093C503E6
:101BD0009093C603E091CD03F091CE03309719F0B6
:101BE00085EB93E019958091D3038B7F816080937F
:101BF000D30324CFE091CF03F091D003309709F4C1
:101C0000E7CE85EB93E01995E3CE2A303105410507
:101C100051053CF0CA01B901A50194010E941410BC
:101C20001DCF8DB79EB7801B910B0FB6F8949EBF4A
:101C30000FBE8DBFEDB7FEB731967F01212C77FE29
:101C40000AC07094609450944094411C511C611CD3
:101C5000711C222423946701C00ED11EC301B2015E
:101C6000A50194010E941410605DF60162936F015A
:101C700029013A01EE15FF0589F7222011F0F7013D
:101C800030828091850390918603FC0131972DB7B6
:101C90003EB7281B390B0FB6F8943EBF0FBE2DBFC1
:101CA0004DB75EB74F5F5F4FBC01601B710BDA0130
:101CB0009D01241B350B261737071CF430E23D939A
:101CC000F7CF9B01E217F3077CF037FD0AC0D9017B
:101CD000A61BB70BAE0DBF1D1C91DA01A20FB31FDF
:101CE0001C932F5F3F4FEECFEDB7FEB7E81BF90B0C
:101CF0000FB6F894FEBF0FBEEDBF2DB73EB72F5FF6
:101D00003F4FBA01D901FB01E41BF50BE817F907B6
:101D10005CF5FB011191BF01F0EDF10FFA3048F4D1
:101D2000E12F110FFF0BE35FFD4FE081EC93119664
:101D3000EACFFFE9F10FFA3130F4E12F110FFF0B79
:101D4000EE53FE4FF2CFFFEBF10FFA3130F4E12FFB
:101D5000110FFF0BEE51FE4FE8CF1D3219F4F2E0E8
:101D6000FC93E5CF1C92E3CF60917E03E091950355
:101D7000F0919603E355FC4FD901AD01421B530B83
:101D80004817590734F44D91611101C040954193B2
:101D9000F4CF29813A810FB6F8943EBF0FBE2DBF14
:101DA00080917F03882309F44AC008E713E020915B
:101DB000810330918203C8018857934082179307AB
:101DC0000CF05EC060E0809178030E944603809131
:101DD0008003F801811128C025A540E060917A03B5
:101DE00080917C030E947403F80125A940E0609172
:101DF0007A0380917C030E94740361E080917803F0
:101E00000E9446030E9403076B017C010E940307A6
:101E10006C197D098E099F09683E73408105910503
:101E2000A8F30F5F1F4FC3CF25A940E060917A034D
:101E300080917C030E947403F80125A5D7CF60E050
:101E4000809178030E9446030091810310918203E0
:101E500008581C4F01501109C8018857934097FD3D
:101E60000AC0F80125A940E060917A0380917C03C3
:101E70000E947403EFCF61E0809178030E944603D3
:101E80008091D9029091DA02092E000CAA0BBB0BAB
:101E90004091DF035091E0036091E1037091E20310
:101EA00084179507A607B70769F14091DF035091A2
:101EB000E0036091E1037091E20384179507A607A0
:101EC000B7070CF057C084E792E00E94C9078091E1
:101ED000DF039091E003A091E103B091E2039093BE
:101EE000DA028093D9026AE070E00E94DE0F892B4B
:101EF00049F424E630E040E050E068EB71E085E032
:101F00000E94DA030E9428076B017C018091D502B0
:101F10009091D602A091D702B091D80288519C4FDF
:101F2000AF4FBF4F8C159D05AE05BF0500F58091E5
:101F3000110290911202C296853FF1E09F07ECF4E6
:101F4000909312028093110260911102709112021B
:101F500024E630E040E050E085E00E94DA03C092E1
:101F6000D502D092D602E092D702F092D8020E9417
:101F7000720222CD8DE892E0A8CF24E630E03093C3
:101F8000120220931102E0CF0E94CF0FA59F900D67
:101F9000B49F900DA49F800D911D11240895A29FC0
:101FA000B001B39FC001A39F700D811D1124911D2D
:101FB000B29F700D811D1124911D089597FB072E6E
:101FC00016F4009407D077FD09D00E943B1007FC5F
:101FD00005D03EF4909581959F4F08957095619539
:101FE0007F4F0895A1E21A2EAA1BBB1BFD010DC055
:101FF000AA1FBB1FEE1FFF1FA217B307E407F507B9
:1020000020F0A21BB30BE40BF50B661F771F881F94
:10201000991F1A9469F760957095809590959B012A
:10202000AC01BD01CF010895052E97FB1EF400946D
:102030000E942B1057FD07D00E94F20F07FC03D01F
:102040004EF40C942B1050954095309521953F4FB0
:102050004F4F5F4F089590958095709561957F4F94
:102060008F4F9F4F0895EE0FFF1F881F8BBF079064
:10207000F691E02D1994AA1BBB1B51E107C0AA1FC2
:10208000BB1FA617B70710F0A61BB70B881F991F19
:102090005A95A9F780959095BC01CD010895DC0172
:1020A00001C06D9341505040E0F70895F894FFCF80
:1020B000FF34073407340734073407340734073450
:1020C00007640000FF0100010000FFFF00000100A5
:1020D00001FF00EE3E9C7A9E8EBC6E0C78AE1CEC2E
:1020E0002A3ACEE68CB61E387C7E6C76DAFC60DA54
:1020F000F266B6BEE0FEE60000000005026F019C3D
:10210000015202CD01AB01BF018040201008040242
:1021100001000001000200030004000500060007A2
:10212000000D0A004769726F206E6F2073656E7430
:1021300069646F20686F726172696F2E00476972FF
:102140006F206E6F2073656E7469646F20616E74AA
:0C215000692D686F726172696F2E0000CB
:00000001FF
