:020000040000FA
:100000000C943C010C945C0A0C94310A0C94060A82
:100010000C94DB090C94B0090C9485090C945A09D2
:100020000C942F090C946D010C946D010C946D01CE
:100030000C946D010C94E6070C946D010C946D0109
:100040000C946D010C946D010C946D010C946D0178
:100050000C946D010C946D010C946D010C94E508E9
:100060000C946D010C94AF080C9485080C946D01F0
:100070000C946D010C946D010C946D010C946D0148
:100080000C946D010C946D010C946D010C946D0138
:100090000C946D010C946D010C946D010C946D0128
:1000A0000C946D010C946D010C946D010C946D0118
:1000B0000C946D010C946D010C946D010C946D0108
:1000C0000C946D010C946D010C946D010C946D01F8
:1000D0000C946D010C946D010C946D010C946D01E8
:1000E0000C946D010C94EE020C9406030C94CF0258
:1000F0000C94CD010C9434070C94E6020C94DC02B1
:100100000C94E0020C94BF010C94EA020C94CB0214
:100110000C94C7020C949C010C94FC020C94AB014F
:100120000C9452020C94F8020C94FA060C946F0191
:100130000C94D6020C9435070C9405020C94D3024F
:100140000C9401030C94C1020C94870A0C940203D2
:100150000C94F40200002100240027002A002D0046
:100160003000330001010000040107010A01000012
:1001700020002300260029002C002F00320000015F
:10018000000003010601090100000A0B02090C0D21
:100190000E0807030401000000000000000000003A
:1001A000000000000000000000000000000000004F
:1001B000000000001211100000000000000000000C
:1001C000000000000000000000000000000001022C
:1001D0001020200808102040102040800201020159
:1001E0000804020101020408102040808040201011
:1001F000080402018004020180402010080402016A
:1002000008040201010204081020408001020408D1
:100210001020408000002200250028002B002E0026
:100220003100340002010000050108010B01050541
:100230000505070508080808020202020A0A08085C
:10024000040404040101010101010101030303038A
:1002500003030303040707070C0C0C0C0C0C0C0C19
:100260000202020206060606060606060B0B0B0B2A
:100270000B0B0B0B0200870A11241FBECFEFD1E23C
:10028000DEBFCDBF00E00CBF23E0ACEAB2E001C0AE
:100290001D92AF3EB207E1F712E0A0E0B2E0E0EB62
:1002A000F0E200E00BBF02C007900D92AC3AB1073C
:1002B000D9F711E0CCE3D1E000E006C021970109B5
:1002C000802FFE010E943310CB33D10780E0080756
:1002D000A9F70E94000C0C9456100C940000AF92E9
:1002E000BF92CF92DF92EF92FF920F931F93CF9323
:1002F000DF936C017B018B01040F151FEB015E0185
:10030000AE18BF08C017D10759F06991D601ED9119
:10031000FC910190F081E02DC6011995892B79F7A8
:10032000C501DF91CF911F910F91FF90EF90DF906A
:10033000CF90BF90AF900895FC01538D448D252F31
:1003400030E0842F90E0821B930B541710F0CF966F
:10035000089501970895FC01918D828D981761F0A1
:10036000A28DAE0FBF2FB11D5D968C91928D9F5FB8
:100370009F73928F90E008958FEF9FEF0895FC0197
:10038000918D828D981731F0828DE80FF11D858D4A
:1003900090E008958FEF9FEF0895FC01918D228DDD
:1003A000892F90E0805C9F4F821B91098F73992762
:1003B00008958BED92E00E94CD0121E0892B09F494
:1003C00020E0822F0895FC01A48DA80FB92FB11D44
:1003D000A35ABF4F2C91848D90E001968F7399277B
:1003E000848FA689B7892C93A089B1898C91837059
:1003F00080648C93938D848D981306C00288F38952
:10040000E02D80818F7D80830895EF92FF920F937E
:100410001F93CF93DF93EC0181E0888F9B8D8C8DB0
:1004200098131AC0E889F989808185FF15C09FB7A4
:10043000F894EE89FF896083E889F9898081837067
:10044000806480839FBF81E090E0DF91CF911F9116
:100450000F91FF90EF900895F62E0B8D10E00F5F37
:100460001F4F0F731127E02E8C8D8E110CC00FB60D
:1004700007FCFACFE889F989808185FFF5CFCE01A5
:100480000E94E301F1CFEB8DEC0FFD2FF11DE35A3C
:10049000FF4FF0829FB7F8940B8FEA89FB89808128
:1004A0008062CFCFCF93DF93EC01888D8823B9F0A2
:1004B000AA89BB89E889F9898C9185FD03C080816F
:1004C00086FD0DC00FB607FCF7CF8C9185FFF2CFEC
:1004D000808185FFEDCFCE010E94E301E9CFDF915E
:1004E000CF91089580E090E0892B29F00E94D901F6
:1004F00081110E94000080E090E0892B49F080E0AB
:1005000090E0892B29F00E94000081110E940000D8
:1005100080E090E0892B49F080E090E0892B29F081
:100520000E94000081110E94000080E090E0892B71
:1005300049F080E090E0892B29F00E9400008111B1
:100540000C94000008958150823108F05AC0E82FC1
:10055000F0E08827E155FD4F8F4F0C943310CF0208
:10056000D302C102C702CB020103D602DC02E002C1
:10057000E602EA02EE02F402F8020103FC020203C0
:100580000603809180008F7780938000089580918A
:1005900080008F7DF9CF80918000877FF5CF84B573
:1005A0008F7784BD089584B58F7DFBCF8091B00097
:1005B0008F778093B00008958091B0008F7DF9CF40
:1005C000809190008F7780939000089580919000A3
:1005D0008F7DF9CF80919000877FF5CF8091A0002B
:1005E0008F778093A00008958091A0008F7DF9CF30
:1005F0008091A000877FF5CF809120018F77809335
:1006000020010895809120018F7DF9CF80912001F4
:10061000877FF5CFCF93DF93282F30E0F901E8579C
:10062000FE4F8491F901E253FE4FD491F901E25D4E
:10063000FD4FC491CC23A1F081110E94A302EC2FA5
:10064000F0E0EE0FFF1FE259FE4FA591B491EC913F
:10065000ED2381E090E009F480E0DF91CF910895EF
:1006600080E090E0FACF8091B8030E940A039C01D9
:100670008091B703823028F481E0232B31F080E0B1
:1006800004C081E021303105D1F708951F93CF9345
:10069000DF93282F30E0F901E857FE4F8491F901EC
:1006A000E253FE4FD491F901E25DFD4FC491CC239A
:1006B000A9F0162F81110E94A302EC2FF0E0EE0F9B
:1006C000FF1FEC5EFD4FA591B4918FB7F894EC91AC
:1006D000111108C0D095DE23DC938FBFDF91CF913D
:1006E0001F910895DE2BF8CFFF920F931F93CF93A6
:1006F000DF93082F162FF42EC22FD8E06C2FF110A5
:1007000015C06170802F0E944603C69561E0812F5D
:100710000E94460360E0812F0E944603D15071F78A
:10072000DF91CF911F910F91FF900895661F66276B
:10073000661F802F0E944603CC0FE8CFCF93DF9334
:1007400090E0FC01E253FE4F2491825D9D4FFC013D
:1007500084918823C9F090E0880F991FFC01EC5A1E
:10076000FE4FA591B491FC01EC5EFD4FC591D49173
:1007700061110DC09FB7F8948C91209582238C93C2
:100780008881282328839FBFDF91CF91089562300D
:1007900051F49FB7F8943C91822F809583238C93DA
:1007A000E8812E2BEFCF8FB7F894EC912E2B2C9362
:1007B0008FBFEACF4F925F926F927F928F929F92FC
:1007C000AF92BF92CF92DF92EF92FF920F931F935F
:1007D000CF93DF9300D01F921F92CDB7DEB78B016E
:1007E00029833A834B835C83909100028917C9F077
:1007F0009F3F09F48FC00F900F900F900F900F90B4
:10080000DF91CF911F910F91FF90EF90DF90CF90EC
:10081000BF90AF909F908F907F906F905F904F9020
:100820000895E4E7F2E024912D8327FDE4CF61E011
:100830000E949E032D81222321F08D81823009F0B8
:1008400007C24801B12CA12C60E072E18AE790E078
:10085000A50198010E94141029013A017A01690149
:1008600091E0C91AD108E108F1082FEFC216D104AE
:10087000E104F10409F00CF4B4C160E472E48FE027
:1008800090E0A50198010E94141069017A0181E0AD
:10089000C81AD108E108F1089D81923009F026C1FB
:1008A00082E02FEFC216D104E104F10409F00CF448
:1008B0006AC160E970ED83E090E0A50198010E94B3
:1008C000141069017A0181E0C81AD108E108F10821
:1008D00083E09FEFC916D104E104F10409F00CF4A0
:1008E00052C168E478EE81E090E0A50198010E9491
:1008F000141069017A0181E0C81AD108E108F108F1
:100900009FEFC916D104E104F10411F00CF042C1CB
:1009100084E039C180930002E4E7F2E094919D8382
:100920009F3F09F468CF923009F474C058F49923BA
:1009300099F1913009F44CC097FD5DCF61E00E94C0
:100940009E037BCF2D81243009F4AEC008F488C00B
:10095000253091F7109220011092210190912101F0
:1009600098609093210190912101916090932101D1
:10097000282F30E0F901E25DFD4FE491F0E0EE0F49
:10098000FF1FEC5EFD4F45915491F901E253FE4F7C
:10099000E491E093B5024BCF14BC15BC94B59260C2
:1009A00094BD95B5916095BD282F30E0F901E25DC9
:1009B000FD4FE491F0E0EE0FFF1FEC5EFD4F45911F
:1009C0005491F901E253FE4FE491E093B9022FCF25
:1009D0001092800010928100909181009860909315
:1009E000810090918100916090938100282F30E0E8
:1009F000F901E25DFD4FE491F0E0EE0FFF1FEC5EC8
:100A0000FD4F45915491F901E253FE4FE491E0937B
:100A1000B8020DCF1092B0001092B1009091B000CA
:100A200092609093B0009091B10091609093B1006A
:100A3000282F30E0F901E25DFD4FE491F0E0EE0F88
:100A4000FF1FEC5EFD4F459154915093CF024093B0
:100A5000CE02F901E253FE4FE491E093D002E7CEDB
:100A60001092900010929100909191009860909354
:100A7000910090919100916090939100282F30E027
:100A8000F901E25DFD4FE491F0E0EE0FFF1FEC5E37
:100A9000FD4F45915491F901E253FE4FE491E093EB
:100AA000B70293E09D83C3CE1092A0001092A100E4
:100AB0009091A10098609093A1009091A100916005
:100AC0009093A100282F30E0F901E25DFD4FE49101
:100AD000F0E0EE0FFF1FEC5EFD4F45915491F901E0
:100AE000E253FE4FE491E093B602A1CE2FEFC2167F
:100AF000D104E104F10409F00CF4A8C068E478EE34
:100B000081E090E0A50198010E94141069017A012A
:100B100081E0C81AD108E108F1089D81992309F400
:100B20005FC12FEFC216D104E104F10409F00CF407
:100B3000EFCE62E17AE780E090E0A50194010E94A7
:100B4000141069017A0181E0C81AD108E108F1089E
:100B50009D81992309F411C186E09FEFC916D10444
:100B6000E104F10481F078F0730162019AE0F594F8
:100B7000E794D794C7949A95D1F781E0C81AD10821
:100B8000E108F10887E09091B100987F892B80936C
:100B9000B1002FC064E274EF80E090E0A501940101
:100BA0000E94141069017A0181E0C81AD108E10895
:100BB000F10885E09FEFC916D104E104F10419F3AF
:100BC00010F362E17AE780E090E0A50194010E94D1
:100BD000141069017A0181E0C81AD108E108F1080E
:100BE000BBCF81E02D812111CECF95B5987F892B88
:100BF00085BDD801AA0FBB1F29813A814B815C8139
:100C00000E94C40F28EE33E040E050E00E94F20F53
:100C10008D81823009F47DC00CF0C8C0882309F4AE
:100C200069C0813009F0E7CDD0928900C092880078
:100C30002093C6023093C7024093C8025093C90262
:100C400080916F00826080936F00D5CD82E0CACF23
:100C5000B12CA12C60E072E18AE790E0A501980137
:100C60000E94141069017A0181E0C81AD108E108D4
:100C7000F108C114D10491E0E906F1045CF491E0BB
:100C80002D812130C1F480918100887F892B809350
:100C90008100AFCF68E478EE81E090E0A501980193
:100CA0000E94141069017A0181E0C81AD108E10894
:100CB000F10893E0E5CF8D81833039F48091910084
:100CC000887F892B8093910094CF2D81243039F433
:100CD0008091A100887F892B8093A1008ACF8D818C
:100CE000853009F086CF80912101887F892B809300
:100CF00021017FCFC7BC2093CA023093CB0240931F
:100D0000CC025093CD0280916E00826080936E0081
:100D100072CDC092B3002093D1023093D20240939F
:100D2000D3025093D402809170008260809370004F
:100D300062CDD0929900C09298002093C202309365
:100D4000C3024093C4025093C50280917100826037
:100D50008093710050CDD092A900C092A80020933A
:100D6000BE023093BF024093C0025093C1028091F3
:100D700072008260809372003ECD84E02FEFC21635
:100D8000D104E104F10409F008F42FCF73016201EA
:100D90002AE0F594E794D794C7942A95D1F791E087
:100DA000C91AD108E108F10885E01FCF9D81943070
:100DB00091F20CF4BECF953009F01DCDD0922901EF
:100DC000C09228012093BA023093BB024093BC0228
:100DD0005093BD02809173008260809373000BCDAD
:100DE00083E09FEFC916D104E104F10409F00CF48B
:100DF000FCCE9FCE2CE231E040E050E06CED70E0A4
:100E000085E00C94DA033FB7F8948091B102909199
:100E1000B202A091B302B091B40226B5A89B05C05E
:100E20002F3F19F00196A11DB11D3FBFBA2FA92F69
:100E3000982F8827BC01CD01620F711D811D911D66
:100E400042E0660F771F881F991F4A95D1F70895D2
:100E50002FB7F8946091AD027091AE028091AF020D
:100E60009091B0022FBF089508950F931F93809122
:100E7000D4030E940A03182F8091D6030E940A030C
:100E8000880F991F812B9091DA03891709F46DC09F
:100E9000E091DA030091DB031091DC032091DD0384
:100EA0003091DE0394E0E902F0011124482F082E6E
:100EB000000C550BE42BF52BED5EFD4F9081492F77
:100EC000990F550B660B770B400F511F621F731F55
:100ED0004093DB035093DC036093DD037093DE03E8
:100EE0008093DA032091D8033091D9032230310561
:100EF000D1F123303105E1F121303105B1F58330F5
:100F0000A1F58091DB039091DC03A091DD03B0910A
:100F1000DE0332E0B595A795979587953A95D1F779
:100F20008093DF039093E003A093E103B093E20387
:100F30008091E7039091E803A091E903B091EA035F
:100F40008093EB039093EC03A093ED03B093EE0337
:100F50000E9428076093E7037093E8038093E903F6
:100F60009093EA0302C0882361F21F910F910895C4
:100F7000882311F08330C9F78091DB039091DC0363
:100F8000A091DD03B091DE03B595A7959795879560
:100F9000C7CFCF93DF93FC0101900020E9F7319791
:100FA000AF01481B590BBC018BED92E00E946F0111
:100FB000EC0142E050E061E772E08BED92E00E94CC
:100FC0006F018C0F9D1FDF91CF9108951F920F929B
:100FD0000FB60F9211240BB60F922F933F934F939E
:100FE0005F936F937F938F939F93AF93BF93EF9391
:100FF000FF938091D1029091D202A091D302B0913F
:10100000D402892B8A2B8B2BE1F19091D002E091B5
:10101000CE02F091CF028081892780838091D10216
:101020009091D202A091D302B091D4021816190661
:101030001A061B069CF48091D1029091D202A091D5
:10104000D302B091D4020197A109B1098093D102D2
:101050009093D202A093D302B093D402FF91EF9168
:10106000BF91AF919F918F917F916F915F914F91C0
:101070003F912F910F900BBE0F900FBE0F901F90BE
:10108000189580910002E4E7F2E0E4919FEF9093DD
:101090000002E230E9F040F4EE2389F0E13091F013
:1010A00060E00E944603DACFE43049F110F1E53008
:1010B000B9F7909173009D7F90937300F1CF1092D8
:1010C0006E00EECF90916F009D7F90936F00E8CF00
:1010D000909170009D7F9093700091E09093B0008C
:1010E0009091B100987F94609093B1001092B300FA
:1010F000D7CF909171009D7F90937100D1CF909147
:1011000072009D7F90937200CBCF1F920F920FB60B
:101110000F9211240BB60F922F933F934F935F932F
:101120006F937F938F939F93AF93BF93EF93FF93AF
:101130008BED92E00E94E301FF91EF91BF91AF919F
:101140009F918F917F916F915F914F913F912F91DF
:101150000F900BBE0F900FBE0F901F9018951F920F
:101160000F920FB60F9211240BB60F922F938F93FD
:101170009F93EF93FF93E091EB02F091EC0280815B
:10118000E091F102F091F20282FD1DC09081809108
:10119000F4028F5F8F732091F502821741F0E09186
:1011A000F402F0E0E552FD4F958F8093F402FF9139
:1011B000EF919F918F912F910F900BBE0F900FBECB
:1011C0000F901F9018958081F2CF1F920F920FB64B
:1011D0000F9211242F933F938F939F93AF93BF93BD
:1011E0008091AD029091AE02A091AF02B091B00299
:1011F0003091AC0223E0230F2D3758F50196A11D45
:10120000B11D2093AC028093AD029093AE02A093E7
:10121000AF02B093B0028091B1029091B202A0915E
:10122000B302B091B4020196A11DB11D8093B10229
:101230009093B202A093B302B093B402BF91AF9166
:101240009F918F913F912F910F900FBE0F901F9004
:10125000189526E8230F0296A11DB11DD2CF1F922B
:101260000F920FB60F9211240BB60F922F933F934C
:101270004F935F936F937F938F939F93AF93BF939E
:10128000EF93FF93E0910F02F09110021995FF91F7
:10129000EF91BF91AF919F918F917F916F915F91EE
:1012A0004F913F912F910F900BBE0F900FBE0F905B
:1012B0001F9018951F920F920FB60F9211240BB624
:1012C0000F922F933F934F935F936F937F938F93DF
:1012D0009F93AF93BF93EF93FF93E0910D02F09133
:1012E0000E021995FF91EF91BF91AF919F918F9150
:1012F0007F916F915F914F913F912F910F900BBE16
:101300000F900FBE0F901F9018951F920F920FB65F
:101310000F9211240BB60F922F933F934F935F932D
:101320006F937F938F939F93AF93BF93EF93FF93AD
:10133000E0910302F09104021995FF91EF91BF91A2
:10134000AF919F918F917F916F915F914F913F915D
:101350002F910F900BBE0F900FBE0F901F901895FE
:101360001F920F920FB60F9211240BB60F922F936C
:101370003F934F935F936F937F938F939F93AF931D
:10138000BF93EF93FF93E0910102F0910202199550
:10139000FF91EF91BF91AF919F918F917F916F914D
:1013A0005F914F913F912F910F900BBE0F900FBE09
:1013B0000F901F9018951F920F920FB60F92112445
:1013C0000BB60F922F933F934F935F936F937F933F
:1013D0008F939F93AF93BF93EF93FF93E0910B0293
:1013E000F0910C021995FF91EF91BF91AF919F91F0
:1013F0008F917F916F915F914F913F912F910F90BE
:101400000BBE0F900FBE0F901F9018951F920F925A
:101410000FB60F9211240BB60F922F933F934F9359
:101420005F936F937F938F939F93AF93BF93EF934C
:10143000FF93E0910902F0910A021995FF91EF9153
:10144000BF91AF919F918F917F916F915F914F91DC
:101450003F912F910F900BBE0F900FBE0F901F90DA
:1014600018951F920F920FB60F9211240BB60F9280
:101470002F933F934F935F936F937F938F939F939C
:10148000AF93BF93EF93FF93E0910702F0910802AF
:101490001995FF91EF91BF91AF919F918F917F919E
:1014A0006F915F914F913F912F910F900BBE0F90D5
:1014B0000FBE0F901F9018951F920F920FB60F92AC
:1014C00011240BB60F922F933F934F935F936F931B
:1014D0007F938F939F93AF93BF93EF93FF93E0918D
:1014E0000502F09106021995FF91EF91BF91AF911E
:1014F0009F918F917F916F915F914F913F912F912C
:101500000F900BBE0F900FBE0F901F901895EF928B
:10151000FF921F93CF93DF9300D01F92CDB7DEB71A
:101520001092DE021092DD0288EE93E0A0E0B0E0BF
:101530008093DF029093E002A093E102B093E20275
:101540008BE492E09093DC028093DB0285EC90E0E8
:101550009093E8028093E70284EC90E09093EA0293
:101560008093E90280EC90E09093EC028093EB0290
:1015700081EC90E09093EE028093ED0282EC90E09B
:101580009093F0028093EF0286EC90E09093F20249
:101590008093F1021092F4021092F5021092F6027A
:1015A0001092F70284E1E82EF12CF092D503E0923C
:1015B000D40385E190E09093D7038093D60382E033
:1015C00090E09093D9038093D80362E084E10E9475
:1015D0009E0362E085E10E949E038091D4030E94F5
:1015E0000A03182F8091D6030E940A03880F991FBF
:1015F000812B8093DA031092DB031092DC031092AC
:10160000DD031092DE031092DF031092E0031092CC
:10161000E1031092E2031092E3031092E4031092AC
:10162000E5031092E6031092B6031092B50362E050
:1016300087E30E949E031092B6031092B5031092A6
:10164000C3031092C4031092C5031092C6031092F4
:10165000C7031092C8031092C9031092CA0387E30C
:101660008093B80311E01093B70388E893E1909357
:10167000BA038093B903F092BC03E092BB031092CB
:10168000BE031092BD031092C0031092BF031092CC
:10169000C2031092C1031092CC031092CB0310929C
:1016A000CE031092CD031092D0031092CF0310926C
:1016B000D2031092D1031092D3031C821B8284E0C8
:1016C00090E09A838983909379038093780387E0ED
:1016D00090E090937B0380937A0388E090E090936E
:1016E0007D0380937C0361E084E00E949E0361E0BF
:1016F00080917A030E949E0361E080917C030E94A6
:101700009E0310927E0310937F0310938003E1E603
:10171000F2E025EA33E0819191918830910508F05B
:101720005EC0875A9D4FDC018C91D9018D939D013C
:10173000B2E0E137FB0779F7109282031092810340
:101740001092840310928303DE011196E5E8F3E022
:1017500090E080E030E020E0F82E192F4D915D916F
:10176000141615060CF043C0BA01620F731F0196E0
:1017700069307105B4F13093820320938103F092B4
:1017800083031093840348E050E06FEF70E08DEA2C
:1017900093E00E944F1060E0809178030E9446031E
:1017A00020E041E060917A0380917C030E94740301
:1017B00020E041E060917A0380917C030E947403F1
:1017C00061E0809178030E9446030F900F900F9084
:1017D0000F90DF91CF911F91FF90EF90089580E0DF
:1017E000A4CF318B208B419351939B01B5CF309384
:1017F0008203209381039093840380938303C3CF58
:10180000CF93DF931F921F92CDB7DEB7789484B544
:10181000826084BD84B5816084BD85B5826085BDEC
:1018200085B5816085BD80916E00816080936E007A
:10183000109281008091810082608093810080916C
:10184000810081608093810080918000816080931D
:1018500080008091B10084608093B1008091B000DD
:1018600081608093B00080919100826080939100AC
:1018700080919100816080939100809190008160BF
:10188000809390008091A10082608093A10080915C
:10189000A10081608093A1008091A000816080936D
:1018A000A00080912101826080932101809121011B
:1018B00081608093210180912001816080932001CB
:1018C00080917A00846080937A0080917A008260AF
:1018D00080937A0080917A00816080937A00809171
:1018E0007A00806880937A001092C10061E08BE3F7
:1018F0000E949E0360E08BE30E94460361E085E066
:101900000E949E0325E337E03093080220930702EC
:1019100080916900837F846080936900E99A3093A5
:10192000060220930502809169008C7F816080937C
:101930006900E89A8AEF96E09093CC038093CB03FA
:10194000E091EB02F091EC0282E08083E091E7020B
:10195000F091E8021082E091E902F091EA028FEC46
:1019600080831092F302E091EF02F091F00286E0A2
:101970008083E091ED02F091EE02808180618083AE
:10198000E091ED02F091EE02808188608083E09129
:10199000ED02F091EE02808180688083E091ED029B
:1019A000F091EE0280818F7D80838AE0882E912CD9
:1019B000A12CB12C9DE2392E8091B5039091B603F4
:1019C0008130910509F456C040F0029709F4BDC07A
:1019D0001092B6031092B50331C08091C10390916B
:1019E000C203892BB9F00E9428070091C703109108
:1019F000C8032091C9033091CA03601B710B820B8D
:101A0000930B683E73408105910520F01092C2034C
:101A10001092C1030E943303882381F00E9428079B
:101A20006093C3037093C4038093C5039093C6036C
:101A300081E090E09093B6038093B5034090DF037C
:101A40005090E0036090E1037090E2032DB73EB741
:101A50003A832983A301920110E000E00F5F1F4F3A
:101A600057FFD3C050954095309521953F4F4F4F2C
:101A70005F4FF4CF0E9428070091C3031091C40365
:101A80002091C5033091C603AB01BC01401B510B33
:101A9000620B730B8091BB039091BC03B0E0A0E09C
:101AA000481759076A077B0748F20E9433038823C7
:101AB00009F48ECF1092C0031092BF038091D3031C
:101AC0008E7F86608093D3038091C1039091C2037F
:101AD000892B51F40E9428076093C7037093C803B1
:101AE0008093C9039093CA038091BD039091BE0374
:101AF00001969093BE038093BD038091C1039091A2
:101B0000C20301969093C2038093C103E091CB037B
:101B1000F091CC03309719F085EB93E01995809103
:101B2000C1039091C203029748F0E091D103F09174
:101B3000D203309719F085EB93E01995E2E0F0E0DD
:101B4000F093B603E093B50379CF0E943303882363
:101B500009F450C00E9428070091C3031091C403E8
:101B60002091C5033091C603AB01BC01401B510B52
:101B7000620B730B8091B9039091BA03B0E0A0E0BF
:101B8000481759076A077B0708F458CF0E942807AF
:101B90000091C3031091C4032091C5033091C60383
:101BA000DC01CB01801B910BA20BB30B2091BF0377
:101BB0003091C003820F931F9093C0038093BF03A3
:101BC0000E9428076093C3037093C4038093C503E6
:101BD0009093C603E091CD03F091CE03309719F0B6
:101BE00085EB93E019958091D3038B7F816080937F
:101BF000D30324CFE091CF03F091D003309709F4C1
:101C0000E7CE85EB93E01995E3CE2A303105410507
:101C100051053CF0CA01B901A50194010E941410BC
:101C20001DCF8DB79EB7801B910B0FB6F8949EBF4A
:101C30000FBE8DBFEDB7FEB731967F01212C77FE29
:101C40000AC07094609450944094411C511C611CD3
:101C5000711C222423946701C00ED11EC301B2015E
:101C6000A50194010E941410605DF60162936F015A
:101C700029013A01EE15FF0589F7222011F0F7013D
:101C800030828091850390918603FC0131972DB7B6
:101C90003EB7281B390B0FB6F8943EBF0FBE2DBFC1
:101CA0004DB75EB74F5F5F4FBC01601B710BDA0130
:101CB0009D01241B350B261737071CF430E23D939A
:101CC000F7CF9B01E217F3077CF037FD0AC0D9017B
:101CD000A61BB70BAE0DBF1D1C91DA01A20FB31FDF
:101CE0001C932F5F3F4FEECFEDB7FEB7E81BF90B0C
:101CF0000FB6F894FEBF0FBEEDBF2DB73EB72F5FF6
:101D00003F4FBA01D901FB01E41BF50BE817F907B6
:101D10005CF5FB011191BF01F0EDF10FFA3048F4D1
:101D2000E12F110FFF0BE35FFD4FE081EC93119664
:101D3000EACFFFE9F10FFA3130F4E12F110FFF0B79
:101D4000EE53FE4FF2CFFFEBF10FFA3130F4E12FFB
:101D5000110FFF0BEE51FE4FE8CF1D3219F4F2E0E8
:101D6000FC93E5CF1C92E3CF60917E03E091950355
:101D7000F0919603E355FC4FD901AD01421B530B83
:101D80004817590734F44D91611101C040954193B2
:101D9000F4CF29813A810FB6F8943EBF0FBE2DBF14
:101DA00080917F03882309F44AC008E713E020915B
:101DB000810330918203C8018857934082179307AB
:101DC0000CF05EC060E0809178030E944603809131
:101DD0008003F801811128C025A540E060917A03B5
:101DE00080917C030E947403F80125A940E0609172
:101DF0007A0380917C030E94740361E080917803F0
:101E00000E9446030E9403076B017C010E940307A6
:101E10006C197D098E099F09683E73408105910503
:101E2000A8F30F5F1F4FC3CF25A940E060917A034D
:101E300080917C030E947403F80125A5D7CF60E050
:101E4000809178030E9446030091810310918203E0
:101E500008581C4F01501109C8018857934097FD3D
:101E60000AC0F80125A940E060917A0380917C03C3
:101E70000E947403EFCF61E0809178030E944603D3
:101E80008091D9029091DA02092E000CAA0BBB0BAB
:101E90004091DF035091E0036091E1037091E20310
:101EA00084179507A607B70769F14091DF035091A2
:101EB000E0036091E1037091E20384179507A607A0
:101EC000B7070CF057C084E792E00E94C9078091E1
:101ED000DF039091E003A091E103B091E2039093BE
:101EE000DA028093D9026AE070E00E94DE0F892B4B
:101EF00049F424E630E040E050E068EB71E085E032
:101F00000E94DA030E9428076B017C018091D502B0
:101F10009091D602A091D702B091D80288519C4FDF
:101F2000AF4FBF4F8C159D05AE05BF0500F58091E5
:101F3000110290911202C296853FF1E09F07ECF4E6
:101F4000909312028093110260911102709112021B
:101F500024E630E040E050E085E00E94DA03C092E1
:101F6000D502D092D602E092D702F092D8020E9417
:101F7000720222CD8DE892E0A8CF24E630E03093C3
:101F8000120220931102E0CF0E94CF0FA59F900D67
:101F9000B49F900DA49F800D911D11240895A29FC0
:101FA000B001B39FC001A39F700D811D1124911D2D
:101FB000B29F700D811D1124911D089597FB072E6E
:101FC00016F4009407D077FD09D00E943B1007FC5F
:101FD00005D03EF4909581959F4F08957095619539
:101FE0007F4F0895A1E21A2EAA1BBB1BFD010DC055
:101FF000AA1FBB1FEE1FFF1FA217B307E407F507B9
:1020000020F0A21BB30BE40BF50B661F771F881F94
:10201000991F1A9469F760957095809590959B012A
:10202000AC01BD01CF010895052E97FB1EF400946D
:102030000E942B1057FD07D00E94F20F07FC03D01F
:102040004EF40C942B1050954095309521953F4FB0
:102050004F4F5F4F089590958095709561957F4F94
:102060008F4F9F4F0895EE0FFF1F881F8BBF079064
:10207000F691E02D1994AA1BBB1B51E107C0AA1FC2
:10208000BB1FA617B70710F0A61BB70B881F991F19
:102090005A95A9F780959095BC01CD010895DC0172
:1020A00001C06D9341505040E0F70895F894FFCF80
:1020B000FF34073407340734073407340734073450
:1020C00007640000FF0100010000FFFF00000100A5
:1020D00001FF00EE3E9C7A9E8EBC6E0C78AE1CEC2E
:1020E0002A3ACEE68CB61E387C7E6C76DAFC60DA54
:1020F000F266B6BEE0FEE60000000005026F019C3D
:10210000015202CD01AB01BF018040201008040242
:1021100001000001000200030004000500060007A2
:10212000000D0A004769726F206E6F2073656E7430
:1021300069646F20686F726172696F2E00476972FF
:102140006F206E6F2073656E7469646F20616E74AA
:0C215000692D686F726172696F2E0000CB
:020000040003F7
:10E000000D9489F10D94B2F10D94B2F10D94B2F129
:10E010000D94B2F10D94B2F10D94B2F10D94B2F1F0
:10E020000D94B2F10D94B2F10D94B2F10D94B2F1E0
:10E030000D94B2F10D94B2F10D94B2F10D94B2F1D0
:10E040000D94B2F10D94B2F10D94B2F10D94B2F1C0
:10E050000D94B2F10D94B2F10D94B2F10D94B2F1B0
:10E060000D94B2F10D94B2F10D94B2F10D94B2F1A0
:10E070000D94B2F10D94B2F10D94B2F10D94B2F190
:10E080000D94B2F10D94B2F10D94B2F10D94B2F180
:10E090000D94B2F10D94B2F10D94B2F10D94B2F170
:10E0A0000D94B2F10D94B2F10D94B2F10D94B2F160
:10E0B0000D94B2F10D94B2F10D94B2F10D94B2F150
:10E0C0000D94B2F10D94B2F10D94B2F10D94B2F140
:10E0D0000D94B2F10D94B2F10D94B2F10D94B2F130
:10E0E0000D94B2F141546D656761323536300041AF
:10E0F000726475696E6F206578706C6F72657220DE
:10E1000073746B3530305632206279204D4C530099
:10E11000426F6F746C6F616465723E004875683F52
:10E1200000436F6D70696C6564206F6E203D200048
:10E130004350552054797065202020203D20005FF9
:10E140005F4156525F415243485F5F3D2000415658
:10E1500052204C696243205665723D20004743437C
:10E160002056657273696F6E203D20004350552024
:10E1700049442020202020203D20004C6F7720663D
:10E18000757365202020203D20004869676820665F
:10E190007573652020203D200045787420667573D6
:10E1A00065202020203D20004C6F636B2066757336
:10E1B000652020203D20004D617220203720323024
:10E1C000313300312E362E3800342E332E350056A2
:10E1D00023202020414444522020206F7020636F70
:10E1E00064652020202020696E73747275637469E1
:10E1F0006F6E2061646472202020496E74657272B3
:10E20000757074006E6F20766563746F7200726A49
:10E210006D702020006A6D70200057686174207056
:10E220006F72743A00506F7274206E6F7420737541
:10E2300070706F72746564004D7573742062652030
:10E2400061206C6574746572002000577269747483
:10E25000696E672045450052656164696E672045B7
:10E26000450045452065727220636E743D00504F35
:10E27000525400303D5A65726F2061646472003FF1
:10E280003D43505520737461747300403D454550C3
:10E29000524F4D207465737400423D426C696E6B41
:10E2A000204C454400453D44756D70204545505215
:10E2B0004F4D00463D44756D7020464C415348001B
:10E2C000483D48656C70004C3D4C69737420492F83
:10E2D0004F20506F72747300513D51756974005234
:10E2E0003D44756D702052414D00563D73686F7707
:10E2F00020696E7465727275707420566563746FF0
:10E30000727300593D506F727420626C696E6B00BD
:10E310002A0011241FBECFEFD1E2DEBFCDBF01E046
:10E320000CBF12E0A0E0B2E0EEE1FDEF03E00BBFB6
:10E3300002C007900D92A030B107D9F712E0A0E01B
:10E34000B2E001C01D92AE30B107E1F70F9460F367
:10E350000D948DFE01E20EBF0FEF0DBF11241FBE05
:10E360000D9460F30D9400F020E030E040ED57E0B4
:10E3700005C0FA013197F1F72F5F3F4F2817390792
:10E38000C0F308959C01260F311DC901A0E0B0E043
:10E390002F5F3F4FABBFFC018791882361F08093D3
:10E3A000C6008091C00086FFFCCF8091C0008064D1
:10E3B0008093C000EACF08958DE08093C6008091DD
:10E3C000C00086FFFCCF8091C00080648093C000B5
:10E3D0008AE08093C6008091C00086FFFCCF8091C8
:10E3E000C00080648093C00008950F94C2F10F9420
:10E3F000DCF10895FC019081992359F09093C600B7
:10E400008091C00086FFFCCF8091C0008064809323
:10E41000C0003196992379F70895282F982F929567
:10E420009F70892F805D8A3308F0895F8093C600D2
:10E430008091C00086FFFCCF8091C00080648093F3
:10E44000C000822F8F70982F905D9A3308F0995FEB
:10E450009093C6008091C00086FFFCCF8091C000E1
:10E4600080648093C00008959C01FB01853691056E
:10E470001CF46330710594F0C90164E670E00F94F8
:10E480002EFE605D7F4F6093C6008091C00086FFC6
:10E49000FCCF8091C00080648093C0002B30310598
:10E4A00014F43297B4F0C90164E670E00F942EFEC4
:10E4B0006AE070E00F942EFE605D7F4F6093C600AF
:10E4C0008091C00086FFFCCF8091C0008064809363
:10E4D000C000C9016AE070E00F942EFEC0968093E0
:10E4E000C6008091C00086FFFCCF8091C000806490
:10E4F0008093C00008951F93182F8EE692EE60E07F
:10E500000F94C2F11093C6008091C00086FFFCCF2B
:10E510008091C00080648093C0000F94DCF11F9153
:10E5200008952F923F924F925F926F927F928F92B7
:10E530009F92AF92BF92CF92DF92EF92FF920F9392
:10E540001F93DF93CF93CDB7DEB762970FB6F894E2
:10E55000DEBF0FBECDBF382E622ECA01DB015C01CB
:10E560006D01772420E2222E2E010894411C511CBB
:10E570008BC081E0A81680E0B80681E0C80680E084
:10E58000D80628F0C601AA27BB270F940DF2BB2797
:10E59000AD2D9C2D8B2D0F940DF28A2D0F940DF225
:10E5A0002092C6008091C00086FFFCCF8091C00001
:10E5B00080648093C0009DE29093C6008091C0006B
:10E5C00086FFFCCF8091C00080648093C0002092C1
:10E5D000C6008091C00086FFFCCF8091C00080649F
:10E5E0008093C00019828601750188249924A1E0D6
:10E5F0003A1651F03A1620F0B2E03B1661F409C029
:10E600000BBFF701779007C0C7010F9477FE782EF4
:10E6100002C0F7017080872D0F940DF22092C60082
:10E620008091C00086FFFCCF8091C0008064809301
:10E63000C000872D8052F401EF70F0708F3520F408
:10E64000E40DF51D708204C0E40DF51D8EE280839B
:10E650000894E11CF11C011D111D0894811C911CE2
:10E6600090E18916910409F0C2CF80E190E0A0E02A
:10E67000B0E0A80EB91ECA1EDB1E198AC2010F9493
:10E68000FAF10F94DCF16A94662009F072CF629679
:10E690000FB6F894DEBF0FBECDBFCF91DF911F91B3
:10E6A0000F91FF90EF90DF90CF90BF90AF909F9031
:10E6B0008F907F906F905F904F903F902F90089534
:10E6C0002F923F924F925F926F927F928F929F9282
:10E6D000AF92BF92CF92DF92EF92FF920F931F9370
:10E6E000DF93CF93CDB7DEB7CD53D1400FB6F894BB
:10E6F000DEBF0FBECDBF01E20EBF0FEF0DBF94B75F
:10E70000F894A89514BE80916000886180936000A1
:10E7100010926000789493FF05C0E0910002F091A0
:10E7200001021995279A2F9A8091C00082608093E8
:10E73000C00080E18093C40088E18093C1000000A4
:10E74000EE24FF24870144E0A42EB12CCC24DD2448
:10E7500024C0C5010197F1F70894E11CF11C011DCB
:10E76000111D21E2E2162EE4F20620E0020720E06D
:10E77000120718F031E0C32ED12CC801B70127ECE5
:10E780003BE140E050E00F9441FE611571058105C9
:10E79000910519F485B1805885B98091C00087FD35
:10E7A00003C0C114D104A9F2A6014F5F5F4FC25E3E
:10E7B000DE4F59834883CE51D140C25EDE4F8881FF
:10E7C0009981CE51D140019711F00D9410FEC05D9A
:10E7D000DE4F19821882C053D14060E0C15DDE4F28
:10E7E0001882CF52D14088249924C35DDE4F19820C
:10E7F0001882CD52D140C05EDE4F188219821A8233
:10E800001B82C052D140CE5CDE4F188219821A8220
:10E810001B82C253D140EE24FF2487010BBFF701B6
:10E8200007911691C45CDE4F19830883CC53D14005
:10E830000D940BFEC25EDE4F28813981CE51D1404E
:10E840002130310509F52091C600C25EDE4F1982E4
:10E850001882CE51D14022C02F5F3F4F4F4F5F4FA4
:10E86000213082E138078AE7480780E0580780F0C6
:10E87000C45CDE4FE881F981CC53D140EF5FFF4F9C
:10E8800019F0EE27FF27099420E030E040E050E047
:10E890008091C00087FFE0CF2091C600C35DDE4FAE
:10E8A00048815981CD52D1404F5F5F4FC35DDE4FEC
:10E8B00059834883CD52D140213209F063C64A3092
:10E8C000510508F05FC60894811C911C53E0851621
:10E8D000910409F059C600E010E018C081E280936D
:10E8E000C6008091C00086FFFCCF8091C00080648C
:10E8F0008093C0002F5F3F4F2931310579F70F9486
:10E90000DCF10F5F1F4F0530110519F020E030E0FA
:10E91000E5CF10920A0210920B0210920C02109294
:10E920000D02109206021092070210920802109235
:10E930000902109202021092030210920402109235
:10E9400005028FEE90EE60E00F94F5F180E191EE1C
:10E9500060E00F94C2F18091C00087FFFCCF9091DE
:10E96000C600903608F09F759032B8F09093C600BC
:10E970008091C00086FFFCCF8091C00080648093AE
:10E98000C000A0E2A093C6008091C00086FFFCCF2B
:10E990008091C00080648093C000983409F4D7C18E
:10E9A0009934B8F4923409F459C1933458F490333B
:10E9B00019F1903308F4E3C59F33A1F1903409F0C5
:10E9C000DEC5BDC0953409F470C1963409F0D7C5D1
:10E9D00098C1923509F42BC2933538F49C3409F46C
:10E9E000F5C1913509F0CBC518C2963509F445C279
:10E9F000993509F0C4C567C483E792EE62E00F94CD
:10EA0000F5F110920602109207021092080210927D
:10EA1000090210920A0210920B0210920C0210923C
:10EA20000D0213C18FE792EE62E00F94F5F18FEEC5
:10EA300090EE60E00F94F5F181E291EE60E00F94CA
:10EA4000C2F187EB91EE60E00F94F5F180E391EE77
:10EA500060E00F94C2F184EE90EE60E00F94F5F167
:10EA60008FE391EE60E00F94C2F186E090E061E008
:10EA700070E00F9434F20F94DCF18DE591EE60E0DC
:10EA80000F94C2F189EC91EE60E00F94F5F18EE401
:10EA900091EE60E00F94C2F183EC91EE60E00F9490
:10EAA000F5F18CE691EE60E00F94C2F18EE10F94E7
:10EAB0000DF288E90F940DF281E00F940DF20F949E
:10EAC000DCF18BE791EE60E00F94C2F119E0E0E039
:10EAD000F0E010935700E4918E2F0F940DF20F94F5
:10EAE000DCF18AE891EE60E00F94C2F1E3E0F0E03F
:10EAF00010935700E4918E2F0F940DF20F94DCF1D8
:10EB000089E991EE60E00F94C2F1E2E0F0E0109349
:10EB10005700E4918E2F0F940DF20F94DCF188EAE8
:10EB200091EE60E00F94C2F1E1E0F0E01093570045
:10EB30001491812F0F940DF20F94DCF107CF8BE825
:10EB400092EE62E00F94F5F18BE492EE60E00F94A8
:10EB5000F5F10F94DCF100E010E019C0C8016F2D51
:10EB60000F947FFEFF2031F489E492EE60E00F9471
:10EB7000C2F10BC0F092C6008091C00086FFFCCFAE
:10EB80008091C00080648093C0000F5F1F4FC80158
:10EB900081519F41A0E0B0E0ABBFFC01F790BAE229
:10EBA000FB1621F0E2E000301E07C1F60F94DCF105
:10EBB0000F94DCF187E592EE60E00F94F5F10F948D
:10EBC000DCF1CC24DD2400E010E01EC0C8010F946D
:10EBD00077FEF82E882331F489E492EE60E00F94FA
:10EBE000C2F10BC08093C6008091C00086FFFCCFAD
:10EBF0008091C00080648093C000FE1419F00894D6
:10EC0000C11CD11C0F5F1F4FC80181519F41A0E063
:10EC1000B0E0ABBFFC01E790FAE2EF1621F022E092
:10EC20000030120799F60F94DCF10F94DCF182E6C4
:10EC300092EE60E00F94C2F1C60161E070E00F94C3
:10EC400034F20F94DCF10F94DCF110920202109276
:10EC50000302109204021092050278CE89E992EE26
:10EC600062E00F94F5F1279A2F9A16C02F9880E052
:10EC700090E0E0EDF7E03197F1F7019684369105E9
:10EC8000C1F72F9A80E090E0E0EDF7E03197F1F7DF
:10EC9000019684369105C1F78091C00087FFE6CFC9
:10ECA0008091C00087FFFCCF64C485EA92EE62E0E9
:10ECB0000F94F5F140910202509103026091040219
:10ECC0007091050281E020E10F9491F2809102029F
:10ECD00090910302A0910402B091050280509F4FD1
:10ECE000AF4FBF4F8093020290930302A0930402A0
:10ECF000B093050280509041A040B04008F426CE69
:10ED0000A4CF83EB92EE62E00F94F5F140910602FE
:10ED100050910702609108027091090280E020E1A1
:10ED20000F9491F28091060290910702A09108023F
:10ED3000B091090280509F4FAF4FBF4F80930602A2
:10ED400090930702A0930802B0930902FFCD80ECD4
:10ED500092EE62E00F94F5F183E792EE60E00F949B
:10ED6000F5F18FE792EE60E00F94F5F18BE892EE0B
:10ED700060E00F94F5F189E992EE60E00F94F5F10F
:10ED800085EA92EE60E00F94F5F183EB92EE60E09D
:10ED90000F94F5F180EC92EE60E00F94F5F187ECC2
:10EDA00092EE60E00F94F5F188ED92EE60E00F9442
:10EDB000F5F18FED92EE60E00F94F5F18AEE92EEB0
:10EDC00060E00F94F5F183E093EEBDCD87EC92EE19
:10EDD00062E00F94F5F181E40F947BF282E40F94EA
:10EDE0007BF283E40F947BF284E40F947BF285E45E
:10EDF0000F947BF286E40F947BF287E40F947BF20E
:10EE000088E40F947BF28AE40F947BF28BE40F94F6
:10EE10007BF28CE40F947BF299CD88ED92EE62E068
:10EE20000F94F5F1772473948824992409C48FED05
:10EE300092EE62E00F94F5F140910A0250910B02BC
:10EE400060910C0270910D0282E020E10F9491F22A
:10EE500080910A0290910B02A0910C02B0910D02D8
:10EE600080509F4FAF4FBF4F80930A0290930B0289
:10EE7000A0930C02B0930D0269CD8AEE92EE62E08F
:10EE80000F94F5F184EE90EE60E00F94F5F18FECC5
:10EE900091EE60E00F94F5F1662477244301CC5D98
:10EEA000DE4F19821882C452D140D401C301B695F5
:10EEB000A79597958795CA5DDE4F88839983AA8326
:10EEC000BB83C652D140CC5DDE4FA881B981C4520C
:10EED000D1401196CC5DDE4FB983A883C452D14096
:10EEE000CD0162E070E00F9434F2B0E2B093C6005E
:10EEF0008091C00086FFFCCF8091C0008064809329
:10EF0000C000EDE2E093C6008091C00086FFFCCF18
:10EF10008091C00080648093C000F0E2F093C6004E
:10EF20008091C00086FFFCCF8091C00080648093F8
:10EF3000C000CA5DDE4FE880F9800A811B81C6529D
:10EF4000D140BB27A12F902F8F2D0F940DF2CA5DBA
:10EF5000DE4F8881C652D1400F940DF2B0E2FB2EF5
:10EF6000F092C6008091C00086FFFCCF8091C00067
:10EF700080648093C0000DE30093C6008091C000C0
:10EF800086FFFCCF8091C00080648093C00010E2B7
:10EF90001093C6008091C00086FFFCCF8091C00016
:10EFA00080648093C0008BBEF3012791C65DDE4F65
:10EFB0002883CA52D140A22EBB24CC24DD2408943D
:10EFC000611C711C811C911C8BBEF3018791282E42
:10EFD0003324442455240894611C711C811C911C09
:10EFE0008BBEF3013791C55DDE4F3883CB52D140E4
:10EFF0000894611C711C811C911C8BBEF30147910C
:10F00000C45DDE4F4883CC52D140ADEFEA2EAFEF66
:10F01000FA2EAFEF0A2FAFEF1A2F6E0C7F1C801E57
:10F02000911E142D032DF22CEE24EA0CFB1C0C1D5A
:10F030001D1D0F940DF220E22093C6008091C000A8
:10F0400086FFFCCF8091C00080648093C000C65DC5
:10F05000DE4F8881CA52D1400F940DF230E23093D6
:10F06000C6008091C00086FFFCCF8091C000806404
:10F070008093C000C45DDE4F8881CC52D1400F9494
:10F080000DF240E24093C6008091C00086FFFCCFA5
:10F090008091C00080648093C000C55DDE4F888190
:10F0A000CB52D1400F940DF250E25093C6008091A4
:10F0B000C00086FFFCCF8091C00080648093C000B8
:10F0C0008FEFE8168FEFF80680E0080780E018075A
:10F0D00031F484E092EE60E00F94C2F1DFC0D80119
:10F0E000C7018070907CA070B0708050904CA040A0
:10F0F000B040D1F52FEF3FE340E050E0E222F322B1
:10F1000004231523CA5DDE4FA880B980CA80DB8046
:10F11000C652D140AE0CBF1CC01ED11EAA0CBB1CD7
:10F12000CC1CDD1C8EE092EE60E00F94C2F1BB2798
:10F13000A12F902F8F2D0F940DF28E2D0F940DF285
:10F1400030E23093C6008091C00086FFFCCF8091F2
:10F15000C00080648093C0004EE34093C60080915D
:10F16000C00086FFFCCF87C08EE09EEFA0E0B0E03D
:10F17000E822F9220A231B239CE0E91694E9F90608
:10F1800090E0090790E0190709F088C0C45DDE4FE0
:10F19000A881CC52D140EA2EFF2400E010E0102FCD
:10F1A0000F2DFE2CEE24C55DDE4FB881CB52D14031
:10F1B000EB0EF11C011D111DD601C501817090706F
:10F1C000A070B070DC0199278827E80EF91E0A1F8D
:10F1D0001B1F20EF30E040E050E0A222B322C42207
:10F1E000D52241E1AA0CBB1CCC1CDD1C4A95D1F7F1
:10F1F000EA0CFB1C0C1D1D1D81E090E0A0E0B0E0BE
:10F20000282239224A225B2235E1220C331C441C7D
:10F21000551C3A95D1F7E20CF31C041D151D57013E
:10F220006801AA0CBB1CCC1CDD1C85E192EE60E0E1
:10F230000F94C2F1C801AA27BB270F940DF2BB2778
:10F24000A12F902F8F2D0F940DF28E2D0F940DF274
:10F2500090E29093C6008091C00086FFFCCF809121
:10F26000C00080648093C000AEE3A093C60080918C
:10F27000C00086FFFCCF8091C00080648093C000F6
:10F28000C601AA27BB270F940DF2BB27AD2D9C2DDD
:10F290008B2D0F940DF28A2D0F940DF20F94DCF14B
:10F2A000CC5DDE4FE881F981C452D140F99709F471
:10F2B0004DCBF4E0EF2EF12C012D112D6E0C7F1CA7
:10F2C000801E911EF2CD83E093EE62E00F94F5F183
:10F2D0008AE192EE60E00F94C2F18091C00087FF56
:10F2E000FCCF1091C6001F751093C6008091C0001E
:10F2F00086FFFCCF8091C00080648093C0000F9493
:10F30000DCF1812F81548A3108F036C1163409F4BA
:10F3100095C0173490F4133409F44EC0143430F40B
:10F320001134F1F0123409F01DC130C0143409F465
:10F3300059C0153409F016C16BC01A3409F4C4C0A1
:10F340001B3438F4173409F48FC0183409F00AC19B
:10F35000A1C01B3409F4D2C01C3409F003C1E8C0B9
:10F360008FEF81B90DC082B1809582B980E090E0C5
:10F37000E0EDF7E03197F1F70196883C9105C1F790
:10F380008091C00087FFEFCF12B8EFC08FEF84B934
:10F390000DC085B1809585B980E090E0E0EDF7E0A3
:10F3A0003197F1F70196883C9105C1F78091C00033
:10F3B00087FFEFCF15B8D9C08FEF87B90DC088B1DF
:10F3C000809588B980E090E0E0EDF7E03197F1F7C3
:10F3D0000196883C9105C1F78091C00087FFEFCF6F
:10F3E00018B8C3C08FEF8AB90DC08BB180958BB9A7
:10F3F00080E090E0E0EDF7E03197F1F70196883C8E
:10F400009105C1F78091C00087FFEFCF1BB8ADC059
:10F410008FEF8DB90DC08EB180958EB980E090E0F0
:10F42000E0EDF7E03197F1F70196883C9105C1F7DF
:10F430008091C00087FFEFCF1EB897C08FEF80BBD1
:10F440000DC081B3809581BB80E090E0E0EDF7E0F6
:10F450003197F1F70196883C9105C1F78091C00082
:10F4600087FFEFCF11BA81C08FEF83BB0DC084B38C
:10F47000809584BB80E090E0E0EDF7E03197F1F714
:10F480000196883C9105C1F78091C00087FFEFCFBE
:10F4900014BA6BC08FEF809301010FC080910201FD
:10F4A00080958093020180E090E0E0EDF7E03197F5
:10F4B000F1F70196883C9105C1F78091C00087FF64
:10F4C000EDCF1092020151C08FEF809304010FC065
:10F4D0008091050180958093050180E090E0E0ED4A
:10F4E000F7E03197F1F70196883C9105C1F78091DB
:10F4F000C00087FFEDCF1092050137C08FEF8093DA
:10F5000007010FC08091080180958093080180E079
:10F5100090E0E0EDF7E03197F1F70196883C910536
:10F52000C1F78091C00087FFEDCF109208011DC088
:10F530008FEF80930A010FC080910B01809580931B
:10F540000B0180E090E0E0EDF7E03197F1F70196F4
:10F55000883C9105C1F78091C00087FFEDCF1092E4
:10F560000B0103C085E292EEEEC98091C00087FFD7
:10F57000FCCF8091C600EAC988E392EEE4C98CE131
:10F5800091EEE1C988249924933011F1943028F444
:10F59000913089F09230B8F408C0953061F195301F
:10F5A000F0F0963009F048C043C02B3109F042C951
:10F5B00091E06BE13FC96227C15DDE4F2883CF52E6
:10F5C000D14092E037C9B22FA0E0622793E032C960
:10F5D000822F90E0A82BB92B622794E02BC92E3004
:10F5E00009F039C3622795E0C05DDE4F19821882A9
:10F5F000C053D1401FC9E1E0F0E0EC0FFD1FC05D3A
:10F60000DE4F08811981C053D140E00FF11F2083E4
:10F610000F5F1F4FC05DDE4F19830883C053D14079
:10F6200062270A171B0709F005C9D80196E002C92D
:10F63000261709F010C303C0973009F0FBC87724E0
:10F640009981933109F412C19431C8F4963009F4C8
:10F65000D8C0973050F4923009F406C1933009F4C1
:10F660006DC0913009F059C253C0913109F477C08F
:10F67000923108F0BBC0903109F04FC2F5C098310B
:10F6800009F487C0993150F4953109F4EFC09531F0
:10F6900008F4C6C1963109F040C2C2C19A3109F4DA
:10F6A0006CC09A3108F491C09B3109F45BC09D3164
:10F6B00009F033C29D81903359F48F81882311F46E
:10F6C0009EE11CC0813011F091E018C098E916C08D
:10F6D000892F807591F0903539F4E0E0F0E089E011
:10F6E0008093570094910AC0983539F4E3E0F0E034
:10F6F00089E080935700949101C090E01A821B82A8
:10F700008D818C831D829E831F8227E030E009C299
:10F710001A8288E08B8381E48C8386E58D8382E581
:10F720008E8389E48F8383E5888780E589878FE5E9
:10F730008A8782E38B872BE030E0F3C18A818139AD
:10F7400041F0823941F0803911F48FE005C080E04A
:10F7500003C082E001C08AE01A828B8344C0772410
:10F76000739482C08D81882311F48EE12CC0813086
:10F7700011F081E028C088E926C01A82E1E0F0E0BB
:10F7800089E08093570084918B831C8224E030E0D1
:10F79000C8C18B81803589F48C81883039F4E2E0EE
:10F7A000F0E089E08093570084910DC0E0E0F0E044
:10F7B00089E080935700849106C0E3E0F0E089E09F
:10F7C0008093570084911A82DFCF8D81836C99E0FA
:10F7D000E1E0F0E0082E90935700E89507B600FCB2
:10F7E000FDCF1A821B8223E030E09BC180EC8A832C
:10F7F000CE5CDE4F188219821A821B82C253D1401E
:10F800008EC18A8190E0A0E0B0E0582F44273327D2
:10F8100022278B8190E0A0E0B0E0DC0199278827C7
:10F82000282B392B4A2B5B2B8D8190E0A0E0B0E098
:10F83000282B392B4A2B5B2B8C8190E0A0E0B0E089
:10F84000BA2FA92F982F8827282B392B4A2B5B2BCF
:10F85000220F331F441F551FC05EDE4F288339839C
:10F860004A835B83C052D1401A8259C13A81C95C34
:10F87000DE4F3883C753D140CA5CDE4F1882C6536F
:10F88000D1408B81C82EDD24CA5CDE4F488159816E
:10F89000C653D140C42AD52A933109F082C0CE5C28
:10F8A000DE4F88819981AA81BB81C253D1408050AB
:10F8B000904CA340B04030F583E0CE5CDE4FE88052
:10F8C000F9800A811B81C253D140F70100935B008C
:10F8D00080935700E89507B600FCFDCFCE5CDE4F65
:10F8E000088119812A813B81C253D14000501F4FAA
:10F8F0002F4F3F4FCE5CDE4F088319832A833B8313
:10F90000C253D140C05EDE4F488159816A817B81FC
:10F91000C052D140DE011B9631E08C9111962C91A2
:10F9200011971296C75CDE4F2883C953D140C85C3B
:10F93000DE4F1882C853D14090E0C85CDE4FE881AA
:10F94000F981C853D1408E2B9F2B0C01FA01609393
:10F950005B0030935700E89511244E5F5F4F6F4F67
:10F960007F4F0EEFE02E0FEFF02ECE0CDF1CC114F8
:10F97000D10499F685E0C05EDE4F088119812A81A5
:10F980003B81C052D140F80120935B008093570027
:10F99000E89507B600FCFDCF81E180935700E8951C
:10F9A00035C0C05EDE4F88819981AA81BB81C0527B
:10F9B000D140B695A795979587957C018601ABE0D8
:10F9C000AA2EB12CAC0EBD1E0BC0D5016D915D01F0
:10F9D000C7010F947FFE0894E11CF11C01501040F8
:10F9E0000115110591F7A60160E070E0440F551F65
:10F9F000661F771FC05EDE4FE880F9800A811B8199
:10FA0000C052D1404E0D5F1D601F711F1A82C05E33
:10FA1000DE4F488359836A837B83C052D1407FC0C5
:10FA2000FA80C55CDE4FF882CB53D140C65CDE4F16
:10FA30001882CA53D1408B81C82EDD24C65CDE4FAC
:10FA400008811981CA53D140C02AD12A1A828981DA
:10FA5000BE016D5F7F4F843121F59601C05EDE4FA0
:10FA6000E880F9800A811B81C052D1400BBFF701A9
:10FA700087919691DB018C9311969C936E5F7F4FDB
:10FA8000D801C7010296A11DB11DC05EDE4F88835B
:10FA90009983AA83BB83C052D14022503040F1F6F3
:10FAA00036C0C05EDE4F288139814A815B81C052F9
:10FAB000D1400894C108D108760100E010E0089414
:10FAC000C11CD11C0894E11CF11C011D111DE20E8A
:10FAD000F31E041F151F21BDBB27A52F942F832FB5
:10FAE00082BD2F5F3F4F4F4F5F4FF89A80B5DB01CC
:10FAF0008D93BD012E153F054007510761F7C05E8C
:10FB0000DE4F288339834A835B83C052D1409601FC
:10FB10002D5F3F4FFB01108204C080EC8A8322E0FE
:10FB200030E08BE18093C6008091C00086FFFCCF5F
:10FB30008091C00080648093C000C15DDE4FF88179
:10FB4000CF52D140F093C6008091C00086FFFCCF19
:10FB50008091C00080648093C000432F3093C60022
:10FB60008091C00086FFFCCF8091C00080648093AC
:10FB7000C000922F2093C6008091C00086FFFCCF6A
:10FB80008091C00080648093C0008EE08093C600A6
:10FB90008091C00086FFFCCF8091C000806480937C
:10FBA000C00065E1C15DDE4FE880CF52D1406E25D7
:10FBB00069276427FE01319610C090819093C6009A
:10FBC0008091C00086FFFCCF31968091C000806498
:10FBD0008093C0006927215030402115310569F715
:10FBE0006093C6008091C00086FFFCCF8091C0006A
:10FBF00080648093C00085B1805885B9772081F4F6
:10FC0000C15DDE4F0881CF52D1400F5FC15DDE4F35
:10FC10000883CF52D14090E0A0E0B0E00D941AF4F8
:10FC200027982F9880E090E020ED37E0F901319798
:10FC3000F1F7019684369105C9F700008091C00064
:10FC40008D7F8093C00081E180935700E895EE2777
:10FC5000FF270994FFCF90E00D941AF497FB092E2B
:10FC600007260AD077FD04D02ED006D000201AF443
:10FC7000709561957F4F0895F6F7909581959F4F08
:10FC80000895A1E21A2EAA1BBB1BFD010DC0AA1FDD
:10FC9000BB1FEE1FFF1FA217B307E407F50720F0F5
:10FCA000A21BB30BE40BF50B661F771F881F991F70
:10FCB0001A9469F760957095809590959B01AC01B9
:10FCC000BD01CF010895AA1BBB1B51E107C0AA1FAC
:10FCD000BB1FA617B70710F0A61BB70B881F991FED
:10FCE0005A95A9F780959095BC01CD010895F99991
:10FCF000FECF92BD81BDF89A992780B50895262F31
:10FD0000F999FECF1FBA92BD81BD20BD0FB6F89400
:0EFD1000FA9AF99A0FBE01960895F894FFCF63
:00000001FF
