:100000000C943F010C9470010C9470010C947001DD
:100010000C9470010C9470010C9470010C9470019C
:100020000C9470010C9470010C9470010C9470018C
:100030000C9470010C9470010C9470010C9470017C
:100040000C9470010C9470010C9470010C9470016C
:100050000C9470010C9470010C9470010C946E0659
:100060000C9470010C9438060C940E060C947001DC
:100070000C9470010C9470010C9470010C9470013C
:100080000C9470010C9470010C9470010C9470012C
:100090000C9470010C9470010C9470010C9470011C
:1000A0000C9470010C9470010C9470010C9470010C
:1000B0000C9470010C9470010C9470010C947001FC
:1000C0000C9470010C9470010C9470010C947001EC
:1000D0000C9470010C9470010C9470010C947001DC
:1000E0000C9470010C949F010C9415030C9406035E
:1000F0000C9472010C9455020C940A030C94C201E6
:100100000C947B050C942D030C9441030C941B035D
:100110000C9412030C9437030C94E7020C9408021D
:100120000C94AE010C94B8060C9445030C943B035C
:100130000C94F7050C94D0010C946B050C942503DA
:100140000C94EC020C948B050C940E030C9433036A
:100150000C94C3050C941F030C9429030000200089
:100160002300260029002C002F003200000100008F
:1001700003010601090100000A0B02090C0D0E081B
:100180000703040100000000000000000000000060
:10019000000000000000000000000000000000005F
:1001A000000012111000000000000000000000001C
:1001B000000000000000000000000000000022001D
:1001C000250028002B002E00310034000201000021
:1001D000050108010B0100002100240027002A006E
:1001E0002D003000330001010000040107010A0165
:1001F00005050505070508080808020202020A0AA3
:1002000008080404040401010101010101010303C0
:10021000030303030303040707070C0C0C0C0C0C6B
:100220000C0C0202020206060606060606060B0B68
:100230000B0B0B0B0B0B01021020200808102040A9
:10024000102040800201020108040201010204089A
:100250001020408080402010080402018004020128
:100260008040201008040201080402010102040871
:10027000102040800102040810204080B80611249C
:100280001FBECFEFD1E2DEBFCDBF00E00CBF13E059
:10029000A0E0B2E0EEEFF0E100E00BBF02C007909B
:1002A0000D92A433B107D9F724E0A4E3B3E001C071
:1002B0001D92AB38B207E1F711E0CFE3D1E000E0E7
:1002C00006C021970109802FFE010E947508CE33D8
:1002D000D10780E00807A9F70E94FD060C947D086D
:1002E0000C940000AF92BF92CF92DF92EF92FF92F8
:1002F0000F931F93CF93DF936C017B018B01040F4E
:10030000151FEB015E01AE18BF08C017D10759F0E9
:100310006991D601ED91FC910190F081E02DC6012B
:100320001995892B79F7C501DF91CF911F910F9115
:10033000FF90EF90DF90CF90BF90AF900895FC01B9
:10034000538D448D252F30E0842F90E0821B930B3A
:10035000541710F0CF96089501970895FC01918DE0
:10036000828D981761F0A28DAE0FBF2FB11D5D96E3
:100370008C91928D9F5F9F73928F90E008958FEF85
:100380009FEF0895FC01918D828D981731F0828D39
:10039000E80FF11D858D90E008958FEF9FEF089590
:1003A000FC01918D228D892F90E0805C9F4F821BF4
:1003B00091098F739927089583E593E00E94D001F6
:1003C00021E0892B09F420E0822F0895FC01A48DFF
:1003D000A80FB92FB11DA35ABF4F2C91848D90E067
:1003E00001968F739927848FA689B7892C93A0894A
:1003F000B1898C91837080648C93938D848D9813D4
:1004000006C00288F389E02D80818F7D8083089566
:10041000EF92FF920F931F93CF93DF93EC0181E054
:10042000888F9B8D8C8D98131AC0E889F9898081FB
:1004300085FF15C09FB7F894EE89FF896083E8892E
:10044000F98980818370806480839FBF81E090E020
:10045000DF91CF911F910F91FF90EF900895F62EAD
:100460000B8D10E00F5F1F4F0F731127E02E8C8D47
:100470008E110CC00FB607FCFACFE889F98980818C
:1004800085FFF5CFCE010E94E601F1CFEB8DEC0F99
:10049000FD2FF11DE35AFF4FF0829FB7F8940B8FA9
:1004A000EA89FB8980818062CFCFCF93DF93EC0113
:1004B000888D8823B9F0AA89BB89E889F9898C914C
:1004C00085FD03C0808186FD0DC00FB607FCF7CF08
:1004D0008C9185FFF2CF808185FFEDCFCE010E9408
:1004E000E601E9CFDF91CF91089580E090E0892B7C
:1004F00029F00E94DC0181110E94000080E090E060
:10050000892B49F080E090E0892B29F00E940000BF
:1005100081110E94000080E090E0892B49F080E08A
:1005200090E0892B29F00E94000081110E940000B8
:1005300080E090E0892B49F080E090E0892B29F061
:100540000E94000081110C94000008952FB7F894C8
:100550006091390370913A0380913B0390913C0381
:100560002FBF0895CF93DF93DC0113962C9113973F
:1005700030E0F901EA58FE4F8491F901EA5CFD4F41
:10058000949120513E4FF9012491222309F481C016
:10059000882311F181508231F8F4E82FF0E08827A8
:1005A000EB52FD4F8F4F0C9475080E031203E702B8
:1005B00006030A03EC0215031B031F03250329038B
:1005C0002D0333033703EC023B03410345038091C2
:1005D00080008F7780938000E22FF0E0EE0FFF1F06
:1005E000E45AFE4FC591D491E8819E2331E020E08A
:1005F00009F430E0832F922F12962C91223010F4C0
:10060000F1E08F278170DF91CF9108958091800074
:100610008F7DE0CF80918000877FDCCF84B58F779E
:1006200084BDDACF84B58F7DFBCF8091B0008F770A
:100630008093B000D1CF8091B0008F7DF9CF8091B1
:1006400090008F7780939000C7CF809190008F7D2E
:10065000F9CF80919000877FF5CF8091A0008F77B0
:100660008093A000B9CF8091A0008F7DF9CF8091B9
:10067000A000877FF5CF809120018F7780932001A4
:10068000ABCF809120018F7DF9CF80912001877FB2
:10069000F5CF90E080E0B0CF0F931F93CF93DF931F
:1006A000EC01888199818130910581F130F00297C8
:1006B00009F474C01982188224C08C859D85892B09
:1006C00089F00E94A6020A891B892C893D89601B3A
:1006D000710B820B930B683E73408105910510F0FE
:1006E0001D861C86CE010E94B202882351F00E9412
:1006F000A6026E877F87888B998B81E090E0998333
:100700008883DF91CF911F910F9108950E94A602D7
:100710000E851F8528893989AB01BC01401B510B0F
:10072000620B730B8E819F81B0E0A0E048175907E0
:100730006A077B0730F3CE010E94B202882309F4D6
:10074000B9CF1B861A868E8D8E7F86608E8F8C85A4
:100750009D85892B31F40E94A6026A8B7B8B8C8B42
:100760009D8B888599850196998788878C859D853D
:1007700001969D878C87EE89FF89309711F0CE0115
:1007800019958C859D85029730F0EC8DFD8D309705
:1007900011F0CE01199582E090E0B1CFCE010E9418
:1007A000B2028823C9F10E94A6020E851F852889FE
:1007B0003989AB01BC01401B510B620B730B8C815F
:1007C0009D81B0E0A0E0481759076A077B0708F44D
:1007D00098CF0E94A6020E851F8528893989DC01E1
:1007E000CB01801B910BA20BB30B2A853B85820F9B
:1007F000931F9B878A870E94A6026E877F87888BBC
:10080000998BE88DF98D309711F0CE0119958E8D69
:100810008B7F81608E8F75CFEA8DFB8D309709F4C9
:1008200049CFCE01199546CFCF93DF93DC011196C6
:100830001C921E92262F30E0F901EA5CFD4F849154
:1008400020513E4FF90124912223C9F030E0220FBC
:10085000331FF901EA52FE4F45915491F901E454D6
:10086000FE4FC591D4912FB7F894FA013081982F9B
:10087000909593239083E8818E2B88832FBF1196C8
:100880001C921E921E961D921D921D921C925197B3
:1008900052961D921D921D921C92559713966C9321
:1008A000139781E012968C93129788E893E115963E
:1008B0009C938E93149784E190E017969C938E936B
:1008C000169719961C921E9218971B961C921E92B0
:1008D0001A971D961C921E921C9757961C921E9258
:1008E000569759961C921E9258975B961C921E9290
:1008F0005A975D961C921E925C975E961C92DF91B1
:10090000CF9108950F931F93CF93DF930FE313E0DD
:10091000C2E0D0E0CE010E943D08F80181938F0132
:100920002196C631D105B1F78FE393E0DF91CF91E6
:100930001F910F9108950F931F93CF93DF938C0115
:10094000EB010E943D088883C80101960E943D0882
:100950008983CE01DF91CF911F910F910895FC0102
:1009600001900020E9F73197AF01481B590BBC01FA
:1009700083E593E00C9472018F929F92AF92BF92A5
:100980000F931F93CF93DF93CDB7DEB7A1970FB629
:10099000F894DEBF0FBECDBF19A2423008F44AE082
:1009A0008E010F5D1F4F842E912CB12CA12CA5011F
:1009B00094010E945308E62FB901CA01EA30F4F409
:1009C000E05DD801EE938D01232B242B252B79F7A5
:1009D00090E080E0109719F0CD010E94AF04A1963D
:1009E0000FB6F894DEBF0FBECDBFDF91CF911F9140
:1009F0000F91BF90AF909F908F900895E95CE1CFE9
:100A0000CF92DF92EF92FF92CF93DF936B017C0145
:100A10006DE283E593E00E940802EC0166277727E8
:100A2000CB016C197D098E099F094AE00E94BC0424
:100A30008C0F9D1FDF91CF91FF90EF90DF90CF90B3
:100A40000895CF93DF93BC01990F880B990B97FF03
:100A50000CC00E940005EC0188E292E00E94AF0405
:100A60008C0F9D1FDF91CF9108954AE00E94BC0436
:100A7000F2CFCF93DF930E94AF04EC0188E292E0C3
:100A80000E94AF048C0F9D1FDF91CF910895FF92BC
:100A90000F931F93CF93DF93EC018B01FB01F08049
:100AA0000E943D08F81621F06F2DCE010E944508E6
:100AB000F801F1802196CE010E943D08F81621F040
:100AC0006F2DCE010E944508C801DF91CF911F9183
:100AD0000F91FF90089581E090E090933E03809302
:100AE0003D036DE373E090E080E00E9447058BE2F8
:100AF00092E00C94390582E090E090933E0380935D
:100B00003D036DE373E090E080E00E9447058DE3D4
:100B100092E00C9439058091000290910102880FB7
:100B2000991F909301028093000260E072E089E1D6
:100B300090E00E9447058FE492E00C943905DF9223
:100B4000EF92FF920F931F93CF93DF937C018C0161
:100B5000C2E0D0E0F801D1908F01CE010E943D08A3
:100B6000D81621F06D2DCE010E9445082196C63180
:100B7000D10581F7C701DF91CF911F910F91FF90B0
:100B8000EF90DF900895CF93DF93CDB7DEB76497F2
:100B90000FB6F894DEBF0FBECDBF83E090E0909318
:100BA0003E0380933D036DE373E090E080E00E949C
:100BB000470587E692E00E94390584E1E2E0F2E031
:100BC000DE01119601900D928A95E1F7CE01019612
:100BD0000E949F0589E792E00E94390564960FB64E
:100BE000F894DEBF0FBECDBFDF91CF9108950E9474
:100BF0008204EFE3F3E081919191DF0112970A966D
:100C00008D939C9383E0E335F807A9F78FE393E096
:100C10000E949F0589E792E00C9439051F920F927C
:100C20000FB60F9211240BB60F922F933F934F9351
:100C30005F936F937F938F939F93AF93BF93EF9344
:100C4000FF9383E593E00E94E601FF91EF91BF914E
:100C5000AF919F918F917F916F915F914F913F9154
:100C60002F910F900BBE0F900FBE0F901F901895F5
:100C70001F920F920FB60F9211240BB60F922F9363
:100C80008F939F93EF93FF93E0916303F09164033D
:100C90008081E0916903F0916A0382FD1DC090811B
:100CA00080916C038F5F8F7320916D03821741F0E9
:100CB000E0916C03F0E0ED5AFC4F958F80936C034C
:100CC000FF91EF919F918F912F910F900BBE0F90FD
:100CD0000FBE0F901F9018958081F2CF1F920F9238
:100CE0000FB60F9211242F933F938F939F93AF933F
:100CF000BF938091390390913A03A0913B03B09147
:100D00003C033091380323E0230F2D3758F501962B
:100D1000A11DB11D209338038093390390933A03AA
:100D2000A0933B03B0933C0380913403909135032F
:100D3000A0913603B09137030196A11DB11D809398
:100D4000340390933503A0933603B0933703BF91D8
:100D5000AF919F918F913F912F910F900FBE0F9068
:100D60001F90189526E8230F0296A11DB11DD2CF22
:100D7000E3E5F3E01382128288EE93E0A0E0B0E0B6
:100D800084839583A683B7838AE192E091838083ED
:100D900085EC90E09587848784EC90E09787868740
:100DA00080EC90E0918B808B81EC90E0938B828B38
:100DB00082EC90E0958B848B86EC90E0978B868B11
:100DC000118E128E138E148E67E38CE694E00E94CF
:100DD000140468E38DE494E00E94140469E38EE255
:100DE00094E00E9414046AE38FE094E00E941404EB
:100DF0006BE380EF93E00C941404789484B58260E4
:100E000084BD84B5816084BD85B5826085BD85B5AE
:100E1000816085BD80916E00816080936E0010922C
:100E200081008091810082608093810080918100A7
:100E30008160809381008091800081608093800038
:100E40008091B10084608093B1008091B000816096
:100E50008093B00080919100826080939100809196
:100E600091008160809391008091900081608093D7
:100E700090008091A10082608093A1008091A100E8
:100E800081608093A1008091A00081608093A00088
:100E900080912101826080932101809121018160F4
:100EA00080932101809120018160809320018091B5
:100EB0007A00846080937A0080917A0082608093C7
:100EC0007A0080917A00816080937A0080917A0024
:100ED000806880937A001092C100E0916303F091E2
:100EE000640382E08083E0915F03F09160031082ED
:100EF000E0916103F09162038FEC808310926B03A9
:100F0000E0916703F091680386E08083E0916503D8
:100F1000F0916603808180618083E0916503F091A8
:100F20006603808188608083E0916503F0916603A9
:100F3000808180688083E0916503F0916603808101
:100F40008F7D80838AE292E00E9439058BE695E0EE
:100F500090938304809382048BE795E090936404DC
:100F60008093630483EC95E090934504809344045C
:100F70008BE895E0909326048093250487EF95E015
:100F800090930704809306046DE373E090E080E0A3
:100F90000E949B0480913D0390913E03019703972B
:100FA00008F062C088E992E00E94AF0480913D039E
:100FB00090913E030E94210560E072E089E190E09B
:100FC0000E949B04809100029091010297FF06C04D
:100FD00081E090E0909301028093000289EF92E01B
:100FE0000E94AF0480910002909101020E942105AD
:100FF0000E94820489E193E00E94AF040FE313E0B2
:10100000D0E0C0E0F801619171918F01072E000CD2
:10101000880B990B97FF2DC00E940005C930D105A0
:1010200021F081E393E00E94AF042196CA30D105FC
:1010300049F78AE292E00E9439058CE694E00E942A
:101040004C038DE494E00E944C038EE294E00E94F5
:101050004C038FE094E00E944C0380EF93E00E94E9
:101060004C030E947502E9CF80EC92E00E943905A2
:10107000A3CF4AE00E94BC04D1CFF999FECF92BD24
:1010800081BDF89A992780B50895262FF999FECF4A
:101090001FBA92BD81BD20BD0FB6F894FA9AF99A95
:1010A0000FBE01960895A1E21A2EAA1BBB1BFD01DB
:1010B0000DC0AA1FBB1FEE1FFF1FA217B307E40737
:1010C000F50720F0A21BB30BE40BF50B661F771F8F
:1010D000881F991F1A9469F760957095809590956F
:1010E0009B01AC01BD01CF010895EE0FFF1F881FCA
:0E10F0008BBF0790F691E02D1994F894FFCF76
:1010FE0001004300110035005A004F00150040005A
:10110E00530045002A0000000000080272019F01F2
:10111E005502D001AE01C2010D0A0053616C766515
:10112E0069206F20626F74616F2031210053616CF2
:10113E00766569206F20626F74616F2032210053D3
:10114E00616C766569206F206D756C7469706C6961
:10115E006361646F72210053616C766569206F2044
:10116E00626F74616F2033210053616C7665692064
:10117E006E6F766F732076616C6F726573206E6121
:10118E00206C697374612100556C74696D6F2062F7
:10119E006F74616F207072657373696F6E61646FC7
:1011AE0020616E746572696F6D656E74653A2000AC
:1011BE004E656E68756D206461646F2073616C7628
:1011CE006F2061696E646120736F627265206F209B
:1011DE00756C74696D6F20626F74616F20707265CB
:1011EE007373696F6E61646F00556C74696D6F20F7
:1011FE0076616C6F7220646F206D756C7469706CA3
:10120E00696361646F723A200056616C6F72657328
:10121E00206E6F20656E64657265636F20323A20B2
:04122E00002C200070
:00000001FF
