:100000000C9439010C946A010C946A010C946A01F5
:100010000C946A010C946A010C946A010C946A01B4
:100020000C946A010C946A010C946A010C946A01A4
:100030000C946A010C946A010C946A010C946A0194
:100040000C946A010C946A010C946A010C946A0184
:100050000C946A010C946A010C946A010C94AD052D
:100060000C946A010C9477050C944D050C946A016C
:100070000C946A010C946A010C946A010C946A0154
:100080000C946A010C946A010C946A010C946A0144
:100090000C946A010C946A010C946A010C946A0134
:1000A0000C946A010C946A010C946A010C946A0124
:1000B0000C946A010C946A010C946A010C946A0114
:1000C0000C946A010C946A010C946A010C946A0104
:1000D0000C946A010C946A010C946A010C946A01F4
:1000E0000C946A010C94F0030C94FE020C94D00260
:1000F0000C94CC020C94C4020C94C8020C94990188
:100100000C94F1020C94E7020C94A8010C94E30205
:100110000C94D9020C9402020C94EB020C94FF0292
:100120000C94F5020C94D3020C9430050C94CA0183
:100130000C9403030C94BE020C94DD020C94F9029F
:100140000C94BC010C9433060C946C010C944F027B
:1001500000002100240027002A002D003000330079
:1001600001010000040107010A010000220025002E
:1001700028002B002E003100340002010000050190
:1001800008010B01000020002300260029002C009C
:100190002F003200000100000301060109010505DE
:1001A0000505070508080808020202020A0A0808ED
:1001B000040404040101010101010101030303031B
:1001C00003030303040707070C0C0C0C0C0C0C0CAA
:1001D0000202020206060606060606060B0B0B0BBB
:1001E0000B0B0B0B010210202008081020401020E0
:1001F00040800201020108040201010204081020EB
:1002000040808040201008040201800402018040E8
:100210002010080402010804020101020408102051
:100220004080010204081020408000000A0B0209EF
:100230000C0D0E0807030401000000000000000080
:1002400000000000000000000000000000000000AE
:10025000000000000000121110000000000000006B
:10026000000000000000000000000000000000008E
:10027000330611241FBECFEFD1E2DEBFCDBF00E0B9
:100280000CBF23E0ACE1B2E001C01D92A932B2077D
:10029000E1F712E0A0E0B2E0EAE7F1E100E00BBF35
:1002A00002C007900D92AC31B107D9F711E0C9E354
:1002B000D1E000E006C021970109802FFE010E94D5
:1002C000B308C833D10780E00807A9F70E944D079B
:1002D0000C94BB080C940000AF92BF92CF92DF92B7
:1002E000EF92FF920F931F93CF93DF936C017B01EB
:1002F0008B01040F151FEB015E01AE18BF08C0177C
:10030000D10759F06991D601ED91FC910190F081EE
:10031000E02DC6011995892B79F7C501DF91CF91A1
:100320001F910F91FF90EF90DF90CF90BF90AF9013
:100330000895FC01538D448D252F30E0842F90E0EB
:10034000821B930B541710F0CF96089501970895D0
:10035000FC01918D828D981761F0A28DAE0FBF2F99
:10036000B11D5D968C91928D9F5F9F73928F90E0EF
:1003700008958FEF9FEF0895FC01918D828D98175E
:1003800031F0828DE80FF11D858D90E008958FEF9B
:100390009FEF0895FC01918D228D892F90E0805C64
:1003A0009F4F821B91098F739927089589E292E0EC
:1003B0000E94CA0121E0892B09F420E0822F0895D0
:1003C000FC01A48DA80FB92FB11DA35ABF4F2C91CA
:1003D000848D90E001968F739927848FA689B789C1
:1003E0002C93A089B1898C91837080648C93938DB8
:1003F000848D981306C00288F389E02D80818F7D5B
:1004000080830895EF92FF920F931F93CF93DF9312
:10041000EC0181E0888F9B8D8C8D98131AC0E88940
:10042000F989808185FF15C09FB7F894EE89FF890F
:100430006083E889F98980818370806480839FBFAD
:1004400081E090E0DF91CF911F910F91FF90EF90AD
:100450000895F62E0B8D10E00F5F1F4F0F731127BD
:10046000E02E8C8D8E110CC00FB607FCFACFE889F8
:10047000F989808185FFF5CFCE010E94E001F1CF9F
:10048000EB8DEC0FFD2FF11DE35AFF4FF0829FB76C
:10049000F8940B8FEA89FB8980818062CFCFCF935C
:1004A000DF93EC01888D8823B9F0AA89BB89E8899C
:1004B000F9898C9185FD03C0808186FD0DC00FB642
:1004C00007FCF7CF8C9185FFF2CF808185FFEDCFC0
:1004D000CE010E94E001E9CFDF91CF91089580E045
:1004E00090E0892B29F00E94D60181110E94000022
:1004F00080E090E0892B49F080E090E0892B29F0A2
:100500000E94000081110E94000080E090E0892B91
:1005100049F080E090E0892B29F00E9400008111D1
:100520000E94000080E090E0892B49F080E090E09C
:10053000892B29F00E94000081110C94000008957D
:100540008150823108F05AC0E82FF0E08827E45546
:10055000FD4F8F4F0C94B308CC02D002BE02C402F0
:10056000C802FE02D302D902DD02E302E702EB0277
:10057000F102F502FE02F902FF02030380918000FE
:100580008F77809380000895809180008F7DF9CFD0
:1005900080918000877FF5CF84B58F7784BD0895E3
:1005A00084B58F7DFBCF8091B0008F778093B000B2
:1005B00008958091B0008F7DF9CF809190008F7762
:1005C000809390000895809190008F7DF9CF809165
:1005D0009000877FF5CF8091A0008F778093A00057
:1005E00008958091A0008F7DF9CF8091A000877F32
:1005F000F5CF809120018F7780932001089580911D
:1006000020018F7DF9CF80912001877FF5CFCF9397
:10061000DF93282F30E0F901E65DFD4F8491F90169
:10062000EC51FE4FD491F901E256FE4FC491CC2318
:10063000A1F081110E94A002EC2FF0E0EE0FFF1F4D
:10064000EC57FE4FA591B491EC91ED2381E090E041
:1006500009F480E0DF91CF91089580E090E0FACF37
:100660001F93CF93DF93282F30E0F901E65DFD4F14
:100670008491F901EC51FE4FD491F901E256FE4FFD
:10068000C491CC23A9F0162F81110E94A002EC2F57
:10069000F0E0EE0FFF1FE659FE4FA591B4918FB722
:1006A000F894EC91111108C0D095DE23DC938FBF34
:1006B000DF91CF911F910895DE2BF8CFCF93DF9379
:1006C00060E08CE00E94300360E088E00E9430032C
:1006D000C7E0D0E060E084E00E9430038091C60271
:1006E00090E00C2E02C0959587950A94E2F761E0A0
:1006F00080FF60E088E00E94300361E084E00E94B7
:100700003003219738F761E08CE0DF91CF910C94B2
:1007100030032FB7F89460912102709122028091EA
:100720002302909124022FBF0895FC018081823022
:1007300079F018F4813031F00895833079F0843005
:1007400099F0089570E0709389006093880008958F
:1007500070E070939D0060939C00089570E070932A
:10076000A9006093A800089570E0709399006093C9
:1007700098000895FC018081823049F118F481309D
:1007800031F008958330E9F08430F1F0089553E0BA
:1007900082E021E030E0F90102C0EE0FFF1F8A95F0
:1007A000E2F7CF014091C60201C0220F5A95EAF745
:1007B000623081F0842B209528232093C6020C946C
:1007C0005E0357E085E0E5CF56E080E0E2CF54E0FD
:1007D00081E0DFCF80958423822B8093C602EFCF08
:1007E000CF93C091000262E0C11101C061E088ECCA
:1007F00092E00E94BA0381E0C827C0930002CF9123
:100800000895CF93DF93EC018B810E9407039C0135
:100810008A81823028F481E0232B31F080E004C00B
:1008200081E021303105D1F7DF91CF9108950F9309
:100830001F93CF93DF93EC018881998181309105DB
:1008400081F130F0029709F474C01982188224C033
:100850008C859D85892B89F00E9489030A891B89D3
:100860002C893D89601B710B820B930B683E734092
:100870008105910510F01D861C86CE010E940104A1
:10088000882351F00E9489036E877F87888B998B1C
:1008900081E090E099838883DF91CF911F910F9140
:1008A00008950E9489030E851F8528893989AB0127
:1008B000BC01401B510B620B730B8E819F81B0E01A
:1008C000A0E0481759076A077B0730F3CE010E9462
:1008D0000104882309F4B9CF1B861A868E8D8E7F7A
:1008E00086608E8F8C859D85892B31F40E948903CB
:1008F0006A8B7B8B8C8B9D8B8885998501969987DC
:1009000088878C859D8501969D878C87EE89FF89D8
:10091000309711F0CE0119958C859D85029730F0A6
:10092000EC8DFD8D309711F0CE01199582E090E0AD
:10093000B1CFCE010E9401048823C9F10E9489032E
:100940000E851F8528893989AB01BC01401B510BDD
:10095000620B730B8C819D81B0E0A0E048175907B2
:100960006A077B0708F498CF0E9489030E851F85CC
:1009700028893989DC01CB01801B910BA20BB30BB9
:100980002A853B85820F931F9B878A870E94890354
:100990006E877F87888B998BE88DF98D309711F062
:1009A000CE0119958E8D8B7F81608E8F75CFEA8DEC
:1009B000FB8D309709F449CFCE01199546CFFC0144
:1009C00001900020E9F73197AF01481B590BBC019A
:1009D00089E292E00C946C018F929F92AF92BF9249
:1009E0000F931F93CF93DF93CDB7DEB7A1970FB6C9
:1009F000F894DEBF0FBECDBF19A2423008F44AE022
:100A00008E010F5D1F4F842E912CB12CA12CA501BE
:100A100094010E949108E62FB901CA01EA30F4F46A
:100A2000E05DD801EE938D01232B242B252B79F744
:100A300090E080E0109719F0CD010E94DF04A196AC
:100A40000FB6F894DEBF0FBECDBFDF91CF911F91DF
:100A50000F91BF90AF909F908F900895E95CE1CF88
:100A60008091010290910202C2968B3F910594F40D
:100A700090930202809301026091010288EC92E05F
:100A80000E94950385E192E00E94DF0488E192E0F4
:100A90000C94DF0482E390E0EBCF1F920F920FB62D
:100AA0000F9211240BB60F922F933F934F935F93A6
:100AB0006F937F938F939F93AF93BF93EF93FF9326
:100AC00089E292E00E94E001FF91EF91BF91AF9126
:100AD0009F918F917F916F915F914F913F912F9156
:100AE0000F900BBE0F900FBE0F901F9018951F9286
:100AF0000F920FB60F9211240BB60F922F938F9374
:100B00009F93EF93FF93E0913902F0913A02808135
:100B1000E0913F02F091400282FD1DC090818091E2
:100B200042028F5F8F7320914302821741F0E09160
:100B30004202F0E0E75DFD4F958F80934202FF9106
:100B4000EF919F918F912F910F900BBE0F900FBE41
:100B50000F901F9018958081F2CF1F920F920FB6C1
:100B60000F9211242F933F938F939F93AF93BF9333
:100B70008091210290912202A0912302B09124023F
:100B80003091200223E0230F2D3758F50196A11D47
:100B9000B11D209320028093210290932202A09302
:100BA0002302B093240280911C0290911D02A09117
:100BB0001E02B0911F020196A11DB11D80931C025F
:100BC00090931D02A0931E02B0931F02BF91AF919C
:100BD0009F918F913F912F910F900FBE0F901F907B
:100BE000189526E8230F0296A11DB11DD2CFCF93F1
:100BF000DF9390E0FC01EC51FE4F249182569E4F12
:100C0000FC0184918823C9F090E0880F991FFC01B2
:100C1000E05BFE4FA591B491FC01E659FE4FC591F2
:100C2000D49161110DC09FB7F8948C9120958223C7
:100C30008C938881282328839FBFDF91CF910895CB
:100C4000623051F49FB7F8943C91822F80958323B2
:100C50008C93E8812E2BEFCF8FB7F894EC912E2B4D
:100C60002C938FBFEACFDF92EF92FF920F931F93E7
:100C7000CF93DF93E9E2F2E01382128288EE93E0F1
:100C8000A0E0B0E084839583A683B78387E092E0F9
:100C90009183808385EC90E09587848784EC90E055
:100CA0009787868780EC90E0918B808B81EC90E039
:100CB000938B828B82EC90E0958B848B86EC90E01A
:100CC000978B868B118E128E138E148E1092C70204
:100CD000CAE0D3E01982188262E087E30E94F70538
:100CE000198218821E861F86188A198A1A8A1B8AF8
:100CF0001C8A1D8A87E38B83DD24D394DA8288E8FB
:100D0000E82E83E1F82EFD82EC8204E110E01F83DF
:100D10000E83198618861B861A861D861C861F8AD6
:100D20001E8A198E188E1B8E1A8E1D8E1C8E1E8E7C
:100D3000CBEED2E01982188262E088E30E94F705C8
:100D4000198218821E861F86188A198A1A8A1B8A97
:100D50001C8A1D8A88E38B83DA82FD82EC821F83E2
:100D60000E83198618861B861A861D861C861F8A86
:100D70001E8A198E188E1B8E1A8E1D8E1C8E1E8E2C
:100D8000CCECD2E01982188262E089E30E94F70578
:100D9000198218821E861F86188A198A1A8A1B8A47
:100DA0001C8A1D8A89E38B83DA82FD82EC821F8391
:100DB0000E83198618861B861A861D861C861F8A36
:100DC0001E8A198E188E1B8E1A8E1D8E1C8E1E8EDC
:100DD000EAECF2E083E08083D2E0D18361E08CE052
:100DE0000E94F70561E087E00E94F70561E088E076
:100DF0000E94F70561E084E00E94F7051092C602A8
:100E00000E945E0360E087E00E9430030E945E0360
:100E1000E0EAF0E0808181688083CAE0C093A100AD
:100E20001092A9001092A80061E086E00E94F705E8
:100E3000E8ECF2E084E08083D18361E08CE00E9402
:100E4000F70561E087E00E94F70561E088E00E9415
:100E5000F70561E084E00E94F7051092C6020E9447
:100E60005E0360E087E00E9430030E945E03E0E9D9
:100E7000F0E0808181688083C09391001092990096
:100E80001092980061E085E0DF91CF911F910F9162
:100E9000FF90EF90DF900C94F705789484B5826012
:100EA00084BD84B5816084BD85B5826085BD85B50E
:100EB000816085BD80916E00816080936E0010928C
:100EC0008100809181008260809381008091810007
:100ED0008160809381008091800081608093800098
:100EE0008091B10084608093B1008091B0008160F6
:100EF0008093B000809191008260809391008091F6
:100F00009100816080939100809190008160809336
:100F100090008091A10082608093A1008091A10047
:100F200081608093A1008091A00081608093A000E7
:100F30008091210182608093210180912101816053
:100F40008093210180912001816080932001809114
:100F50007A00846080937A0080917A008260809326
:100F60007A0080917A00816080937A0080917A0083
:100F7000806880937A001092C100E0913902F0916C
:100F80003A0282E08083E0913502F09136021082CD
:100F9000E0913702F09138028FEC80831092410289
:100FA000E0913D02F0913E0286E08083E0913B02B9
:100FB000F0913C02808180618083E0913B02F0915E
:100FC0003C02808188608083E0913B02F0913C028A
:100FD000808180688083E0913B02F0913C028081B7
:100FE0008F7D808361E08AEC92E00E94BA0361E029
:100FF00088EC92E00E94BA0366E98AEC92E00E94D3
:10100000950362E388EC92E00E94950380EF93E001
:10101000909321038093200380E395E09093020353
:1010200080930103C3E48AE093E00E9417048BEEEF
:1010300092E00E9417048CEC92E00E9417048091C9
:101040007B00886080937B00C0937C0080917A0055
:10105000806480937A0080917A0086FDFCCFE090D6
:101060007800F090790081E40E9407036C010E94EF
:1010700089034B015C018091250290912602A09189
:101080002702B091280288519C4FAF4FBF4F88155F
:101090009905AA05BB0508F041C027010F2C000CDB
:1010A000660877084AE0C301B201F7FE0DC06DE2A1
:1010B00089E292E00E94020266277727CB01641939
:1010C0007509860997094AE00E94EC0488E192E0DC
:1010D0000E94DF040D2C000CEE08FF084AE0C70157
:1010E000B601F7FE0DC06DE289E292E00E940202B5
:1010F00066277727CB016C197D098E099F094AE085
:101100000E94EC0488E192E00E94DF0480922502B4
:1011100090922602A0922702B09228020E946F02AB
:1011200082CFA1E21A2EAA1BBB1BFD010DC0AA1F74
:10113000BB1FEE1FFF1FA217B307E407F50720F040
:10114000A21BB30BE40BF50B661F771F881F991FBB
:101150001A9469F760957095809590959B01AC0104
:10116000BD01CF010895EE0FFF1F881F8BBF0790B1
:0A117000F691E02D1994F894FFCFDA
:10117A000132000000000002026C0199014F02CA0C
:0C118A0001A801BC016F69000D0A000003
:00000001FF
