:100000000C9439010C946A010C946A010C946A01F5
:100010000C946A010C946A010C946A010C946A01B4
:100020000C946A010C946A010C946A010C946A01A4
:100030000C946A010C946A010C946A010C946A0194
:100040000C946A010C946A010C946A010C946A0184
:100050000C946A010C946A010C946A010C942106B8
:100060000C946A010C94EB050C94C1050C946A0184
:100070000C946A010C946A010C946A010C946A0154
:100080000C946A010C946A010C946A010C946A0144
:100090000C946A010C946A010C946A010C946A0134
:1000A0000C946A010C946A010C946A010C946A0124
:1000B0000C946A010C946A010C946A010C946A0114
:1000C0000C946A010C946A010C946A010C946A0104
:1000D0000C946A010C946A010C946A010C946A01F4
:1000E0000C946A010C94F1020C9403030C94D90251
:1000F0000C94FE020C94F9020C94E7020C94410457
:100100000C946B060C944F020C946C010C94CA0175
:100110000C94C4020C94DD020C94F5020C94D302EE
:100120000C94BE020C9494050C94EB020C94020205
:100130000C94A8010C9499010C94FF020C94E30216
:100140000C94C8020C94D0020C94CC020C94BC0108
:10015000000020002300260029002C002F00320080
:100160000001000003010601090100002100240034
:1001700027002A002D003000330001010000040197
:1001800007010A0100002200250028002B002E0094
:100190003100340002010000050108010B010505D2
:1001A0000505070508080808020202020A0A0808ED
:1001B000040404040101010101010101030303031B
:1001C00003030303040707070C0C0C0C0C0C0C0CAA
:1001D0000202020206060606060606060B0B0B0BBB
:1001E0000B0B0B0B010210202008081020401020E0
:1001F00040800201020108040201010204081020EB
:1002000040808040201008040201800402018040E8
:100210002010080402010804020101020408102051
:100220004080010204081020408000000A0B0209EF
:100230000C0D0E0807030401000000000000000080
:1002400000000000000000000000000000000000AE
:10025000000000000000121110000000000000006B
:10026000000000000000000000000000000000008E
:100270006B0611241FBECFEFD1E2DEBFCDBF00E081
:100280000CBF23E0A0ECB2E001C01D92A43FB20776
:10029000E1F712E0A0E0B2E0E8EDF4E100E00BBF2E
:1002A00002C007900D92A03CB107D9F711E0C9E355
:1002B000D1E000E006C021970109802FFE010E94D5
:1002C000390AC833D10780E00807A9F70E94F4076C
:1002D0000C946A0A0C940000AF92BF92CF92DF9206
:1002E000EF92FF920F931F93CF93DF936C017B01EB
:1002F0008B01040F151FEB015E01AE18BF08C0177C
:10030000D10759F06991D601ED91FC910190F081EE
:10031000E02DC6011995892B79F7C501DF91CF91A1
:100320001F910F91FF90EF90DF90CF90BF90AF9013
:100330000895FC01538D448D252F30E0842F90E0EB
:10034000821B930B541710F0CF96089501970895D0
:10035000FC01918D828D981761F0A28DAE0FBF2F99
:10036000B11D5D968C91928D9F5F9F73928F90E0EF
:1003700008958FEF9FEF0895FC01918D828D98175E
:1003800031F0828DE80FF11D858D90E008958FEF9B
:100390009FEF0895FC01918D228D892F90E0805C64
:1003A0009F4F821B91098F73992708958CED92E0DE
:1003B0000E94CA0121E0892B09F420E0822F0895D0
:1003C000FC01A48DA80FB92FB11DA35ABF4F2C91CA
:1003D000848D90E001968F739927848FA689B789C1
:1003E0002C93A089B1898C91837080648C93938DB8
:1003F000848D981306C00288F389E02D80818F7D5B
:1004000080830895EF92FF920F931F93CF93DF9312
:10041000EC0181E0888F9B8D8C8D98131AC0E88940
:10042000F989808185FF15C09FB7F894EE89FF890F
:100430006083E889F98980818370806480839FBFAD
:1004400081E090E0DF91CF911F910F91FF90EF90AD
:100450000895F62E0B8D10E00F5F1F4F0F731127BD
:10046000E02E8C8D8E110CC00FB607FCFACFE889F8
:10047000F989808185FFF5CFCE010E94E001F1CF9F
:10048000EB8DEC0FFD2FF11DE35AFF4FF0829FB76C
:10049000F8940B8FEA89FB8980818062CFCFCF935C
:1004A000DF93EC01888D8823B9F0AA89BB89E8899C
:1004B000F9898C9185FD03C0808186FD0DC00FB642
:1004C00007FCF7CF8C9185FFF2CF808185FFEDCFC0
:1004D000CE010E94E001E9CFDF91CF91089580E045
:1004E00090E0892B29F00E94D60181110E94000022
:1004F00080E090E0892B49F080E090E0892B29F0A2
:100500000E94000081110E94000080E090E0892B91
:1005100049F080E090E0892B29F00E9400008111D1
:100520000E94000080E090E0892B49F080E090E09C
:10053000892B29F00E94000081110C94000008957D
:100540008150823108F05AC0E82FF0E08827E45546
:10055000FD4F8F4F0C94390ACC02D002BE02C40268
:10056000C802FE02D302D902DD02E302E702EB0277
:10057000F102F502FE02F902FF02030380918000FE
:100580008F77809380000895809180008F7DF9CFD0
:1005900080918000877FF5CF84B58F7784BD0895E3
:1005A00084B58F7DFBCF8091B0008F778093B000B2
:1005B00008958091B0008F7DF9CF809190008F7762
:1005C000809390000895809190008F7DF9CF809165
:1005D0009000877FF5CF8091A0008F778093A00057
:1005E00008958091A0008F7DF9CF8091A000877F32
:1005F000F5CF809120018F7780932001089580911D
:1006000020018F7DF9CF80912001877FF5CF1F9347
:10061000CF93DF93282F30E0F901E65DFD4F849101
:10062000F901EC51FE4FD491F901E256FE4FC4910D
:10063000CC23A9F0162F81110E94A002EC2FF0E02C
:10064000EE0FFF1FEC57FE4FA591B4918FB7F894B2
:10065000EC91111108C0D095DE23DC938FBFDF91A0
:10066000CF911F910895DE2BF8CFFF920F931F9328
:10067000CF93DF93082F162FF42EC22FD8E06C2FC4
:10068000F11015C06170802F0E940703C69561E0CC
:10069000812F0E94070360E0812F0E940703D15041
:1006A00071F7DF91CF911F910F91FF900895661F11
:1006B0006627661F802F0E940703CC0FE8CFCF93D9
:1006C000DF9360E08091B7030E940703C091C003ED
:1006D000D091C103C954DC4F2197CE01875B934071
:1006E00097FD09C02DA940E06091B9038091BB033B
:1006F0000E943503F1CF61E08091B703DF91CF9184
:100700000C940703CF93DF9390E0FC01EC51FE4F74
:10071000249182569E4FFC0184918823C9F090E079
:10072000880F991FFC01E659FE4FA591B491FC0179
:10073000EC57FE4FC591D49161110DC09FB7F8944D
:100740008C91209582238C938881282328839FBFB6
:10075000DF91CF910895623051F49FB7F8943C91A6
:10076000822F809583238C93E8812E2BEFCF8FB738
:10077000F894EC912E2B2C938FBFEACF3FB7F894CF
:100780008091CD029091CE02A091CF02B091D00283
:1007900026B5A89B05C02F3F19F00196A11DB11DDC
:1007A0003FBFBA2FA92F982F8827BC01CD01620F18
:1007B000711D811D911D42E0660F771F881F991FD3
:1007C0004A95D1F70895CF92DF92EF92FF92CF939F
:1007D000DF93C7EBD3E02091C0033091C103CE017A
:1007E000875B934082179307CCF560E08091B70355
:1007F0000E9407038091BF03811126C02DA540E010
:100800006091B9038091BB030E9435032DA940E09C
:100810006091B9038091BB030E94350361E0809130
:10082000B7030E9407030E94BE036B017C010E9474
:10083000BE036C197D098E099F09683E73408105CE
:100840009105A8F32196C7CF2DA940E06091B90387
:100850008091BB030E9435032DA5D9CFDF91CF91A5
:10086000FF90EF90DF90CF9008952FB7F8946091AC
:10087000C9027091CA028091CB029091CC022FBF25
:100880000895CF92DF92EF92FF920E9435046B01A0
:100890007C018091C4029091C502A091C602B091E2
:1008A000C7028C509E4FAF4FBF4F8C159D05AE05B4
:1008B000BF0550F48091D102882399F061E08DE06A
:1008C0000E9407031092D102C092C402D092C502C6
:1008D000E092C602F092C702FF90EF90DF90CF90B7
:1008E000089560E08DE00E94070381E08093D102CB
:1008F000EBCF0F931F93CF93DF93EC012B8130E06D
:10090000F901E65DFD4F8491F901EC51FE4F049130
:10091000F901E256FE4F14911123F1F081110E946A
:10092000A002E12FF0E0EE0FFF1FE05BFE4FA5916C
:10093000B491EC910E2331E020E009F430E0832FF4
:10094000922F2A81223010F421E082278170DF91DA
:10095000CF911F910F91089590E080E0F2CF0F9317
:100960001F93CF93DF93EC018881998181309105AA
:1009700081F130F0029709F474C01982188224C002
:100980008C859D85892B89F00E9435040A891B89F5
:100990002C893D89601B710B820B930B683E734061
:1009A0008105910510F01D861C86CE010E947904F8
:1009B000882351F00E9435046E877F87888B998B3E
:1009C00081E090E099838883DF91CF911F910F910F
:1009D00008950E9435040E851F8528893989AB0149
:1009E000BC01401B510B620B730B8E819F81B0E0E9
:1009F000A0E0481759076A077B0730F3CE010E9431
:100A00007904882309F4B9CF1B861A868E8D8E7FD0
:100A100086608E8F8C859D85892B31F40E943504EC
:100A20006A8B7B8B8C8B9D8B8885998501969987AA
:100A300088878C859D8501969D878C87EE89FF89A7
:100A4000309711F0CE0119958C859D85029730F075
:100A5000EC8DFD8D309711F0CE01199582E090E07C
:100A6000B1CFCE010E9479048823C9F10E943504D8
:100A70000E851F8528893989AB01BC01401B510BAC
:100A8000620B730B8C819D81B0E0A0E04817590781
:100A90006A077B0708F498CF0E9435040E851F85EE
:100AA00028893989DC01CB01801B910BA20BB30B88
:100AB0002A853B85820F931F9B878A870E94350476
:100AC0006E877F87888B998BE88DF98D309711F031
:100AD000CE0119958E8D8B7F81608E8F75CFEA8DBB
:100AE000FB8D309709F449CFCE01199546CFCF93AE
:100AF000DF93FC0101900020E9F73197AF01481B1B
:100B0000590BBC018CED92E00E946C01EC0142E0BB
:100B100050E06EE472E08CED92E00E946C018C0F6C
:100B20009D1FDF91CF910895CF92DF92EF92FF92B8
:100B30000E9435046B017C018091C0029091C1023A
:100B4000A091C202B091C3028C509E4FAF4FBF4FD5
:100B50008C159D05AE05BF0588F481E592E00E94E5
:100B60007705C092C002D092C102E092C202F09218
:100B7000C302FF90EF90DF90CF9008958EE792E050
:100B8000EECF1F920F920FB60F9211240BB60F9259
:100B90002F933F934F935F936F937F938F939F9385
:100BA000AF93BF93EF93FF938CED92E00E94E0012F
:100BB000FF91EF91BF91AF919F918F917F916F9135
:100BC0005F914F913F912F910F900BBE0F900FBEF1
:100BD0000F901F9018951F920F920FB60F9211242D
:100BE0000BB60F922F938F939F93EF93FF93E09108
:100BF000EC02F091ED028081E091F202F091F302BB
:100C000082FD1DC090818091F5028F5F8F732091CE
:100C1000F602821741F0E091F502F0E0E452FD4F58
:100C2000958F8093F502FF91EF919F918F912F9176
:100C30000F900BBE0F900FBE0F901F9018958081E4
:100C4000F2CF1F920F920FB60F9211242F933F9362
:100C50008F939F93AF93BF938091C9029091CA02E3
:100C6000A091CB02B091CC023091C80223E0230FB7
:100C70002D3758F50196A11DB11D2093C802809310
:100C8000C9029093CA02A093CB02B093CC02809188
:100C9000CD029091CE02A091CF02B091D0020196E8
:100CA000A11DB11D8093CD029093CE02A093CF02DF
:100CB000B093D002BF91AF919F918F913F912F91AF
:100CC0000F900FBE0F901F90189526E8230F0296E5
:100CD000A11DB11DD2CFDF92EF92FF920F931F9310
:100CE000CF93DF9300D01F92CDB7DEB71092DF0213
:100CF0001092DE0288EE93E0A0E0B0E08093E00284
:100D00009093E102A093E202B093E30288E292E0C2
:100D10009093DD028093DC0285EC90E09093E902F1
:100D20008093E80284EC90E09093EB028093EA02D7
:100D300080EC90E09093ED028093EC0281EC90E0E7
:100D40009093EF028093EE0282EC90E09093F10298
:100D50008093F00286EC90E09093F3028093F2028D
:100D60001092F5021092F6021092F7021092F80219
:100D70001C821B8284E090E09A8389839093B8035D
:100D80008093B70387E090E09093BA038093B90310
:100D900088E090E09093BC038093BB0361E084E023
:100DA0000E94820361E08091B9030E94820361E0A6
:100DB0008091BB030E9482031092BD0381E0809367
:100DC000BE038093BF03EEE3F2E024EE33E08191B3
:100DD00091918830910508F0F6C08A5C9D4FDC0146
:100DE0008C91D9018D939D01B2E0EE34FB0779F728
:100DF0001092C1031092C0031092C3031092C20359
:100E0000DE011196E4ECF3E090E080E030E020E0D9
:100E10008C014D915D91141615060CF0DCC0BA01E1
:100E2000620F731F0196693071050CF4CEC03093C8
:100E3000C1032093C0030093C2031093C30348E08F
:100E400050E06FEF70E08CEE93E00E94630A60E088
:100E50008091B7030E94070320E041E06091B9034D
:100E60008091BB030E94350320E041E06091B9030B
:100E70008091BB030E94350361E08091B7030E941B
:100E80000703109299031092980362E087E30E948F
:100E9000820310929903109298031092A603109265
:100EA000A7031092A8031092A9031092AA0310920C
:100EB000AB031092AC031092AD0387E380939B03C6
:100EC000DD24D394D0929A0388E8E82E83E1F82EAB
:100ED000F0929D03E0929C0304E110E010939F03C5
:100EE00000939E031092A1031092A0031092A303FB
:100EF0001092A2031092A5031092A4031092AF03C4
:100F00001092AE031092B1031092B0031092B3038B
:100F10001092B2031092B5031092B4031092B6036C
:100F200010927A031092790362E088E30E948203B0
:100F300010927A031092790310928703109288031B
:100F40001092890310928A0310928B0310928C03E3
:100F500010928D0310928E0388E380937C03D092CD
:100F60007B03F0927E03E0927D0310938003009355
:100F70007F031092820310928103109284031092D7
:100F800083031092860310928503109290031092AF
:100F90008F03109292031092910310929403109277
:100FA00093031092960310929503109297030F905B
:100FB0000F900F900F90DF91CF911F910F91FF90A5
:100FC000EF90DF90089580E00CCF318B208B419320
:100FD00051939B011DCF3093C1032093C003909385
:100FE000C3038093C2032BCFCF93DF9300D01F9214
:100FF0001F92CDB7DEB7789484B5826084BD84B586
:10100000816084BD85B5826085BD85B5816085BD03
:1010100080916E00816080936E00109281008091BB
:101020008100826080938100809181008160809343
:101030008100809180008160809380008091B10068
:1010400084608093B1008091B00081608093B00093
:1010500080919100826080939100809191008160E5
:1010600080939100809190008160809390008091A6
:10107000A10082608093A1008091A1008160809393
:10108000A1008091A00081608093A0008091210147
:1010900082608093210180912101816080932101F0
:1010A0008091200181608093200180917A0084608A
:1010B00080937A0080917A00826080937A00809198
:1010C0007A00816080937A0080917A0080688093B2
:1010D0007A001092C10061E08DE00E94820361E01D
:1010E0008DE00E94070384E995E09093AF0380931D
:1010F000AE0381E494E09093900380938F03E0919A
:10110000EC02F091ED0282E08083E091E802F09140
:10111000E9021082E091EA02F091EB028FEC808309
:101120001092F402E091F002F091F10286E08083E7
:10113000E091EE02F091EF02808180618083E09186
:10114000EE02F091EF02808188608083E091EE02F0
:10115000F091EF02808180688083E091EE02F0914F
:10116000EF0280818F7D80838AE0882E912CA12CD4
:10117000B12C8091BE03882309F448C00E94E30388
:1011800088E993E00E94AF0489E793E00E94AF04EE
:101190000E9435046B017C018091D8029091D902A4
:1011A000A091DA02B091DB028053984FAF4FBF4F4E
:1011B0008C159D05AE05BF0508F00BC184EA92E0D1
:1011C0000E9477054090D6025090D7022FEF421A26
:1011D000520A5092D7024092D602052C000C6608A3
:1011E00077084DB75EB75D834C83A3019201312C24
:1011F000212CC10101961C0157FF0BC05095409551
:10120000309521953F4F4F4F5F4FF3CF0E945F03C3
:10121000B7CF2A303105410551053CF0CA01B9016B
:10122000A50194010E941A0AE4CFEDB7FEB7E81BAE
:10123000F90B0FB6F894FEBF0FBEEDBF0DB71EB78A
:101240000F5F1F4F77FE46C0709460945094409497
:10125000411C511C611C711CF1E0FB839801220DA3
:10126000331D3A832983C301B201A50194010E9471
:101270001A0A605DE981FA816293FA83E9832901A0
:101280003A01E017F10779F7FB81FF2319F02DE20E
:10129000F80120838091C4039091C503DC0111976C
:1012A0004DB75EB7481B590B0FB6F8945EBF0FBE23
:1012B0004DBF2DB73EB72F5F3F4FBC016219730979
:1012C000F901AF01421B530B461757072CF450E2AC
:1012D0005193F7CF1B82C2CFAB01A417B5077CF0A7
:1012E00057FD0AC0FA01E61BF70BE00FF11F7080F3
:1012F000F901E40FF51F70824F5F5F4FEECFEDB73E
:10130000FEB7E81BF90B0FB6F894FEBF0FBEEDBF9A
:101310004DB75EB74F5F5F4FB901DA01FB01E21BCA
:10132000F30BE817F9075CF5FB011191BF01F0ED34
:10133000F10FFA3048F4E12F110FFF0BE651FE4F89
:10134000E081EC931196EACFFFE9F10FFA3130F426
:10135000E12F110FFF0BE156FE4FF2CFFFEBF10F24
:10136000FA3130F4E12F110FFF0BE154FE4FE8CFBB
:101370001D3219F4F2E0FC93E5CF1C92E3CF6091AB
:10138000BD03E091D403F091D503E451FC4FDA01A1
:101390009D01241B350B2817390734F42D91611159
:1013A00001C020952193F4CF2C813D810FB6F89494
:1013B0003EBF0FBE2DBF8091BE03882381F10E94E6
:1013C000E303C092D802D092D902E092DA02F092FE
:1013D000DB028091D2029091D302A091D402B0910D
:1013E000D50284529A4FAF4FBF4F8C159D05AE0565
:1013F000BF0590F48091D1028823A1F061E08DE0D7
:101400000E9407031092D102C092D202D092D3025E
:10141000E092D402F092D5020E946F02AACE0E94FE
:101420005F03CFCF60E08DE00E94070331E030938F
:10143000D102EACF052E97FB1EF400940E94310AD8
:1014400057FD07D00E94410A07FC03D04EF40C94CC
:10145000310A50954095309521953F4F4F4F5F4F42
:10146000089590958095709561957F4F8F4F9F4F10
:101470000895EE0FFF1F881F8BBF0790F691E02D98
:101480001994A1E21A2EAA1BBB1BFD010DC0AA1FB5
:10149000BB1FEE1FFF1FA217B307E407F50720F0DD
:1014A000A21BB30BE40BF50B661F771F881F991F58
:1014B0001A9469F760957095809590959B01AC01A1
:1014C000BD01CF010895DC0101C06D934150504032
:0814D000E0F70895F894FFCF46
:1014D800EE3E9C7A9E8EBC6E0C78AE1CEC2A3ACE00
:1014E800E68CB61E387C7E6C76DAFC60DAF266B67C
:1014F800BEE0FEE60000000002026C0199014F0206
:10150800CA01A801BC0180402010080402010000A3
:1015180001000200030004000500060007000D0A90
:1015280000566F63652061706572746F75206F2057
:10153800626F74616F203120636F6D2063616C6D21
:10154800612C206D7569746F2062656D2E00436192
:101558006C6D612C20636172612C20766169206456
:10156800657661676172206E6573736520626F745A
:10157800616F2100506173736172616D2D73652015
:101588006D616973203220736567756E646F7300CF
:00000001FF
